:020000040801F1
:10000000001C00204D01010815150108F10D010823
:1000100011150108CD0601089D2B01080000000004
:100020000000000000000000000000003B1B010871
:10003000E506010800000000BD150108991C010833
:10004000AD2B01086701010867010108670101087C
:1000500067010108670101086701010867010108DC
:10006000670101085D0701087107010867010108C0
:1000700067010108670101086701010867010108BC
:1000800067010108670101086701010867010108AC
:1000900067010108670101086701010805080108F7
:1000A000670101086701010867010108670101088C
:1000B000FD1C01084D1E0108891F01086701010888
:1000C00067010108810E0108F50D010867010108AB
:1000D000670101083525010867010108CD250108E0
:1000E000E9060108670101086701010867010108C5
:1000F000670101086701010867010108670101083C
:10010000670101086701010867010108670101082B
:1001100085240108DD240108670101086701010841
:10012000670101086701010867010108670101080B
:10013000DFF80CD000F08AF9004800478944010834
:10014000001C002080F308887047000006488047A4
:1001500006480047FEE7FEE7FEE7FEE7FEE7FEE7AC
:10016000FEE7FEE7FEE7FEE79D1C010831010108FE
:1001700040EA01039B0703D009E008C9121F08C029
:10018000042AFAD203E011F8013B00F8013B521EA9
:10019000F9D27047D2B201E000F8012B491EFBD220
:1001A00070470022F6E710B513460A460446194682
:1001B000FFF7F0FF204610BDF0B480EA0102D40F33
:1001C0004200B2EB410F02D20246084611464A00F5
:1001D00042D0C30DDDB2C1F3C752AD1A202D35DABE
:1001E000C1F3160141F4000204B15242C5F12006E8
:1001F00002FA06F12A411044B3EBD05F23D0C4B118
:10020000012DA0EBC35009DCF0BC4FF0004202EA24
:10021000C352DBB200F5000000F0E9B8400000F185
:10022000807000EBC350A0F1807040EAD1704900AB
:1002300009E0490841EAC071A0EBC35000F5000095
:10024000400800EBC350F0BC00F0C8B86142012286
:1002500002EB4101001BF6E7F0BC704781F0004162
:10026000AAE780F00040A7E780EA010210B502F09B
:100270000043400022D04A001FD0010E01EB126162
:10028000C0F35600C2F3560240F4000042F40002EC
:10029000A0FB022000047F39140400D0401C50EA67
:1002A000124001D44000491EC2B20C0604EBD0102B
:1002B000401C4008802A02D003E0002010BD20F03E
:1002C0000100002900DA0020184310BD30B480EA94
:1002D000010202F0004530F0004221F0004013D04E
:1002E00090B1C30DD40DC2F31601C0F31600E41A89
:1002F00041F4000140F400027D34914201D3641CBA
:1003000000E04900002C02DA30BC002070474FF4B6
:1003100000000023914201D3891A034340084FEAA9
:100320004101F7D151B1914202D14FF0004105E0B6
:1003300002D24FF0010101E06FF0010103EBC45064
:10034000284430BC00F04AB896230022114600F041
:100350004EB820F00040C10DC0F3160040F400007C
:100360007F2901DA00207047962903DCC1F196014C
:10037000C84070479639884070472DE9F05F0546C0
:10038000002092469B4688460646814640241BE054
:10039000284641464746224600F079F853465A46D9
:1003A000C01A914110D311461846224600F060F859
:1003B0002D1A67EB01084F4622460120002100F06C
:1003C00057F817EB00094E41201EA4F10104DFDCB1
:1003D000484631462A464346BDE8F09F0029A8BF5B
:1003E0007047401C490008BF20F00100704710B45E
:1003F000B0FA80FC00FA0CF050EA010404BF10BC13
:10040000704749B1CCF1200421FA04F411FA0CF13F
:1004100018BF012121430843A3EB0C01CB1D4FEA78
:1004200000614FEA102042BF002010BC704700EB73
:10043000C35010440029A4BF10BC7047401C4900A1
:1004400008BF20F0010010BC70470000064C074DAB
:1004500006E0E06840F0010394E807009847103494
:10046000AC42F6D3FFF768FE14520108345201087B
:10047000202A04DB203A00FA02F100207047914064
:10048000C2F1200320FA03F3194390407047202A59
:1004900004DB203A21FA02F00021704721FA02F32E
:1004A000D040C2F12002914008431946704770B510
:1004B0008C1810F8015B15F0070301D110F8013B0F
:1004C0002A1106D110F8012B03E010F8016B01F896
:1004D000016B5B1EF9D12B0705D40023521E0DD4EE
:1004E00001F8013BFAE710F8013BCB1A921C03E03C
:1004F00013F8015B01F8015B521EF9D5A142D8D374
:10050000002070BD70B5044600266088472866D07C
:1005100012DC252873D008DC07286ED022281CD0D6
:10052000232827D0242869D131E02A285CD02D281F
:1005300071D02E28F7D171E063286DD006DC4828F1
:1005400032D0612869D06228EDD1A2E0702873D042
:10055000712872D07B28E6D186E02079544981F851
:100560002200084690F82200242802D1022081F8B7
:100570006B009AE020794E4981F82300084690F8F4
:100580002300242802D1022081F86C008DE020791C
:10059000474981F82400084690F82400242802D115
:1005A000022081F86D0080E02079414981F84800FF
:1005B000084690F8480000F07F06102E0BDA002560
:1005C00006E0681C211D095C394A483011546D1C35
:1005D000B542F6DB02E037A002F0FAFA65E02079D6
:1005E000334981F8470060E02079314981F82A00D9
:1005F000607981F82C0058E001E03AE054E00025F1
:1006000006E0201D415D05F12500294A11546D1CAD
:10061000052DF6DB49E011E043E030E02079244984
:1006200081F82E00084690F82E0000F0040010B16A
:10063000607981F82F0038E030E025E020791C490E
:1006400081F82D00084690F82D0000F07F06102E4E
:1006500006DA3246611D16483230FFF789FD02E0A6
:1006600014A002F0B5FA20E02079114981F87B004E
:100670001BE020790E49C8716079887115E02079F6
:100680000B4981F8600010E02079094981F8600089
:100690000BE02079064981F8620006E000F076FB65
:1006A00003E000F093FB00E000BF00BF70BD00005E
:1006B000E815002073656E642064617461206C65C8
:1006C0006E206572726F72210A00000000BFFEE7A3
:1006D0000020024908600249086070472400002099
:1006E000280000207047000010B54FF4006000F0B3
:1006F0005BF958B31648007820B11548007800F02F
:100700000400F8B113480068012813D1102000F04C
:1007100045F9402000F042F90F48006820F0400001
:100720000D4908600846006820F0100008600020AD
:100730000849086003F0E4F90548007840F0040037
:10074000034908704FF4006000F028F910BD000064
:1007500086000020900000200004014010B5082011
:1007600000F022F910B1082000F018F910BD0000C7
:1007700010B5102000F018F900283BD01E48007872
:1007800020B11D48007800F0020080B31B480068CB
:10079000012824D1202000F001F9402000F0FEF8CB
:1007A000802000F0FBF84FF4006000F0F7F81448E8
:1007B000006820F02000124908600846006820F018
:1007C000400008600846006820F080000860084685
:1007D000006820F40060086000200849086003F009
:1007E0008FF90548007840F0020003490870102096
:1007F00000F0D4F810BD000086000020900000201A
:100800000004014010B5202000F0CEF800283BD0B5
:100810005F48007820B15E48007800F0010080B3A6
:100820005C480068012824D1102000F0B7F840206F
:1008300000F0B4F8802000F0B1F84FF4006000F050
:10084000ADF85548006820F010005349086008468C
:10085000006820F0400008600846006820F0800032
:1008600008600846006820F40060086000204949DC
:10087000086003F045F94648007840F0010044491B
:100880000870202000F08AF8402000F08DF8002841
:100890003BD03F48007820B13D48007800F0080088
:1008A00080B33C480068012824D1102000F076F87D
:1008B000202000F073F8802000F070F84FF4006002
:1008C00000F06CF83448006820F0200032490860DD
:1008D0000846006820F0100008600846006820F014
:1008E000800008600846006820F40060086000206E
:1008F0002849086003F004F92548007840F0080012
:1009000023490870402000F049F8802000F04CF89E
:1009100000283BD01E48007820B11D48007800F028
:10092000100080B31B480068012824D1102000F07B
:1009300035F8202000F032F8402000F02FF84FF476
:10094000006000F02BF81448006820F020001249E5
:1009500008600846006820F040000860084600680B
:1009600020F0100008600846006820F4006008606D
:1009700000200849086003F0C3F80548007840F0FB
:10098000100003490870802000F008F810BD000036
:10099000860000209000002000040140014908600A
:1009A0007047000014040140014600200022074B5C
:1009B0001B6803EA0102054B14331B680B4013B19B
:1009C0000AB1012000E0002070470000000401404F
:1009D000002123498279002A3AD00A461268036826
:1009E0009A430B461A600A1D126803689A430B1D4E
:1009F0001A60027911440A6803681A430A60184AA7
:100A00000832126803689A43154B08331A601A1D9E
:100A1000126803689A43124B0C331A604279102A09
:100A20000ED11A1F126803681A430D4B08331A605F
:100A30001A1D126803681A43094B0C331A600DE043
:100A40000749427911440A6803681A430A6005E0BD
:100A5000027911440A6803689A430A6070470000EB
:100A60000004014030B5044604254FF4302000F066
:100A70006FF80546042D17D10C48006940F00200BC
:100A80000A49086108464461006940F04000086175
:100A90004FF4302000F05CF805460448006941F648
:100AA000FD71084001490861284630BD0020024020
:100AB00004200B49C96801F0010109B101200EE0D1
:100AC0000749C96801F0040109B1022007E004499F
:100AD000C96801F0100109B1032000E0042070474B
:100AE000002002400348006940F08000014908618D
:100AF000704700000020024070B504460D460426F1
:100B0000F00200F025F80646042E11D109480069CC
:100B100040F00100074908612580F00200F018F854
:100B200006460448006941F6FE7108400149086123
:100B3000304670BD00200240024803494860034827
:100B4000486070472301674500200240AB89EFCD24
:100B500000B502460423FFF7ABFF034603E0FFF7AF
:100B6000A7FF0346521E012B01D1002AF7D102B97B
:100B70000523184600BD000030B500228B071C0F6E
:100B80000F2303FA04F20B4B8C1053F824309343D9
:100B9000084C8D1044F8253023468C1053F824302F
:100BA0008C07240F00FA04F42343024C8D1044F800
:100BB000253030BD080001402DE9F04102460025F6
:100BC0000026002000230024002791F803C00CF029
:100BD0000F0591F803C00CF0100CBCF1000F03D00E
:100BE00091F802C04CEA050591F800C0BCF1000F75
:100BF00031D0146800202BE04FF0010C0CFA00F308
:100C0000B1F800C00CEA03069E4220D183004FF0E9
:100C10000F0C0CFA03F7BC4305FA03FC4CEA04047E
:100C200091F803C0BCF1280F06D14FF0010C0CFA6B
:100C300000FCC2F814C00AE091F803C0BCF1480FF0
:100C400005D14FF0010C0CFA00FCC2F810C0401C9A
:100C50000828D1D31460B1F800C0BCF1FF0F34DD17
:100C6000546800202EE000F1080C4FF0010808FA4B
:100C70000CF3B1F800C00CEA03069E4221D18300B8
:100C80004FF00F0C0CFA03F7BC4305FA03FC4CEAD7
:100C9000040491F803C0BCF1280F05D100F1080C41
:100CA00008FA0CF8C2F8148091F803C0BCF1480FA0
:100CB00007D100F1080C4FF0010808FA0CF8C2F84F
:100CC0001080401C0828CED35460BDE8F08100009D
:100CD000F0B50A46002300240021002500F000465C
:100CE000B6F1004F02D11D4EF16901E01B4E716853
:100CF000C0F3034583B200F44016B6F5401F08D197
:100D000021F07061154E766826F07066134F7E6094
:100D100012E000F48016B6F5801F06D1032606FA0D
:100D200005F4A14341F0706106E0460D360103FA77
:100D300006F6B14341F0706122B1460D360103FA67
:100D400006F6314300F00046B6F1004F02D1034EE3
:100D5000F16101E0014E7160F0BD00000000014052
:100D60000246002093680B400BB1012000E00020F8
:100D7000704702460020D3680B400BB1012000E011
:100D800000207047416170470161704710B50C4801
:100D90000068002809DD0A480178702000F0CEFEC6
:100DA0004FF0FF300649086003E00021702000F09A
:100DB000C5FE0020034908600349086010BD00001B
:100DC000A40000209C000020A000002010B50748CF
:100DD0000068012806D1002004490860612000F065
:100DE000C1FE02E0632000F0BDFE10BD3400002013
:100DF00000BFFEE708B50020009020480088009062
:100E0000009800F48060B0F5806F08D11B4800881E
:100E10004FF6FF31084019490880002000900098E3
:100E200000F40070B0F5007F08D1144800884FF638
:100E3000FF3108401149088000200090009800F41C
:100E40008070B0F5807F08D10C4800884FF6FF61B4
:100E500008400A49088000200090009800F40060D3
:100E6000B0F5006F08D1054800884FF2FF710840C7
:100E7000024908800020009008BD0000145800407E
:100E80000CB50020019000902E48008801902D485C
:100E9000001D00880090009800F0010000284FD14C
:100EA000019800F08200822802D100200190009079
:100EB000019800F00200022806D100200190009065
:100EC0002149087021490870019800F080008028AD
:100ED00009D11F481D490978405C1A49091F08803B
:100EE000002001900090019800F04000402817D1A8
:100EF0001548007850B91348001F0088134908703E
:100F000011480078401C1049087006E00D48001F89
:100F100000880F490D4A12788854002001900090F3
:100F2000019800F0100010280AD1064814380088F3
:100F300040F001000349143908800020019000901E
:100F40000CBD00001458004040000020410000206B
:100F5000E815002021B1028842F00102028004E07D
:100F600002884FF6FE731A400280704710B504469F
:100F70000B48844209D10121480500F071FC002191
:100F80004FF4001000F06CFC08E00121880500F02F
:100F900067FC00214FF4800000F062FC10BD0000EF
:100FA000005400401AB183880B43838002E0838899
:100FB0008B438380704700002DE9F04385B00446E1
:100FC0000D460026B1460427DFF8CC80A6884FF6F0
:100FD000C0700640684600F081FCDDF808802F48AC
:100FE000B8FBF0F01FFA80F946EA0906A6802088CF
:100FF0004FF6FE7108402080002629492868884263
:101000000CD828684000B8FBF0F087B2042F00DA53
:1010100004273E4309F10100208427E0E8884BF6CD
:10102000FF71884206D1286800EB4000B8FBF0F061
:1010300087B209E0286800EBC00101EB0010B8FBA3
:10104000F0F087B247F48047C7F30B0008B947F0C8
:10105000010747F4004006434FF4967009FB00F087
:101060004FF47A7190FBF1F0401C2084A683208815
:1010700040F00100208026884FF6F5300640A88811
:101080006989084306432680A88929890843208165
:1010900005B0BDE8F083000000127A0040420F0066
:1010A000A086010010B504460021204600F062F839
:1010B000204600F097FC0021204600F061F8022055
:1010C00002F0C8F80121204600F054F8022002F096
:1010D000C1F80021204600F04DF810BD10B50446BF
:1010E0000021204600F046F8204600F07BFC01215C
:1010F000204600F045F8022002F0ACF8012120461D
:1011000000F038F8022002F0A5F80021204600F097
:1011100031F810BD2DE9F04107460D4600260024A8
:10112000384600F04FFC00BF17E00021384600F0C1
:1011300021F8022002F08EF80121384600F01AF85A
:101140006006040E384600F033FC08B1601CC4B2DF
:10115000012002F07FF8701CC6B2082EE5DB1DB935
:101160003846FFF7BBFF02E03846FFF79BFF2046FB
:10117000BDE8F08108B9014A1160704798812142A9
:1011800008B9014A116070479C81214270B506463A
:101190000C46304600F026FC00213046FFF7EAFFFF
:1011A00000251FE0E00920B101213046FFF7E8FFEC
:1011B00003E000213046FFF7E3FF6006040E022043
:1011C00002F048F801213046FFF7D4FF022002F078
:1011D00041F800213046FFF7CDFF022002F03AF837
:1011E000681CC5B2082DDDDB70BD10B50446204675
:1011F00000F0F8FB01212046FFF7C2FF0121204645
:10120000FFF7B8FF042002F025F800212046FFF781
:10121000B7FF042002F01EF800212046FFF7AAFFC6
:1012200010BD10B50446204600F0DCFB002120462E
:10123000FFF7A0FF00212046FFF7A2FF042002F0E5
:1012400009F801212046FFF795FF01212046FFF70D
:1012500097FF042001F0FEFF10BD70B50546002485
:10126000284600F0AFFB012001F0F4FF01212846E1
:10127000FFF780FF012001F0EDFF08E0601CC4B221
:10128000FA2C04DD2846FFF7CCFF012070BD28466C
:1012900000F08EFB0028F1D100212846FFF76AFFFD
:1012A0000020F3E74CF6CC4001490860704700008D
:1012B0000030004010B500F01BF810BD70B50546B9
:1012C0000C4645F2555000F027F8284600F018F873
:1012D000204600F01BF800F00BF8FFF7E3FF024890
:1012E00000680249086070BD4400002054000020DE
:1012F0004AF6AA200149086070470000003000400B
:101300000149486070470000003000400149886092
:10131000704700000030004001490860704700003D
:101320000030004010B50446206809490840B0F17B
:10133000005F0BD107A001F04BFC60680B4908600F
:101340002068FEF7FFFE09480068804710BD0000D6
:101350000000FE2F7374617274206A756D702074C2
:101360006F2061707061646472210A00E40D0020D6
:1013700070B5002500242B4800682B490968451AE0
:10138000002D00DA6D422948007885421EDB254891
:101390000068254908602648007800F01000A8B1D0
:1013A0002348007820F01000214908702148006887
:1013B00000F0400050B91B4801681FA001F008FC74
:1013C0001C48006840F040001A4908601548006851
:1013D0001F490968441A002C00DA64421348007857
:1013E00084421EDB0F4800681949086010480078E5
:1013F00000F02000A8B10E48007820F020000C4931
:1014000008700C48006800F0100050B905480168E9
:1014100010A001F0DDFB0748006840F0100005490E
:10142000086070BD4C000020A8000020B000002023
:101430008C000020000401406F70656E2063616DB8
:1014400072656131206972202564200A0000000065
:10145000AC0000206F70656E2063616D7265613253
:10146000206972202564200A000000002DE9F04167
:1014700005460E4614464FEAE27C02EB9C7CCCF318
:1014800087074FEAE27C02EB9C7C4FEAAC0CA2EBB4
:101490008C0C0CF0FF01042404EBC104E1B2C3F195
:1014A000040405FA04F00F241C413440204300F0EA
:1014B0000F00202A0CDA4FF0E024D4F800C10124F8
:1014C00094404CEA040C4FF0E024C4F800C10DE055
:1014D0000D4C2468A2F1200C4FF0010808FA0CF81A
:1014E00044EA08044FF0E02CCCF80441074CE45DDA
:1014F00000FA01FC44EA0C0404F0FF0C034C04F86D
:1015000007C0BDE8F081000004E100E000E400E075
:1015100000BFFEE7704708B51E208DF800000320CD
:101520008DF8010002208DF8020001208DF80300E3
:10153000684600F001F808BD70B5002100230F22B5
:10154000C47804B3154C246804F4E064C4F5E06482
:10155000210AC1F10403CA40447804FA03F18478F3
:101560001440214309010E4C0678A155047804F07B
:101570001F050124AC4005786D11AD0005F1E02593
:10158000C5F8004109E0047804F01F050124AC40CF
:10159000044D0678761145F8264070BD0CED00E04C
:1015A00000E400E080E100E002490143024A1160EA
:1015B000704700000000FA050CED00E0704710B520
:1015C00002460B460020002104E0545C0444E0B2D3
:1015D0004C1CA1B29942F8DB10BD000010B50446C6
:1015E00005480078012805D10020034908702046ED
:1015F00001F006FA10BD0000420000202DE9F04184
:1016000007460D4614461E464EF6AA3020806888CE
:101610006080A68217212046FFF7D1FF8046C8F1DF
:101620000000E07518222146384601F059F9BDE85E
:10163000F0812DE9F04107460D4614461E464EF650
:10164000AA3020806580A68217212046FFF7B7FFC9
:101650008046C8F10000E07518222146384601F0A6
:101660003FF9BDE8F08100002DE9F8430746404C02
:10167000404D4FF000080026B146384601F044FACC
:1016800001286FD118212046FEF78BFD182128462E
:10169000FEF787FD384601F075F92146384601F01E
:1016A000EDF918212046FFF78AFF0646002E44D1A7
:1016B00020884EF6AA3188423FD1A08A10283CDC0F
:1016C0006088072830DA628831462BA001F080FA62
:1016D0006088032802D0062822D111E04FF00008CC
:1016E0004146284600F090F84B462A4621463846A7
:1016F000FFF784FF26A001F06BFA00F073F812E008
:1017000000F06AF828714FF000084FF001092879BD
:10171000244BB72224A1009028A001F059FA02E03E
:101720000120A87500BF0DE06288314612A001F0CB
:101730004FFA2046FEF7E6FE04E001202549087036
:101740000320A875608870280CD06088632809D0B1
:101750004146284600F058F84B462A46214638466E
:10176000FFF74CFF3846FFF739FFBDE8F88300006C
:10177000A6160020BE160020636865636B53756D66
:101780003D25642C20636D643D30782578200A0067
:101790007265626F6F7420666F7220757067726118
:1017A00064650A00A8510108557365725C73726321
:1017B0005C70726F636573732E6300002573282558
:1017C00064292D3C25733E3A7665723A3078257847
:1017D0000A00000042000020014800787047000025
:1017E0004300002008B545F2AA5000900122694646
:1017F000044800F01BF94FF00060FFF793FD002054
:1018000008BD00000400070811B9002282750DE030
:101810004A1C12B90222827508E0012902D1012274
:10182000827503E0022901D103228275704700000E
:101830000A2002490870032048707047E81500200C
:1018400029B1064AD2690243044BDA6104E0034A33
:10185000D2698243014BDA617047000000100240F8
:1018600029B1064A12690243044B1A6104E0034A93
:1018700012698243014B1A61704700000010024058
:1018800029B1064A92690243044B9A6104E0034A73
:1018900092698243014B9A61704700000010024038
:1018A00029B1064AD2680243044BDA6004E0034AD5
:1018B000D2688243014BDA6070470000001002409A
:1018C00010B501210448FFF7BBFF012144F27D0060
:1018D000FFF7D6FF10BD000002485E0030B50021C2
:1018E0000022002400232D4D6D6805F00C0121B16C
:1018F000042905D0082923D105E0294D056022E0FF
:10190000274D05601FE0254D6D6805F47012234DCD
:101910006D6805F48034022505EB92421CB9214D17
:10192000554305600BE01D4D6D6805F400351DB194
:101930001C4D5543056002E0194D5543056002E01A
:10194000174D056000BF00BF144D6D6805F0F00134
:101950000909154D6B5C0568DD4045600F4D6D68EC
:1019600005F4E061090A104D6B5C4568DD40856057
:101970000A4D6D6805F46051C90A0B4D6B5C4568F2
:10198000DD40C560054D6D6805F44041890B074D8C
:101990006B5CC568B5FBF3F5056130BD0010024016
:1019A00000127A0000093D00AE0D0020BE0D00209F
:1019B000014619B902480068C0B270470020FCE730
:1019C0001C81214250B90649096821F07041044A3E
:1019D00011601146096841F08041116070470000B4
:1019E000000C014050B90649096821F07041044AD1
:1019F00011601146096841F0E04111607047000034
:101A0000000C014030B503460C461546002207E0A5
:101A1000184600F008F824F812009B1C501C82B2F3
:101A2000AA42F5DB30BD0146088870472DE9F05F1A
:101A300080468A461746B8F1006F02D33348804586
:101A400001D3BDE8F09FFFF777F8A8F1006B4FEAEC
:101A5000DB26CBF34909C9F58064A74200DC3C468C
:101A60004DE04FF0006101EBC6204A142849FFF712
:101A7000C9FF00250BE009EB0500254931F81000EE
:101A80004FF6FF71884200D003E0681C85B2A54282
:101A9000F1DB00BFA5421BDA4FF0006101EBC6206D
:101AA000FEF7E0FF002508E03AF8150005EB090114
:101AB000174A22F81100681C85B2A542F4DB4FF0EA
:101AC000006101EBC6204A14114900F023F804E03C
:101AD00022465146404600F01DF8A74200D10FE0D3
:101AE000761C4FF000090AEB440AA044381B87B269
:101AF000B7F5806F02DD4FF4806400E03C46B0E74C
:101B000000BFFEF7EFFF00BF9BE7000000000808E2
:101B1000E80D00202DE9F04105460E461746002449
:101B200007E036F814102846FEF7E6FFAD1C601CEF
:101B300084B2BC42F5DBBDE8F081704770B5054664
:101B40000E46074C18212046FEF72BFB65802671B8
:101B50001023224629460220FFF76BFD70BD0000CE
:101B6000A616002070B50546064C18212046FEF743
:101B700018FB65801023224629460220FFF759FDF5
:101B800070BD0000A616002010B500F001F810BDD1
:101B90000CB50020019000903348006840F480307C
:101BA0003149086000BF3048006800F40030009000
:101BB0000198401C0190009818B90198B0F5A06FE9
:101BC000F1D12948006800F4003010B101200090E4
:101BD00001E0002000900098012843D123480068CC
:101BE00040F01000214908600846006820F003001A
:101BF00008600846006840F0020008601A48406823
:101C0000194948600846406848600846406840F402
:101C1000806048600846406820F47C1048600846B0
:101C2000406840F4E81048600846006840F0807062
:101C3000086000BF0C48006800F000700028F9D070
:101C40000948406820F0030007494860084640689A
:101C500040F00200486000BF0348406800F00C00FC
:101C60000828F9D10CBD00000010024000200240FD
:101C7000042808D14FF0E021096941F004014FF038
:101C8000E022116107E04FF0E021096921F0040131
:101C90004FF0E022116170477047000010B5124804
:101CA000006840F0010010490860084640680F498C
:101CB00008400D494860084600680D4908400A4937
:101CC00008600846006820F48020086008464068E4
:101CD00020F4FE0048604FF41F008860FFF754FFB7
:101CE00004480549086010BD001002400000FFF8DC
:101CF000FFFFF6FE0000010808ED00E010B54648C1
:101D00000088401C4449088044480088401C4349DE
:101D1000088043480068401C414908600846006844
:101D200040F6B831884232D13E48007800F02000B9
:101D300020280AD03C48006800F0100028B93A4832
:101D4000006840F01000384908603648007800F01C
:101D5000100010280AD03448006800F0400028B96C
:101D60003148006840F040002F4908602E48006864
:101D700000F4807028B92C48006840F400602A49BB
:101D8000086000202649086001202849086028488A
:101D90000068012813D127480068401C25490860C5
:101DA00008460068B0F5C87F09DB002008602049BC
:101DB00008602148007820F0C0001F4908701F48C3
:101DC0000068012812D11E480068401C1C490860A8
:101DD0000846006842F21071884207DB002018496B
:101DE000086016490860401E1649086016480078C9
:101DF00068B109480088B0F5617F08D112480078C1
:101E00000020114908700449088004490880012114
:101E1000880700F0A4F910BD800000208200002097
:101E2000880000208C000020000401409000002069
:101E3000980000209400002078000020A0000020DE
:101E40009C000020A40000208600002010B5012185
:101E5000204800F0A2F900283AD001211D4800F0E6
:101E60007EF91D480068401C1B4908601B4800683B
:101E7000401C1A49086008460068B0F1FF3F01D1D4
:101E8000002008601448006842F21071884207D3AD
:101E900013480068401C1249086000200E49086081
:101EA0000F4800686FF00041884202D100200C49C1
:101EB000086047F23052094801680A48006801F09A
:101EC0006BFC28B1FFF7F6F9044800680549086083
:101ED00010BD000000040040480000204400002025
:101EE0004C000020540000207FB505460C4601211F
:101EF0000220FFF7A5FCADF80850ADF80440002023
:101F0000ADF80A00ADF8060001A9104800F068FA23
:101F100001210E4800F020F9012211460B4800F083
:101F20004DF91D208DF8000002208DF801000320DE
:101F30008DF8020001208DF803006846FFF7FCFAD7
:101F40000121024800F00EF97FBD000000040040AE
:101F500010B500F003F800F0A1F810BD08B501219C
:101F60000803FEF7B5FE4FF46040ADF800001820FE
:101F70008DF8030003208DF8020069460148FEF742
:101F80001BFE08BD0014014010B501213D4800F0C2
:101F900004F9002875D03C48006800B33B4800882D
:101FA0003849383108803A48007828B13748006805
:101FB000801C3649086004E034480068801E3349BC
:101FC000086032480068B0F5FA7F02DD0020304931
:101FD00008702E48006810B901202D4908702D485E
:101FE000006800B32948008826493C310880284809
:101FF000007828B125480068801C2449086004E066
:1020000022480068801E2149086020480068B0F519
:10201000FA7F02DD00201E4908701C48006810B9D4
:1020200001201B4908701C48006800B3174800884D
:102030001449403108801648007828B113480068D8
:10204000801C1249086004E010480068801E0F4997
:1020500008600E480068B0F5FA7F02DD00200C49E8
:1020600008700A48006810B901200949087001F099
:102070001FFF02F057F901F095FF0121014800F020
:102080006EF810BD000800406000002058000020DD
:102090005C000020680000206400002000B587B0CC
:1020A00001210420FFF7CCFB4FF4FA70ADF81400C7
:1020B00040F2A460ADF810000020ADF81600ADF8B5
:1020C000120004A91D4800F08BF96020ADF8000053
:1020D0000120ADF802000020ADF80600ADF80800C0
:1020E0006946164800F074F80821144800F0C2F858
:1020F0006946124800F0CCF80821104800F018F9A1
:1021000069460E4800F01EF908210C4800F058F905
:1021100001210A4800F014F80121084800F022F8D3
:1021200001221146054800F049F8FFF7F4F90121B2
:10213000032002F067F807B000BD0000000800406F
:1021400021B1028842F08002028004E002884FF64A
:102150007F731A4002807047CA4302827047CA43A5
:102160000282704721B1028842F00102028004E03D
:1021700002884FF6FE731A400280704731B1B0F802
:10218000442042F40042A0F8442005E0B0F8442086
:10219000C2F30E02A0F84420704730B5024600207A
:1021A00000230024158A05EA0103958905EA010444
:1021B00013B10CB1012000E0002030BD1AB18389B9
:1021C0000B43838102E083898B4383817047000046
:1021D00070B5002400220023058C4FF6EF763540C1
:1021E0000584028C8388048B48F6FF752C404FF6DB
:1021F000FF452C400D884FF6FF7606EA05252C4357
:102200004FF6DF752A400D8906EA05152A434D88E9
:1022100006EA05152A43154DA84202D0144DA842DE
:102220001DD14FF67F752A404D894FF6FF7606EA9D
:1022300005152A434FF6BF752A408D8806EA051515
:102240002A434FF6FF352B404FF2FF752B408D8907
:1022500006EA85052B43CD8906EA85052B43838055
:102260000483CD880587028470BD0000002C0140E6
:10227000003401400A460021018B4FF2FF731940E0
:102280004FF6FF7303EA02231943018370470000EE
:1022900070B5002400220023058C4FF6FF66354000
:1022A0000584028C8388848B4FF68F752C404FF603
:1022B000FC752C400D882C434FF6FF552A400D89A4
:1022C0004FF6FF7606EA05252A434D8806EA0525DE
:1022D0002A43154DA84202D0144DA8421DD14FF2F9
:1022E000FF752A404D894FF6FF7606EA05252A43F9
:1022F0004FF6FF352A408D8806EA05252A434EF61B
:10230000FF752B404DF6FF752B408D8906EA0515AC
:102310002B43CD8906EA05152B4383808483CD8822
:102320008587028470BD0000002C0140003401400C
:102330000A460021818B4FF6F773194011438183C0
:102340007047000070B5002200230024058C4EF673
:10235000FF7635400584038C8488828B48F6FF75B0
:102360002A404FF6FF452A400D884FF6FF7606EAD1
:1023700005252A434DF6FF752B400D8906EA0535E4
:102380002B434D8806EA05352B430B4DA84202D05E
:102390000A4DA84208D14BF6FF752C408D894FF6A7
:1023A000FF7606EA85152C4384808283CD88A0F8C9
:1023B0004050038470BD0000002C014000340140F7
:1023C0000A460021818B4FF2FF7319404FF6FF73CD
:1023D00003EA022319438183704701877047000095
:1023E000002202881D4B98420ED01D4B98420BD004
:1023F000B0F1804F08D01B4B984205D01A4B984241
:1024000002D01A4B984204D14FF68F731A404B8872
:102410001A43174B984207D0164B984204D04FF6F8
:10242000FF431A40CB881A4302808B8883850B8830
:1024300003850A4B98420BD0094B984208D00E4BAB
:10244000984205D00D4B984202D00D4B984201D1D5
:102450000B7A03860123838270470000002C014021
:10246000003401400004004000080040000C00401F
:1024700000100040001400400040014000440140B2
:102480000048014010B540F22551104800F049F9CC
:10249000A8B10E4800F000FAC4B20D480D490988F1
:1024A00044540C480088401C0A49088008460088AB
:1024B000172804DD0020088001200749087040F239
:1024C0002551024800F0B7F810BD0000004C004054
:1024D00006170020720000206E00002010B540F2A8
:1024E0002551104800F01DF9A8B10E4800F0D4F9AC
:1024F000C4B20D480D49098844540C480088401C5A
:102500000A49088008460088172804DD0020088052
:1025100001200749087040F22551024800F08BF86D
:1025200010BD0000005000401E1700207400002065
:102530006F00002010B51FA000F04AFB40F22551AB
:102540001F4800F0EEF810B31D4800F0A5F9C4B222
:102550001C48008800F40040C8B91A48008800F4FC
:10256000804060B10A2C03D000201649088020E08A
:102570001448008840F400401249088019E00D2CEE
:1025800006D11048008840F480400E49088010E0D1
:102590000C480088C0F30D000B490C540948008812
:1025A000401C0849088008460088C72801DD002033
:1025B000088010BD32303139303432320A0D00001B
:1025C00000380140DC0D00203617002010B540F225
:1025D0002551104800F0A5F8A8B10E4800F05CF9AC
:1025E000C4B20D480D49098844540C480088401C69
:1025F0000A49088008460088172804DD0020088062
:1026000001200749087040F22551024800F013F8F4
:1026100010BD000000480040EE16002070000020B1
:102620006D00002001F40072B2F5007F00D100BF00
:10263000CA430280704710B50022002340F66A1496
:10264000A14200D100BF0A1201249440A3B2DC438E
:10265000048010BD21B1828942F40052828104E0DD
:1026600082894DF6FF731A408281704710B5044687
:102670002048844209D101218803FFF711F9002184
:102680004FF48040FFF70CF932E01B48844209D137
:1026900001214804FFF7E4F800214FF40030FFF770
:1026A000DFF825E01548844209D101218804FFF7AD
:1026B000D7F800214FF48020FFF7D2F818E0104837
:1026C000844209D10121C804FFF7CAF800214FF460
:1026D0000020FFF7C5F80BE00A48844208D1012129
:1026E0000805FFF7BDF800214FF48010FFF7B8F898
:1026F00010BD000000380140004400400048004088
:10270000004C00400050004002460020B1F5007F20
:1027100000D100BF13880B400BB1012000E0002066
:10272000704770B50246002400230025002040F6C3
:102730006A16B14200D100BFC1F3421501F01F0378
:10274000012606FA03F3012D02D19689334006E0F3
:10275000022D02D1168A334001E0968A33400C12D2
:10276000012606FA04F41688344013B10CB1012096
:1027700000E0002070BDF0B50346002400260025CF
:10278000002040F66A17B94200D100BF1846C1F3D5
:10279000421401F01F06012707FA06F5012C01D1AA
:1027A0000C3004E0022C01D1103000E014301AB1DA
:1027B00007682F43076002E00768AF430760F0BD7A
:1027C0002DE9F04786B005460E460024A24600BF1C
:1027D000A1460027B08900B100BF2F462C8A4CF6D5
:1027E000FF700440F08804432C82AC894EF6F3104D
:1027F0000440B08831890843718908430443AC819F
:10280000AC8A4FF6FF400440B0890443AC8201A873
:10281000FFF764F81F48874202D1DDF810A001E0FD
:10282000DDF80CA0A88900F4004040B10AEBCA0012
:1028300000EB0A1031684900B0FBF1F807E00AEB41
:10284000CA0000EB0A1031688900B0FBF1F864207F
:10285000B8FBF0F004012009642101FB1089A8896C
:1028600000F4004040B1322000EBC900B0FBF1F0B1
:1028700000F00700044308E0322000EB0910642157
:10288000B0FBF1F000F00F0004432C8106B0BDE86E
:10289000F08700000038014001468888C0F3080036
:1028A0007047C1F3080282807047F0B507460D46B5
:1028B0001646002440213846FFF7B4FE00BF0CE066
:1028C000295D3846FFF7EDFF00BF40213846FFF78E
:1028D0001BFF0128F9D1601CC4B2B442F0DBF0BD8B
:1028E000F8B504460D461646012C05D13246294658
:1028F0001248FFF7DAFF1FE0022C05D132462946C5
:102900000F48FFF7D2FF17E0032C05D132462946C6
:102910000C48FFF7CAFF0FE0042C05D132462946C8
:102920000948FFF7C2FF07E0084B4FF4B77208A150
:102930000CA0009400F04CF9F8BD000000480040E5
:10294000004C004000500040003801400452010893
:10295000557365725C7372635C75736172742E6318
:10296000000000002573282564292D3C25733E3A7C
:10297000756E6B6E6F776E2075736172742025783B
:102980000A00000038B50446012C03D100200B4991
:10299000087012E0022C03D10020094908700CE0F5
:1029A000032C03D100200749087006E0064B4122A2
:1029B00006A10BA0009400F00BF938BD6D000020BB
:1029C0006E0000206F000020CB5101085573657226
:1029D0005C7372635C75736172742E630000000037
:1029E0002573282564292D3C25733E3A756E6B6E40
:1029F0006F776E2075736172742025780A0000006D
:102A000038B50446012C03D100200B49088012E0A0
:102A1000022C03D10020094908800CE0032C03D1CB
:102A200000200749088006E0064B552206A10BA0AE
:102A3000009400F0CDF838BD700000207200002036
:102A400074000020DF510108557365725C73726376
:102A50005C75736172742E63000000002573282575
:102A600064292D3C25733E3A756E6B6E6F776E2030
:102A700075736172742025780A00000038B5044629
:102A80000D46012C05D118220E492846FDF770FB92
:102A900016E0022C05D118220B492846FDF768FBE9
:102AA0000EE0032C05D1182208492846FDF760FBEB
:102AB00006E0074B692207A10BA0009400F088F8FC
:102AC00038BD0000EE160020061700201E1700205B
:102AD000F2510108557365725C7372635C757361C2
:102AE00072742E63000000002573282564292D3C94
:102AF00025733E3A756E6B6E6F776E2075736172DB
:102B0000742025780A00000038B50446012C02D153
:102B10000C48007838BD022C02D10B480078F9E748
:102B2000032C02D109480078F4E709A000F050F81E
:102B30000C4B2C220CA111A0009400F049F80220AB
:102B4000E8E700006D0000206E0000206F0000200C
:102B500061707020756E6B6E6F776E207573617229
:102B600074210A00B9510108557365725C73726370
:102B70005C75736172742E63000000002573282554
:102B800064292D3C25733E3A756E6B6E6F776E200F
:102B900075736172742025780A00000000BFFEE79B
:102BA0000020014908607047082C004010B5034818
:102BB000007800F005F8FFF7F3FF10BD7600002065
:102BC00000F07F01014A116070470000002C0040B6
:102BD0000FB4054B10B503A9044A029800F018F889
:102BE00010BC5DF814FB00007D370108D80D0020F3
:102BF00002E008C8121F08C1002AFAD170477047C6
:102C0000002001E001C1121F002AFBD17047000023
:102C10002DE9FF4F8DB00F460546002606E025281A
:102C20000BD0DDE90F1290476D1C761C2878002828
:102C3000F5D111B03046BDE8F08F0024A246A14680
:102C40000122EC4900E0044315F8013F203B02FA61
:102C500003F00842F7D128782A2810D06FF02F020D
:102C60002878A0F13001092914D80AEB8A0102EB77
:102C7000410144F0020400EB010A6D1CF0E701CFB2
:102C80005FEA000A03D544F40054CAF1000A44F094
:102C900002046D1C28782E2817D115F8010F44F076
:102CA00004042A280ED06FF02F022878A0F13001FA
:102CB00009290AD809EB890102EB410100EB01095E
:102CC0006D1CF2E757F8049B6D1C28786C280FD018
:102CD00006DC4C2817D068280DD06A2814D104E0EF
:102CE000742810D07A280FD10DE044F400140AE0C3
:102CF00044F4801401E044F440146978814202D124
:102D000004F580146D1C6D1C2A786E2A1FD00CDC13
:102D1000632A31D004DC002A8BD0582A11D1A3E0D9
:102D2000642A68D0692A0CD165E0732A2ED004DCAD
:102D30006F2A73D0702A04D19BE0752A6FD0782A4D
:102D40006ED01046DDE90F129047761C50E1C4F3B7
:102D50000250022806D0032809D0042801CF09D048
:102D6000066045E101CFF117C0E9006140E101CF04
:102D700006803DE106703BE117F8040B8DF800007A
:102D800000208DF80100EB46012003E057F804BB5A
:102D90004FF0FF3061074FF0000102D40DE008F161
:102DA0000101884649450FDA8045F8DB1BF8081019
:102DB0000029F4D108E008F1010188468142FADBDC
:102DC0001BF808100029F6D1DDE90F23AAEB080053
:102DD0008146214600F036F9304400EB080604E055
:102DE000DDE90F121BF8010B9047B8F10108F7D28B
:102DF00021464846F7E00A21C4F302534FF0000B86
:102E00000891022B04D001CFC117032B09D00AE08F
:102E1000FF1D27F00707F7E8020108E032E01FE096
:102E200020E000B2C117042B01D140B2C117031E2C
:102E300071F1000307DA4FF0000CD0EB0C006CEBE3
:102E400001012D2302E0230504D52B238DF8243026
:102E5000012303E0E30701D02023F7E7984658E079
:102E60000A2110E010210EE010204FF0000B089016
:102E70000CE010214FF0000B44F004044FF008095F
:102E8000089103E008214FF0000B0891C4F30253AE
:102E9000022B04D001CF0021032B06D006E0FF1D3A
:102EA00027F00707F7E8020103E080B2042B00D106
:102EB000C0B24FF0000823072BD5702A07D0DDF8E9
:102EC00020C08CF0100C5CEA0B0C05D00EE0402307
:102ED0008DF82430012308E050EA010306D03023A6
:102EE0008DF824308DF8252002239846DDF820C087
:102EF0008CF0080C5CEA0B0C0BD150EA010301D1F9
:102F0000630706D530238DF824304FF00108A9F16E
:102F10000109582A04D038A20B9208AA0A920BE0A1
:102F20003AA2F9E75B46089AFDF727FA0B9B9B5CF0
:102F30000A9A521E0A92137050EA0102F2D10A98BC
:102F4000ADEB000000F1200B600702D524F48034C3
:102F500001E04FF00109D94502DDA9EB0B0000E0CB
:102F6000002000EB0B0141440890AAEB010AE003AA
:102F700006D4DDE90F232146504600F063F80644ED
:102F80004FF0000908E009A911F80900DDE90F1266
:102F9000904709F10109761CC145F4DBE0030CD52B
:102FA000DDE90F232146504600F04CF8064404E0CA
:102FB000DDE90F1230209047761C0899481E0890D2
:102FC0000029F5DC08E00A980A990078491C0A9162
:102FD000DDE90F129047761CBBF10001ABF1010B4C
:102FE000F1DC21465046DDE90F2300F019F80644D4
:102FF0006D1C1BE609280100303132333435363779
:103000003839616263646566000000003031323334
:1030100034353637383941424344454600000000D4
:103020002DE9F041044600251E461746880404D4C5
:1030300005E039462020B0476D1C641EF9D52846AE
:10304000BDE8F0812DE9F041044600251E4690467A
:10305000C80301D5302700E02027880404D505E007
:1030600041463846B0476D1C641EF9D52846BDE878
:10307000F081002212E00378412B06DB03787A2BE3
:1030800003DC0378203B037005E00378202B02D19A
:10309000037840330370401C531CDAB28A42EADBE7
:1030A0007047002215E00378412B06DB03785A2B8A
:1030B00003DC0378403B037008E00378612B05DBF9
:1030C00003787A2B02DC0378463B0370401C531CC8
:1030D000DAB28A42E7DB704710B50948006868B188
:1030E0004FF47A72074801680748006800F054FB03
:1030F00020B101F049FF00200149086010BD000027
:103100002C000020440000203000002008B5802062
:10311000ADF8000003208DF8020004208DF80300B4
:1031200069462548FDF748FD4FF4C050ADF8000052
:1031300003208DF8020010208DF8030069461F4817
:10314000FDF73AFD4FF400611C48FDF71DFE4FF4FA
:1031500080511A48FDF718FE8020ADF800000320CA
:103160008DF8020010208DF8030069461448FDF721
:1031700023FD80211248FDF707FE4E20ADF8000028
:1031800003208DF8020010208DF8030069460A48DC
:10319000FDF712FD02210848FDF7F4FD0421064861
:1031A000FDF7F0FD08210448FDF7EEFD402102483F
:1031B000FDF7EAFD08BD00000014014000080140D1
:1031C0000018014010B56FF00400FEF751FD0A48E9
:1031D00000680A49B0FBF1F0094908700846007818
:1031E00000EB4001C1EBC0104FF6FF7101EAC000D7
:1031F0000449088010BD0000C40D002000127A00B0
:10320000DE0D0020E00D00200146114A12884A43DD
:103210004FF0E0235A6100229A611A46126942F087
:1032200001021A6100BF4FF0E022106900F00102B4
:103230001AB100F48032002AF5D04FF0E022126972
:1032400022F001024FF0E0231A6100229A617047D8
:10325000E00D00200146114A12784A434FF0E02366
:103260005A6100229A611A46126942F001021A61FB
:1032700000BF4FF0E022106900F001021AB100F423
:103280008032002AF5D04FF0E022126922F00102CC
:103290004FF0E0231A6100229A617047DE0D002092
:1032A00010B53E48006870B980213D48FDF758FDD3
:1032B00048B90120394908603A4800683A4908602D
:1032C0003AA0FFF785FC3548006870B139480068BE
:1032D00058B980213248FDF743FD012805D1354911
:1032E00008603048006834490860324800680028A7
:1032F00035D041F288322B4801682F48006800F031
:103300004BFA40B100202549086027490860294947
:103310000860294908604CF2503227480168224869
:10332000006800F039FA90B10120244908600020BB
:103330001A4908601C4908601E4908601E49086057
:1033400001201F490860174800681E490860802155
:103350001348FDF705FD10B900201649086018480C
:103360000068012819D14CF250320E480168154806
:10337000006800F011FA80B100201149086011497D
:1033800008600E49086040210548FDF7E9FC012866
:1033900003D144200C4981F8600010BD04000020D6
:1033A00000140140440000200C00002062620A0D5D
:1033B0000000000008000020100000203400002061
:1033C0002400002028000020E815002010B5244823
:1033D000006870B980212348FDF7C2FC48B901207C
:1033E0001F490860204800682049086020A0FFF7B6
:1033F000EFFB1B48006870B11F48006858B9802176
:103400001848FDF7ADFC012805D11B490860164896
:1034100000681A49086018480068F8B141F288321B
:10342000164801681148006800F0B6F970B101F063
:1034300095FB00200A4908600C4908600E490860A5
:103440000E4908600E4908600E4908608021054851
:10345000FDF786FC10B900200749086010BD000088
:103460001400002000140140440000201C00002033
:1034700061610A0D000000001800002020000020FB
:10348000240000202800002010B54FF0FF34402118
:103490000C48FDF76EFC044614B10B48006828B1D7
:1034A0000A48006810B9FFF791FF09E0012C02D02B
:1034B0000648006820B10448006808B9FFF7F0FE2C
:1034C00010BD000000140140140000200400002082
:1034D00010B586B004462348FFF7C8F84FF40070D3
:1034E000ADF8140003208DF8160018208DF8170091
:1034F00005A91D48FDF760FB4FF48060ADF814008E
:1035000004208DF8170005A91748FDF755FB252065
:103510008DF8000003208DF801008DF802000120D5
:103520008DF803006846FEF707F801940020ADF817
:103530000800ADF80A00ADF80C00ADF810000C2042
:10354000ADF80E0001A90748FFF73AF9012240F251
:1035500025510448FFF70FF901210248FFF77AF8D7
:1035600006B010BD003801400008014030B589B0F8
:1035700005460C460121C802FEF782F901214120CF
:10358000FEF77EF901211E48FDF7A2FB4FF4006013
:10359000ADF8200018208DF8230003208DF82200BC
:1035A00008A91848FDF708FBADF81850ADF814400D
:1035B0000020ADF81A00ADF8160005A91248FEF774
:1035C0000FFF7020ADF804000120ADF806000020C8
:1035D000ADF80C003C20ADF80A0001A90A48FEF73E
:1035E000F7FD08210848FEF745FE01210648FEF7D1
:1035F000C5FD01210448FEF7B5FD09B030BD00004E
:10360000C000160000180140002C014010B51E48F3
:10361000847840211D48FDF7ACFB28B964201A4985
:10362000887100F035F810BD1748807800F08000F0
:1036300030B1642014498871282000F029F820E076
:10364000282C05DC28201049887100F021F818E0AA
:10365000282C07DD2C2C05DC19200B49887100F083
:1036600017F80EE02C2C07DD302C05DC0A2006496B
:10367000887100F00DF804E000200349887100F023
:1036800007F800BFCFE70000E81500200014014054
:1036900010B5044621460248FEF79FFE10BD00000B
:1036A000002C014070B50546002428E0204601F0BA
:1036B000AAFB002001F08AFB0020FDF796FD78218F
:1036C0000020FDF763FD0020FDF7C7FD402100202D
:1036D000FDF75CFD0020FDF7C0FD002608E029464F
:1036E0000020FDF753FD0020FDF7B7FD701CC6B2AA
:1036F000802EF4DB0020FDF794FD601CC4B2082C82
:10370000D4DB70BD2DE9F04705460E4617469846B6
:10371000DDF820A034462BE0204601F074FB404643
:1037200001F054FB0020FDF760FD78210020FDF73B
:103730002DFD0020FDF791FD40210020FDF726FD25
:103740000020FDF78AFD4FF000090AE0294600201D
:10375000FDF71CFD0020FDF780FD09F1010000F0E0
:10376000FF09D145F2DB0020FDF75BFD601CC4B210
:10377000781C8442D0DBBDE8F087000000BF054A1A
:10378000128802F04002002AF9D0C2B2014B1B1D80
:103790001A807047003801400346994204D3C81A82
:1037A000904208D901207047C3F1FF30084490428D
:1037B00001D90120F7E70020F5E710B50220FDF759
:1037C00053FF10BD08B5C020ADF8000014208DF8DF
:1037D000030003208DF8020069460448FDF7ECF968
:1037E000C0210248FDF7D0FA08BD0000000C0140DE
:1037F00000B585B021208DF8000000208DF8010073
:103800008DF8020001208DF803006846FDF794FE54
:1038100022208DF8000001208DF802006846FDF797
:103820008BFE1748FDF7A2FB0020ADF808004BF611
:10383000FF70ADF80A009020ADF80C004FF48060E6
:10384000ADF80E000001ADF810000E48019001A97E
:103850000B48FDF7B1FB012291020948FDF7A2FBDD
:10386000012251020648FDF79DFB01221102044886
:10387000FDF798FB01210248FDF76CFB05B000BD88
:1038800000580040801A060008B54FF44060ADF8BB
:10389000000003208DF802001C208DF8030069460B
:1038A0000648FDF789F901218805FDF7D9FF0021B8
:1038B0004FF48000FDF7D4FF08BD0000000C01406C
:1038C00010B5FFF7E1FFFFF793FF10BD10B5FFF74D
:1038D00079FFFFF7F5FF10BD2DE9F0410024002628
:1038E00000250027A0462D48007800F04000002861
:1038F00051D02B480068002844D12A480068040EA3
:1039000028480068C0F30746F043C0B2A0422AD15D
:1039100024480088C0F3072522480778F843C0B23E
:10392000A84220D120488577807FD0280FD1402120
:103930001E48FDF715FA8046B8F1000F02D101F0DC
:103940000DF908E01848807F1949086003E016481F
:10395000807F1749086000F061FA1348827F214692
:1039600014A0FFF735F90D48007820F0C0000B498E
:1039700008700120154908600949086000201449B1
:10398000086008E00548007820F0C000034908708E
:1039900000200F490860BDE8F08100007800002099
:1039A000980000207C000020E81500200014014051
:1039B000A4000020757365723A307825782C207643
:1039C000616C3A30782578200A000000A0000020C1
:1039D000940000201FB54FF40060ADF80C000320E8
:1039E0008DF80E0048208DF80F0003A93E48FDF722
:1039F000E3F85020ADF80C0003208DF80E004820AD
:103A00008DF80F0003A93948FDF7D6F84020FCF7E0
:103A1000C5FF06210020FDF7AFF8402001900020EF
:103A20008DF8080010208DF8090001208DF80A009B
:103A300001A8FCF7CDFF17208DF8000002208DF8BB
:103A400001008DF8020001208DF803006846FDF7A3
:103A500073FD1020FCF7A2FF04210020FDF78CF875
:103A60001020019000208DF8080010208DF809002A
:103A700001208DF80A0001A8FCF7AAFF0A208DF8A2
:103A8000000002208DF8010001208DF802008DF861
:103A900003006846FDF750FD4FF40060FCF77EFF21
:103AA0000B210320FDF768F84FF40060019000201F
:103AB0008DF8080010208DF8090001208DF80A000B
:103AC00001A8FCF785FF28208DF8000002208DF862
:103AD000010000208DF8020001208DF803006846E7
:103AE000FDF72AFD1FBD0000001401400008014041
:103AF00010B5FFF76FFF4721632000F05DF910BD9F
:103B000010B54FF400619748FDF72AF920B14FF442
:103B10000060FCF749FF88B910219348FDF720F9B0
:103B200018B11020FCF740FF40B940218E48FDF746
:103B300017F9D8B14020FCF737FFB8B100208B4906
:103B400008808B48007840F0100089490870894847
:103B50000088552806DB874800885F2802DC0120A2
:103B600085490870002083490880FAE08048007881
:103B700000F0100000287DD07D48007800F0800023
:103B800000B37A480088032809DB784800880828B1
:103B900005DC7A48006840007849086088E073488E
:103BA00000880E28FADB714800881228F6DC73487A
:103BB00000684000714908600846006840F0010054
:103BC000086075E069480088292815DB6748008887
:103BD000302811DC68480078002869D064480078F3
:103BE00040F0800062490870002064490860644920
:103BF0000870644908705BE05C480088142814DB96
:103C00005A480088192810DC5D480078401C5C493F
:103C100008705748007820F08000554908705848CF
:103C2000017859A0FEF7D4FF42E050480088C82828
:103C300002DB51480078D8B35748007800F00800FC
:103C4000B8B15648007840F0100054490870544804
:103C5000006800F0400060B15248006852490860B6
:103C60000620524908704E48006820F040004C4938
:103C7000086000E068E04848007800F00200B8B151
:103C80004648007840F020004449087044480068E5
:103C900000F0100060B14348006845490860062004
:103CA000424908703E48006820F010003C49086016
:103CB0003348007820B933480078401C31490870F7
:103CC0003048007821283FD101203A490860334824
:103CD000007800F0200020280AD03148006800F069
:103CE000100028B92E48006840F010002C490860E8
:103CF0002A48007800F0100010280AD028480068F0
:103D000000F0400028B92648006840F040002449EF
:103D100008602348006800F4807028B920480068D3
:103D200040F400601E4908601148007800F08000EF
:103D300050B10F48007840F040000D490870164817
:103D400000780020144908700020084908800949BB
:103D50000880094908700648007820F010000449DE
:103D6000087010BD001401400008014080000020D0
:103D70007800002082000020840000207C000020C9
:103D8000C4000020850000206B6579636E74203DBF
:103D90002025640A00000000860000208C0000201E
:103DA000000401404C000020A8000020B0000020CA
:103DB000AC000020900000207FB504460D46012194
:103DC0000846FDF73DFDADF80850ADF80440002071
:103DD000ADF80A00ADF806008DF80C0001A94FF00F
:103DE0008040FEF7FDFA012211469007FEF7E6F942
:103DF00001218807FEF7B6F901218807FEF7ACF923
:103E00001C208DF8000001208DF803008DF80100C2
:103E10008DF802006846FDF78FFB7FBD10B50120CD
:103E20001F49086041031F48FCF79AFF58B9012059
:103E30001D4908604FF4FC701C490880091D08806A
:103E4000091D08802AE04FF480411648FCF788FFDE
:103E500058B90220144908604FF4FC7013490880D7
:103E6000091D0880091D088018E04FF400410D4825
:103E7000FCF776FF58B903200B4908604FF4FC703B
:103E80000A490880091D0880091D088006E00020F5
:103E900006490831088004200349086010BD00006D
:103EA000EC00002000140140F00000203808004021
:103EB0001A48006800B97047194801680068401C3A
:103EC000174A1060022900D0F5E700201449086065
:103ED0001249086013480068012806D0022808D05B
:103EE00003280BD0042814D10DE000200E490880CF
:103EF00010E000200C49091D08800BE000200A4951
:103F00000831088006E04FF4FC700749083108804A
:103F100000E000BF00BF00BFCDE70000EC000020C4
:103F2000F4000020F00000203808004070B504467E
:103F30000D461748005D00F0400038B31448005D9E
:103F400000F0020060B100F097F94FF4FC701149E5
:103F50000880091D0880091D0880012028600FE0E5
:103F600000200D4908600D4908600D49086028606F
:103F70004FF4FC7007490880091D0880091D08805E
:103F80000348005D20F040000149085570BD000065
:103F9000E81500203808004060000020680000207C
:103FA000640000207C4890F86E0000B970477A48A1
:103FB00090F87100012849D1784800887849088034
:103FC00078480068C0B1744890F874007349096873
:103FD000884208DB704890F86F007049096808440F
:103FE0006E49086020E06C4890F870006B490968E1
:103FF00008446A49086017E0674890F87400674908
:104000000968884208DB644890F86F0063490968D2
:10401000081A6249086007E05F4890F870005F493D
:104020000968081A5D4908605C480068B0F5FA7FC5
:1040300002DB00205B49086058480068002805DC66
:10404000012058490860002054490860524890F8FF
:10405000710002284AD1514800885149091D088041
:1040600050480068C0B14C4890F874004B4909684A
:10407000884208DB484890F86F00484909680844BE
:104080004649086020E0444890F8700043490968B8
:1040900008444249086017E03F4890F874003F49DF
:1040A0000968884208DB3C4890F86F003B49096882
:1040B000081A3A49086007E0374890F87000374915
:1040C0000968081A3549086034480068B0F5FA7F75
:1040D00002DB00203349086030480068002805DC16
:1040E00001203049086000202C4908602A4890F8D7
:1040F000710003284ED129480088294908310880D9
:1041000028480068C0B1244890F874002349096821
:10411000884208DB204890F86F002049096808446D
:104120001E49086020E01C4890F870001B4909688F
:1041300008441A49086017E0174890F874001749B6
:104140000968884208DB144890F86F001349096831
:10415000081A1249086007E00F4890F870000F49EC
:104160000968081A0D4908600C480068B0F5FA7F24
:1041700006DB00200B4908604FF4FA70074908601D
:1041800006480068002805DC012006490860002078
:104190000249086000BF09E7E8150020F800002088
:1041A00038080040FC000020144890F8720000B964
:1041B0007047124890F87100012805D10F4890F817
:1041C000730080000E4908800C4890F871000228A6
:1041D00006D10A4890F8730080000949091D08803B
:1041E000064890F87100032806D1044890F873003F
:1041F000800003490831088000BFD9E7E815002096
:104200003808004070B504460D463DB3012C04D07B
:10421000022C0CD0032C20D115E000201549088079
:104220004FF4FC70091D0880091D088015E04FF44B
:10423000FC70104908800020091D08804FF4FC70B4
:10424000091D088009E04FF4FC700A490880091D27
:1042500008800020091D088000BF09E000F00CF86C
:104260004FF4FC7003490880091D0880091D08806F
:1042700070BD00003808004000200649086006496B
:104280000860064908600649086006490860064952
:1042900008607047D4000020D8000020DC00002017
:1042A00060000020680000206400002070B5044613
:1042B0000D461748005D00F0200038B31448005D3B
:1042C00000F0040060B1FFF7D7FF4FF4FC70114914
:1042D0000880091D0880091D0880012028600FE062
:1042E000002028600C4908600C4908600C490860EF
:1042F0004FF4FC7007490880091D0880091D0880DB
:104300000348005D20F020000149085570BD000001
:10431000E815002038080040D4000020D800002014
:10432000DC0000202448006898B14FF4FC70234959
:104330000880234801680068401C214A1060214819
:1043400090F86B00814204DB00201C490880114674
:1043500008601D480068A8B14FF4FC701749091D9A
:1043600008801A4801680068401C184A1060154807
:1043700090F86C00814205DB00201049091D08807F
:104380001146086012480068A8B14FF4FC700B4950
:10439000083108800F4801680068401C0D4A106011
:1043A000084890F86D00814205DB00200349083180
:1043B0000880114608607047D4000020380800408B
:1043C000E0000020E8150020D8000020E4000020D4
:1043D000DC000020E800002070B505460C460948C6
:1043E000005D00F0800060B10648005D00F0010152
:1043F0002846FFF707FF0348005D20F080000149D1
:10440000085570BDE815002010B50D48006801285A
:1044100006D10C4800680C49086000200849086073
:104420004CF250320748016807480068FFF7B4F9BA
:1044300020B100F00BF801200149086010BD000018
:104440003C000020440000203800002010B500206F
:10445000FCF7CBFE9F210020FCF798FE0020FCF724
:10446000FCFE01210020FCF755FE06498870002162
:104470000846FCF74FFE0349C8700020FCF7D1FE48
:1044800010BD0000E815002000F03AFDFEF73EFEEA
:104490006420FEF7B9FE05A0FEF79AFB05E0FFF7E2
:1044A0008CF900F05EFDFCF763FFF8E7656E74655C
:1044B00072206170700A000010B50020FFF7F2F85A
:1044C00010BD0000F0B587B006460F460025142148
:1044D00002A8FBF766FE00244DE004F126002F49F8
:1044E0000D5C642D0FDB642095FBF0F0801C002137
:1044F00001EB840102AA5054642095FBF0F100FB0B
:104500001150C5B208E0642095FBF0F0801C00213A
:1045100001EB840102AA50540A2D0FDB0A2095FBFF
:10452000F0F0801C012101EB840102AA50540A2002
:1045300095FBF0F100FB1150C5B208E00A2095FB95
:10454000F0F0801C012101EB840102AA5054A81C48
:10455000022101EB840102AA50540120032101EB46
:1045600084015054032C04D10020032101EB840169
:104570005054601CC4B2042CAFDB802000233246B0
:10458000314600901846FFF7BDF83B46324602A977
:10459000032000F097FC07B0F0BD0000E8150020F4
:1045A00038B50025002000900024174890F82C50C2
:1045B00000BF26E020202041284038B1601CC0B256
:1045C0008DF8000000208DF8010006E0E01DC0B26B
:1045D0008DF8000000208DF8010044B905F040007E
:1045E00028B10D208DF8000000208DF8010004EBAB
:1045F00004100D30C2B20021684600F025F9601C9D
:10460000C4B2062CD6DB38BDE815002008B5022060
:10461000ADF8000003208DF8020010208DF8030093
:1046200069460948FCF7C8FA4FF48060ADF800000D
:1046300003208DF8020010208DF80300694603481E
:10464000FCF7BAFA08BD0000001001400014014058
:1046500010B5122000F054FBAE2000F084FBA12026
:1046600000F06FFB1F2000F099FB002000F072FBB0
:10467000002000F0C1FB052000F087FB022000F0C5
:1046800036FBA12000F09CFBC82000F04BFB122061
:1046900000F03FFBEF2000F04BFB152000F087FB04
:1046A000082000F01BFBA42000F063FBA62000F014
:1046B00066FB0020FEF7F6FFAF2000F054FB0A2057
:1046C000FEF7A2FD10BD10B5FFF7A0FF00F006F841
:1046D000FFF7BEFF00F0A6F810BD000010B54FF4C4
:1046E00080610748FCF750FB00F0EEF82820FEF749
:1046F0008BFD00F0E1F80520FEF7ACFD10BD0000D9
:10470000001401402DE9F84F82460F469046994625
:10471000DDF828B0BAF1010F06D0BAF1020F04D0CB
:10472000BAF1030F0BD105E00AE0781E3B4901EB1B
:10473000401605E0781E3A4901EB001600E000BF84
:1047400000BF3446484600F05EFB584600F03EFB92
:104750000020FCF74AFD78210020FCF717FD00201F
:10476000FCF77BFD40210020FCF710FD0020FCF74A
:1047700074FD00250DE0207800F0AEF801460090B1
:104780000020FCF703FD0020FCF767FDA41C681C5B
:10479000C5B24545EFDB00210846FCF7F7FC0020D9
:1047A000FCF75BFD0020FCF73CFD09F10101C8B2FC
:1047B00000F029FB584600F009FB0020FCF715FD2E
:1047C00078210020FCF7E2FC0020FCF746FD4021A8
:1047D0000020FCF7DBFC0020FCF73FFD741C0025EB
:1047E0000DE0207800F078F8014600900020FCF7FA
:1047F000CDFC0020FCF731FDA41C681CC5B245456A
:10480000EFDB00210846FCF7C1FC0020FCF725FD8A
:104810000020FCF706FDBDE8F88F000040040020F2
:10482000000100200EB505A207CA8DE80700092384
:104830001C220121684600F023F80EBD090612056E
:1048400005030F0D0D000000F8B506460F4614468F
:1048500035462878352804D104F11800C4B26D1CFF
:10486000F8BD009429783B4610220220FFF74AFF4A
:1048700004F11800C4B2287800B9F1E700BFEFE7EF
:104880002DE9F84305460E4614461F46A8460CE09F
:10489000009498F80010334608220320FFF732FFF7
:1048A00008F1010804F10800C4B23800A7F10101C1
:1048B000CFB2EDD1BDE8F88310B502210148FCF775
:1048C00063FA10BD0010014010B502210148FCF749
:1048D00059FA10BD001001400146002001F00F02FE
:1048E000054B9A5C40EA0212D0B21A4602EB211242
:1048F00012781043704700009E0D002010B504464A
:104900000020FCF772FC78210020FCF73FFC00201F
:10491000FCF7A3FC00210846FCF738FC0020FCF75C
:104920009CFC21460020FCF731FC0020FCF795FCA4
:104930000020FCF776FC10BD70B588B0182102A8E5
:10494000FBF72FFC00250024584890F8480000F0A1
:104950008000802824D1554890F8480000F07F0559
:104960000020524981F8480000BF07E04F4904F198
:104970004900085C02A90855601CC4B2AC42F5DBD2
:10498000294602A8FEF78DFBE800C0F1800606EB81
:10499000D670C0F347022B46012102A8FFF770FF33
:1049A000424890F84700012805D100203F4981F88E
:1049B0004700FEF777FE3D4890F82A00012805D110
:1049C00000203A4981F82A00FFF7EAFD374890F8BD
:1049D0002500012807D10020344981F82500132142
:1049E0000320FFF76FFD314890F82E0000F0010022
:1049F00030B100202D4981F82E00AF2000F0B3F92E
:104A00002A4890F82E0000F00200022806D100206B
:104A1000264981F82E00AE2000F0A5F9234890F831
:104A20002E0000F00400042807D100201F4981F85F
:104A30002E0091F82F0000F07BF91C4890F82D0013
:104A400000F0800080282ED1184890F82D0000F04A
:104A50007F050020154981F82D00002407E0134947
:104A600004F13200085C02A90855601CC4B2AC42D3
:104A7000F5DB294602A8FEF7FCFA8020002303227A
:104A8000114600901846FEF73DFE05EB450040003C
:104A9000C0F1800606EBD670C0F34703032202A9DB
:104AA000012000F00FFA08B070BD0000E8150020EA
:104AB00010B51FA0FEF78CF86420FEF7E9FD4FF457
:104AC0007A70FEF7A1FB40212148FCF75BF9002139
:104AD0000320FFF797FBFFF7EFFC04211D48FCF7CD
:104AE00051F94FF400611C48FCF74CF94FF4805128
:104AF0001948FCF747F980211648FCF743F90821CB
:104B00001348FCF73FF94FF47A70FEF77DFB4FF442
:104B10007A70FEF779FB4FF47A70FEF775FB4FF46D
:104B20007A70FEF771FB4FF47A70FEF76DFB10BDE3
:104B30002A2A2A2A2A2A20706F7765725F6F666692
:104B40005F73797374656D202A2A2A2A2A2A0A003B
:104B500000140140001801400008014010B519A0E0
:104B6000FEF736F801210320FFF74CFBFFF7A4FC0A
:104B7000FFF758FE40211B48FCF706F904211A48AC
:104B8000FCF702F94FF400611848FCF7FDF84FF408
:104B900080511648FCF7F8F880211348FCF7F4F828
:104BA00008211048FCF7F0F84FF47A70FEF72CFB60
:104BB00001200F4908600F4800680F490860FBF7A3
:104BC00087FD10BD2A2A2A2A2A2A20706F7765724B
:104BD0005F6F6E5F73797374656D202A2A2A2A2AA3
:104BE0002A0A0D000014014000180140000801408D
:104BF0002C000020440000203000002008B50420D4
:104C0000ADF8000003208DF8020010208DF803009D
:104C100069460748FBF7D0FF04210548FCF7B2F8C6
:104C20000520FEF7F1FA04210148FCF7ADF808BDB4
:104C30000018014010B51F4890F86000442805D1C5
:104C4000FFF736FF00201B4981F86000194890F8F3
:104C5000620055282DD118A0FDF7BAFF6420FEF799
:104C600017FD4FF47A70FEF7CFFA40211A48FCF78F
:104C700089F800210320FFF7C5FAFFF71DFC4FF468
:104C80007A70FEF7C1FA4FF47A70FEF7BDFA4FF46E
:104C90007A70FEF7B9FA4FF47A70FEF7B5FA4FF46E
:104CA0007A70FEF7B1FAFFF759FF0020014981F849
:104CB000620010BDE81500202A2A2A2A2A2A20721A
:104CC0006573746172742073797374656D202A2A18
:104CD0002A2A2A2A0A0D00000014014010B50446B1
:104CE000DB20FFF70BFE0820FFF708FE10BD10B514
:104CF00004462020FFF702FE2046FFF7FFFD10BD0F
:104D000010B50446FD20FFF7F9FD2046FFF7F6FD3C
:104D100010BD10B50446DA20FFF7F0FD2046FFF77E
:104D2000EDFD10BD10B504462046FFF7E7FD10BDB0
:104D300010B504468120FFF7E1FD2046FFF7DEFDB8
:104D400010BD10B50446D520FFF7D8FD2046FFF76B
:104D5000D5FD10BD10B50446D320FFF7CFFD0020D0
:104D6000FFF7CCFD10BD10B504462046FFF7C6FD89
:104D700010BD10B504462046FFF7C0FD10BD10B5AC
:104D800004462046FFF7BAFD10BD10B50446D820F2
:104D9000FFF7B4FD2046FFF7B1FD10BD10B5044686
:104DA000A820FFF7ABFD2046FFF7A8FD10BD10B50A
:104DB0000446D920FFF7A2FD1520FFF79FFD10BD87
:104DC00010B504462046FFF799FD10BD70B50446A6
:104DD0002546E11704EB11710911A4EB0111C8B2CA
:104DE000FFF78CFD2546E11704EB11710911103115
:104DF000C8B2FFF783FD70BD10B5044644F0400013
:104E0000FFF77CFD10BD10B5044644F0B000FFF77D
:104E100075FD10BD2DE9F04707460D4690469946B1
:104E2000012F04D0022F08D0032F12D10BE0681EEF
:104E300000EB8000204944180CE0681E00EB800065
:104E40001E49441806E0681E00EB80001C49441807
:104E500000E000BF00BF4046FFF7D5FF4846FFF720
:104E6000B5FF0020FCF7C1F978210020FCF78EF98E
:104E70000020FCF7F2F940210020FCF787F9002020
:104E8000FCF7EBF9002609E021780020FCF77EF919
:104E90000020FCF7E2F9641C701CC6B2052EF3DB9F
:104EA00000210846FCF772F90020FCF7D6F9002033
:104EB000FCF7B7F9BDE8F087D7060020870B002084
:104EC000E00500202DE9F04107460D4690461E46BC
:104ED0002C463346424660210120FFF79BFF0BE042
:104EE0002178334642463846FFF794FF641CB01DD4
:104EF000C6B2207800B900E0F2E700BFBDE8F0815B
:104F000010B5FEF75FF94FF4A060FCF74DFBFCF71E
:104F1000D7FC4FF4E130FEF7DBFA47216320FCF7C2
:104F2000E3FF40F271210620FCF7C8F91E20FEF7CE
:104F30006BF900F029F84FF4E131242000F032F849
:104F4000FEF7C4FCFEF7D4FDFDF702F8FFF7BBFB4C
:104F500018216320FEF70AFBFCF76AFCFFF74EFE00
:104F600010BD10B5FFF750FA00F0EAF8FFF7E4FCC7
:104F700000F090F8FFF75EFEFEF786FAFEF7ACF859
:104F8000FEF7AAFC10BD000010B500200349088000
:104F900018210348FBF705F910BD0000720000203E
:104FA000061700202DE9F05F05460E463001FBF79D
:104FB000CBF98146334905FB01F0FBF7C5F9824681
:104FC0004946FBF783F907463846FBF7C2F984B236
:104FD0002046FBF7B9F983463946FBF742F982468A
:104FE0004FF08341FBF740F98146FBF7B2F9804669
:104FF0004FF6FF7000EA041404EB080084B2224864
:10500000806940F01000204988610846C06940F47A
:105010000020C8611D48406820F47F401B4948605B
:105020000846406840F40B4048600846C06840F4B9
:105030000060C8601448006940F40020124908610B
:105040000846006920F40020086111480480001D12
:10505000008842F20C0108430D49091D08800846EA
:10506000008840F4807008800846008840F02000E6
:1050700008800223342200211846FCF7F7F9BDE826
:10508000F09F000040420F0000100240001001405D
:10509000084C004010B51F480068012806D11E4882
:1050A00000681E49086000201A4908601C4890F8F2
:1050B0007B0000F0800018B100201A49086002E06F
:1050C00001201849086044F620621348016813481B
:1050D0000068FEF761FB68B101200E4908601148C5
:1050E000006808B1FEF792FA0D48827881790EA027
:1050F000FDF76EFD0A48C07900F0800048B108490C
:105100008879FEF7C5FA0648C07920F08000044986
:10511000C87110BDD000002044000020C80000204D
:10512000E8150020CC00002073706565643A2025E6
:10513000642C74656D70203A2025640A000000001C
:1051400010B522210120FFF747F923210220FFF7A4
:1051500043F924210320FFF73FF90D492220FEF7F0
:10516000E5FE0C492320FEF7E1FE0B492420FEF763
:10517000DDFE0A492220FFF799F809492320FFF7AD
:1051800095F808492420FFF791F8FFF70DF810BDB6
:10519000600000206800002064000020D40000208F
:1051A000D8000020DC00002050726F635F556172F0
:1051B00074436F6E74726F6C0055534152545F6745
:1051C000657452656376466C61670055534152546D
:1051D0005F636C65617252656376466C616700550A
:1051E000534152545F636C656172526563764C65DE
:1051F0006E0055534152545F67657452656376443F
:105200006174610055534152545F5772697465442B
:10521000617461003452010800000020E80D0000B4
:10522000AE040108085C0108E80D0020180E00001B
:10523000002C0108013C021B010A1AF41D110A335B
:105240007F54410A1903242918091E400910A0405F
:105250000D07F00FF0188018800FF007F0400D1FB9
:10526000F01FF0111011101FF00EE01E0FE01FF0E4
:1052700010016D1C700C6020A809101018300FE090
:1052800007C0301A11247910112902390F69407DA5
:10529000901CF00C601A01A82908611A106C2924CE
:1052A0007112601A703B2914398049306F07C01E93
:1052B000F018301029203902591012045C038004C0
:1052C000522906120612034B01801069C07C1FF0A0
:1052D0000F50299E121FAA0EA09E181FFC0FE4203B
:1052E000193E430E70380D0C201E3013101190180B
:1052F000F00860AE190239B059E01A1F40B9B01A6F
:10530000C00812301A30183AC010194A111470032C
:10531000801A702222801E18701CF007B03C1CF00E
:1053200018601A1E8A1E01F001F01F0A3960480B2E
:105330007010F0119013101E101C61180B6004F017
:105340000490049007F003CE59F01C10041010399B
:10535000703C03E00710AD063002201049FE5910E2
:1053600029401A90843112014A0FE219023920783B
:105370000CE207F20412041207FE07FC601112048B
:105380006970294C3C37F037E4511B0204023C376A
:10539000FE372E49301138088001C007700630C032
:1053A0001901391459301B07F080116B07E052497D
:1053B00010896069B069D019880A12FEE02918695D
:1053C00050120112021A060239201B1007DE1902C0
:1053D0003CF00460B0111B1FE0C219324A0480196E
:1053E00040298C2938391014C007E012301A3018BF
:1053F0005AC01012F01C3003C0122AF0127F06307F
:10540000077001C0D0160207E207F212161C1C0733
:10541000F8382960380B30047004D0059007100666
:1054200060211809FFC0804084408450023A700611
:105430003F4095408E40C45E412B1F80021E3FC0FE
:105440007FE0FF821209D0084620402030C00F22A2
:105450001F100C807E50FF50FF70FF507E501A804E
:1054600010911CCF3090011E92908B108002800B07
:105470009F90821086108910D0B01CCCB0941E3A38
:10548000931C49222E92109210CCBE51120F180A72
:1054900039C049204920FFF089382BFFF00C9A3998
:1054A0008049C07C8E5095C029020916C01408801E
:1054B0000512021A0508911210AC201F40C01420DA
:1054C000805F891F0911C0119488D0D0F9C0138062
:1054D000929492D0CCD9C01112481C48D03816A949
:1054E000C019021A50023A7006290E4B40FFC02321
:1054F0006060163E5149453E14427F40202942617A
:105500005149462141454B311814127F102745451A
:1055100045393C4A49493001710905033649494931
:1055200036064949291E1AFC013159071AE0011AA9
:10553000600429541AEC0131300D043CFCFCF0806D
:1055400080F0FCFC3C04300C070F1F1F1C181C1FB4
:105550001F0F071A1F014905590C411A0123192071
:105560004201300C80E0E0F0703070F0E0E0801A32
:10557000F00171290B2A3001690C1C70F0F024280D
:105580000B0F3F3F7F7060707F3F3FF81A7F011A1B
:105590006001590B1A6301690C19242A7F242A4FD0
:1055A0009419021B147F021010242A7F2A1223133D
:1055B0000864623649552250330503241C224114E5
:1055C00041221C1F14083E0814080512081A5077BF
:1055D0002A080111295D100B20100804023E5149D0
:1055E000453E14427F4010294261514946214145C0
:1055F0004B311814127F1027454545393C4A49491B
:105600003001710905033649494936064949291EC1
:105610003336361A56051B0814642A1401196928F2
:105620001314080201510906324979413E7E1111D5
:10563000117E7F321F3E414141227F042A1C0F18F8
:105640000D417F090909013E4149497A7F86127F50
:1056500014417F412F2040413F017F4C1B7F40017F
:10566000280B7F020C027F7F0408107F3C2A3E3209
:10567000180D063E4151215E7F09192946464618FC
:10568000083101017F01013F2C18163F1F204020E7
:105690001F3F4038403F6314081463070870080731
:1056A000C71345431974111A024612201441417F51
:1056B0002E04020102045E1A400819FA180F54540D
:1056C00054787F484444383844444420051C487F7B
:1056D00038141F18087E090102E61008493F7F08A8
:1056E0000404781C447D40A013443D257F102844C9
:1056F00019A2112F7C0418047C7C1E293C1B387CC9
:10570000FE3E0808141418141B084846180D2004FF
:105710003F4440203C4040207C1CA018091C3C40D9
:1057200030403C442842100B0C5050503C446454D0
:105730004C4434083641327F14413608299F7702A1
:105740003E55554122224F20151824742E24487EA0
:105750004942405D2222225D15167C1615227716DD
:105760000A555555281A010211180B0A0D0A04088A
:10577000142A14220401121C140808082A01011119
:10578000140205021D44445F44B519FC18097E202B
:1057900020103E060F7F703318183C4050203C11FB
:1057A0001A223C2822081708342A7D1708046A594F
:1057B00030484540207029262870702826297070AE
:1057C0002A252A7072290A2B29240F48132D2A70A2
:1057D0007E117F49490E515171117C555654440533
:1057E0001C5655560A145455441B457E7224447E5B
:1057F0004524467D4614457C4519303816413E7C8B
:105800000A11227D384546443838444645383846E2
:1058100045460518353938454445382214081422C0
:105820002E5149453A3C4142403C3C4042413C3C7F
:105830004241423C3C4140413C0C1062110C7F1201
:1058400012120C403E014936207318087820545635
:10585000557820781A780F190A197D190F180F57E3
:10586000567824547854580C5252721338281B1806
:1058700038281B1838281B183823121824497A4056
:1058800024487A411C4A7942051378423819314A32
:105890004E4A307A110A097030494A483030484A35
:1058A0004930304A494A05181F31304A484A3008C1
:1058B000082A08083864544C383841422078384067
:1058C0004221783842412205281D4022780C50524E
:1058D000513C7E141414080C5150513C1E090929E6
:1058E0005E081515354EEB2A20501A20FA190A1AAF
:1058F000490A1A7C0A1808382050507C031F231BC1
:10590000510E051B467CC31A44AF19A014447C40B9
:10591000167F4844404014497F4418087C081221EF
:105920007C78109B2B7C090A29A5281A3847444704
:1059300038304B484B303E417F4949384438545801
:105940007C151635481E1B1048F01C202048051AEF
:1059500048501C20204905102D04057E0504083CF4
:105960004822013C4245423C38424522783C434073
:10597000433C38434023780C1160110C4466554C6D
:1059800044486A59482B44640A1B685A0A2009652E
:10599000564D4448695A49240201021C010201057E
:1059A0001B010109290A1129042C0205021D1201FB
:1059B00018147F05153A503E555541221814081405
:1059C0000C444A4A5101180E4A4A447442414274F6
:1059D0007E1111117EAD280D49367F020101037041
:1059E0004E414E700F180D4161514945437F0808E3
:1059F000087F3E0F123E14417F4118317F08142268
:105A000041700E010E707F020C027F7F0408107F30
:105A1000635D495D633E4141413E413F013F417FFE
:105A200009090906635549414101017F51180B01DC
:105A30007E010308557F5508637D10256307487F65
:105A400048075E6101615E384448304C7C2A2A2A4E
:105A5000144438040408304B4D5930285454442021
:105A6000100F185552223E0402027C3C4A4A4A3C1E
:105A7000143C4020182D7C1028444041320C30400A
:105A80007E2020103E1C2040201C142B2A2A603827
:105A900044444438443C047C4470282424180C12A8
:105AA0001252141E4C5424043C4A1B3C4028180833
:105AB00018247E241844284210190C107E100C382B
:105AC000443044380A0A4A2A1E044434140C201074
:105AD0007804181618084C48384848784848482828
