:020000040801F1
:10000000D81C00204D01010831120108090C01081B
:1000100069110108330201080929010800000000E4
:10002000000000000000000000000000E7170108C9
:100030005902010800000000D912010875190108D1
:100040001929010867010108670101086701010812
:1000500067010108670101086701010867010108DC
:10006000670101080D030108210301086701010868
:1000700067010108670101086701010867010108BC
:1000800067010108670101086701010867010108AC
:10009000670101086701010867010108B50301084C
:1000A000670101086701010867010108670101088C
:1000B000D9190108291B0108411C01086701010821
:1000C00067010108990C01080D0C0108670101087E
:1000D00067010108AD2201086701010859230108E1
:1000E0009902010867010108670101086701010819
:1000F000670101086701010867010108670101083C
:10010000670101086701010867010108670101082B
:100110003D21010855220108670101086701010816
:10012000670101086701010867010108670101080B
:10013000DFF80CD000F040F800480047953D01087A
:10014000D81C002080F308887047000006488047CC
:1001500006480047FEE7FEE7FEE7FEE7FEE7FEE7AC
:10016000FEE7FEE7FEE7FEE7791901083101010825
:1001700040EA01039B0703D009E008C9121F08C029
:10018000042AFAD203E011F8013B00F8013B521EA9
:10019000F9D27047D2B201E000F8012B491EFBD220
:1001A00070470022F6E710B513460A460446194682
:1001B000FFF7F0FF204610BD064C074D06E0E06853
:1001C00040F0010394E8070098471034AC42F6D39E
:1001D000FFF7B2FFC4490108E449010870B58C1863
:1001E00010F8015B15F0070301D110F8013B2A114B
:1001F00006D110F8012B03E010F8016B01F8016B38
:100200005B1EF9D12B0705D40023521E0DD401F833
:10021000013BFAE710F8013BCB1A921C03E013F8FC
:10022000015B01F8015B521EF9D5A142D8D3002031
:1002300070BD00BFFEE700000020024908600249CF
:1002400008607047280000202C00002010B502F044
:1002500063FF02F0DFFF10BD7047000070B5054678
:100260000E460024F4B240210948FFF79AFF3E2CC5
:1002700000DD70BD224629460548FFF779FF0A20B8
:1002800003490855621C034802F0D5F900BFF0E7A6
:10029000D01700200038014010B54FF4006000F086
:1002A0005BF958B31648007820B11548007800F083
:1002B0000400F8B113480068012813D1102000F0A1
:1002C00045F9402000F042F90F48006820F0400056
:1002D0000D4908600846006820F010000860002002
:1002E0000849086003F09EF80548007840F00400D3
:1002F000034908704FF4006000F028F910BD0000B9
:10030000920000209C0000200004014010B508204D
:1003100000F022F910B1082000F018F910BD00001B
:1003200010B5102000F018F900283BD01E480078C6
:1003300020B11D48007800F0020080B31B4800681F
:10034000012824D1202000F001F9402000F0FEF81F
:10035000802000F0FBF84FF4006000F0F7F814483C
:10036000006820F02000124908600846006820F06C
:10037000400008600846006820F0800008600846D9
:10038000006820F40060086000200849086003F05D
:1003900049F80548007840F0020003490870102031
:1003A00000F0D4F810BD0000920000209C00002056
:1003B0000004014010B5202000F0CEF800283BD00A
:1003C0005F48007820B15E48007800F0010080B3FB
:1003D0005C480068012824D1102000F0B7F84020C4
:1003E00000F0B4F8802000F0B1F84FF4006000F0A5
:1003F000ADF85548006820F01000534908600846E1
:10040000006820F0400008600846006820F0800086
:1004100008600846006820F4006008600020494930
:10042000086002F0FFFF4648007840F001004449B0
:100430000870202000F08AF8402000F08DF8002895
:100440003BD03F48007820B13D48007800F00800DC
:1004500080B33C480068012824D1102000F076F8D1
:10046000202000F073F8802000F070F84FF4006056
:1004700000F06CF83448006820F020003249086031
:100480000846006820F0100008600846006820F068
:10049000800008600846006820F4006008600020C2
:1004A0002849086002F0BEFF2548007840F00800A7
:1004B00023490870402000F049F8802000F04CF8F3
:1004C00000283BD01E48007820B11D48007800F07D
:1004D000100080B31B480068012824D1102000F0D0
:1004E00035F8202000F032F8402000F02FF84FF4CB
:1004F000006000F02BF81448006820F0200012493A
:1005000008600846006820F040000860084600685F
:1005100020F0100008600846006820F400600860C1
:1005200000200849086002F07DFF0548007840F08F
:10053000100003490870802000F008F810BD00008A
:10054000920000209C000020000401400149086046
:100550007047000014040140014600200022074BB0
:100560001B6803EA0102054B14331B680B4013B1EF
:100570000AB1012000E000207047000000040140A3
:10058000002123498279002A3AD00A46126803687A
:100590009A430B461A600A1D126803689A430B1DA2
:1005A0001A60027911440A6803681A430A60184AFB
:1005B0000832126803689A43154B08331A601A1DF3
:1005C000126803689A43124B0C331A604279102A5E
:1005D0000ED11A1F126803681A430D4B08331A60B4
:1005E0001A1D126803681A43094B0C331A600DE098
:1005F0000749427911440A6803681A430A6005E012
:10060000027911440A6803689A430A60704700003F
:100610000004014030B5044604254FF4302000F0BA
:100620006FF80546042D17D10C48006940F0020010
:100630000A49086108464461006940F040000861C9
:100640004FF4302000F05CF805460448006941F69C
:10065000FD71084001490861284630BD0020024074
:1006600004200B49C96801F0010109B101200EE025
:100670000749C96801F0040109B1022007E00449F3
:10068000C96801F0100109B1032000E0042070479F
:10069000002002400348006940F0800001490861E1
:1006A000704700000020024070B504460D46042645
:1006B000F00200F025F80646042E11D10948006921
:1006C00040F00100074908612580F00200F018F8A9
:1006D00006460448006941F6FE7108400149086178
:1006E000304670BD0020024002480349486003487C
:1006F000486070472301674500200240AB89EFCD79
:1007000000B502460423FFF7ABFF034603E0FFF703
:10071000A7FF0346521E012B01D1002AF7D102B9CF
:100720000523184600BD00002DE9F04104460F46A0
:100730000026002507F0FF084046B8F1330F62D0CD
:100740000EDCA0F12200112872D2DFE800F0223284
:1007500042B071717171A57171CFBE716672520034
:10076000702871D00CDC61286FD004DC47286DD074
:1007700048285DD16CE0622869D06328F9D1FDE09A
:10078000712872D07B2871D07C2870D07D28F0D160
:10079000D2E020797D4981F82200084690F82200B5
:1007A000242802D1022081F86B00404601F048F86D
:1007B000E8E02079754981F82300084690F8230085
:1007C000242802D1022081F86C00404601F038F85C
:1007D000D8E020796D4981F82400084690F824007B
:1007E000242802D1022081F86D00404601F028F84B
:1007F000C8E0207900F00300644981F88400404695
:1008000001F01EF8BEE0207900F003005F4981F896
:100810008500404601F014F8B4E020795B4981F886
:100820008000012081F88100404601F009F8A9E02C
:10083000A7E02079554981F88200012081F88300E2
:10084000404600F0FDFF9DE095E07CE01CE08AE082
:1008500020794E4981F84800084690F8480000F099
:100860007F06102E0CDA002508E074E053E05AE011
:10087000681D215C454A443011546D1CB542F7DBBC
:10088000404600F0DDFF7DE02079404981F84700D7
:10089000404600F0D5FF75E020793C4981F82A00F8
:1008A000607981F82C00404600F0CAFF6AE000251C
:1008B00005E0281D215C2130344A11546D1C052DA2
:1008C000F7DB404600F0BCFF5CE020792F4981F85F
:1008D0002E00084690F82E0000F0040010B1607958
:1008E00081F82F00404600F0ABFF4BE0207927490C
:1008F00081F82D00084690F82D0000F07F06102E9C
:1009000005DA3246611D21483230FFF731FC40469E
:1009100000F096FF36E020791C4981F87B004046C4
:1009200000F08EFF2EE020791849C8716079887137
:10093000404600F085FF25E01448C27881784046A3
:1009400000F066FF1EE02079104981F86000404603
:1009500000F076FF16E020790C4981F860004046EF
:1009600000F06EFF0EE02079084981F862004046F1
:1009700000F066FF06E000F015F903E000F032F940
:1009800000E000BF00BFBDE8F08100002416002099
:1009900030B500228B071C0F0F2303FA04F20B4B18
:1009A0008C1053F824309343084C8D1044F82530B4
:1009B00023468C1053F824308C07240F00FA04F4DB
:1009C0002343024C8D1044F8253030BD080001400F
:1009D0002DE9F041024600250026002000230024D6
:1009E000002791F803C00CF00F0591F803C00CF03C
:1009F000100CBCF1000F03D091F802C04CEA0505C1
:100A000091F800C0BCF1000F31D0146800202BE039
:100A10004FF0010C0CFA00F3B1F800C00CEA030629
:100A20009E4220D183004FF00F0C0CFA03F7BC4319
:100A300005FA03FC4CEA040491F803C0BCF1280F4A
:100A400006D14FF0010C0CFA00FCC2F814C00AE009
:100A500091F803C0BCF1480F05D14FF0010C0CFA1E
:100A600000FCC2F810C0401C0828D1D31460B1F8B3
:100A700000C0BCF1FF0F34DD546800202EE000F10F
:100A8000080C4FF0010808FA0CF3B1F800C00CEAAA
:100A900003069E4221D183004FF00F0C0CFA03F79E
:100AA000BC4305FA03FC4CEA040491F803C0BCF112
:100AB000280F05D100F1080C08FA0CF8C2F81480D0
:100AC00091F803C0BCF1480F07D100F1080C4FF0BA
:100AD000010808FA0CF8C2F81080401C0828CED390
:100AE0005460BDE8F0810000F0B50A460023002400
:100AF0000021002500F00046B6F1004F02D11D4E46
:100B0000F16901E01B4E7168C0F3034583B200F444
:100B10004016B6F5401F08D121F07061154E766879
:100B200026F07066134F7E6012E000F48016B6F572
:100B3000801F06D1032606FA05F4A14341F0706137
:100B400006E0460D360103FA06F6B14341F0706146
:100B500022B1460D360103FA06F6314300F0004695
:100B6000B6F1004F02D1034EF16101E0014E716018
:100B7000F0BD0000000001400246002093680B40D9
:100B80000BB1012000E00020704702460020D3682E
:100B90000B400BB1012000E000207047416170471D
:100BA0000161704710B50C480068002809DD0A484B
:100BB0000178702000F018FE4FF0FF300649086001
:100BC00003E00021702000F00FFE002003490860C0
:100BD0000349086010BD0000B0000020A8000020FC
:100BE000AC00002010B507480068012806D100209D
:100BF00004490860612000F023FE02E0632000F059
:100C00001FFE10BD3800002000BFFEE708B5002021
:100C10000090204800880090009800F48060B0F5B3
:100C2000806F08D11B4800884FF6FF3108401949F2
:100C3000088000200090009800F40070B0F5007F5C
:100C400008D1144800884FF6FF3108401149088048
:100C500000200090009800F48070B0F5807F08D1EB
:100C60000C4800884FF6FF6108400A4908800020C0
:100C70000090009800F40060B0F5006F08D10548BE
:100C800000884FF2FF710840024908800020009060
:100C900008BD0000145800400CB5002001900090E1
:100CA0002E48008801902D48001D00880090009873
:100CB00000F0010000284FD1019800F08200822846
:100CC00002D1002001900090019800F0020002285B
:100CD00006D1002001900090214908702149087038
:100CE000019800F08000802809D11F481D4909782B
:100CF000405C1A49091F088000200190009001986B
:100D000000F04000402817D11548007850B913482A
:100D1000001F00881349087011480078401C1049D2
:100D2000087006E00D48001F00880F490D4A127830
:100D30008854002001900090019800F010001028C5
:100D40000AD106481438008840F0010003491439DC
:100D500008800020019000900CBD00001458004055
:100D600044000020450000202416002021B1028804
:100D700042F00102028004E002884FF6FE731A403E
:100D80000280704710B504460B48844209D1012106
:100D9000480500F0BBFB00214FF4001000F0B6FB4B
:100DA00008E00121880500F0B1FB00214FF480002C
:100DB00000F0ACFB10BD0000005400401AB1838865
:100DC0000B43838002E083888B438380704700005D
:100DD0002DE9F04385B004460D460026B1460427B0
:100DE000DFF8CC80A6884FF6C0700640684600F059
:100DF000CBFBDDF808802F48B8FBF0F01FFA80F934
:100E000046EA0906A68020884FF6FE710840208039
:100E100000262949286888420CD828684000B8FB79
:100E2000F0F087B2042F00DA04273E4309F10100F5
:100E3000208427E0E8884BF6FF71884206D12868B5
:100E400000EB4000B8FBF0F087B209E0286800EB47
:100E5000C00101EB0010B8FBF0F087B247F4804707
:100E6000C7F30B0008B947F0010747F400400643F9
:100E70004FF4967009FB00F04FF47A7190FBF1F09B
:100E8000401C2084A683208840F001002080268812
:100E90004FF6F5300640A888698908430643268046
:100EA000A88929890843208105B0BDE8F0830000A6
:100EB00000127A0040420F00A086010010B50446DF
:100EC0000021204600F062F8204600F0E1FB0021FE
:100ED000204600F061F8022001F082FE0121204648
:100EE00000F054F8022001F07BFE0021204600F0C3
:100EF0004DF810BD10B504460021204600F046F81C
:100F0000204600F0C5FB0121204600F045F80220F4
:100F100001F066FE0121204600F038F8022001F0C1
:100F20005FFE0021204600F031F810BD2DE9F041B0
:100F300007460D4600260024384600F099FB00BF06
:100F400017E00021384600F021F8022001F048FEA9
:100F50000121384600F01AF86006040E384600F009
:100F60007DFB08B1601CC4B2012001F039FE701C89
:100F7000C6B2082EE5DB1DB93846FFF7BBFF02E01D
:100F80003846FFF79BFF2046BDE8F08108B9014ACB
:100F9000116070479881214208B9014A1160704779
:100FA0009C81214270B506460C46304600F070FB2D
:100FB00000213046FFF7EAFF00251FE0E00920B1DD
:100FC00001213046FFF7E8FF03E000213046FFF73C
:100FD000E3FF6006040E022001F002FE012130460C
:100FE000FFF7D4FF022001F0FBFD00213046FFF7A0
:100FF000CDFF022001F0F4FD681CC5B2082DDDDB39
:1010000070BD10B50446204600F042FB0121204689
:10101000FFF7C2FF01212046FFF7B8FF042001F0CF
:10102000DFFD00212046FFF7B7FF042001F0D8FDC7
:1010300000212046FFF7AAFF10BD10B50446204648
:1010400000F026FB00212046FFF7A0FF00212046EC
:10105000FFF7A2FF042001F0C3FD01212046FFF7A6
:1010600095FF01212046FFF797FF042001F0B8FD0E
:1010700010BD70B505460024284600F0F9FA01209D
:1010800001F0AEFD01212846FFF780FF012001F0AD
:10109000A7FD08E0601CC4B2FA2C04DD2846FFF767
:1010A000CCFF012070BD284600F0D8FA0028F1D10D
:1010B00000212846FFF76AFF0020F3E74CF6CC40FA
:1010C00001490860704700000030004010B500F092
:1010D0001BF810BD70B505460C4645F2555000F0A2
:1010E00027F8284600F018F8204600F01BF800F01A
:1010F0000BF8FFF7E3FF024800680249086070BD83
:1011000048000020580000204AF6AA200149086043
:1011100070470000003000400149486070470000FF
:1011200000300040014988607047000000300040F6
:1011300001490860704700000030004010B50446C7
:10114000206807490840B0F1005F08D16068054990
:1011500008602068FEF7F6FF02480068804710BD6F
:101160000000FE2FF00D002000BFFEE72DE9F0414A
:1011700005460E462F4606F00704012F02D0022F27
:1011800050D12AE004F0010028B14FF480712748C3
:10119000FFF706FD04E04FF480712448FFF7FEFCE2
:1011A00004F0020028B14FF400712048FFF7F8FC6A
:1011B00004E04FF400711D48FFF7F0FC04F0040058
:1011C00028B14FF480611948FFF7EAFC04E04FF4BE
:1011D00080611648FFF7E2FC25E004F0010020B131
:1011E00008211248FFF7DCFC03E008210F48FFF755
:1011F000D5FC04F0020020B110210C48FFF7D0FC10
:1012000003E010210948FFF7C9FC04F0040020B1F5
:1012100020210648FFF7C4FC03E020210348FFF724
:10122000BDFC00E000BF00BFBDE8F0810018014038
:10123000704708B51E208DF8000003208DF80100CE
:1012400002208DF8020001208DF80300684600F0AE
:1012500001F808BD70B5002100230F22C47804B343
:10126000154C246804F4E064C4F5E064210AC1F17B
:101270000403CA40447804FA03F1847814402143FB
:1012800009010E4C0678A155047804F01F050124CD
:10129000AC4005786D11AD0005F1E025C5F80041C1
:1012A00009E0047804F01F050124AC40044D0678E1
:1012B000761145F8264070BD0CED00E000E400E03A
:1012C00080E100E002490143024A116070470000DA
:1012D0000000FA050CED00E0704710B502460B4621
:1012E0000020002104E0545C0444E0B24C1CA1B294
:1012F0009942F8DB10BD000010B50446054800789F
:10130000012805D1002003490870204601F018FA91
:1013100010BD0000000000202DE9F04107460D46F9
:1013200014461E464EF6AA30208068886080A68249
:1013300017212046FFF7D1FF8046C8F10000E07575
:1013400018222146384601F091F9BDE8F0812DE9D7
:10135000F04107460D4614461E464EF6AA30208040
:101360006580A68217212046FFF7B7FF8046C8F1A7
:101370000000E07518222146384601F077F9BDE8F3
:10138000F08100002DE9F04385B00646374C384D1A
:10139000142238A16846FEF7EBFE0027B846B9468E
:1013A000304601F02BFA012859D118212046FEF7CA
:1013B000F8FE18212846FEF7F4FE304601F094F9B5
:1013C0002146304601F0E8F918212046FFF785FF55
:1013D0008046B8F1000F30D120884EF6AA318842FD
:1013E0002BD1A08A102828DC608807282ADA608898
:1013F000032802D006281CD111E0002739462846D0
:1014000000F058F84B462A4621463046FFF784FF45
:1014100012216846FEF722FF00F03AF80CE01A4865
:101420000078287118484178697100274FF0020947
:1014300002E00120A87500BF04E0012013490870F4
:101440000320A8756088072809DA3946284600F085
:1014500031F84B462A4621463046FFF75DFF3046BD
:10146000FFF74AFF05B0BDE8F0830000F415002047
:101470000C1600207265626F6F7420666F722075A3
:10148000706772616465000024160020000000206F
:1014900008B545F2AA50009001226946044800F0C0
:1014A0001BF94FF00060FFF749FE002008BD000067
:1014B0000400070811B9002282750DE04A1C12B918
:1014C0000222827508E0012902D10122827503E01F
:1014D000022901D103228275704700000A200249C7
:1014E00008700320487070472416002029B1064A6E
:1014F000D2690243044BDA6104E0034AD2698243B1
:10150000014BDA61704700000010024029B1064A21
:1015100012690243044B1A6104E0034A12698243D0
:10152000014B1A61704700000010024029B1064AC1
:1015300092690243044B9A6104E0034A9269824330
:10154000014B9A61704700000010024029B1064A21
:10155000D2680243044BDA6004E0034AD268824353
:10156000014BDA60704700000010024010B5012105
:101570000448FFF7BBFF012144F27D00FFF7D6FFCF
:1015800010BD000002485E0030B50021002200249A
:1015900000232D4D6D6805F00C0121B1042905D003
:1015A000082923D105E0294D056022E0274D05607B
:1015B0001FE0254D6D6805F47012234D6D6805F42C
:1015C0008034022505EB92421CB9214D554305603C
:1015D0000BE01D4D6D6805F400351DB11C4D5543E4
:1015E000056002E0194D5543056002E0174D0560A6
:1015F00000BF00BF144D6D6805F0F0010909154DDD
:101600006B5C0568DD4045600F4D6D6805F4E06179
:10161000090A104D6B5C4568DD4085600A4D6D68B8
:1016200005F46051C90A0B4D6B5C4568DD40C5602F
:10163000054D6D6805F44041890B074D6B5CC5682D
:10164000B5FBF3F5056130BD0010024000127A00D1
:1016500000093D00BA0D0020CA0D0020014619B94D
:1016600002480068C0B270470020FCE71C8121429C
:1016700050B90649096821F07041044A11601146C9
:10168000096841F08041116070470000000C014082
:1016900050B90649096821F07041044A11601146A9
:1016A000096841F0E041116070470000000C014002
:1016B00030B503460C461546002207E0184600F0F8
:1016C00008F824F812009B1C501C82B2AA42F5DBD9
:1016D00030BD0146088870472DE9F05F80468A4694
:1016E0001746B8F1006F02D33348804501D3BDE8F7
:1016F000F09FFEF7F9FFA8F1006B4FEADB26CBF372
:101700004909C9F58064A74200DC3C464DE04FF032
:10171000006101EBC6204A142849FFF7C9FF0025E4
:101720000BE009EB0500254931F810004FF6FF7179
:10173000884200D003E0681C85B2A542F1DB00BFFF
:10174000A5421BDA4FF0006101EBC620FEF762FFF5
:10175000002508E03AF8150005EB0901174A22F8C0
:101760001100681C85B2A542F4DB4FF0006101EB6B
:10177000C6204A14114900F023F804E022465146DD
:10178000404600F01DF8A74200D10FE0761C4FF054
:1017900000090AEB440AA044381B87B2B7F5806FF2
:1017A00002DD4FF4806400E03C46B0E700BFFEF786
:1017B00071FF00BF9BE7000000000808F40D002047
:1017C0002DE9F04105460E461746002407E036F89D
:1017D00014102846FEF768FFAD1C601C84B2BC42A2
:1017E000F5DBBDE8F081704770B505460E46074C45
:1017F00018212046FEF7D5FC65802671102322466D
:1018000029460220FFF7A3FD70BD0000F41500205B
:101810002DE9F04105460E461746084C1821204692
:10182000FEF7BFFC658026716771102322462946AA
:101830000220FFF78CFDBDE8F0810000F4150020C8
:1018400070B50546064C18212046FEF7AAFC6580B7
:101850001023224629460220FFF779FD70BD0000C3
:10186000F415002010B500F001F810BD0CB50020F3
:10187000019000903348006840F48030314908609E
:1018800000BF3048006800F4003000900198401C10
:101890000190009818B90198B0F5A06FF1D12948CE
:1018A000006800F4003010B10120009001E0002039
:1018B00000900098012843D12348006840F01000B0
:1018C000214908600846006820F0030008600846C7
:1018D000006840F0020008601A48406819494860F2
:1018E0000846406848600846406840F480604860A8
:1018F0000846406820F47C1048600846406840F480
:10190000E81048600846006840F08070086000BF3A
:101910000C48006800F000700028F9D009484068C1
:1019200020F00300074948600846406840F0020084
:10193000486000BF0348406800F00C000828F9D157
:101940000CBD00000010024000200240042808D115
:101950004FF0E021096941F004014FF0E0221161EC
:1019600007E04FF0E021096921F004014FF0E02287
:10197000116170477047000010B51248006840F0D0
:10198000010010490860084640680F4908400D49A9
:101990004860084600680D4908400A490860084642
:1019A000006820F4802008600846406820F4FE00AB
:1019B00048604FF41F008860FFF754FF0448054952
:1019C000086010BD001002400000FFF8FFFFF6FEA7
:1019D0000000010808ED00E010B546480088401CF2
:1019E0004449088044480088401C434908804348D3
:1019F0000068401C414908600846006840F6B8315C
:101A0000884232D13E48007800F0200020280AD0D9
:101A10003C48006800F0100028B93A48006840F0DF
:101A20001000384908603648007800F0100010288F
:101A30000AD03448006800F0400028B931480068F6
:101A400040F040002F4908602E48006800F4006014
:101A500028B92C48006840F400602A49086000203A
:101A600026490860012028490860284800680128A4
:101A700013D127480068401C2549086008460068C3
:101A8000B0F5E17F09DB00200860204908602148AB
:101A9000007820F0C0001F4908701F480068012826
:101AA00012D11E480068401C1C49086008460068A6
:101AB00042F21071884207DB00201849086016497D
:101AC0000860401E164908601648007868B1094849
:101AD0000088B0F5617F08D11248007800201149D4
:101AE000087004490880044908800121880700F033
:101AF00092F910BD8C0000208E0000209400002080
:101B000098000020000401409C000020A400002058
:101B1000A000002084000020AC000020A8000020CD
:101B2000B00000209200002010B50121184800F0FC
:101B300090F958B30121164800F06DF91548006876
:101B4000401C1449086014480068401C1249086091
:101B500008460068B0F1FF3F01D1002008600D4841
:101B6000006842F21071884207D30C480068401C9C
:101B70000A490860002007490860084800686FF0BB
:101B80000041884202D100200449086010BD0000D5
:101B9000000400404C0000204800002050000020BD
:101BA0007FB505460C4601210220FFF79FFCADF8EA
:101BB0000850ADF804400020ADF80A00ADF806006A
:101BC00001A9104800F068FA01210E4800F020F940
:101BD000012211460B4800F04DF91D208DF8000040
:101BE00002208DF8010003208DF8020001208DF8FD
:101BF00003006846FFF72EFB0121024800F00EF9B2
:101C00007FBD00000004004010B500F003F800F0B4
:101C1000A1F810BD08B501210803FEF765FF4FF4D8
:101C20006040ADF8000018208DF8030003208DF807
:101C3000020069460148FEF7CBFE08BD00140140D2
:101C400010B501213D4800F004F9002875D03C484A
:101C5000006800B33B4800883849383108803A486A
:101C6000007828B137480068801C3649086004E0D5
:101C700034480068801E3349086032480068B0F577
:101C8000FA7F02DD0020304908702E48006810B944
:101C900001202D4908702D48006800B329480088AC
:101CA00026493C3108802848007828B1254800683A
:101CB000801C2449086004E022480068801E2149F5
:101CC000086020480068B0F5FA7F02DD00201E4958
:101CD00008701C48006810B901201B4908701C4896
:101CE000006800B31748008814494031088016483E
:101CF000007828B113480068801C1249086004E08D
:101D000010480068801E0F4908600E480068B0F552
:101D1000FA7F02DD00200C4908700A48006810B9FB
:101D200001200949087001F049FD01F081FF01F02F
:101D3000BFFD0121014800F06EF810BD0008004011
:101D4000640000205C000020600000206C00002087
:101D50006800002000B587B001210420FFF7C6FB12
:101D60004FF4FA70ADF8140040F2A460ADF8100022
:101D70000020ADF81600ADF8120004A91D4800F0CF
:101D80008BF96020ADF800000120ADF802000020C2
:101D9000ADF80600ADF808006946164800F074F882
:101DA0000821144800F0C2F86946124800F0CCF847
:101DB0000821104800F018F969460E4800F01EF995
:101DC00008210C4800F058F901210A4800F014F8E5
:101DD0000121084800F022F801221146054800F0D0
:101DE00049F8FFF726FA0121032001F091FE07B020
:101DF00000BD00000008004021B1028842F08002CE
:101E0000028004E002884FF67F731A400280704718
:101E1000CA4302827047CA430282704721B10288D6
:101E200042F00102028004E002884FF6FE731A407D
:101E30000280704731B1B0F8442042F40042A0F86B
:101E4000442005E0B0F84420C2F30E02A0F844207C
:101E5000704730B50246002000230024158A05EAA9
:101E60000103958905EA010413B10CB1012000E0DA
:101E7000002030BD1AB183890B43838102E083893E
:101E80008B4383817047000070B50024002200233B
:101E9000058C4FF6EF7635400584028C8388048BE1
:101EA00048F6FF752C404FF6FF452C400D884FF645
:101EB000FF7606EA05252C434FF6DF752A400D898B
:101EC00006EA05152A434D8806EA05152A43154DED
:101ED000A84202D0144DA8421DD14FF67F752A406A
:101EE0004D894FF6FF7606EA05152A434FF6BF7572
:101EF0002A408D8806EA05152A434FF6FF352B4008
:101F00004FF2FF752B408D8906EA85052B43CD895D
:101F100006EA85052B4383800483CD8805870284E8
:101F200070BD0000002C0140003401400A46002131
:101F3000018B4FF2FF7319404FF6FF7303EA022340
:101F4000194301837047000070B50024002200236C
:101F5000058C4FF6FF6635400584028C8388848BA0
:101F60004FF68F752C404FF6FC752C400D882C4396
:101F70004FF6FF552A400D894FF6FF7606EA0525F4
:101F80002A434D8806EA05252A43154DA84202D06A
:101F9000144DA8421DD14FF2FF752A404D894FF6CE
:101FA000FF7606EA05252A434FF6FF352A408D883D
:101FB00006EA05252A434EF6FF752B404DF6FF75C0
:101FC0002B408D8906EA05152B43CD8906EA0515B8
:101FD0002B4383808483CD888587028470BD000075
:101FE000002C0140003401400A460021818B4FF64D
:101FF000F7731940114381837047000070B50022C8
:1020000000230024058C4EF6FF7635400584038CB2
:102010008488828B48F6FF752A404FF6FF452A4098
:102020000D884FF6FF7606EA05252A434DF6FF7523
:102030002B400D8906EA05352B434D8806EA053508
:102040002B430B4DA84202D00A4DA84208D14BF6B3
:10205000FF752C408D894FF6FF7606EA85152C43D7
:1020600084808283CD88A0F84050038470BD000036
:10207000002C0140003401400A460021818B4FF2C0
:10208000FF7319404FF6FF7303EA0223194381835C
:102090007047018770470000002202881D4B98425C
:1020A0000ED01D4B98420BD0B0F1804F08D01B4B87
:1020B000984205D01A4B984202D01A4B984204D14C
:1020C0004FF68F731A404B881A43174B984207D02C
:1020D000164B984204D04FF6FF431A40CB881A4360
:1020E00002808B8883850B8803850A4B98420BD02E
:1020F000094B984208D00E4B984205D00D4B9842A0
:1021000002D00D4B984201D10B7A038601238382C2
:1021100070470000002C01400034014000040040E2
:1021200000080040000C0040001000400014004077
:1021300000400140004401400048014070B50024C7
:1021400040F22551174800F0B2F908B3154800F0E5
:1021500069FAC5B2144815490988455413480088DE
:10216000401C1249088008460088172814DD00200A
:1021700008800D488178C07801EB002084B2072CDC
:1021800007DD00200A49087021460748FEF7CCFA0F
:1021900002E001200649087040F22551014800F094
:1021A00010F970BD004C0040A01700207E000020F8
:1021B0007A00002000B587B0244800F01DF94FF4E4
:1021C0008060ADF8180003208DF81A0018208DF8F3
:1021D0001B0006A91E48FEF7FBFB4FF40060ADF89C
:1021E000180004208DF81B0006A91948FEF7F0FB23
:1021F00034208DF8040003208DF8050001208DF8AF
:1022000006008DF8070001A8FFF724F84FF4E1302D
:1022100002900020ADF80C00ADF80E00ADF81000F3
:10222000ADF814000C20ADF8120002A9074800F028
:102230008DF9012240F22551044800F062F9012194
:10224000024800F0CDF807B000BD0000004C00408F
:102250000010014010B540F22551104800F027F958
:10226000A8B10E4800F0DEF9C4B20D480D49098846
:1022700044540C480088401C0A49088008460088DD
:10228000172804DD0020088001200749087040F26B
:102290002551024800F095F810BD000000500040A4
:1022A000B8170020800000207B00002010B540F20D
:1022B0002551264800F0FBF810B3244800F0B2F98D
:1022C000C4B22348008800F40040C8B92048008800
:1022D00000F4804060B10A2C03D000201C49088023
:1022E00020E01B48008840F400401949088019E0AC
:1022F0000D2C06D11648008840F48040144908800F
:1023000010E013480088C0F30D0012490C54104827
:102310000088401C0E49088008460088C72801DD57
:102320000020088040F22551084800F04AF80821B2
:10233000064800F0AFF8012806D10821034800F054
:1023400037F800200249088010BD00000038014025
:10235000E80D00201018002010B540F2255110485B
:1023600000F0A5F8A8B10E4800F05CF9C4B20D4821
:102370000D49098844540C480088401C0A490880CB
:1023800008460088172804DD00200880012007493E
:10239000087040F22551024800F013F810BD00000B
:1023A00000480040881700207C00002079000020B1
:1023B00001F40072B2F5007F00D100BFCA43028071
:1023C000704710B50022002340F66A14A14200D1E4
:1023D00000BF0A1201249440A3B2DC43048010BD64
:1023E00021B1828942F40052828104E082894DF653
:1023F000FF731A408281704710B50446204884421A
:1024000009D101218803FFF7A1F800214FF4804092
:10241000FFF79CF832E01B48844209D101214804AF
:10242000FFF774F800214FF40030FFF76FF825E054
:102430001548844209D101218804FFF767F800217B
:102440004FF48020FFF762F818E01048844209D169
:102450000121C804FFF75AF800214FF40020FFF7CC
:1024600055F80BE00A48844208D101210805FFF71E
:102470004DF800214FF48010FFF748F810BD000020
:10248000003801400044004000480040004C00403B
:102490000050004002460020B1F5007F00D100BF8F
:1024A00013880B400BB1012000E00020704770B58D
:1024B0000246002400230025002040F66A16B1429F
:1024C00000D100BFC1F3421501F01F03012606FA37
:1024D00003F3012D02D19689334006E0022D02D18B
:1024E000168A334001E0968A33400C12012606FA20
:1024F00004F41688344013B10CB1012000E0002030
:1025000070BDF0B50346002400260025002040F6EB
:102510006A17B94200D100BF1846C1F3421401F056
:102520001F06012707FA06F5012C01D10C3004E043
:10253000022C01D1103000E014301AB107682F438B
:10254000076002E00768AF430760F0BD2DE9F04780
:1025500086B005460E460024A24600BFA1460027CD
:10256000B08900B100BF2F462C8A4CF6FF700440A2
:10257000F08804432C82AC894EF6F3100440B088F6
:1025800031890843718908430443AC81AC8A4FF612
:10259000FF400440B0890443AC8201A8FEF7F4FF79
:1025A0001F48874202D1DDF810A001E0DDF80CA041
:1025B000A88900F4004040B10AEBCA0000EB0A1001
:1025C00031684900B0FBF1F807E00AEBCA0000EB04
:1025D0000A1031688900B0FBF1F86420B8FBF0F014
:1025E00004012009642101FB1089A88900F400403E
:1025F00040B1322000EBC900B0FBF1F000F0070061
:10260000044308E0322000EB09106421B0FBF1F034
:1026100000F00F0004432C8106B0BDE8F0870000F5
:102620000038014001468888C0F308007047C1F3B4
:10263000080282807047F0B507460D461646002412
:1026400040213846FFF7B4FE00BF0CE0295D384654
:10265000FFF7EDFF00BF40213846FFF71BFF0128C1
:10266000F9D1601CC4B2B442F0DBF0BD7FB50446C2
:102670000D46164614A30FCB8DE80F00012C05D193
:10268000324629461448FFF7D6FF1BE0022C05D13D
:10269000324629461148FFF7CEFF13E0032C05D13F
:1026A000324629460E48FFF7C6FF0BE0042C05D141
:1026B000324629460B48FFF7BEFF03E00D2168466E
:1026C000FDF7CCFD7FBD0000756E6B6E6F776E20E1
:1026D000757361727400000000480040004C0040B7
:1026E00000500040003801401FB504460DA30FCB39
:1026F0008DE80F00012C03D100200E4908700FE077
:10270000022C03D100200C49087009E0032C03D1EE
:1027100000200A49087003E00D216846FDF79EFD80
:102720001FBD0000756E6B6E6F776E2075736172E2
:1027300074000000790000207A0000207B00002057
:102740001FB504460DA30FCB8DE80F00012C03D15C
:1027500000200E4908800FE0022C03D100200C4914
:10276000088009E0032C03D100200A49088003E017
:102770000D216846FDF772FD1FBD0000756E6B6E82
:102780006F776E2075736172740000007C0000200A
:102790007E000020800000207FB504460D4610A377
:1027A0000FCB8DE80F00012C05D1182210492846C7
:1027B000FDF7DEFC13E0022C05D118220D49284656
:1027C000FDF7D6FC0BE0032C05D118220A49284658
:1027D000FDF7CEFC03E00D216846FDF73FFD7FBD10
:1027E000756E6B6E6F776E2075736172740000008A
:1027F00088170020A0170020B81700203EB5044617
:102800000CA207CA8DE80700012C02D10C48007801
:102810003EBD022C02D10B480078F9E7032C02D10F
:1028200009480078F4E70B216846FDF717FD022000
:10283000EEE700006B6579646F776E5F6F66660028
:10284000790000207A0000207B0000207047000003
:1028500010B52B4890F88400012802D0022812D12C
:1028600008E00020264981F8840001212548FEF770
:1028700097F909E00020224981F8840001212148CC
:10288000FEF78CF900E000BF00BF1D4890F88500FE
:10289000012802D0022812D108E00020184981F84E
:1028A000850002211748FEF77BF909E00020144952
:1028B00081F8850002211348FEF770F900E000BF9F
:1028C00000BF0F4890F88100012809D100200C4971
:1028D00081F88100084690F880100120FEF746FC40
:1028E000074890F88300012809D10020044981F8A5
:1028F0008300084690F882100220FEF737FC10BDD6
:10290000241600200018014000BFFEE70020014906
:1029100008607047082C004010B50348007800F0AC
:1029200005F8FFF7F3FF10BD8200002000F07F01E3
:10293000014A116070470000002C004010B50D489E
:102940000068012806D10C4800680C490860002086
:10295000084908604EF66022074801680748006889
:1029600000F0C3FB20B1012002490860FEF7AEFB76
:1029700010BD0000740000204800002070000020FE
:1029800002E008C8121F08C1002AFAD17047704738
:10299000002001E001C1121F002AFBD17047002274
:1029A00012E00378412B06DB03787A2B03DC0378F3
:1029B000203B037005E00378202B02D103784033DD
:1029C0000370401C531CDAB28A42EADB70470022D3
:1029D00015E00378412B06DB03785A2B03DC0378E0
:1029E000403B037008E00378612B05DB03787A2B0A
:1029F00002DC0378463B0370401C531CDAB28A4267
:102A0000E7DB704710B50948006868B14FF47A7287
:102A1000074801680748006800F067FB20B101F033
:102A20004BFF00200149086010BD0000300000206D
:102A3000480000203400002008B58020ADF80000D8
:102A400003208DF8020004208DF8030069463D48FC
:102A5000FDF7BEFF4FF4C050ADF8000003208DF825
:102A6000020010208DF8030069463748FDF7B0FFDB
:102A70004FF400613448FEF793F84FF48051324828
:102A8000FEF78EF88020ADF8000003208DF80200DC
:102A900010208DF8030069462C48FDF799FF80212E
:102AA0002A48FEF77DF84E20ADF8000003208DF88F
:102AB000020010208DF8030069462248FDF788FFC8
:102AC00002212048FEF76AF804211E48FEF766F846
:102AD00008211C48FEF764F840211A48FEF760F808
:102AE00040F23B70ADF8000003208DF8020010208A
:102AF0008DF8030069461548FDF76AFF0121134868
:102B0000FEF74EF802211148FEF74AF808210F4857
:102B1000FEF744F810210D48FEF740F820210B483D
:102B2000FEF73CF84FF480710848FEF737F84FF491
:102B300000710648FEF732F84FF480610348FEF753
:102B40002DF808BD001401400008014000180140A4
:102B500010B56FF00400FEF7F9FE0A4800680A4954
:102B6000B0FBF1F0094908700846007800EB40011D
:102B7000C1EBC0104FF6FF7101EAC00004490880A4
:102B800010BD0000D00D002000127A00EA0D0020D8
:102B9000EC0D00200146114A12884A434FF0E02311
:102BA0005A6100229A611A46126942F001021A61C2
:102BB00000BF4FF0E022106900F001021AB100F4EA
:102BC0008032002AF5D04FF0E022126922F0010293
:102BD0004FF0E0231A6100229A617047EC0D00204B
:102BE0000146114A12784A434FF0E0235A6100220D
:102BF0009A611A46126942F001021A6100BF4FF051
:102C0000E022106900F001021AB100F48032002ABB
:102C1000F5D04FF0E022126922F001024FF0E023DC
:102C20001A6100229A617047EA0D002010B53D48F4
:102C3000006858B980213C48FDF79EFF30B901205B
:102C400038490860394800683949086035480068E3
:102C500070B13848006858B980213348FDF78CFFBF
:102C6000012805D1334908603048006832490860BE
:102C700030480068002835D041F288322B4801687E
:102C80002D48006800F031FA40B100202549086065
:102C90002749086027490860274908604CF25032EC
:102CA000254801682248006800F01FFA90B1012011
:102CB0002249086000201B4908601D4908601D4921
:102CC00008601D49086001201D4908601748006818
:102CD0001C49086080211448FDF74EFF10B9002000
:102CE0001449086016480068012819D14CF2503286
:102CF0000E4801681348006800F0F7F980B1002021
:102D00000F4908600F4908600C49086040210648D7
:102D1000FDF732FF012803D144200B4981F8600000
:102D200010BD0000080000200014014048000020F1
:102D3000100000200C0000201400002038000020AB
:102D4000280000202C0000202416002010B5224866
:102D5000006858B980212148FDF70EFF30B90120E5
:102D60001D4908601E4800681E4908601A4800682E
:102D700070B11D48006858B980211848FDF7FCFE65
:102D8000012805D1184908601548006817490860EE
:102D900015480068F8B141F28832144801681148BA
:102DA000006800F0A2F970B101F066FB00200A494A
:102DB00008600C4908600C4908600C4908600C491F
:102DC00008600C49086080210448FDF7D5FE10B961
:102DD00000200549086010BD1800002000140140C3
:102DE00048000020200000201C00002024000020BB
:102DF000280000202C00002010B54FF0FF344021A7
:102E00000C48FDF7C2FE044614B10B48006828B117
:102E10000A48006810B9FFF799FF09E0012C02D0B9
:102E20000648006820B10448006808B9FFF7FEFEB4
:102E300010BD000000140140180000200800002010
:102E400010B586B004462348FFF7D6FA4FF4007059
:102E5000ADF8140003208DF8160018208DF8170027
:102E600005A91D48FDF7B4FD4FF48060ADF81400CE
:102E700004208DF8170005A91748FDF7A9FD2520A6
:102E80008DF8000003208DF801008DF8020001206C
:102E90008DF803006846FEF7DDF901940020ADF8D7
:102EA0000800ADF80A00ADF80C00ADF810000C20D9
:102EB000ADF80E0001A90748FFF748FB012240F2D8
:102EC00025510448FFF71DFB01210248FFF788FA4E
:102ED00006B010BD003801400008014030B589B08F
:102EE00005460C460121C802FEF720FB01214120C6
:102EF000FEF71CFB01211E48FDF7F6FD4FF40060B4
:102F0000ADF8200018208DF8230003208DF8220052
:102F100008A91848FDF75CFDADF81850ADF814404D
:102F20000020ADF81A00ADF8160005A91248FFF709
:102F3000B3F87020ADF804000120ADF806000020C1
:102F4000ADF80C003C20ADF80A0001A90A48FEF7D4
:102F50009BFF08210848FEF7E9FF01210648FEF71C
:102F600069FF01210448FEF759FF09B030BD000098
:102F7000C000160000180140002C014010B51E488A
:102F8000847840211D48FDF700FE28B964201A49C5
:102F9000887100F035F810BD1748807800F0800087
:102FA00030B1642014498871282000F029F820E00D
:102FB000282C05DC28201049887100F021F818E041
:102FC000282C07DD2C2C05DC19200B49887100F01A
:102FD00017F80EE02C2C07DD302C05DC0A20064902
:102FE000887100F00DF804E000200349887100F0BA
:102FF00007F800BFCFE700002416002000140140AE
:1030000010B5044621460248FFF743F810BD000002
:10301000002C014070B50546002428E0204601F050
:1030200088FB002001F068FB0020FDF7EAFF782113
:103030000020FDF7B7FF0020FEF71BF8402100201D
:10304000FDF7B0FF0020FEF714F8002608E029463F
:103050000020FDF7A7FF0020FEF70BF8701CC6B29A
:10306000802EF4DB0020FDF7E8FF601CC4B2082CC2
:10307000D4DB70BD2DE9F04705460E46174698464D
:10308000DDF820A034462BE0204601F052FB4046FC
:1030900001F032FB0020FDF7B4FF78210020FDF79E
:1030A00081FF0020FDF7E5FF40210020FDF77AFFBA
:1030B0000020FDF7DEFF4FF000090AE0294600205E
:1030C000FDF770FF0020FDF7D4FF09F1010000F0CB
:1030D000FF09D145F2DB0020FDF7AFFF601CC4B251
:1030E000781C8442D0DBBDE8F0870346994204D3C4
:1030F000C81A904208D901207047C3F1FF30084434
:10310000904201D90120F7E70020F5E710B5022031
:10311000FEF738F910BD000008B5C020ADF800007A
:1031200014208DF8030003208DF80200694604483E
:10313000FDF74EFCC0210248FDF732FD08BD00003E
:10314000000C014000B585B021208DF80000002062
:103150008DF801008DF8020001208DF8030068460B
:10316000FEF778F822208DF8000001208DF802008B
:103170006846FEF76FF81748FDF704FE0020ADF82B
:1031800008004BF6FF70ADF80A009020ADF80C0077
:103190004FF48060ADF80E000001ADF810000E484D
:1031A000019001A90B48FDF713FE01229102094885
:1031B000FDF704FE012251020648FDF7FFFD012242
:1031C00011020448FDF7FAFD01210248FDF7CEFD8A
:1031D00005B000BD00580040801A060008B54FF445
:1031E0004060ADF8000003208DF802001C208DF82F
:1031F000030069460648FDF7EBFB01218805FEF751
:1032000085F900214FF48000FEF780F908BD000029
:10321000000C014010B5FFF7E1FFFFF793FF10BD71
:103220002DE9F0410025002600240027A0462A4869
:10323000007800F0400000284BD0284800680028A3
:103240003ED127480068050E25480068C0F30746B0
:10325000F043C0B2A84224D121480088C0F307241B
:103260001F480778F843C0B2A0421AD11D4884779E
:10327000807FD0280FD140211B48FDF77DFC804680
:10328000B8F1000F02D101F0F7F808E01548807F8F
:103290001649086003E01348807F1449086000F075
:1032A00043FA0D48007820F0C0000B490870012057
:1032B0000F4908600949086000200E49086008E0CD
:1032C0000548007820F0C000034908700020094933
:1032D0000860BDE8F081000084000020A400002008
:1032E000880000202416002000140140B0000020B7
:1032F000AC000020A00000201FB54FF40060ADF826
:103300000C0003208DF80E0048208DF80F0003A953
:103310003E48FDF75DFB5020ADF80C0003208DF812
:103320000E0048208DF80F0003A93948FDF750FB27
:103330004020FDF70BF906210020FDF729FB402076
:10334000019000208DF8080010208DF80900012060
:103350008DF80A0001A8FDF713F917208DF8000079
:1033600002208DF801008DF8020001208DF8030085
:103370006846FDF76FFF1020FDF7E8F804210020F4
:10338000FDF706FB1020019000208DF808001020AA
:103390008DF8090001208DF80A0001A8FDF7F0F86A
:1033A0000A208DF8000002208DF8010001208DF820
:1033B00002008DF803006846FDF74CFF4FF40060F3
:1033C000FDF7C4F80B210320FDF7E2FA4FF400608B
:1033D000019000208DF8080010208DF809000120D0
:1033E0008DF80A0001A8FDF7CBF828208DF8000021
:1033F00002208DF8010000208DF8020001208DF8D8
:1034000003006846FDF726FF1FBD000000140140C1
:103410000008014010B5FFF76FFF4721632000F05F
:1034200051F910BD10B54FF400619548FDF7A4FBAC
:1034300020B14FF40060FDF78FF888B91021914852
:10344000FDF79AFB18B11020FDF786F840B940212E
:103450008C48FDF791FBD8B14020FDF77DF8B8B15D
:103460000020894908808948007840F01000874989
:10347000087087480088552806DB854800885F2843
:1034800002DC012083490870002081490880F5E0B2
:103490007E48007800F0100000287DD07B4800783E
:1034A00000F0800000B378480088032809DB7648E4
:1034B0000088082805DC78480068400076490860E4
:1034C00083E0714800880E287FDB6F48008812284F
:1034D0007BDC7148006840006F490860084600685E
:1034E00040F00100086070E067480088292815DB7B
:1034F00065480088302811DC66480078002864D0D0
:103500006248007840F080006049087000206249FD
:103510000860624908706249087056E05A4800889D
:1035200014280FDB5848008819280BDC5B4800780A
:10353000401C5A4908705548007820F080005349D3
:10354000087042E050480088C82802DB51480078E3
:10355000D8B35448007800F00800B8B15248007859
:1035600040F01000504908705048006800F04000DA
:1035700060B14F4800684F49086006204E49087006
:103580004A48006820F040004849086045480078F3
:1035900000F00200C8B100E063E04348007840F06A
:1035A0002000414908704148006800F0100060B1F7
:1035B0003F4800684149086006203F4908703B4881
:1035C000006820F01000394908603448007820B9BC
:1035D00033480078401C324908703148007821286F
:1035E0003FD10120364908602F48007800F02000C4
:1035F00020280AD02D48006800F0100028B92B4878
:10360000006840F01000294908602748007800F061
:10361000100010280AD02548006800F0400028B9A2
:103620002248006840F04000204908601F480068B8
:1036300000F4006028B91D48006840F400601B4990
:1036400008601248007800F0800050B10F48007800
:1036500040F040000D4908701248007800201149E0
:103660000870002008490880094908800949087045
:103670000648007820F010000449087010BD0000D2
:1036800000140140000801408C000020840000204C
:103690008E0000209000002088000020D000002034
:1036A00091000020920000209800002000040140BA
:1036B00050000020B4000020BC000020B800002012
:1036C0009C0000207FB504460D4601210846FDF709
:1036D0000DFFADF80850ADF804400020ADF80A0029
:1036E000ADF806008DF80C0001A94FF08040FEF700
:1036F000D3FC012211469007FEF7BCFB012188078D
:10370000FEF78CFB01218807FEF782FB1C208DF859
:10371000000001208DF803008DF801008DF80200F3
:103720006846FDF797FD7FBD10B501201F49086071
:1037300041031F48FDF720FA58B901201D490860D0
:103740004FF4FC701C490880091D0880091D088081
:103750002AE04FF480411648FDF70EFA58B90220CE
:10376000144908604FF4FC7013490880091D088053
:10377000091D088018E04FF400410D48FDF7FCF9E1
:1037800058B903200B4908604FF4FC700A490880BF
:10379000091D0880091D088006E00020064908313F
:1037A000088004200349086010BD0000F8000020D4
:1037B00000140140FC000020380800401A4800684E
:1037C00000B97047194801680068401C174A10602A
:1037D000022900D0F5E7002014490860124908606A
:1037E00013480068012806D0022808D003280BD00F
:1037F000042814D10DE000200E49088010E00020BC
:103800000C49091D08800BE000200A490831088096
:1038100006E04FF4FC7007490831088000E000BF63
:1038200000BF00BFCDE70000F8000020000100202D
:10383000FC0000203808004070B504460D461748CB
:10384000005D00F0400038B31448005D00F0020055
:1038500060B100F097F94FF4FC7011490880091D20
:103860000880091D0880012028600FE000200D4914
:1038700008600D4908600D49086028604FF4FC702D
:1038800007490880091D0880091D08800348005D5C
:1038900020F040000149085570BD000024160020AA
:1038A00038080040640000206C0000206800002000
:1038B0007C4890F86E0000B970477A4890F8710023
:1038C000012849D1784800887849088078480068FC
:1038D000C0B1744890F8740073490968884208DBE5
:1038E000704890F86F007049096808446E49086094
:1038F00020E06C4890F870006B49096808446A49F8
:10390000086017E0674890F87400674909688842C2
:1039100008DB644890F86F0063490968081A624937
:10392000086007E05F4890F870005F490968081A6E
:103930005D4908605C480068B0F5FA7F02DB002052
:103940005B49086058480068002805DC0120584998
:103950000860002054490860524890F8710002281D
:103960004AD1514800885149091D088050480068D3
:10397000C0B14C4890F874004B490968884208DB94
:10398000484890F86F00484909680844464908606B
:1039900020E0444890F870004349096808444249CF
:1039A000086017E03F4890F874003F490968884272
:1039B00008DB3C4890F86F003B490968081A3A490F
:1039C000086007E0374890F8700037490968081A1E
:1039D0003549086034480068B0F5FA7F02DB002002
:1039E0003349086030480068002805DC0120304970
:1039F000086000202C4908602A4890F871000328CC
:103A00004ED1294800882949083108802848006893
:103A1000C0B1244890F8740023490968884208DB43
:103A2000204890F86F002049096808441E49086042
:103A300020E01C4890F870001B49096808441A49A6
:103A4000086017E0174890F8740017490968884221
:103A500008DB144890F86F0013490968081A1249E6
:103A6000086007E00F4890F870000F490968081ACD
:103A70000D4908600C480068B0F5FA7F06DB0020AD
:103A80000B4908604FF4FA7007490860064800685F
:103A9000002805DC01200649086000200249086072
:103AA00000BF09E724160020040100203808004068
:103AB00008010020144890F8720000B970471248BD
:103AC00090F87100012805D10F4890F8730080002C
:103AD0000E4908800C4890F87100022806D10A4867
:103AE00090F8730080000949091D0880064890F885
:103AF0007100032806D1044890F873008000034940
:103B00000831088000BFD9E724160020380800409B
:103B100070B504460D463DB3012C04D0022C0CD0E8
:103B2000032C20D115E00020154908804FF4FC70CB
:103B3000091D0880091D088015E04FF4FC7010492C
:103B400008800020091D08804FF4FC70091D0880C2
:103B500009E04FF4FC700A490880091D0880002024
:103B6000091D088000BF09E000F00CF84FF4FC705C
:103B700003490880091D0880091D088070BD0000E8
:103B800038080040002006490860064908600649D8
:103B900008600649086006490860064908607047E1
:103BA000E0000020E4000020E80000206400002085
:103BB0006C0000206800002070B504460D461748D0
:103BC000005D00F0200038B31448005D00F00400F0
:103BD00060B1FFF7D7FF4FF4FC7011490880091D51
:103BE0000880091D0880012028600FE0002028605F
:103BF0000C4908600C4908600C4908604FF4FC70DF
:103C000007490880091D0880091D08800348005DD8
:103C100020F020000149085570BD00002416002046
:103C200038080040E0000020E4000020E800002008
:103C30002448006898B14FF4FC7023490880234859
:103C400001680068401C214A1060214890F86B0010
:103C5000814204DB00201C490880114608601D4891
:103C60000068A8B14FF4FC701749091D08801A4874
:103C700001680068401C184A1060154890F86C00F4
:103C8000814205DB00201049091D088011460860AB
:103C900012480068A8B14FF4FC700B490831088045
:103CA0000F4801680068401C0D4A1060084890F8F1
:103CB0006D00814205DB0020034908310880114670
:103CC00008607047E000002038080040EC00002049
:103CD00024160020E4000020F0000020E80000206E
:103CE000F400002070B505460C460948005D00F060
:103CF000800060B10648005D00F001012846FFF732
:103D000007FF0348005D20F080000149085570BDA1
:103D10002416002010B50D480068012806D10C4873
:103D200000680C4908600020084908604CF25032D5
:103D30000748016807480068FFF7D7F920B100F08D
:103D40000BF801200149086010BD00004000002070
:103D5000480000203C00002010B50020FDF751F97C
:103D60009F210020FDF71EF90020FDF782F90121B7
:103D70000020FDF7DBF80649887000210846FDF7B2
:103D8000D5F80349C8700020FDF757F910BD0000B1
:103D9000241600200EB50AA207CA8DE8070000F01D
:103DA00045FDFEF749FE6420FEF7F4FE0B21684650
:103DB000FCF754FA03E0FFF7A9F900F067FDFAE712
:103DC000656E7465722061707021200010B500204E
:103DD000FFF720F910BD0000F0B587B006460F468A
:103DE0000025142102A8FCF7DCF900244DE004F1C1
:103DF00026002F490D5C642D0FDB642095FBF0F04D
:103E0000801C002101EB840102AA5054642095FB20
:103E1000F0F100FB1150C5B208E0642095FBF0F012
:103E2000801C002101EB840102AA50540A2D0FDBF3
:103E30000A2095FBF0F0801C012101EB840102AA0D
:103E400050540A2095FBF0F100FB1150C5B208E078
:103E50000A2095FBF0F0801C012101EB840102AAED
:103E60005054A81C022101EB840102AA50540120E5
:103E7000032101EB84015054032C04D100200321C1
:103E800001EB84015054601CC4B2042CAFDB8020D1
:103E900000233246314600901846FFF7EBF83B46C8
:103EA000324602A9032000F0A3FC07B0F0BD0000D9
:103EB0002416002038B50025002000900024174863
:103EC00090F82C5000BF26E020202041284038B137
:103ED000601CC0B28DF8000000208DF8010006E0E3
:103EE000E01DC0B28DF8000000208DF8010044B93B
:103EF00005F0400028B10D208DF8000000208DF85D
:103F0000010004EB04100D30C2B20021684600F03D
:103F100025F9601CC4B2062CD6DB38BD241600205F
:103F200008B50220ADF8000003208DF80200102033
:103F30008DF8030069460948FCF74AFD4FF480609C
:103F4000ADF8000003208DF8020010208DF803006A
:103F500069460348FCF73CFD08BD00000010014025
:103F60000014014010B5122000F060FBAE2000F0FC
:103F700090FBA12000F07BFB1F2000F0A5FB0020A0
:103F800000F07EFB002000F0CDFB052000F093FB4D
:103F9000022000F042FBA12000F0A8FBC82000F0A6
:103FA00057FB122000F04BFBEF2000F057FB1520D1
:103FB00000F093FB082000F027FBA42000F06FFB2B
:103FC000A62000F072FB0020FFF724F8AF2000F0DD
:103FD00060FB0A20FEF7DEFD10BD10B5FFF7A0FF65
:103FE00000F006F8FFF7BEFF00F0A6F810BD0000D5
:103FF00010B54FF480610748FCF7D2FD00F0EEF8F1
:104000002820FEF7C7FD00F0E1F80520FEF7E8FDE7
:1040100010BD0000001401402DE9F84F82460F4604
:1040200090469946DDF828B0BAF1010F06D0BAF1F2
:10403000020F04D0BAF1030F0BD105E00AE0781E9D
:104040003B4901EB401605E0781E3A4901EB0016AA
:1040500000E000BF00BF3446484600F06AFB584607
:1040600000F04AFB0020FCF7CCFF78210020FCF791
:1040700099FF0020FCF7FDFF40210020FCF792FF94
:104080000020FCF7F6FF00250DE0207800F0AEF8E8
:10409000014600900020FCF785FF0020FCF7E9FFB7
:1040A000A41C681CC5B24545EFDB00210846FCF79F
:1040B00079FF0020FCF7DDFF0020FCF7BEFF09F1CF
:1040C0000101C8B200F035FB584600F015FB002096
:1040D000FCF797FF78210020FCF764FF0020FCF735
:1040E000C8FF40210020FCF75DFF0020FCF7C1FF66
:1040F000741C00250DE0207800F078F8014600904F
:104100000020FCF74FFF0020FCF7B3FFA41C681C45
:10411000C5B24545EFDB00210846FCF743FF002010
:10412000FCF7A7FF0020FCF788FFBDE8F88F000030
:104130004C0400200C0100200EB505A207CA8DE832
:10414000070009231C220121684600F023F80EBD58
:104150000906120505030F0D0D000000F8B506460F
:104160000F46144635462878352804D104F1180046
:10417000C4B26D1CF8BD009429783B461022022081
:10418000FFF74AFF04F11800C4B2287800B9F1E73C
:1041900000BFEFE72DE9F84305460E4614461F46DB
:1041A000A8460CE0009498F800103346082203203B
:1041B000FFF732FF08F1010804F10800C4B238002B
:1041C000A7F10101CFB2EDD1BDE8F88310B502210E
:1041D0000148FCF7E5FC10BD0010014010B50221BC
:1041E0000148FCF7DBFC10BD001001400146002037
:1041F00001F00F02054B9A5C40EA0212D0B21A4657
:1042000002EB21121278104370470000AA0D002023
:1042100010B504460020FCF7F4FE78210020FCF7DE
:10422000C1FE0020FCF725FF00210846FCF7BAFE7E
:104230000020FCF71EFF21460020FCF7B3FE002003
:10424000FCF717FF0020FCF7F8FE10BD70B588B032
:10425000182102A8FBF7A5FF00250024584890F874
:10426000480000F08000802824D1554890F848008C
:1042700000F07F050020524981F8480000BF07E0A8
:104280004F4904F14900085C02A90855601CC4B2FA
:10429000AC42F5DB294602A8FEF799FBE800C0F125
:1042A000800606EBD670C0F347022B46012102A818
:1042B000FFF770FF424890F84700012805D1002021
:1042C0003F4981F84700FEF7A5FE3D4890F82A00D7
:1042D000012805D100203A4981F82A00FFF7EAFDBC
:1042E000374890F82500012807D10020344981F88B
:1042F000250013210320FFF76FFD314890F82E00B1
:1043000000F0010030B100202D4981F82E00AF20CF
:1043100000F0BFF92A4890F82E0000F002000228B1
:1043200006D10020264981F82E00AE2000F0B1F918
:10433000234890F82E0000F00400042807D1002044
:104340001F4981F82E0091F82F0000F087F91C48D2
:1043500090F82D0000F0800080282ED1184890F8A9
:104360002D0000F07F050020154981F82D00002464
:1043700007E0134904F13200085C02A90855601CEB
:10438000C4B2AC42F5DB294602A8FEF708FB802048
:1043900000230322114600901846FEF76BFE05EB42
:1043A00045004000C0F1800606EBD670C0F347031D
:1043B000032202A9012000F01BFA08B070BD000022
:1043C0002416002000B589B0202220A101A8FBF707
:1043D000CFFE6420FEF714FE4FF47A70FEF7DAFB8E
:1043E00040212248FCF7DAFB00210320FFF790FB75
:1043F000FFF7ECFC04211E48FCF7D0FB4FF40061F2
:104400001C48FCF7CBFB4FF480511A48FCF7C6FB65
:1044100080211748FCF7C2FB08211448FCF7BEFBBB
:1044200001211348FCF7BAFB02211148FCF7B6FB47
:104430004FF47A70FEF7AEFB4FF47A70FEF7AAFBEA
:104440001F2101A8FBF70AFF09B000BD2A2A2A2A6A
:104450002A2A20706F7765725F6F66665F73797363
:1044600074656D202A2A2A2A2A2A2A00001401406B
:10447000001801400008014000B589B0202220A1A9
:1044800001A8FBF775FE1E2101A8FBF7E7FE01213D
:104490000320FFF73DFBFFF799FCFFF74DFE40219E
:1044A0001F48FCF77DFB04211E48FCF779FB4FF405
:1044B00000611D48FCF774FB4FF480511A48FCF76B
:1044C0006FFB80211748FCF76BFB08211448FCF7B1
:1044D00067FB01211348FCF763FB02211148FCF73D
:1044E0005FFB4FF47A70FEF755FB01200F4908601F
:1044F0000F4800680F490860FBF79EFE09B000BD39
:104500002A2A2A2A2A2A20706F7765725F6F6E5FC7
:1045100073797374656D202A2A2A2A2A2A2A0000B0
:104520000014014000180140000801403000002044
:10453000480000203400002008B50420ADF8000039
:1045400003208DF8020010208DF80300694607480B
:10455000FCF73EFA04210548FCF720FB0520FEF796
:1045600019FB04210148FCF71BFB08BD00180140A2
:1045700000B587B018221CA101A8FBF7F9FD20485F
:1045800090F86000442805D1FFF71CFF00201C496B
:1045900081F860001A4890F86200552822D116214F
:1045A00001A8FBF75BFE6420FEF72AFD4FF47A704A
:1045B000FEF7F0FA40211348FCF7F0FA002103203F
:1045C000FFF7A6FAFFF702FC4FF47A70FEF7E2FA63
:1045D0004FF47A70FEF7DEFAFFF74EFF002008492D
:1045E00081F8620007B000BD2A2A2A207265737420
:1045F0006172742073797374656D202A2A2A000011
:10460000241600200014014010B50446DB20FFF7FB
:10461000FFFD0820FFF7FCFD10BD10B5044620206B
:10462000FFF7F6FD2046FFF7F3FD10BD10B5044679
:10463000FD20FFF7EDFD2046FFF7EAFD10BD10B5A8
:104640000446DA20FFF7E4FD2046FFF7E1FD10BD48
:1046500010B504462046FFF7DBFD10BD10B504463B
:104660008120FFF7D5FD2046FFF7D2FD10BD10B524
:104670000446D520FFF7CCFD2046FFF7C9FD10BD4D
:1046800010B50446D320FFF7C3FD0020FFF7C0FD9F
:1046900010BD10B504462046FFF7BAFD10BD10B599
:1046A00004462046FFF7B4FD10BD10B50446204671
:1046B000FFF7AEFD10BD10B50446D820FFF7A8FDEA
:1046C0002046FFF7A5FD10BD10B50446A820FFF752
:1046D0009FFD2046FFF79CFD10BD10B50446D92074
:1046E000FFF796FD1520FFF793FD10BD10B50446AA
:1046F0002046FFF78DFD10BD70B504462546E11735
:1047000004EB11710911A4EB0111C8B2FFF780FD90
:104710002546E11704EB117109111031C8B2FFF7FA
:1047200077FD70BD10B5044644F04000FFF770FD02
:1047300010BD10B5044644F0B000FFF769FD10BD90
:104740002DE9F04707460D4690469946012F04D0C3
:10475000022F08D0032F12D10BE0681E00EB80005F
:10476000204944180CE0681E00EB80001E494418E4
:1047700006E0681E00EB80001C49441800E000BF02
:1047800000BF4046FFF7D5FF4846FFF7B5FF0020C2
:10479000FCF737FC78210020FCF704FC0020FCF734
:1047A00068FC40210020FCF7FDFB0020FCF761FCC9
:1047B000002609E021780020FCF7F4FB0020FCF73C
:1047C00058FC641C701CC6B2052EF3DB00210846A1
:1047D000FCF7E8FB0020FCF74CFC0020FCF72DFC6C
:1047E000BDE8F087E3060020930B0020EC050020D5
:1047F0002DE9F04107460D4690461E462C463346AD
:10480000424660210120FFF79BFF0BE021783346F1
:1048100042463846FFF794FF641CB01DC6B22078AC
:1048200000B900E0F2E700BFBDE8F08110B5FEF787
:104830008FF94FF4A060FCF745FDFCF797FE4FF4AD
:10484000E130FEF7FDFA47216320FDF7A9F940F2B8
:10485000E2410620FCF73EFC1E20FEF79BF900F02B
:104860002BF8FDF7F3FFFDF7A5FCFBF7EFFCFEF7D8
:10487000D1FDFDF7C9F9FFF7B0FB18216320FEF762
:104880002DFBFCF72BFEFFF757FE10BD10B5FFF711
:1048900041FA00F063F8FFF7D9FC00F01BF8FDF7D0
:1048A000D7FFFFF765FEFEF7A7FAFEF7ABF8FEF7B6
:1048B000B7FCFEF743F810BD10B50020034908808F
:1048C00018210348FBF76DFC10BD00007E0000209E
:1048D000A017002010B51C480068012806D11B480D
:1048E00000681B490860002017490860194890F8C3
:1048F0007B0000F0800018B100201749086002E03A
:1049000001201549086044F62062104801681048EB
:104910000068FEF7EAFB38B101200B4908600E4839
:10492000006808B1FEF72AFB0A48C07900F0800051
:1049300048B108498879FEF763FB0648C07920F042
:1049400080000449C87110BDDC0000204800002030
:10495000D400002024160020D800002010B5222109
:104960000120FFF7BFF923210220FFF7BBF9242123
:104970000320FFF7B7F90D492220FEF75DFF0C4930
:104980002320FEF759FF0B492420FEF755FF0A4963
:104990002220FFF711F909492320FFF70DF90849F3
:1049A0002420FFF709F9FFF785F810BD6400002007
:1049B0006C00002068000020E0000020E4000020DF
:1049C000E8000020E449010800000020F40D000088
:1049D000DC010108B8530108F40D0020E40E0000CA
:1049E000902901080140021B010A15F41DC9170A8C
:1049F000337F5C410A1903242918091E400910A8B5
:104A0000400D07F00FF0188018800FF007F0400DF0
:104A10001FF01FF0111011101FF00EE01E0FE01F0D
:104A2000F010016D1C700C6020A809101018300FD8
:104A3000E007C0301A11247910112902390F69409A
:104A40007D901CF00C601A01A82908611A106C29CD
:104A5000247112601A703B2914398049306F07C0E5
:104A60001EF018301029203902591012045C0380FE
:104A700004522906120612034B01801069C07C1FE4
:104A8000F00F50299E121FAA0EA09E181FFC0FE4C3
:104A900020193E430E70380D0C201E30131011905B
:104AA00018F00860AE190239B059E01A1F40B9B0C9
:104AB0001AC00812301A30183AC010194A1114706E
:104AC00003801A702222801E18701CF007B03C1C54
:104AD000F018601A1E8A1E01F001F01F0A396048A2
:104AE0000B7010F0119013101E101C61180B600455
:104AF000F00490049007F003CE59F01C100410103D
:104B000039703C03E00710AD063002201049FE5911
:104B10001029401A90843112014A0FE219023920FB
:104B2000780CE207F20412041207FE07FC6011126F
:104B3000046970294C3C37F037E4511B0204023CF5
:104B400037FE372E49301138088001C00770063013
:104B5000C01901391459301B07F080116B07E0525E
:104B60004910896069B069D019880A12FEE02918D5
:104B70006950120112021A060239201B1007DE19B1
:104B8000023CF00460B0111B1FE0C219324A0480DD
:104B90001940298C2938391014C007E012301A3016
:104BA000185AC01012F01C3003C0122AF0127F06EF
:104BB00030077001C0D0160207E207F212161C1C63
:104BC00007F8382960380B30047004D005900710BE
:104BD0000660211809FFC0804084408450023A706A
:104BE000063F4095408E40C45E412B1F80021E3F11
:104BF000C07FE0FF821209D0084620402030C00F5D
:104C0000221F100C807E50FF50FF70FF507E501A04
:104C10008010911CCF3090011E92908B10800280EA
:104C20000B9F90821086108910D0B01CCCB0941EBF
:104C30003A931C49222E92109210CCBE51120F189A
:104C40000A39C049204920FFF089382BFFF00C9A1F
:104C5000398049C07C8E5095C029020916C01408BD
:104C6000800512021A0508911210AC201F40C014D2
:104C700020805F891F0911C0119488D0D0F9C0131A
:104C800080929492D0CCD9C01112481C48D03816CA
:104C9000A9C019021A50023A7006290E4B40FFC0F3
:104CA000236060163E5149453E14427F4020294210
:104CB000615149462141454B311814127F10274557
:104CC0004545393C4A49493001710905033649498E
:104CD0004936064949291E1AFC013159071AE001D3
:104CE0001A600429541AEC0131300D043CFCFCF02C
:104CF0008080F0FCFC3C04300C070F1F1F1C181CAC
:104D00001F1F0F071A1F014905590C411A012319CA
:104D1000204201300C80E0E0F0703070F0E0E08084
:104D20001AF00171290B2A3001690C1C70F0F02473
:104D3000280B0F3F3F7F7060707F3F3FF81A7F0165
:104D40001A6001590B1A6301690C19242A7F242A5D
:104D50004F9419021B147F021010242A7F2A122359
:104D6000130864623649552250330503241C22413E
:104D70001441221C1F14083E0814080512081A507A
:104D8000772A080111295D100B20100804023E51FA
:104D900049453E14427F4010294261514946214114
:104DA000454B311814127F1027454545393C4A4977
:104DB00049300171090503364949493606494929EF
:104DC0001E3336361A56051B0814642A1401196955
:104DD000281314080201510906324979413E7E1117
:104DE00011117E7F321F3E414141227F042A1C0F58
:104DF000180D417F090909013E4149497A7F861210
:104E00007F14417F412F2040413F017F4C1B7F4059
:104E100001280B7F020C027F7F0408107F3C2A3E92
:104E200032180D063E4151215E7F0919294646463A
:104E300018083101017F01013F2C18163F1F204047
:104E4000201F3F4038403F63140814630708700870
:104E500007C71345431974111A0246122014414121
:104E60007F2E04020102045E1A400819FA180F543A
:104E70005454787F484444383844444420051C48FE
:104E80007F38141F18087E090102E61008493F7F89
:104E9000080404781C447D40A013443D257F10285D
:104EA0004419A2112F7C0418047C7C1E293C1B3859
:104EB0007CFE3E0808141418141B084846180D20E0
:104EC000043F4440203C4040207C1CA018091C3C6E
:104ED0004030403C442842100B0C5050503C44643D
:104EE000544C4434083641327F14413608299F77A8
:104EF000023E55554122224F20151824742E244875
:104F00007E4942405D2222225D15167C16152277CD
:104F1000160A555555281A010211180B0A0D0A04D4
:104F200008142A14220401121C140808082A01017A
:104F300011140205021D44445F44B519FC18097E92
:104F40002020103E060F7F703318183C4050203C44
:104F5000111A223C2822081708342A7D1708046AEF
:104F6000593048454020702926287070282629701D
:104F7000702A252A7072290A2B29240F48132D2AFA
:104F8000707E117F49490E515171117C5556544420
:104F9000051C5655560A145455441B457E7224442C
:104FA0007E4524467D4614457C4519303816413EE1
:104FB0007C0A11227D384546443838444645383805
:104FC00046454605183539384544453822140814F5
:104FD000222E5149453A3C4142403C3C4042413CF2
:104FE0003C4241423C3C4140413C0C1062110C7F30
:104FF0001212120C403E01493620731808782054D2
:1050000056557820781A780F190A197D190F180F3C
:1050100057567824547854580C5252721338281B1F
:105020001838281B1838281B183823121824497AD6
:105030004024487A411C4A79420513784238193194
:105040004A4E4A307A110A097030494A483030488D
:105050004A4930304A494A05181F31304A484A30D7
:1050600008082A08083864544C38384142207838F7
:10507000404221783842412205281D4022780C50B8
:1050800052513C7E141414080C5150513C1E090915
:10509000295E081515354EEB2A20501A20FA190AF8
:1050A0001A490A1A7C0A1808382050507C031F231A
:1050B0001B510E051B467CC31A44AF19A014447C37
:1050C00040167F4844404014497F4418087C081229
:1050D000217C78109B2B7C090A29A5281A38474483
:1050E0004738304B484B303E417F4949384438546B
:1050F000587C151635481E1B1048F01C202048050A
:105100001A48501C20204905102D04057E0504086E
:105110003C4822013C4245423C38424522783C43CF
:1051200040433C38434023780C1160110C446655D1
:105130004C44486A59482B44640A1B685A0A20099F
:1051400065564D4448695A49240201021C01020176
:10515000051B010109290A1129042C0205021D124F
:105160000118147F05153A503E5555412218140870
:10517000140C444A4A5101180E4A4A4474424142AE
:10518000747E1111117EAD280D49367F0201010395
:10519000704E414E700F180D4161514945437F08D3
:1051A00008087F3E0F123E14417F4118317F0814DA
:1051B0002241700E010E707F020C027F7F040810E6
:1051C0007F635D495D633E4141413E413F013F4157
:1051D0007F09090906635549414101017F51180BB7
:1051E000017E010308557F5508637D10256307483C
:1051F0007F48075E6101615E384448304C7C2A2A52
:105200002A144438040408304B4D5930285454446F
:1052100020100F185552223E0402027C3C4A4A4A92
:105220003C143C4020182D7C1028444041320C3066
:10523000407E2020103E1C2040201C142B2A2A6077
:105240003844444438443C047C4470282424180CDA
:10525000121252141E4C5424043C4A1B3C40281881
:105260000818247E241844284210190C107E100CB3
:1052700038443044380A0A4A2A1E044434140C20A4
:10528000107804181618084C483848487848484898
:1052900028187C08087C08281840101640545454DC
:1052A0007C12182D5840380801182F01413D09077C
:1052B00010087C02010E0243221E42427E4242221C
:1052C000120A7F02423F02423E0A0A7F0A0A084649
:1052D00042221E0403423E02420118097E024F226E
:1052E0001F024A4A87192910182A46023F424A4695
:1052F000064840201E08464A321E0A4A3E09080E49
:1053000010094E201E04453D0504147F08101F445B
:10531000241F0404403C100C40422A122A06221288
:105320007B16221440201F12781D0204783FF01AC9
:10533000445B1964100F0204083032027F0232020B
:105340001222520E180B2A2A2A403824222070409A
:10535000EB180C060A3E4A4A4A047F04140C4B1B05
:105360007E400D28094A7E040545251C0F4B127C02
:1053700018097E40307E40201008C11D427E0E027A
:105380005019711720180204010234070507401054
:1053900008040C020A060E0109050D030B070F1C79
:1053A00001020320300B0304060708090204060863
:0853B00084A24A04691A0110ED
:0400000508010131BC
:00000001FF
