:020000040801F1
:10000000F01B00204D01010895140108710D010835
:1000100091140108B1060108D92A01080000000066
:10002000000000000000000000000000AF1A0108FE
:10003000C9060108000000003D1501080D1C01085B
:10004000E92A010867010108670101086701010841
:1000500067010108670101086701010867010108DC
:1000600067010108410701085507010867010108F8
:1000700067010108670101086701010867010108BC
:1000800067010108670101086701010867010108AC
:10009000670101086701010867010108E907010814
:1000A000670101086701010867010108670101088C
:1000B000711C0108891D0108C51E0108670101089E
:1000C00067010108010E0108750D010867010108AB
:1000D0006701010871240108670101080925010869
:1000E000CD060108670101086701010867010108E1
:1000F000670101086701010867010108670101083C
:10010000670101086701010867010108670101082B
:10011000C1230108192401086701010867010108CA
:10012000670101086701010867010108670101080B
:10013000DFF80CD000F08AF9004800479543010829
:10014000F01B002080F308887047000006488047B5
:1001500006480047FEE7FEE7FEE7FEE7FEE7FEE7AC
:10016000FEE7FEE7FEE7FEE7111C0108310101088A
:1001700040EA01039B0703D009E008C9121F08C029
:10018000042AFAD203E011F8013B00F8013B521EA9
:10019000F9D27047D2B201E000F8012B491EFBD220
:1001A00070470022F6E710B513460A460446194682
:1001B000FFF7F0FF204610BDF0B480EA0102D40F33
:1001C0004200B2EB410F02D20246084611464A00F5
:1001D00042D0C30DDDB2C1F3C752AD1A202D35DABE
:1001E000C1F3160141F4000204B15242C5F12006E8
:1001F00002FA06F12A411044B3EBD05F23D0C4B118
:10020000012DA0EBC35009DCF0BC4FF0004202EA24
:10021000C352DBB200F5000000F0E9B8400000F185
:10022000807000EBC350A0F1807040EAD1704900AB
:1002300009E0490841EAC071A0EBC35000F5000095
:10024000400800EBC350F0BC00F0C8B86142012286
:1002500002EB4101001BF6E7F0BC704781F0004162
:10026000AAE780F00040A7E780EA010210B502F09B
:100270000043400022D04A001FD0010E01EB126162
:10028000C0F35600C2F3560240F4000042F40002EC
:10029000A0FB022000047F39140400D0401C50EA67
:1002A000124001D44000491EC2B20C0604EBD0102B
:1002B000401C4008802A02D003E0002010BD20F03E
:1002C0000100002900DA0020184310BD30B480EA94
:1002D000010202F0004530F0004221F0004013D04E
:1002E00090B1C30DD40DC2F31601C0F31600E41A89
:1002F00041F4000140F400027D34914201D3641CBA
:1003000000E04900002C02DA30BC002070474FF4B6
:1003100000000023914201D3891A034340084FEAA9
:100320004101F7D151B1914202D14FF0004105E0B6
:1003300002D24FF0010101E06FF0010103EBC45064
:10034000284430BC00F04AB896230022114600F041
:100350004EB820F00040C10DC0F3160040F400007C
:100360007F2901DA00207047962903DCC1F196014C
:10037000C84070479639884070472DE9F05F0546C0
:10038000002092469B4688460646814640241BE054
:10039000284641464746224600F079F853465A46D9
:1003A000C01A914110D311461846224600F060F859
:1003B0002D1A67EB01084F4622460120002100F06C
:1003C00057F817EB00094E41201EA4F10104DFDCB1
:1003D000484631462A464346BDE8F09F0029A8BF5B
:1003E0007047401C490008BF20F00100704710B45E
:1003F000B0FA80FC00FA0CF050EA010404BF10BC13
:10040000704749B1CCF1200421FA04F411FA0CF13F
:1004100018BF012121430843A3EB0C01CB1D4FEA78
:1004200000614FEA102042BF002010BC704700EB73
:10043000C35010440029A4BF10BC7047401C4900A1
:1004400008BF20F0010010BC70470000064C074DAB
:1004500006E0E06840F0010394E807009847103494
:10046000AC42F6D3FFF768FE205101084051010865
:10047000202A04DB203A00FA02F100207047914064
:10048000C2F1200320FA03F3194390407047202A59
:1004900004DB203A21FA02F00021704721FA02F32E
:1004A000D040C2F12002914008431946704770B510
:1004B0008C1810F8015B15F0070301D110F8013B0F
:1004C0002A1106D110F8012B03E010F8016B01F896
:1004D000016B5B1EF9D12B0705D40023521E0DD4EE
:1004E00001F8013BFAE710F8013BCB1A921C03E03C
:1004F00013F8015B01F8015B521EF9D5A142D8D374
:10050000002070BD70B50446002660882E287ED07D
:1005100010DC242837D006DC07286AD0222818D01F
:10052000232867D122E0252865D02A2858D02D28F5
:10053000F7D17CE0622878D006DC47284BD04828E9
:100540002ED06128EDD193E071286FD07B28E8D1BF
:1005500083E020794F4981F82200084690F8220074
:10056000242802D1022081F86B0091E020794949CA
:1005700081F82300084690F82300242802D10220A5
:1005800081F86C0084E02079424981F82400084613
:1005900090F82400242802D1022081F86D0077E031
:1005A00020793C4981F84800084690F8480000F05E
:1005B0007F06102E0BDA002506E0681C211D095C61
:1005C000344A483011546D1CB542F6DB02E032A0CB
:1005D00002F09CFA5CE020792E4981F8470057E050
:1005E00020792C4981F82A00607981F82C004FE0AD
:1005F0000DE037E04BE0002506E0201D415D05F1F0
:100600002500244A11546D1C052DF6DB40E02079AD
:10061000204981F82E00084690F82E0000F00400D2
:1006200010B1607981F82F0032E02BE025E02079CD
:10063000184981F82D00084690F82D0000F07F063B
:10064000102E06DA3246611D12483230FFF790FD57
:1006500002E011A002F05AFA1AE020790D4981F85F
:100660007B0015E020790B49C871607988710FE033
:100670002079084981F860000AE02079054981F86D
:10068000600005E02079034981F8620000E000BFC6
:1006900000BF70BDD815002073656E64206461745E
:1006A00061206C656E206572726F72210A00000015
:1006B00000BFFEE700200249086002490860704759
:1006C00024000020280000207047000010B54FF4DF
:1006D000006000F05BF958B31648007820B1154867
:1006E000007800F00400F8B113480068012813D125
:1006F000102000F045F9402000F042F90F48006852
:1007000020F040000D4908600846006820F0100005
:10071000086000200849086003F084F90548007863
:1007200040F00400034908704FF4006000F028F91D
:1007300010BD0000820000208C0000200004014059
:1007400010B5082000F022F910B1082000F018F9C7
:1007500010BD000010B5102000F018F900283BD0A3
:100760001E48007820B11D48007800F0020080B3D8
:100770001B480068012824D1202000F001F9402006
:1007800000F0FEF8802000F0FBF84FF4006000F06D
:10079000F7F81448006820F0200012490860084665
:1007A000006820F0400008600846006820F08000E3
:1007B00008600846006820F40060086000200849CE
:1007C000086003F02FF90548007840F00200034963
:1007D0000870102000F0D4F810BD00008200002046
:1007E0008C0000200004014010B5202000F0CEF85D
:1007F00000283BD05F48007820B15E48007800F0C8
:10080000010080B35C480068012824D1102000F06A
:10081000B7F8402000F0B4F8802000F0B1F84FF4B1
:10082000006000F0ADF85548006820F01000534912
:1008300008600846006820F040000860084600682C
:1008400020F0800008600846006820F4006008601E
:1008500000204949086003F0E5F84648007840F078
:10086000010044490870202000F08AF8402000F080
:100870008DF800283BD03F48007820B13D480078F3
:1008800000F0080080B33C480068012824D1102003
:1008900000F076F8202000F073F8802000F070F867
:1008A0004FF4006000F06CF83448006820F020003D
:1008B000324908600846006820F0100008600846C9
:1008C000006820F0800008600846006820F400609E
:1008D000086000202849086003F0A4F82548007843
:1008E00040F0080023490870402000F049F88020BB
:1008F00000F04CF800283BD01E48007820B11D487D
:10090000007800F0100080B31B480068012824D153
:10091000102000F035F8202000F032F8402000F0E0
:100920002FF84FF4006000F02BF81448006820F016
:100930002000124908600846006820F04000086066
:100940000846006820F0100008600846006820F49F
:100950000060086000200849086003F063F805485B
:10096000007840F0100003490870802000F008F87B
:1009700010BD0000820000208C0000200004014017
:10098000014908607047000014040140014600203E
:100990000022074B1B6803EA0102054B14331B6856
:1009A0000B4013B10AB1012000E0002070470000A5
:1009B00000040140002123498279002A3AD00A46E6
:1009C000126803689A430B461A600A1D126803688E
:1009D0009A430B1D1A60027911440A6803681A438E
:1009E0000A60184A0832126803689A43154B0833A4
:1009F0001A601A1D126803689A43124B0C331A606E
:100A00004279102A0ED11A1F126803681A430D4B3F
:100A100008331A601A1D126803681A43094B0C3315
:100A20001A600DE00749427911440A6803681A43C5
:100A30000A6005E0027911440A6803689A430A6073
:100A4000704700000004014030B5044604254FF40F
:100A5000302000F06FF80546042D17D10C480069CE
:100A600040F002000A49086108464461006940F00C
:100A7000400008614FF4302000F05CF8054604485F
:100A8000006941F6FD71084001490861284630BD02
:100A90000020024004200B49C96801F0010109B19E
:100AA00001200EE00749C96801F0040109B10220E4
:100AB00007E00449C96801F0100109B1032000E012
:100AC00004207047002002400348006940F0800085
:100AD00001490861704700000020024070B50446DB
:100AE0000D460426F00200F025F80646042E11D12A
:100AF0000948006940F00100074908612580F002BB
:100B000000F018F806460448006941F6FE710840F6
:100B100001490861304670BD002002400248034987
:100B20004860034848607047230167450020024041
:100B3000AB89EFCD00B502460423FFF7ABFF0346B8
:100B400003E0FFF7A7FF0346521E012B01D1002A45
:100B5000F7D102B90523184600BD000030B50022C8
:100B60008B071C0F0F2303FA04F20B4B8C1053F866
:100B700024309343084C8D1044F8253023468C10C4
:100B800053F824308C07240F00FA04F42343024C5A
:100B90008D1044F8253030BD080001402DE9F041AA
:100BA000024600250026002000230024002791F89B
:100BB00003C00CF00F0591F803C00CF0100CBCF151
:100BC000000F03D091F802C04CEA050591F800C06F
:100BD000BCF1000F31D0146800202BE04FF0010C65
:100BE0000CFA00F3B1F800C00CEA03069E4220D1D3
:100BF00083004FF00F0C0CFA03F7BC4305FA03FC1B
:100C00004CEA040491F803C0BCF1280F06D14FF060
:100C1000010C0CFA00FCC2F814C00AE091F803C001
:100C2000BCF1480F05D14FF0010C0CFA00FCC2F8E2
:100C300010C0401C0828D1D31460B1F800C0BCF12A
:100C4000FF0F34DD546800202EE000F1080C4FF057
:100C5000010808FA0CF3B1F800C00CEA03069E4242
:100C600021D183004FF00F0C0CFA03F7BC4305FAB7
:100C700003FC4CEA040491F803C0BCF1280F05D131
:100C800000F1080C08FA0CF8C2F8148091F803C0BF
:100C9000BCF1480F07D100F1080C4FF0010808FA29
:100CA0000CF8C2F81080401C0828CED35460BDE870
:100CB000F0810000F0B50A46002300240021002541
:100CC00000F00046B6F1004F02D11D4EF16901E07F
:100CD0001B4E7168C0F3034583B200F44016B6F5AD
:100CE000401F08D121F07061154E766826F07066BD
:100CF000134F7E6012E000F48016B6F5801F06D117
:100D0000032606FA05F4A14341F0706106E0460DA2
:100D1000360103FA06F6B14341F0706122B1460D87
:100D2000360103FA06F6314300F00046B6F1004FF3
:100D300002D1034EF16101E0014E7160F0BD00008F
:100D4000000001400246002093680B400BB10120D7
:100D500000E00020704702460020D3680B400BB132
:100D6000012000E000207047416170470161704739
:100D700000BFFEE708B500200090204800880090E2
:100D8000009800F48060B0F5806F08D11B4800889F
:100D90004FF6FF3108401949088000200090009864
:100DA00000F40070B0F5007F08D1144800884FF6B9
:100DB000FF3108401149088000200090009800F49D
:100DC0008070B0F5807F08D10C4800884FF6FF6135
:100DD00008400A49088000200090009800F4006054
:100DE000B0F5006F08D1054800884FF2FF71084048
:100DF000024908800020009008BD000014580040FF
:100E00000CB50020019000902E48008801902D48DC
:100E1000001D00880090009800F0010000284FD1CC
:100E2000019800F08200822802D1002001900090F9
:100E3000019800F00200022806D1002001900090E5
:100E40002149087021490870019800F0800080282D
:100E500009D11F481D490978405C1A49091F0880BB
:100E6000002001900090019800F04000402817D128
:100E70001548007850B91348001F008813490870BE
:100E800011480078401C1049087006E00D48001F0A
:100E900000880F490D4A1278885400200190009074
:100EA000019800F0100010280AD106481438008874
:100EB00040F001000349143908800020019000909F
:100EC0000CBD0000145800403C0000203D000020F4
:100ED000D815002021B1028842F00102028004E00E
:100EE00002884FF6FE731A400280704710B5044620
:100EF0000B48844209D10121480500F06BFC002118
:100F00004FF4001000F066FC08E00121880500F0B5
:100F100061FC00214FF4800000F05CFC10BD00007B
:100F2000005400401AB183880B43838002E0838819
:100F30008B438380704700002DE9F04385B0044661
:100F40000D460026B1460427DFF8CC80A6884FF670
:100F5000C0700640684600F07BFCDDF808802F4832
:100F6000B8FBF0F01FFA80F946EA0906A68020884F
:100F70004FF6FE71084020800026294928688842E3
:100F80000CD828684000B8FBF0F087B2042F00DAD4
:100F900004273E4309F10100208427E0E8884BF64E
:100FA000FF71884206D1286800EB4000B8FBF0F0E2
:100FB00087B209E0286800EBC00101EB0010B8FB24
:100FC000F0F087B247F48047C7F30B0008B947F049
:100FD000010747F4004006434FF4967009FB00F008
:100FE0004FF47A7190FBF1F0401C2084A683208896
:100FF00040F00100208026884FF6F5300640A88892
:101000006989084306432680A889298908432081E5
:1010100005B0BDE8F083000000127A0040420F00E6
:10102000A086010010B504460021204600F062F8B9
:10103000204600F091FC0021204600F061F80220DB
:1010400002F0A6F80121204600F054F8022002F038
:101050009FF80021204600F04DF810BD10B5044661
:101060000021204600F046F8204600F075FC0121E2
:10107000204600F045F8022002F08AF801212046BF
:1010800000F038F8022002F083F80021204600F03A
:1010900031F810BD2DE9F04107460D460026002429
:1010A000384600F049FC00BF17E00021384600F048
:1010B00021F8022002F06CF80121384600F01AF8FD
:1010C0006006040E384600F02DFC08B1601CC4B266
:1010D000012002F05DF8701CC6B2082EE5DB1DB9D8
:1010E0003846FFF7BBFF02E03846FFF79BFF20467C
:1010F000BDE8F08108B9014A11607047988121422A
:1011000008B9014A116070479C81214270B50646BA
:101110000C46304600F020FC00213046FFF7EAFF85
:1011200000251FE0E00920B101213046FFF7E8FF6C
:1011300003E000213046FFF7E3FF6006040E0220C3
:1011400002F026F801213046FFF7D4FF022002F01A
:101150001FF800213046FFF7CDFF022002F018F8FB
:10116000681CC5B2082DDDDB70BD10B504462046F5
:1011700000F0F2FB01212046FFF7C2FF01212046CB
:10118000FFF7B8FF042002F003F800212046FFF724
:10119000B7FF042001F0FCFF00212046FFF7AAFF63
:1011A00010BD10B50446204600F0D6FB00212046B5
:1011B000FFF7A0FF00212046FFF7A2FF042001F067
:1011C000E7FF01212046FFF795FF01212046FFF7A9
:1011D00097FF042001F0DCFF10BD70B50546002428
:1011E000284600F0A9FB012001F0D2FF012128468A
:1011F000FFF780FF012001F0CBFF08E0601CC4B2C4
:10120000FA2C04DD2846FFF7CCFF012070BD2846EC
:1012100000F088FB0028F1D100212846FFF76AFF83
:101220000020F3E74CF6CC4001490860704700000D
:101230000030004010B500F01BF810BD70B5054639
:101240000C4645F2555000F027F8284600F018F8F3
:10125000204600F01BF800F00BF8FFF7E3FF024810
:1012600000680249086070BD400000205000002066
:101270004AF6AA200149086070470000003000408B
:101280000149486070470000003000400149886013
:1012900070470000003000400149086070470000BE
:1012A0000030004010B50446206809490840B0F1FC
:1012B000005F0BD107A001F029FC60680B490860B2
:1012C0002068FEF73FFF09480068804710BD000016
:1012D0000000FE2F7374617274206A756D70207443
:1012E0006F2061707061646472210A00D40D002067
:1012F00070B5002500242B4800682B490968451A61
:10130000002D00DA6D422948007885421EDB254811
:101310000068254908602648007800F01000A8B150
:101320002348007820F01000214908702148006807
:1013300000F0400050B91B4801681FA001F0E6FB17
:101340001C48006840F040001A49086015480068D1
:101350001F490968441A002C00DA644213480078D7
:1013600084421EDB0F480068194908601048007865
:1013700000F02000A8B10E48007820F020000C49B1
:1013800008700C48006800F0100050B9054801686A
:1013900010A001F0BBFB0748006840F010000549B1
:1013A000086070BD4800002098000020A0000020C8
:1013B00088000020000401406F70656E2063616D3D
:1013C00072656131206972202564200A00000000E6
:1013D0009C0000206F70656E2063616D72656132E4
:1013E000206972202564200A000000002DE9F041E8
:1013F00005460E4614464FEAE27C02EB9C7CCCF399
:1014000087074FEAE27C02EB9C7C4FEAAC0CA2EB34
:101410008C0C0CF0FF01042404EBC104E1B2C3F115
:10142000040405FA04F00F241C413440204300F06A
:101430000F00202A0CDA4FF0E024D4F800C1012478
:1014400094404CEA040C4FF0E024C4F800C10DE0D5
:101450000D4C2468A2F1200C4FF0010808FA0CF89A
:1014600044EA08044FF0E02CCCF80441074CE45D5A
:1014700000FA01FC44EA0C0404F0FF0C034C04F8ED
:1014800007C0BDE8F081000004E100E000E400E0F6
:1014900000BFFEE7704708B51E208DF8000003204E
:1014A0008DF8010002208DF8020001208DF8030064
:1014B000684600F001F808BD70B5002100230F2236
:1014C000C47804B3154C246804F4E064C4F5E06403
:1014D000210AC1F10403CA40447804FA03F1847874
:1014E0001440214309010E4C0678A155047804F0FC
:1014F0001F050124AC4005786D11AD0005F1E02514
:10150000C5F8004109E0047804F01F050124AC404F
:10151000044D0678761145F8264070BD0CED00E0CC
:1015200000E400E080E100E002490143024A11606A
:10153000704700000000FA050CED00E0704710B5A0
:1015400002460B460020002104E0545C0444E0B253
:101550004C1CA1B29942F8DB10BD000010B5044646
:1015600005480078012805D100200349087020466D
:1015700001F0E4F910BD00003E0000202DE9F0412B
:1015800007460D4614461E464EF6AA30208068884F
:101590006080A68217212046FFF7D1FF8046C8F160
:1015A0000000E07518222146384601F037F9BDE801
:1015B000F0812DE9F04107460D4614461E464EF6D1
:1015C000AA3020806580A68217212046FFF7B7FF4A
:1015D0008046C8F10000E07518222146384601F027
:1015E0001DF9BDE8F08100002DE9F84307463D4CA8
:1015F0003D4D4FF000080026B146384601F022FA72
:10160000012869D118212046FEF7CBFD1821284674
:10161000FEF7C7FD384601F053F92146384601F080
:10162000CBF918212046FFF78AFF0646002E44D149
:1016300020884EF6AA3188423FD1A08A10283CDC8F
:101640006088072830DA6288314628A001F05EFA07
:101650006088032802D0062822D111E04FF000084C
:101660004146284600F08AF84B462A46214638462D
:10167000FFF784FF23A001F049FA00F06DF812E0B3
:1016800000F064F828714FF000084FF00109287944
:10169000214BB52221A1009025A001F037FA02E0EC
:1016A0000120A87500BF0DE0628831460FA001F04F
:1016B0002DFA2046FEF726FF04E00120224908709B
:1016C0000320A8754146284600F058F84B462A46A4
:1016D00021463846FFF752FF3846FFF73FFFBDE887
:1016E000F883000096160020AE160020636865633C
:1016F0006B53756D3D25642C20636D643D307825FA
:1017000078200A007265626F6F7420666F722075B0
:101710007067726164650A00B450010855736572A0
:101720005C7372635C70726F636573732E63000029
:101730002573282564292D3C25733E3A7665723A37
:10174000307825780A0000003E000020014800782B
:10175000704700003F00002008B545F2AA500090F5
:1017600001226946044800F01BF94FF00060FFF7C2
:1017700099FD002008BD00000400070811B90022EF
:1017800082750DE04A1C12B90222827508E0012917
:1017900002D10122827503E0022901D10322827560
:1017A000704700000A200249087003204870704703
:1017B000D815002029B1064AD2690243044BDA61E8
:1017C00004E0034AD2698243014BDA6170470000AA
:1017D0000010024029B1064A12690243044B1A6103
:1017E00004E0034A12698243014B1A61704700000A
:1017F0000010024029B1064A92690243044B9A61E3
:1018000004E0034A92698243014B9A6170470000E9
:101810000010024029B1064AD2680243044BDA6044
:1018200004E0034AD2688243014BDA60704700004B
:101830000010024010B501210448FFF7BBFF012151
:1018400044F27D00FFF7D6FF10BD000002485E00A5
:1018500030B500210022002400232D4D6D6805F0D5
:101860000C0121B1042905D0082923D105E0294D17
:10187000056022E0274D05601FE0254D6D6805F4E9
:101880007012234D6D6805F48034022505EB9242F9
:101890001CB9214D554305600BE01D4D6D6805F4E5
:1018A00000351DB11C4D5543056002E0194D5543EF
:1018B000056002E0174D056000BF00BF144D6D6864
:1018C00005F0F0010909154D6B5C0568DD404560C8
:1018D0000F4D6D6805F4E061090A104D6B5C4568B9
:1018E000DD4085600A4D6D6805F46051C90A0B4DF5
:1018F0006B5C4568DD40C560054D6D6805F4404191
:10190000890B074D6B5CC568B5FBF3F5056130BD10
:101910000010024000127A0000093D009E0D0020D8
:10192000AE0D0020014619B902480068C0B27047E8
:101930000020FCE71C81214250B90649096821F0CA
:101940007041044A11601146096841F080411160FC
:1019500070470000000C014050B90649096821F0A9
:101960007041044A11601146096841F0E04111607C
:1019700070470000000C014030B503460C46154688
:10198000002207E0184600F008F824F812009B1C1B
:10199000501C82B2AA42F5DB30BD01460888704770
:1019A0002DE9F05F80468A461746B8F1006F02D3F2
:1019B0003348804501D3BDE8F09FFFF7AFF8A8F1A9
:1019C000006B4FEADB26CBF34909C9F58064A742D7
:1019D00000DC3C464DE04FF0006101EBC6204A14AC
:1019E0002849FFF7C9FF00250BE009EB0500254951
:1019F00031F810004FF6FF71884200D003E0681CF8
:101A000085B2A542F1DB00BFA5421BDA4FF00061B1
:101A100001EBC620FFF718F8002508E03AF815009A
:101A200005EB0901174A22F81100681C85B2A5428E
:101A3000F4DB4FF0006101EBC6204A14114900F0BD
:101A400023F804E022465146404600F01DF8A74224
:101A500000D10FE0761C4FF000090AEB440AA044C5
:101A6000381B87B2B7F5806F02DD4FF4806400E069
:101A70003C46B0E700BFFFF727F800BF9BE7000038
:101A800000000808D80D00202DE9F04105460E465B
:101A90001746002407E036F814102846FFF71EF812
:101AA000AD1C601C84B2BC42F5DBBDE8F081704720
:101AB00070B505460E46074C18212046FEF771FB0F
:101AC000658026711023224629460220FFF771FD0A
:101AD00070BD00009616002070B50546064C182112
:101AE0002046FEF75EFB6580102322462946022031
:101AF000FFF75FFD70BD00009616002010B500F0E6
:101B000001F810BD0CB5002001900090334800682A
:101B100040F480303149086000BF3048006800F46C
:101B2000003000900198401C0190009818B901986D
:101B3000B0F5A06FF1D12948006800F4003010B171
:101B40000120009001E0002000900098012843D17E
:101B50002348006840F010002149086008460068EA
:101B600020F0030008600846006840F002000860AA
:101B70001A48406819494860084640684860084665
:101B8000406840F4806048600846406820F47C105B
:101B900048600846406840F4E8104860084600681D
:101BA00040F08070086000BF0C48006800F00070D2
:101BB0000028F9D00948406820F003000749486030
:101BC0000846406840F00200486000BF0348406893
:101BD00000F00C000828F9D10CBD000000100240F4
:101BE00000200240042808D14FF0E021096941F0AB
:101BF00004014FF0E022116107E04FF0E021096994
:101C000021F004014FF0E02211617047704700009D
:101C100010B51248006840F00100104908600846FD
:101C200040680F4908400D494860084600680D4962
:101C300008400A4908600846006820F480200860CF
:101C40000846406820F4FE0048604FF41F0088609A
:101C5000FFF754FF04480549086010BD001002401A
:101C60000000FFF8FFFFF6FE0000010808ED00E0AD
:101C700010B53B480088401C394908803948008825
:101C8000401C3849088038480068401C36490860C4
:101C90000846006840F6B831884232D133480078AF
:101CA00000F0200020280AD03148006800F0100021
:101CB00028B92F48006840F010002D4908602B48D3
:101CC000007800F0100010280AD02948006800F0C1
:101CD000400028B92648006840F0400024490860C8
:101CE0002348006800F4807028B92148006840F457
:101CF00000601F49086000201B49086001201D4941
:101D000008601D480068012813D11C480068401C69
:101D10001A49086008460068B0F5FA7F09DB002020
:101D20000860154908601648007820F0C000144982
:101D300008701448007868B109480088B0F5617FE0
:101D400008D11048007800200E4908700449088026
:101D5000044908800121880700F09FF910BD0000A8
:101D60007C0000207E0000208400002088000020ED
:101D7000000401408C00002094000020900000200E
:101D8000740000208200002010B50121204800F0DE
:101D9000A2F900283AD001211D4800F07EF91D4823
:101DA0000068401C1B4908601B480068401C1A4919
:101DB000086008460068B0F1FF3F01D100200860CC
:101DC0001448006842F21071884207D31348006833
:101DD000401C1249086000200E4908600F48006846
:101DE0006FF00041884202D100200C49086047F2A0
:101DF0003052094801680A48006801F067FC28B1C0
:101E0000FFF718FA044800680549086010BD000093
:101E10000004004044000020400000204800002052
:101E2000500000207FB505460C4601210220FFF737
:101E3000C1FCADF80850ADF804400020ADF80A0030
:101E4000ADF8060001A9104800F068FA01210E481B
:101E500000F020F9012211460B4800F04DF91D2039
:101E60008DF8000002208DF8010003208DF802009B
:101E700001208DF803006846FFF71EFB0121024890
:101E800000F00EF97FBD00000004004010B500F026
:101E900003F800F0A1F810BD08B501210803FEF712
:101EA00009FF4FF46040ADF8000018208DF80300E2
:101EB00003208DF8020069460148FEF76FFE08BD59
:101EC0000014014010B501213D4800F004F900283C
:101ED00075D03C48006800B33B4800883849383129
:101EE00008803A48007828B137480068801C364995
:101EF000086004E034480068801E334908603248B6
:101F00000068B0F5FA7F02DD0020304908702E48E5
:101F1000006810B901202D4908702D48006800B3F1
:101F20002948008826493C3108802848007828B193
:101F300025480068801C2449086004E022480068A5
:101F4000801E2149086020480068B0F5FA7F02DD54
:101F500000201E4908701C48006810B901201B4968
:101F600008701C48006800B31748008814494031C5
:101F700008801648007828B113480068801C124970
:101F8000086004E010480068801E0F4908600E4891
:101F90000068B0F5FA7F02DD00200C4908700A489D
:101FA000006810B901200949087001F007FF02F02C
:101FB0003FF901F07DFF0121014800F06EF810BDEE
:101FC000000800405C000020540000205800002061
:101FD000640000206000002000B587B001210420CB
:101FE000FFF7E8FB4FF4FA70ADF8140040F2A4607C
:101FF000ADF810000020ADF81600ADF8120004A9ED
:102000001D4800F08BF96020ADF800000120ADF80C
:1020100002000020ADF80600ADF808006946164839
:1020200000F074F80821144800F0C2F8694612481C
:1020300000F0CCF80821104800F018F969460E4865
:1020400000F01EF908210C4800F058F901210A4857
:1020500000F014F80121084800F022F8012211468E
:10206000054800F049F8FFF716FA0121032002F0B5
:102070004FF807B000BD00000008004021B1028801
:1020800042F08002028004E002884FF67F731A401B
:1020900002807047CA4302827047CA430282704777
:1020A00021B1028842F00102028004E002884FF66A
:1020B000FE731A400280704731B1B0F8442042F4F8
:1020C0000042A0F8442005E0B0F84420C2F30E021C
:1020D000A0F84420704730B50246002000230024B9
:1020E000158A05EA0103958905EA010413B10CB1CB
:1020F000012000E0002030BD1AB183890B438381A9
:1021000002E083898B4383817047000070B500240F
:1021100000220023058C4FF6EF7635400584028CB3
:102120008388048B48F6FF752C404FF6FF452C4002
:102130000D884FF6FF7606EA05252C434FF6DF752E
:102140002A400D8906EA05152A434D8806EA051539
:102150002A43154DA84202D0144DA8421DD14FF676
:102160007F752A404D894FF6FF7606EA05152A430A
:102170004FF6BF752A408D8806EA05152A434FF6AB
:10218000FF352B404FF2FF752B408D8906EA850500
:102190002B43CD8906EA85052B4383800483CD88B4
:1021A0000587028470BD0000002C0140003401400E
:1021B0000A460021018B4FF2FF7319404FF6FF735F
:1021C00003EA0223194301837047000070B500241D
:1021D00000220023058C4FF6FF6635400584028CF3
:1021E0008388848B4FF68F752C404FF6FC752C40FE
:1021F0000D882C434FF6FF552A400D894FF6FF7688
:1022000006EA05252A434D8806EA05252A43154D89
:10221000A84202D0144DA8421DD14FF2FF752A40AA
:102220004D894FF6FF7606EA05252A434FF6FF351E
:102230002A408D8806EA05252A434EF6FF752B4075
:102240004DF6FF752B408D8906EA05152B43CD8988
:1022500006EA05152B4383808483CD888587028415
:1022600070BD0000002C0140003401400A460021EE
:10227000818B4FF6F773194011438183704700003B
:1022800070B5002200230024058C4EF6FF76354001
:102290000584038C8488828B48F6FF752A404FF6AC
:1022A000FF452A400D884FF6FF7606EA05252A43AA
:1022B0004DF6FF752B400D8906EA05352B434D88F9
:1022C00006EA05352B430B4DA84202D00A4DA84221
:1022D00008D14BF6FF752C408D894FF6FF7606EA44
:1022E00085152C4384808283CD88A0F840500384D8
:1022F00070BD0000002C0140003401400A4600215E
:10230000818B4FF2FF7319404FF6FF7303EA0223EC
:1023100019438183704701877047000000220288BB
:102320001D4B98420ED01D4B98420BD0B0F1804F00
:1023300008D01B4B984205D01A4B984202D01A4B3A
:10234000984204D14FF68F731A404B881A43174BAB
:10235000984207D0164B984204D04FF6FF431A40DC
:10236000CB881A4302808B8883850B8803850A4BB0
:1023700098420BD0094B984208D00E4B984205D09A
:102380000D4B984202D00D4B984201D10B7A038637
:102390000123838270470000002C0140003401407B
:1023A0000004004000080040000C00400010004005
:1023B000001400400040014000440140004801403A
:1023C00010B540F22551104800F049F9A8B10E4867
:1023D00000F000FAC4B20D480D49098844540C4875
:1023E0000088401C0A49088008460088172804DD38
:1023F0000020088001200749087040F2255102485A
:1024000000F0B7F810BD0000004C0040F6160020A8
:102410006E0000206A00002010B540F225511048DF
:1024200000F01DF9A8B10E4800F0D4F9C4B20D486F
:102430000D49098844540C480088401C0A4908800A
:1024400008460088172804DD00200880012007497D
:10245000087040F22551024800F08BF810BD0000D2
:10246000005000400E170020700000206B0000207C
:1024700010B51FA000F04AFB40F225511F4800F0A4
:10248000EEF810B31D4800F0A5F9C4B21C4800884E
:1024900000F40040C8B91A48008800F4804060B1D8
:1024A0000A2C03D000201649088020E01448008838
:1024B00040F400401249088019E00D2C06D1104864
:1024C000008840F480400E49088010E00C480088E5
:1024D000C0F30D000B490C5409480088401C084902
:1024E000088008460088C72801DD0020088010BD4C
:1024F00032303139303432320A0D000000380140B8
:10250000CC0D00202617002010B540F225511048B0
:1025100000F0A5F8A8B10E4800F05CF9C4B20D486F
:102520000D49098844540C480088401C0A49088019
:1025300008460088172804DD00200880012007498C
:10254000087040F22551024800F013F810BD000059
:1025500000480040DE1600206C00002069000020CA
:1025600001F40072B2F5007F00D100BFCA430280BF
:10257000704710B50022002340F66A14A14200D132
:1025800000BF0A1201249440A3B2DC43048010BDB2
:1025900021B1828942F40052828104E082894DF6A1
:1025A000FF731A408281704710B504462048844268
:1025B00009D101218803FFF72DF900214FF4804054
:1025C000FFF728F932E01B48844209D10121480471
:1025D000FFF700F900214FF40030FFF7FBF825E08A
:1025E0001548844209D101218804FFF7F3F800213E
:1025F0004FF48020FFF7EEF818E01048844209D12C
:102600000121C804FFF7E6F800214FF40020FFF78E
:10261000E1F80BE00A48844208D101210805FFF7E0
:10262000D9F800214FF48010FFF7D4F810BD000056
:10263000003801400044004000480040004C004089
:102640000050004002460020B1F5007F00D100BFDD
:1026500013880B400BB1012000E00020704770B5DB
:102660000246002400230025002040F66A16B142ED
:1026700000D100BFC1F3421501F01F03012606FA85
:1026800003F3012D02D19689334006E0022D02D1D9
:10269000168A334001E0968A33400C12012606FA6E
:1026A00004F41688344013B10CB1012000E000207E
:1026B00070BDF0B50346002400260025002040F63A
:1026C0006A17B94200D100BF1846C1F3421401F0A5
:1026D0001F06012707FA06F5012C01D10C3004E092
:1026E000022C01D1103000E014301AB107682F43DA
:1026F000076002E00768AF430760F0BD2DE9F047CF
:1027000086B005460E460024A24600BFA14600271B
:10271000B08900B100BF2F462C8A4CF6FF700440F0
:10272000F08804432C82AC894EF6F3100440B08844
:1027300031890843718908430443AC81AC8A4FF660
:10274000FF400440B0890443AC8201A8FFF780F841
:102750001F48874202D1DDF810A001E0DDF80CA08F
:10276000A88900F4004040B10AEBCA0000EB0A104F
:1027700031684900B0FBF1F807E00AEBCA0000EB52
:102780000A1031688900B0FBF1F86420B8FBF0F062
:1027900004012009642101FB1089A88900F400408C
:1027A00040B1322000EBC900B0FBF1F000F00700AF
:1027B000044308E0322000EB09106421B0FBF1F083
:1027C00000F00F0004432C8106B0BDE8F087000044
:1027D0000038014001468888C0F308007047C1F303
:1027E000080282807047F0B507460D461646002461
:1027F00040213846FFF7B4FE00BF0CE0295D3846A3
:10280000FFF7EDFF00BF40213846FFF71BFF01280F
:10281000F9D1601CC4B2B442F0DBF0BDF8B5044697
:102820000D461646012C05D1324629461248FFF7BF
:10283000DAFF1FE0022C05D1324629460F48FFF788
:10284000D2FF17E0032C05D1324629460C48FFF78A
:10285000CAFF0FE0042C05D1324629460948FFF78C
:10286000C2FF07E0084B4FF4B77208A10CA0009418
:1028700000F04CF9F8BD000000480040004C00405A
:102880000050004000380140105101085573657236
:102890005C7372635C75736172742E630000000078
:1028A0002573282564292D3C25733E3A756E6B6E81
:1028B0006F776E2075736172742025780A000000AE
:1028C00038B50446012C03D100200B49087012E0F2
:1028D000022C03D10020094908700CE0032C03D11D
:1028E00000200749087006E0064B412206A10BA014
:1028F000009400F00BF938BD690000206A00002048
:102900006B000020D7500108557365725C737263C9
:102910005C75736172742E630000000025732825B6
:1029200064292D3C25733E3A756E6B6E6F776E2071
:1029300075736172742025780A00000038B504466A
:10294000012C03D100200B49088012E0022C03D196
:102950000020094908800CE0032C03D1002007491E
:10296000088006E0064B552206A10BA0009400F05B
:10297000CDF838BD6C0000206E00002070000020F3
:10298000EB500108557365725C7372635C7573611B
:1029900072742E63000000002573282564292D3CE5
:1029A00025733E3A756E6B6E6F776E20757361722C
:1029B000742025780A00000038B504460D46012C25
:1029C00005D118220E492846FDF7D2FB16E0022C4D
:1029D00005D118220B492846FDF7CAFB0EE0032C4F
:1029E00005D1182208492846FDF7C2FB06E0074B2F
:1029F000692207A10BA0009400F088F838BD000000
:102A0000DE160020F61600200E170020FE500108EA
:102A1000557365725C7372635C75736172742E6357
:102A2000000000002573282564292D3C25733E3ABB
:102A3000756E6B6E6F776E2075736172742025787A
:102A40000A00000038B50446012C02D10C48007879
:102A500038BD022C02D10B480078F9E7032C02D1D3
:102A600009480078F4E709A000F050F80C4B2C223C
:102A70000CA111A0009400F049F80220E8E7000042
:102A8000690000206A0000206B0000206170702047
:102A9000756E6B6E6F776E207573617274210A00AC
:102AA000C5500108557365725C7372635C75736120
:102AB00072742E63000000002573282564292D3CC4
:102AC00025733E3A756E6B6E6F776E20757361720B
:102AD000742025780A00000000BFFEE700200149AD
:102AE00008607047082C004010B50348007800F0DB
:102AF00005F8FFF7F3FF10BD7200002000F07F0122
:102B0000014A116070470000002C00400FB4054BD3
:102B100010B503A9044A029800F018F810BC5DF83B
:102B200014FB0000B1360108C80D002002E008C8FF
:102B3000121F08C1002AFAD170477047002001E037
:102B400001C1121F002AFBD1704700002DE9FF4F81
:102B50008DB00F460546002606E025280BD0DDE99E
:102B60000F1290476D1C761C28780028F5D111B003
:102B70003046BDE8F08F0024A246A1460122EC4970
:102B800000E0044315F8013F203B02FA03F008423D
:102B9000F7D128782A2810D06FF02F022878A0F1DA
:102BA0003001092914D80AEB8A0102EB410144F0F3
:102BB000020400EB010A6D1CF0E701CF5FEA000A96
:102BC00003D544F40054CAF1000A44F002046D1C19
:102BD00028782E2817D115F8010F44F004042A286C
:102BE0000ED06FF02F022878A0F1300109290AD801
:102BF00009EB890102EB410100EB01096D1CF2E7D1
:102C000057F8049B6D1C28786C280FD006DC4C28E4
:102C100017D068280DD06A2814D104E0742810D089
:102C20007A280FD10DE044F400140AE044F4801433
:102C300001E044F440146978814202D104F5801423
:102C40006D1C6D1C2A786E2A1FD00CDC632A31D0D3
:102C500004DC002A8BD0582A11D1A3E0642A68D062
:102C6000692A0CD165E0732A2ED004DC6F2A73D058
:102C7000702A04D19BE0752A6FD0782A6ED0104656
:102C8000DDE90F129047761C50E1C4F30250022890
:102C900006D0032809D0042801CF09D0066045E1F9
:102CA00001CFF117C0E9006140E101CF06803DE1AD
:102CB00006703BE117F8040B8DF8000000208DF83A
:102CC0000100EB46012003E057F804BB4FF0FF3052
:102CD00061074FF0000102D40DE008F101018846C0
:102CE00049450FDA8045F8DB1BF808100029F4D1BC
:102CF00008E008F1010188468142FADB1BF8081060
:102D00000029F6D1DDE90F23AAEB08008146214610
:102D100000F036F9304400EB080604E0DDE90F125C
:102D20001BF8010B9047B8F10108F7D2214648463D
:102D3000F7E00A21C4F302534FF0000B0891022B75
:102D400004D001CFC117032B09D00AE0FF1D27F0E3
:102D50000707F7E8020108E032E01FE020E000B2D8
:102D6000C117042B01D140B2C117031E71F100033A
:102D700007DA4FF0000CD0EB0C006CEB01012D23B7
:102D800002E0230504D52B238DF82430012303E032
:102D9000E30701D02023F7E7984658E00A2110E026
:102DA00010210EE010204FF0000B08900CE01021D5
:102DB0004FF0000B44F004044FF00809089103E0C1
:102DC00008214FF0000B0891C4F30253022B04D0EA
:102DD00001CF0021032B06D006E0FF1D27F00707D7
:102DE000F7E8020103E080B2042B00D1C0B24FF03B
:102DF000000823072BD5702A07D0DDF820C08CF0FF
:102E0000100C5CEA0B0C05D00EE040238DF824304A
:102E1000012308E050EA010306D030238DF8243066
:102E20008DF8252002239846DDF820C08CF0080C90
:102E30005CEA0B0C0BD150EA010301D1630706D504
:102E400030238DF824304FF00108A9F10109582AE8
:102E500004D038A20B9208AA0A920BE03AA2F9E732
:102E60005B46089AFDF789FA0B9B9B5C0A9A521EF7
:102E70000A92137050EA0102F2D10A98ADEB0000F9
:102E800000F1200B600702D524F4803401E04FF0FC
:102E90000109D94502DDA9EB0B0000E0002000EBA1
:102EA0000B0141440890AAEB010AE00306D4DDE9D6
:102EB0000F232146504600F063F806444FF0000906
:102EC00008E009A911F80900DDE90F12904709F19E
:102ED0000109761CC145F4DBE0030CD5DDE90F23C5
:102EE0002146504600F04CF8064404E0DDE90F129C
:102EF00030209047761C0899481E08900029F5DC80
:102F000008E00A980A990078491C0A91DDE90F1235
:102F10009047761CBBF10001ABF1010BF1DC2146BF
:102F20005046DDE90F2300F019F806446D1C1BE63E
:102F3000092801003031323334353637383961628F
:102F40006364656600000000303132333435363753
:102F50003839414243444546000000002DE9F04124
:102F6000044600251E461746880404D405E0394669
:102F70002020B0476D1C641EF9D52846BDE8F081BD
:102F80002DE9F041044600251E469046C80301D5B0
:102F9000302700E02027880404D505E04146384664
:102FA000B0476D1C641EF9D52846BDE8F0810022AB
:102FB00012E00378412B06DB03787A2B03DC0378DD
:102FC000203B037005E00378202B02D103784033C7
:102FD0000370401C531CDAB28A42EADB70470022BD
:102FE00015E00378412B06DB03785A2B03DC0378CA
:102FF000403B037008E00378612B05DB03787A2BF4
:1030000002DC0378463B0370401C531CDAB28A4250
:10301000E7DB704710B50948006868B14FF47A7271
:10302000074801680748006800F050FB20B101F034
:1030300031FF00200149086010BD00002C00002075
:10304000400000203000002008B58020ADF80000CE
:1030500003208DF8020004208DF8030069462548FE
:10306000FDF79CFD4FF4C050ADF8000003208DF833
:10307000020010208DF8030069461F48FDF78EFD01
:103080004FF400611C48FDF771FE4FF480511A485F
:10309000FDF76CFE8020ADF8000003208DF80200E3
:1030A00010208DF8030069461448FDF777FD802154
:1030B0001248FDF75BFE4E20ADF8000003208DF8AE
:1030C000020010208DF8030069460A48FDF766FDEE
:1030D00002210848FDF748FE04210648FDF744FE9A
:1030E00008210448FDF742FE40210248FDF73EFE5C
:1030F00008BD000000140140000801400018014014
:1031000010B56FF00400FEF76DFD0A4800680A492B
:10311000B0FBF1F0094908700846007800EB400167
:10312000C1EBC0104FF6FF7101EAC00004490880EE
:1031300010BD0000B40D002000127A00CE0D00205A
:10314000D00D00200146114A12884A434FF0E02377
:103150005A6100229A611A46126942F001021A610C
:1031600000BF4FF0E022106900F001021AB100F434
:103170008032002AF5D04FF0E022126922F00102DD
:103180004FF0E0231A6100229A617047D00D0020B1
:103190000146114A12784A434FF0E0235A61002257
:1031A0009A611A46126942F001021A6100BF4FF09B
:1031B000E022106900F001021AB100F48032002A06
:1031C000F5D04FF0E022126922F001024FF0E02327
:1031D0001A6100229A617047CE0D002010B53D485B
:1031E000006870B980213C48FDF7ACFD48B901206A
:1031F00038490860394800683949086039A0FFF744
:1032000085FC3448006870B13848006858B980219E
:103210003148FDF797FD012805D1344908602F4852
:1032200000683349086031480068002835D041F211
:1032300088322A4801682E48006800F047FA40B1F9
:103240000020244908602649086028490860284968
:1032500008604CF25032264801682148006800F0AE
:1032600035FA90B16120FEF737FC0020194908605B
:103270001B4908601D4908601D49086001201D495F
:103280000860164800681C49086080211248FDF754
:1032900059FD10B90020154908601648006801283A
:1032A00017D14CF250320D4801681348006800F005
:1032B0000DFA70B100200F4908600F4908604021E5
:1032C0000548FDF73FFD012803D144200B4981F853
:1032D000600010BD040000200014014040000020E8
:1032E0000C00002062620A0D0000000008000020AF
:1032F000100000202400002028000020D815002005
:1033000010B52448006870B980212348FDF71AFDE4
:1033100048B901201F49086020480068204908601A
:1033200020A0FFF7F3FB1B48006870B11F4800683E
:1033300058B980211848FDF705FD012805D11B4922
:103340000860164800681A49086018480068F8B113
:1033500041F28832164801681148006800F0B6F959
:1033600070B101F081FB00200A4908600C49086037
:103370000E4908600E4908600E4908600E49086051
:1033800080210548FDF7DEFC10B9002007490860E0
:1033900010BD000014000020001401404000002077
:1033A0001C00002061610A0D0000000018000020D0
:1033B00020000020240000202800002010B54FF03D
:1033C000FF3440210C48FDF7C6FC044614B10B48FD
:1033D000006828B10A48006810B9FFF791FF09E0BA
:1033E000012C02D00648006820B10448006808B9E2
:1033F000FFF7F4FE10BD000000140140140000208F
:103400000400002010B586B004462348FFF7CCF82E
:103410004FF40070ADF8140003208DF8160018204A
:103420008DF8170005A91D48FDF7B8FB4FF4806023
:10343000ADF8140004208DF8170005A91748FDF712
:10344000ADFB25208DF8000003208DF801008DF8DC
:10345000020001208DF803006846FEF72DF8019464
:103460000020ADF80800ADF80A00ADF80C00ADF88A
:1034700010000C20ADF80E0001A90748FFF73EF937
:10348000012240F225510448FFF713F901210248B7
:10349000FFF77EF806B010BD00380140000801407B
:1034A00030B589B005460C460121C802FEF7A2F9E5
:1034B00001214120FEF79EF901211E48FDF7FAFB8C
:1034C0004FF40060ADF8200018208DF82300032091
:1034D0008DF8220008A91848FDF760FBADF81850D8
:1034E000ADF814400020ADF81A00ADF8160005A99B
:1034F0001248FEF713FF7020ADF804000120ADF86C
:1035000006000020ADF80C003C20ADF80A0001A92F
:103510000A48FEF7FBFD08210848FEF749FE012195
:103520000648FEF7C9FD01210448FEF7B9FD09B0C0
:1035300030BD0000C000160000180140002C014002
:1035400010B51E48847840211D48FDF704FC28B9B9
:1035500064201A49887100F035F810BD1748C07909
:1035600000F0800030B16420144988713C2000F0E4
:1035700029F820E0282C05DC3C201049887100F057
:1035800021F818E0282C07DD2C2C05DC19200B492C
:10359000887100F017F80EE02C2C07DD302C05DCCC
:1035A0000A200649887100F00DF804E00020034964
:1035B000887100F007F800BFCFE70000D8150020A1
:1035C0000014014010B5044621460248FEF7A3FE50
:1035D00010BD0000002C014070B50546002428E015
:1035E000204601F096FB002001F076FB0020FDF75D
:1035F000BCFD78210020FDF789FD0020FDF7EDFDE1
:1036000040210020FDF782FD0020FDF7E6FD0026A9
:1036100008E029460020FDF779FD0020FDF7DDFDDB
:10362000701CC6B2802EF4DB0020FDF7BAFD601CD2
:10363000C4B2082CD4DB70BD2DE9F04705460E4618
:1036400017469846DDF820A034462BE0204601F0CE
:1036500060FB404601F040FB0020FDF786FD78212D
:103660000020FDF753FD0020FDF7B7FD40210020AD
:10367000FDF74CFD0020FDF7B0FD4FF000090AE01A
:1036800029460020FDF742FD0020FDF7A6FD09F1C7
:10369000010000F0FF09D145F2DB0020FDF781FDBC
:1036A000601CC4B2781C8442D0DBBDE8F087000007
:1036B00000BF054A128802F04002002AF9D0C2B2C7
:1036C000014B1B1D1A807047003801400346994288
:1036D00004D3C81A904208D901207047C3F1FF30C3
:1036E0000844904201D90120F7E70020F5E710B522
:1036F0000220FDF779FF10BD08B5C020ADF800002D
:1037000014208DF8030003208DF802006946044858
:10371000FDF744FAC0210248FDF728FB08BD000070
:10372000000C014000B585B021208DF8000000207C
:103730008DF801008DF8020001208DF80300684625
:10374000FDF7BAFE22208DF8000001208DF802005E
:103750006846FDF7B1FE1748FDF7C8FB0020ADF83D
:1037600008004BF6FF70ADF80A009020ADF80C0091
:103770004FF48060ADF80E000001ADF810000E4867
:10378000019001A90B48FDF7D7FB012291020948DE
:10379000FDF7C8FB012251020648FDF7C3FB0122D9
:1037A00011020448FDF7BEFB01210248FDF792FB20
:1037B00005B000BD00580040801A060008B54FF45F
:1037C0004060ADF8000003208DF802001C208DF849
:1037D000030069460648FDF7E1F901218805FDF778
:1037E000F9FF00214FF48000FDF7F4FF08BD000051
:1037F000000C014010B5FFF7E1FFFFF793FF10BD8C
:1038000010B5FFF779FFFFF7F5FF10BD2DE9F04187
:103810000024002600250027A0462B48007800F051
:10382000400000284ED029480068002841D128488F
:103830000068040E26480068C0F30746F043C0B293
:10384000A04229D122480088C0F3072520480778E4
:10385000F843C0B2A8421FD11E488577807FD02888
:103860000DD140211C48FDF76DFA8046B8F1000FDC
:1038700002D101F0F9F802E07120FEF72DF91548A8
:10388000817F7020FEF714F900F04EFA1148827F14
:10389000214612A0FFF73AF90B48007820F0C0004B
:1038A0000949087001200949086000201149086091
:1038B00008E00548007820F0C000034908700020A7
:1038C0000C490860BDE8F0817400002094000020DD
:1038D00078000020D815002000140140757365722F
:1038E0003A307825782C2076616C3A30782578202B
:1038F0000A000000900000201FB54FF40060ADF8F2
:103900000C0003208DF80E0048208DF80F0003A94D
:103910003E48FDF743F95020ADF80C0003208DF828
:103920000E0048208DF80F0003A93948FDF736F93D
:103930004020FDF725F806210020FDF70FF9402073
:10394000019000208DF8080010208DF8090001205A
:103950008DF80A0001A8FDF72DF817208DF800005A
:1039600002208DF801008DF8020001208DF803007F
:103970006846FDF7A1FD1020FDF702F804210020A4
:10398000FDF7ECF81020019000208DF808001020C1
:103990008DF8090001208DF80A0001A8FDF70AF84A
:1039A0000A208DF8000002208DF8010001208DF81A
:1039B00002008DF803006846FDF77EFD4FF40060BD
:1039C000FCF7DEFF0B210320FDF7C8F84FF4006081
:1039D000019000208DF8080010208DF809000120CA
:1039E0008DF80A0001A8FCF7E5FF28208DF80000FB
:1039F00002208DF8010000208DF8020001208DF8D2
:103A000003006846FDF758FD1FBD0000001401408B
:103A10000008014010B5FFF76FFF4721632000F059
:103A200051F910BD10B54FF400619548FDF78AF9C2
:103A300020B14FF40060FCF7A9FF88B9102191482C
:103A4000FDF780F918B11020FCF7A0FF40B9402124
:103A50008C48FDF777F9D8B14020FCF797FFB8B153
:103A60000020894908808948007840F01000874983
:103A7000087087480088552806DB854800885F283D
:103A800002DC012083490870002081490880F5E0AC
:103A90007E48007800F0100000287DD07B48007838
:103AA00000F0800000B378480088032809DB7648DE
:103AB0000088082805DC78480068400076490860DE
:103AC00083E0714800880E287FDB6F480088122849
:103AD0007BDC7148006840006F4908600846006858
:103AE00040F00100086070E067480088292815DB75
:103AF00065480088302811DC66480078002864D0CA
:103B00006248007840F080006049087000206249F7
:103B10000860624908706249087056E05A48008897
:103B200014280FDB5848008819280BDC5B48007804
:103B3000401C5A4908705548007820F080005349CD
:103B4000087042E050480088C82802DB51480078DD
:103B5000D8B35448007800F00800B8B15248007853
:103B600040F01000504908705048006800F04000D4
:103B700060B14F4800684F49086006204E49087000
:103B80004A48006820F040004849086045480078ED
:103B900000F00200C8B100E063E04348007840F064
:103BA0002000414908704148006800F0100060B1F1
:103BB0003F4800684149086006203F4908703B487B
:103BC000006820F01000394908603448007820B9B6
:103BD00033480078401C3249087031480078212869
:103BE0003FD10120364908602F48007800F02000BE
:103BF00020280AD02D48006800F0100028B92B4872
:103C0000006840F01000294908602748007800F05B
:103C1000100010280AD02548006800F0400028B99C
:103C20002248006840F04000204908601F480068B2
:103C300000F4807028B91D48006840F400601B49FA
:103C400008601248007800F0800050B10F480078FA
:103C500040F040000D4908701248007800201149DA
:103C6000087000200849088009490880094908703F
:103C70000648007820F010000449087010BD0000CC
:103C800000140140000801407C0000207400002066
:103C90007E0000208000002078000020B40000207A
:103CA00081000020820000208800002000040140E4
:103CB0004800002098000020A00000209C00002068
:103CC0008C0000207FB504460D4601210846FDF713
:103CD00071FDADF80850ADF804400020ADF80A00C1
:103CE000ADF806008DF80C0001A94FF08040FEF7FA
:103CF00015FB012211469007FEF7FEF90121880706
:103D0000FEF7CEF901218807FEF7C4F91C208DF8D3
:103D1000000001208DF803008DF801008DF80200ED
:103D20006846FDF7C9FB7FBD10B501201F4908603B
:103D300041031F48FDF706F858B901201D490860E6
:103D40004FF4FC701C490880091D0880091D08807B
:103D50002AE04FF480411648FCF7F4FF58B90220DE
:103D6000144908604FF4FC7013490880091D08804D
:103D7000091D088018E04FF400410D48FCF7E2FFF0
:103D800058B903200B4908604FF4FC700A490880B9
:103D9000091D0880091D088006E000200649083139
:103DA000088004200349086010BD0000DC000020EA
:103DB00000140140E0000020380800401A48006864
:103DC00000B97047194801680068401C174A106024
:103DD000022900D0F5E70020144908601249086064
:103DE00013480068012806D0022808D003280BD009
:103DF000042814D10DE000200E49088010E00020B6
:103E00000C49091D08800BE000200A490831088090
:103E100006E04FF4FC7007490831088000E000BF5D
:103E200000BF00BFCDE70000DC000020E400002060
:103E3000E00000203808004070B504460D461748E1
:103E4000005D00F0400038B31448005D00F002004F
:103E500060B100F097F94FF4FC7011490880091D1A
:103E60000880091D0880012028600FE000200D490E
:103E700008600D4908600D49086028604FF4FC7027
:103E800007490880091D0880091D08800348005D56
:103E900020F040000149085570BD0000D8150020F1
:103EA000380800405C000020640000206000002012
:103EB0007C4890F86E0000B970477A4890F871001D
:103EC000012849D1784800887849088078480068F6
:103ED000C0B1744890F8740073490968884208DBDF
:103EE000704890F86F007049096808446E4908608E
:103EF00020E06C4890F870006B49096808446A49F2
:103F0000086017E0674890F87400674909688842BC
:103F100008DB644890F86F0063490968081A624931
:103F2000086007E05F4890F870005F490968081A68
:103F30005D4908605C480068B0F5FA7F02DB00204C
:103F40005B49086058480068002805DC0120584992
:103F50000860002054490860524890F87100022817
:103F60004AD1514800885149091D088050480068CD
:103F7000C0B14C4890F874004B490968884208DB8E
:103F8000484890F86F004849096808444649086065
:103F900020E0444890F870004349096808444249C9
:103FA000086017E03F4890F874003F49096888426C
:103FB00008DB3C4890F86F003B490968081A3A4909
:103FC000086007E0374890F8700037490968081A18
:103FD0003549086034480068B0F5FA7F02DB0020FC
:103FE0003349086030480068002805DC012030496A
:103FF000086000202C4908602A4890F871000328C6
:104000004ED129480088294908310880284800688D
:10401000C0B1244890F8740023490968884208DB3D
:10402000204890F86F002049096808441E4908603C
:1040300020E01C4890F870001B49096808441A49A0
:10404000086017E0174890F874001749096888421B
:1040500008DB144890F86F0013490968081A1249E0
:10406000086007E00F4890F870000F490968081AC7
:104070000D4908600C480068B0F5FA7F06DB0020A7
:104080000B4908604FF4FA70074908600648006859
:10409000002805DC0120064908600020024908606C
:1040A00000BF09E7D8150020E800002038080040CC
:1040B000EC000020144890F8720000B970471248D4
:1040C00090F87100012805D10F4890F87300800026
:1040D0000E4908800C4890F87100022806D10A4861
:1040E00090F8730080000949091D0880064890F87F
:1040F0007100032806D1044890F87300800003493A
:104100000831088000BFD9E7D815002038080040E2
:1041100070B504460D463DB3012C04D0022C0CD0E2
:10412000032C20D115E00020154908804FF4FC70C5
:10413000091D0880091D088015E04FF4FC70104926
:1041400008800020091D08804FF4FC70091D0880BC
:1041500009E04FF4FC700A490880091D088000201E
:10416000091D088000BF09E000F00CF84FF4FC7056
:1041700003490880091D0880091D088070BD0000E2
:1041800038080040002006490860064908600649D2
:1041900008600649086006490860064908607047DB
:1041A000C4000020C8000020CC0000205C000020DB
:1041B000640000206000002070B504460D461748DA
:1041C000005D00F0200038B31448005D00F00400EA
:1041D00060B1FFF7D7FF4FF4FC7011490880091D4B
:1041E0000880091D0880012028600FE00020286059
:1041F0000C4908600C4908600C4908604FF4FC70D9
:1042000007490880091D0880091D08800348005DD2
:1042100020F020000149085570BD0000D81500208D
:1042200038080040C4000020C8000020CC00002056
:104230002448006898B14FF4FC7023490880234853
:1042400001680068401C214A1060214890F86B000A
:10425000814204DB00201C490880114608601D488B
:104260000068A8B14FF4FC701749091D08801A486E
:1042700001680068401C184A1060154890F86C00EE
:10428000814205DB00201049091D088011460860A5
:1042900012480068A8B14FF4FC700B49083108803F
:1042A0000F4801680068401C0D4A1060084890F8EB
:1042B0006D00814205DB002003490831088011466A
:1042C00008607047C400002038080040D00000207B
:1042D000D8150020C8000020D4000020CC00002009
:1042E000D800002070B505460C460948005D00F076
:1042F000800060B10648005D00F001012846FFF72C
:1043000007FF0348005D20F080000149085570BD9B
:10431000D815002010B50D480068012806D10C48BA
:1043200000680C4908600020084908604CF25032CF
:104330000748016807480068FFF7C8F920B100F096
:104340000BF801200149086010BD00003800002072
:10435000400000203400002010B50020FCF705FFCD
:104360009F210020FCF7D2FE0020FCF736FF012140
:104370000020FCF78FFE0649887000210846FCF7F4
:1043800089FE0349C8700020FCF70BFF10BD000038
:10439000D815002000F03AFDFEF756FE6420FEF727
:1043A000D1FE05A0FEF7B2FB05E0FFF7A0F900F093
:1043B0005EFDFCF79DFFF8E7656E74657220617025
:1043C000700A000010B50020FFF706F910BD0000CC
:1043D000F0B587B006460F460025142102A8FBF76A
:1043E000E0FE00244DE004F126002F490D5C642D11
:1043F0000FDB642095FBF0F0801C002101EB8401B1
:1044000002AA5054642095FBF0F100FB1150C5B294
:1044100008E0642095FBF0F0801C002101EB840192
:1044200002AA50540A2D0FDB0A2095FBF0F0801CE5
:10443000012101EB840102AA50540A2095FBF0F1FE
:1044400000FB1150C5B208E00A2095FBF0F0801C7B
:10445000012101EB840102AA5054A81C022101EBA6
:10446000840102AA50540120032101EB840150541D
:10447000032C04D10020032101EB84015054601C63
:10448000C4B2042CAFDB80200023324631460090BA
:104490001846FFF7D1F83B46324602A9032000F048
:1044A00097FC07B0F0BD0000D815002038B50025F6
:1044B000002000900024174890F82C5000BF26E000
:1044C00020202041284038B1601CC0B28DF8000087
:1044D00000208DF8010006E0E01DC0B28DF800005C
:1044E00000208DF8010044B905F0400028B10D20EE
:1044F0008DF8000000208DF8010004EB04100D3051
:10450000C2B20021684600F025F9601CC4B2062C36
:10451000D6DB38BDD815002008B50220ADF8000064
:1045200003208DF8020010208DF803006946094829
:10453000FCF734FB4FF48060ADF8000003208DF8E9
:10454000020010208DF8030069460348FCF726FBA3
:1045500008BD0000001001400014014010B51220F9
:1045600000F054FBAE2000F084FBA12000F06FFBB4
:104570001F2000F099FB002000F072FB002000F0EB
:10458000C1FB052000F087FB022000F036FBA120D4
:1045900000F09CFBC82000F04BFB122000F03FFB1A
:1045A000EF2000F04BFB152000F087FB082000F007
:1045B0001BFBA42000F063FBA62000F066FB00209C
:1045C000FFF70AF8AF2000F054FB0A20FEF7BAFD0F
:1045D00010BD10B5FFF7A0FF00F006F8FFF7BEFF13
:1045E00000F0A6F810BD000010B54FF48061074838
:1045F000FCF7BCFB00F0EEF82820FEF7A3FD00F06E
:10460000E1F80520FEF7C4FD10BD000000140140D4
:104610002DE9F84F82460F4690469946DDF828B0BE
:10462000BAF1010F06D0BAF1020F04D0BAF1030FAC
:104630000BD105E00AE0781E3B4901EB401605E08E
:10464000781E3A4901EB001600E000BF00BF344677
:10465000484600F05EFB584600F03EFB0020FCF7A9
:1046600084FD78210020FCF751FD0020FCF7B5FD0A
:1046700040210020FCF74AFD0020FCF7AEFD00259C
:104680000DE0207800F0AEF8014600900020FCF725
:104690003DFD0020FCF7A1FDA41C681CC5B24545EA
:1046A000EFDB00210846FCF731FD0020FCF795FD0B
:1046B0000020FCF776FD09F10101C8B200F029FBEA
:1046C000584600F009FB0020FCF74FFD7821002040
:1046D000FCF71CFD0020FCF780FD40210020FCF7CA
:1046E00015FD0020FCF779FD741C00250DE02078F5
:1046F00000F078F8014600900020FCF707FD00204C
:10470000FCF76BFDA41C681CC5B24545EFDB00211E
:104710000846FCF7FBFC0020FCF75FFD0020FCF7DF
:1047200040FDBDE8F88F000030040020F0000020BC
:104730000EB505A207CA8DE8070009231C22012136
:10474000684600F023F80EBD0906120505030F0D9B
:104750000D000000F8B506460F4614463546287889
:10476000352804D104F11800C4B26D1CF8BD0094C2
:1047700029783B4610220220FFF74AFF04F1180077
:10478000C4B2287800B9F1E700BFEFE72DE9F8439C
:1047900005460E4614461F46A8460CE0009498F8BD
:1047A0000010334608220320FFF732FF08F101080A
:1047B00004F10800C4B23800A7F10101CFB2EDD175
:1047C000BDE8F88310B502210148FCF7CFFA10BD0F
:1047D0000010014010B502210148FCF7C5FA10BDD8
:1047E000001001400146002001F00F02054B9A5CC9
:1047F00040EA0212D0B21A4602EB2112127810439C
:10480000704700008E0D002010B504460020FCF714
:10481000ACFC78210020FCF779FC0020FCF7DDFCE3
:1048200000210846FCF772FC0020FCF7D6FC21466C
:104830000020FCF76BFC0020FCF7CFFC0020FCF70D
:10484000B0FC10BD70B588B0182102A8FBF7A9FC18
:1048500000250024584890F8480000F08000802887
:1048600024D1554890F8480000F07F0500205249B7
:1048700081F8480000BF07E04F4904F14900085C97
:1048800002A90855601CC4B2AC42F5DB294602A857
:10489000FEF7A5FBE800C0F1800606EBD670C0F37A
:1048A00047022B46012102A8FFF770FF424890F80B
:1048B0004700012805D100203F4981F84700FEF755
:1048C0008BFE3D4890F82A00012805D100203A4986
:1048D00081F82A00FFF7EAFD374890F82500012803
:1048E00007D10020344981F8250013210320FFF768
:1048F0006FFD314890F82E0000F0010030B100202B
:104900002D4981F82E00AF2000F0B3F92A4890F825
:104910002E0000F00200022806D10020264981F86E
:104920002E00AE2000F0A5F9234890F82E0000F0EC
:104930000400042807D100201F4981F82E0091F8B7
:104940002F0000F07BF91C4890F82D0000F080004B
:1049500080282ED1184890F82D0000F07F05002007
:10496000154981F82D00002407E0134904F13200B5
:10497000085C02A90855601CC4B2AC42F5DB2946AC
:1049800002A8FEF714FB80200023032211460090AA
:104990001846FEF751FE05EB45004000C0F18006C9
:1049A00006EBD670C0F34703032202A9012000F0F2
:1049B0000FFA08B070BD0000D815002010B51FA078
:1049C000FEF7A4F86420FEF7FDFD4FF47A70FEF7C1
:1049D000B9FB40212148FCF7C7F900210320FFF76C
:1049E00097FBFFF7EFFC04211D48FCF7BDF94FF4DE
:1049F00000611C48FCF7B8F94FF480511948FCF7E6
:104A0000B3F980211648FCF7AFF908211348FCF7E9
:104A1000ABF94FF47A70FEF795FB4FF47A70FEF71E
:104A200091FB4FF47A70FEF78DFB4FF47A70FEF72E
:104A300089FB4FF47A70FEF785FB10BD2A2A2A2ADB
:104A40002A2A20706F7765725F6F66665F7379736D
:104A500074656D202A2A2A2A2A2A0A000014014095
:104A6000001801400008014010B519A0FEF74EF8EB
:104A700001210320FFF74CFBFFF7A4FCFFF758FED2
:104A800040211B48FCF772F904211A48FCF76EF923
:104A90004FF400611848FCF769F94FF4805116484B
:104AA000FCF764F980211348FCF760F908211048ED
:104AB000FCF75CF94FF47A70FEF744FB01200F49D4
:104AC00008600F4800680F490860FBF7F3FD10BD50
:104AD0002A2A2A2A2A2A20706F7765725F6F6E5FF2
:104AE00073797374656D202A2A2A2A2A2A0A0D00EE
:104AF0000014014000180140000801402C00002073
:104B0000400000203000002008B50420ADF800006F
:104B100003208DF8020010208DF803006946074835
:104B2000FCF73CF804210548FCF71EF90520FEF7C8
:104B300009FB04210148FCF719F908BD00180140E0
:104B400010B51F4890F86000442805D1FFF736FFE4
:104B500000201B4981F86000194890F86200552830
:104B60002DD118A0FDF7D2FF6420FEF72BFD4FF4E6
:104B70007A70FEF7E7FA40211A48FCF7F5F80021B1
:104B80000320FFF7C5FAFFF71DFC4FF47A70FEF71C
:104B9000D9FA4FF47A70FEF7D5FA4FF47A70FEF72F
:104BA000D1FA4FF47A70FEF7CDFA4FF47A70FEF72F
:104BB000C9FAFFF759FF0020014981F8620010BDD2
:104BC000D81500202A2A2A2A2A2A2072657374619D
:104BD00072742073797374656D202A2A2A2A2A2A0E
:104BE0000A0D00000014014010B50446DB20FFF759
:104BF0000BFE0820FFF708FE10BD10B5044620206C
:104C0000FFF702FE2046FFF7FFFD10BD10B504467A
:104C1000FD20FFF7F9FD2046FFF7F6FD10BD10B5AA
:104C20000446DA20FFF7F0FD2046FFF7EDFD10BD4A
:104C300010B504462046FFF7E7FD10BD10B5044649
:104C40008120FFF7E1FD2046FFF7DEFD10BD10B526
:104C50000446D520FFF7D8FD2046FFF7D5FD10BD4F
:104C600010B50446D320FFF7CFFD0020FFF7CCFDA1
:104C700010BD10B504462046FFF7C6FD10BD10B5A7
:104C800004462046FFF7C0FD10BD10B5044620467F
:104C9000FFF7BAFD10BD10B50446D820FFF7B4FDEC
:104CA0002046FFF7B1FD10BD10B50446A820FFF760
:104CB000ABFD2046FFF7A8FD10BD10B50446D92076
:104CC000FFF7A2FD1520FFF79FFD10BD10B50446AC
:104CD0002046FFF799FD10BD70B504462546E11743
:104CE00004EB11710911A4EB0111C8B2FFF78CFD9F
:104CF0002546E11704EB117109111031C8B2FFF715
:104D000083FD70BD10B5044644F04000FFF77CFD04
:104D100010BD10B5044644F0B000FFF775FD10BD9E
:104D20002DE9F04707460D4690469946012F04D0DD
:104D3000022F08D0032F12D10BE0681E00EB800079
:104D4000204944180CE0681E00EB80001E494418FE
:104D500006E0681E00EB80001C49441800E000BF1C
:104D600000BF4046FFF7D5FF4846FFF7B5FF0020DC
:104D7000FCF7FBF978210020FCF7C8F90020FCF7CC
:104D80002CFA40210020FCF7C1F90020FCF725FA9D
:104D9000002609E021780020FCF7B8F90020FCF794
:104DA0001CFA641C701CC6B2052EF3DB00210846F9
:104DB000FCF7ACF90020FCF710FA0020FCF7F1F941
:104DC000BDE8F087C7060020770B0020D005002043
:104DD0002DE9F04107460D4690461E462C463346C7
:104DE000424660210120FFF79BFF0BE0217833460C
:104DF00042463846FFF794FF641CB01DC6B22078C7
:104E000000B900E0F2E700BFBDE8F08110B5FEF7A1
:104E100077F94FF4A060FCF787FBFCF70BFD4FF42C
:104E2000E130FEF7EFFA47216320FCF7FBFF40F289
:104E300071210620FCF702FA1E20FEF783F900F02C
:104E400029F84FF4E131242000F032F8FEF7D8FCC5
:104E5000FEF7E0FDFDF71AF8FFF7BBFB1821632012
:104E6000FEF71EFBFCF79EFCFFF74EFE10BD10B5D3
:104E7000FFF750FA00F0EAF8FFF7E4FC00F090F8D2
:104E8000FFF75EFEFEF79AFAFEF7C4F8FEF7BEFCE7
:104E900010BD000010B50020034908801821034808
:104EA000FBF77FF910BD00006E000020F616002011
:104EB0002DE9F05F05460E463001FBF745FA8146C5
:104EC000334905FB01F0FBF73FFA82464946FBF701
:104ED000FDF907463846FBF73CFA84B22046FBF75B
:104EE00033FA83463946FBF7BCF982464FF08341DB
:104EF000FBF7BAF98146FBF72CFA80464FF6FF70B4
:104F000000EA041404EB080084B22248806940F0EF
:104F10001000204988610846C06940F40020C8613B
:104F20001D48406820F47F401B494860084640689F
:104F300040F40B4048600846C06840F40060C86018
:104F40001448006940F400201249086108460069CD
:104F500020F40020086111480480001D008842F2FE
:104F60000C0108430D49091D08800846008840F4DB
:104F7000807008800846008840F0200008800223E6
:104F8000342200211846FCF731FABDE8F09F0000FA
:104F900040420F000010024000100140084C004049
:104FA00010B51F480068012806D11E4800681E4938
:104FB000086000201A4908601C4890F87B0000F047
:104FC000800018B100201A49086002E00120184949
:104FD000086044F620621348016813480068FEF731
:104FE00075FB68B101200E4908601148006808B1DE
:104FF000FEF7A6FA0D48827881790EA0FDF786FDAE
:105000000A48C07900F0800048B108498879FEF765
:10501000D9FA0648C07920F080000449C87110BD53
:10502000C000002040000020B8000020D81500205B
:10503000BC00002073706565643A2025642C74659B
:105040006D70203A2025640A0000000010B522216E
:105050000120FFF747F923210220FFF743F924211C
:105060000320FFF73FF90D492220FEF7E5FE0C492A
:105070002320FEF7E1FE0B492420FEF7DDFE0A495E
:105080002220FFF799F809492320FFF795F80849EE
:105090002420FFF791F8FFF70DF810BD5C00002009
:1050A0006400002060000020C4000020C800002030
:1050B000CC00002050726F635F55617274436F6E55
:1050C00074726F6C0055534152545F67657452653A
:1050D0006376466C61670055534152545F636C655B
:1050E000617252656376466C616700555341525454
:1050F0005F636C656172526563764C656E005553F3
:105100004152545F6765745265637644617461000F
:1051100055534152545F577269746544617461001C
:105120004051010800000020D80D0000AE04010825
:10513000145B0108D80D0020180E00003C2B01085C
:105140000138021B010A1AF41D110A2B7F540A1997
:10515000036C2918091B6B091394400D07F00FF01D
:10516000188018800FF007F0400D1FF01FF011108D
:1051700011101FF00EE01E0FE01FF010016D1C70EB
:105180000C6020A809101018300FE007C0301A1169
:10519000247910112902390F69407D901CF00C60B0
:1051A0001A01A82908611A106C29247112601A705A
:1051B0003B2914398049306F07C01EF01830102980
:1051C000203902591012045C038004522906120689
:1051D00012034B01801069C07C1FF00F50299E12F2
:1051E0001FAA0EA09E181FFC0FE420193E430E704C
:1051F000380D0C201E301310119018F00860AE19F5
:105200000239B059E01A1F40B9B01AC00812301A5A
:1052100030183AC010194A11147003801A702222F3
:10522000801E18701CF007B03C1CF018601A1E8A13
:105230001E01F001F01F0A3960480B7010F0119048
:1052400013101E101C61180B6004F00490049007EA
:10525000F003CE59F01C1004101039703C03E00725
:1052600010AD063002201049FE591029401A9084D2
:105270003112014A0FE219023920780CE207F204D8
:1052800012041207FE07FC601112046970294C3CDD
:1052900037F037E4511B0204023C37FE372E493009
:1052A0001138088001C007700630C019013914593F
:1052B000301B07F080116B07E0524910896069B01C
:1052C00069D019880A12FEE02918695012011202E9
:1052D0001A060239201B1007DE19023CF00460B0E8
:1052E000111B1FE0C219324A04801940298C293849
:1052F000391014C007E012301A30185AC01012F0DA
:105300001C3003C0122AF0127F0630077001C0D093
:10531000160207E207F212161C1C07F8382960383B
:105320000B30047004D0059007100660211809FFA7
:10533000C0804084408450023A70063F4095408EC1
:1053400040C45E412B1F80021E3FC07FE0FF8212DF
:1053500009D0084620402030C00F221F100C807E4C
:1053600050FF50FF70FF507E501A8010911CCF30BC
:1053700090011E92908B108002800B9F908210866D
:10538000108910D0B01CCCB0941E3A931C49222E28
:1053900092109210CCBE51120F180A39C049204900
:1053A00020FFF089382BFFF00C9A398049C07C8EA1
:1053B0005095C029020916C01408800512021A056A
:1053C00008911210AC201F40C01420805F891F0973
:1053D00011C0119488D0D0F9C01380929492D0CC8F
:1053E000D9C01112481C48D03816A9C019021A5049
:1053F000023A7006290E4B40FFC0236060163E51F2
:1054000049453E14427F402029426151494621418D
:10541000454B311814127F1027454545393C4A4900
:105420004930017109050336494949360649492978
:105430001E1AFC013159071AE0011A600429541A96
:10544000EC0131300D043CFCFCF08080F0FCFC3CB5
:1054500004300C070F1F1F1C181C1F1F0F071A1FDB
:10546000014905590C411A012319204201300C80D1
:10547000E0E0F0703070F0E0E0801AF00171290B8C
:105480002A3001690C1C70F0F024280B0F3F3F7F7D
:105490007060707F3F3FF81A7F011A6001590B1A44
:1054A0006301690C19242A7F242A4F9419021B14C2
:1054B0007F021010242A7F2A1223130864623649BF
:1054C000552250330503241C22411441221C1F1471
:1054D000083E0814080512081A50772A08011129F5
:1054E0005D100B20100804023E5149453E14427FD6
:1054F00040102942615149462141454B311814124F
:105500007F1027454545393C4A4949300171090515
:10551000033649494936064949291E3336361A5653
:10552000051B0814642A14011969281314080201C0
:10553000510906324979413E7E1111117E7F321F99
:105540003E414141227F042A1C0F180D417F090969
:1055500009013E4149497A7F86127F14417F412FDC
:105560002040413F017F4C1B7F4001280B7F020CF4
:10557000027F7F0408107F3C2A3E32180D063E4110
:1055800051215E7F09192946464618083101017FDD
:1055900001013F2C18163F1F2040201F3F4038407C
:1055A0003F63140814630708700807C713454319BD
:1055B00074111A024612201441417F2E0402010286
:1055C000045E1A400819FA180F545454787F48445E
:1055D00044383844444420051C487F38141F1808B8
:1055E0007E090102E61008493F7F080404781C4444
:1055F0007D40A013443D257F10284419A2112F7C23
:105600000418047C7C1E293C1B387CFE3E080814D0
:105610001418141B084846180D20043F4440203C31
:105620004040207C1CA018091C3C4030403C4428D1
:1056300042100B0C5050503C4464544C44340836D7
:1056400041327F14413608299F77023E5555412249
:10565000224F20151824742E24487E4942405D2292
:1056600022225D15167C16152277160A55555528E7
:105670001A010211180B0A0D0A0408142A14220434
:1056800001121C140808082A010111140205021D48
:1056900044445F44B519FC18097E2020103E060FD3
:1056A0007F703318183C4050203C111A223C2822AD
:1056B000081708342A7D1708046A593048454020E5
:1056C00070292628707028262970702A252A707261
:1056D000290A2B29240F48132D2A707E117F49494E
:1056E0000E515171117C55565444051C5655560A9D
:1056F000145455441B457E7224447E4524467D4601
:1057000014457C4519303816413E7C0A11227D38FB
:1057100045464438384446453838464546051835E8
:1057200039384544453822140814222E5149453A47
:105730003C4142403C3C4042413C3C4241423C3C7A
:105740004140413C0C1062110C7F1212120C403E81
:105750000149362073180878205456557820781A55
:10576000780F190A197D190F180F57567824547895
:1057700054580C5252721338281B1838281B1838EA
:10578000281B183823121824497A4024487A411CCF
:105790004A7942051378423819314A4E4A307A1113
:1057A0000A097030494A483030484A4930304A493D
:1057B0004A05181F31304A484A3008082A08083874
:1057C00064544C383841422078384042217838427D
:1057D000412205281D4022780C5052513C7E141461
:1057E00014080C5150513C1E0909295E0815153545
:1057F0004EEB2A20501A20FA190A1A490A1A7C0A72
:105800001808382050507C031F231B510E051B46DF
:105810007CC31A44AF19A014447C40167F4844400E
:105820004014497F4418087C0812217C78109B2B77
:105830007C090A29A5281A3847444738304B484B79
:10584000303E417F494938443854587C1516354814
:105850001E1B1048F01C202048051A48501C202010
:105860004905102D04057E0504083C4822013C42F0
:1058700045423C38424522783C4340433C38434013
:1058800023780C1160110C4466554C44486A594801
:105890002B44640A1B685A0A200965564D4448691E
:1058A0005A49240201021C010201051B01010929B8
:1058B0000A1129042C0205021D120118147F051576
:1058C0003A503E55554122181408140C444A4A5186
:1058D00001180E4A4A4474424142747E1111117EED
:1058E000AD280D49367F02010103704E414E700F05
:1058F000180D4161514945437F0808087F3E0F124A
:105900003E14417F4118317F08142241700E010E70
:10591000707F020C027F7F0408107F635D495D6326
:105920003E4141413E413F013F417F090909066334
:105930005549414101017F51180B017E0103085572
:105940007F5508637D10256307487F48075E610126
:10595000615E384448304C7C2A2A2A1444380404B6
:1059600008304B4D59302854544420100F185552CC
:10597000223E0402027C3C4A4A4A3C143C40201825
:105980002D7C1028444041320C30407E2020103EB7
:105990001C2040201C142B2A2A60384444443844DC
:1059A0003C047C4470282424180C121252141E4CFF
:1059B0005424043C4A1B3C4028180818247E241810
:1059C00044284210190C107E100C38443044380A18
:1059D0000A4A2A1E044434140C201078041816189D
:1059E000084C483848487848484828187C08087CBB
:1059F000082818401016405454547C12182D584052
:105A0000380801182F01413D090710087C02010EDA
:105A10000243221E42427E424222120A7F02423F3B
:105A200002423E0A0A7F0A0A084642221E04034234
:105A30003E02420118097E024F221F024A4A87197C
:105A40002910182A46023F424A46064840201E08AE
:105A5000464A321E0A4A3E09080E10094E201E040C
:105A6000453D0504147F08101F44241F0404403CD6
:105A7000100C40422A122A0622127B1622144020C1
:105A80001F12781D0204783FF01A445B1964100F4E
:105A90000204083032027F0232021222520E180B28
:105AA0002A2A2A40382422207040EB180C060A3E8D
:105AB0004A4A4A047F04140C4B1B7E400D28094AB5
:105AC0007E040545251C0F4B127C18097E40307E54
:105AD00040201008C11D427E0E0250197117201877
