:020000040800F2
:10000000E01B0020450100081D120008C90B000874
:1000100019120008FD040008C127000800000000B4
:100020000000000000000000000000000F180008A1
:100030000105000800000000C51200082119000891
:10004000ED2700085F0100085F0100085F0100085C
:100050005F0100085F0100085F0100085F01000800
:100060005F01000899050008AD0500085F01000860
:100070005F0100085F0100085F0100085F010008E0
:100080005F0100085F0100085F0100085F010008D0
:100090005F0100085F0100085F01000841060008D9
:1000A0005F0100085F0100085F0100085F010008B0
:1000B000851900088D1A0008C91B00085F01000897
:1000C0005F010008590C0008CD0B00085F01000813
:1000D0005F010008752100085F0100080D2200087B
:1000E000050500085F0100085F0100085F010008C6
:1000F0005F0100085F0100085F0100085F01000860
:100100005F0100085F0100085F0100085F0100084F
:10011000C52000081D2100085F0100085F010008DC
:100120005F0100085F0100085F0100085F0100082F
:10013000DFF80CD000F086F9004800479141000834
:10014000E01B00200648804706480047FEE7FEE720
:10015000FEE7FEE7FEE7FEE7FEE7FEE7FEE7FEE777
:10016000251900083101000840EA01039B0703D06C
:1001700009E008C9121F08C0042AFAD203E011F8E6
:10018000013B00F8013B521EF9D27047D2B201E0A8
:1001900000F8012B491EFBD270470022F6E710B58C
:1001A00013460A4604461946FFF7F0FF204610BDE5
:1001B000F0B480EA0102D40F4200B2EB410F02D248
:1001C0000246084611464A0042D0C30DDDB2C1F3D3
:1001D000C752AD1A202D35DAC1F3160141F40002E1
:1001E00004B15242C5F1200602FA06F12A41104438
:1001F000B3EBD05F23D0C4B1012DA0EBC35009DC19
:10020000F0BC4FF0004202EAC352DBB200F500003E
:1002100000F0E9B8400000F1807000EBC350A0F19D
:10022000807040EAD170490009E0490841EAC07194
:10023000A0EBC35000F50000400800EBC350F0BC39
:1002400000F0C8B86142012202EB4101001BF6E751
:10025000F0BC704781F00041AAE780F00040A7E7BA
:1002600080EA010210B502F00043400022D04A00AB
:100270001FD0010E01EB1261C0F35600C2F356020B
:1002800040F4000042F40002A0FB022000047F3989
:10029000140400D0401C50EA124001D44000491E12
:1002A000C2B20C0604EBD010401C4008802A02D0D9
:1002B00003E0002010BD20F00100002900DA00203A
:1002C000184310BD30B480EA010202F0004530F05E
:1002D000004221F0004013D090B1C30DD40DC2F301
:1002E0001601C0F31600E41A41F4000140F40002C4
:1002F0007D34914201D3641C00E04900002C02DAF5
:1003000030BC002070474FF400000023914201D31D
:10031000891A034340084FEA4101F7D151B1914294
:1003200002D14FF0004105E002D24FF0010101E09F
:100330006FF0010103EBC450284430BC00F04AB810
:1003400096230022114600F04EB820F00040C10D67
:10035000C0F3160040F400007F2901DA0020704746
:10036000962903DCC1F19601C84070479639884050
:1003700070472DE9F05F0546002092469B4688466F
:100380000646814640241BE0284641464746224611
:1003900000F079F853465A46C01A914110D31146DD
:1003A0001846224600F060F82D1A67EB01084F4608
:1003B00022460120002100F057F817EB00094E41BA
:1003C000201EA4F10104DFDC484631462A4643469C
:1003D000BDE8F09F0029A8BF7047401C490008BF36
:1003E00020F00100704710B4B0FA80FC00FA0CF065
:1003F00050EA010404BF10BC704749B1CCF120049D
:1004000021FA04F411FA0CF118BF01212143084329
:10041000A3EB0C01CB1D4FEA00614FEA102042BF55
:10042000002010BC704700EBC35010440029A4BF4B
:1004300010BC7047401C490008BF20F0010010BCF0
:1004400070470000064C074D06E0E06840F00103ED
:1004500094E8070098471034AC42F6D3FFF76CFEDF
:10046000F04F000810500008202A04DB203A00FA60
:1004700002F1002070479140C2F1200320FA03F3FB
:10048000194390407047202A04DB203A21FA02F0F9
:100490000021704721FA02F3D040C2F120029140BE
:1004A00008431946704770B58C1810F8015B15F0B9
:1004B000070301D110F8013B2A1106D110F8012BD6
:1004C00003E010F8016B01F8016B5B1EF9D12B07FB
:1004D00005D40023521E0DD401F8013BFAE710F8B1
:1004E000013BCB1A921C03E013F8015B01F8015B9E
:1004F000521EF9D5A142D8D3002070BD00BFFEE73F
:100500007047000010B54FF4006000F06BF9002850
:100510003BD01E48007820B11C48007800F0040051
:1005200078B31B480068012823D1102000F054F94B
:10053000202000F051F9402000F04EF9802000F01A
:100540004BF91448006820F0200012490860084662
:10055000006820F0400008600846006820F0800035
:1005600008600846006820F0100008600020084974
:10057000086003F01BF90548007840F004000349C7
:1005800008704FF4006000F027F910BD84000020CF
:10059000900000200004014010B5082000F022F96E
:1005A00010B1082000F018F910BD000010B510209F
:1005B00000F018F900283BD01E48007820B11D48F3
:1005C000007800F0020080B31B480068012824D1A5
:1005D000202000F001F9402000F0FEF8802000F01B
:1005E000FBF84FF4006000F0F7F81448006820F0C2
:1005F0002000124908600846006820F040000860AA
:100600000846006820F0800008600846006820F472
:100610000060086000200849086003F0C7F805483A
:10062000007840F0020003490870102000F0D4F870
:1006300010BD000084000020900000200004014054
:1006400010B5202000F0CEF800283BD05F4800789D
:1006500020B15E48007800F0010080B35C4800687B
:10066000012824D1102000F0B7F8402000F0B4F8A1
:10067000802000F0B1F84FF4006000F0ADF855486C
:10068000006820F01000534908600846006820F018
:10069000400008600846006820F0800008600846B6
:1006A000006820F40060086000204949086003F0F9
:1006B0007DF84648007840F0010044490870202049
:1006C00000F08AF8402000F08DF800283BD03F4829
:1006D000007820B13D48007800F0080080B33C4825
:1006E0000068012824D1102000F076F8202000F0C6
:1006F00073F8802000F070F84FF4006000F06CF8A0
:100700003448006820F0200032490860084600683C
:1007100020F0100008600846006820F080000860A3
:100720000846006820F4006008600020284908603E
:1007300003F03CF82548007840F008002349087091
:10074000402000F049F8802000F04CF800283BD011
:100750001E48007820B11D48007800F0100080B3DA
:100760001B480068012824D1102000F035F8202013
:1007700000F032F8402000F02FF84FF4006000F055
:100780002BF81448006820F0200012490860084641
:10079000006820F0400008600846006820F0100063
:1007A00008600846006820F40060086000200849DE
:1007B000086002F0FBFF0548007840F01000034994
:1007C0000870802000F008F810BD000084000020B0
:1007D00090000020000401400149086070470000BB
:1007E00014040140014600200022074B1B6803EA65
:1007F0000102054B14331B680B4013B10AB10120F1
:1008000000E000207047000000040140002123495F
:100810008279002A3AD00A46126803689A430B4646
:100820001A600A1D126803689A430B1D1A60027948
:1008300011440A6803681A430A60184A08321268A9
:1008400003689A43154B08331A601A1D126803682F
:100850009A43124B0C331A604279102A0ED11A1F98
:10086000126803681A430D4B08331A601A1D126888
:1008700003681A43094B0C331A600DE007494279AB
:1008800011440A6803681A430A6005E002791144BA
:100890000A6803689A430A60704700000004014038
:1008A00030B5044604254FF4302000F06FF80546BB
:1008B000042D17D10C48006940F002000A49086174
:1008C00008464461006940F0400008614FF4302060
:1008D00000F05CF805460448006941F6FD710840E7
:1008E00001490861284630BD0020024004200B4920
:1008F000C96801F0010109B101200EE00749C9688A
:1009000001F0040109B1022007E00449C96801F0BF
:10091000100109B1032000E00420704700200240CC
:100920000348006940F080000149086170470000F9
:100930000020024070B504460D460426F00200F087
:1009400025F80646042E11D10948006940F001003F
:10095000074908612580F00200F018F806460448AF
:10096000006941F6FE71084001490861304670BDDA
:10097000002002400248034948600348486070472D
:100980002301674500200240AB89EFCD00B5024648
:100990000423FFF7ABFF034603E0FFF7A7FF03467F
:1009A000521E012B01D1002AF7D102B905231846A6
:1009B00000BD000030B500228B071C0F0F2303FA87
:1009C00004F20B4B8C1053F824309343084C8D10D9
:1009D00044F8253023468C1053F824308C07240F1C
:1009E00000FA04F42343024C8D1044F8253030BD46
:1009F000080001402DE9F0410246002500260020B4
:100A000000230024002791F803C00CF00F0591F893
:100A100003C00CF0100CBCF1000F03D091F802C021
:100A20004CEA050591F800C0BCF1000F31D0146804
:100A300000202BE04FF0010C0CFA00F3B1F800C0DD
:100A40000CEA03069E4220D183004FF00F0C0CFAF3
:100A500003F7BC4305FA03FC4CEA040491F803C015
:100A6000BCF1280F06D14FF0010C0CFA00FCC2F8C3
:100A700014C00AE091F803C0BCF1480F05D14FF053
:100A8000010C0CFA00FCC2F810C0401C0828D1D39D
:100A90001460B1F800C0BCF1FF0F34DD54680020D1
:100AA0002EE000F1080C4FF0010808FA0CF3B1F841
:100AB00000C00CEA03069E4221D183004FF00F0CC8
:100AC0000CFA03F7BC4305FA03FC4CEA040491F862
:100AD00003C0BCF1280F05D100F1080C08FA0CF88E
:100AE000C2F8148091F803C0BCF1480F07D100F19F
:100AF000080C4FF0010808FA0CF8C2F81080401CEE
:100B00000828CED35460BDE8F0810000F0B50A4655
:100B1000002300240021002500F00046B6F1004F1C
:100B200002D11D4EF16901E01B4E7168C0F303450F
:100B300083B200F44016B6F5401F08D121F0706171
:100B4000154E766826F07066134F7E6012E000F452
:100B50008016B6F5801F06D1032606FA05F4A143D8
:100B600041F0706106E0460D360103FA06F6B14326
:100B700041F0706122B1460D360103FA06F63143A9
:100B800000F00046B6F1004F02D1034EF16101E0E2
:100B9000014E7160F0BD00000000014002460020DF
:100BA00093680B400BB1012000E000207047024623
:100BB0000020D3680B400BB1012000E000207047FB
:100BC000416170470161704700BFFEE708B5002032
:100BD0000090204800880090009800F48060B0F5F4
:100BE000806F08D11B4800884FF6FF310840194933
:100BF000088000200090009800F40070B0F5007F9D
:100C000008D1144800884FF6FF3108401149088088
:100C100000200090009800F48070B0F5807F08D12B
:100C20000C4800884FF6FF6108400A490880002000
:100C30000090009800F40060B0F5006F08D10548FE
:100C400000884FF2FF7108400249088000200090A0
:100C500008BD0000145800400CB500200190009021
:100C60002E48008801902D48001D008800900098B3
:100C700000F0010000284FD1019800F08200822886
:100C800002D1002001900090019800F0020002289B
:100C900006D1002001900090214908702149087078
:100CA000019800F08000802809D11F481D4909786B
:100CB000405C1A49091F08800020019000900198AB
:100CC00000F04000402817D11548007850B913486B
:100CD000001F00881349087011480078401C104913
:100CE000087006E00D48001F00880F490D4A127871
:100CF0008854002001900090019800F01000102806
:100D00000AD106481438008840F00100034914391C
:100D100008800020019000900CBD00001458004095
:100D2000390000203A000020C415002021B10288BB
:100D300042F00102028004E002884FF6FE731A407E
:100D40000280704710B504460B48844209D1012146
:100D5000480500F0EFFB00214FF4001000F0EAFB23
:100D600008E00121880500F0E5FB00214FF4800038
:100D700000F0E0FB10BD0000005400401AB1838871
:100D80000B43838002E083888B438380704700009D
:100D90002DE9F04385B004460D460026B1460427F0
:100DA000DFF8CC80A6884FF6C0700640684600F099
:100DB000FFFBDDF808802F48B8FBF0F01FFA80F940
:100DC00046EA0906A68020884FF6FE71084020807A
:100DD00000262949286888420CD828684000B8FBBA
:100DE000F0F087B2042F00DA04273E4309F1010036
:100DF000208427E0E8884BF6FF71884206D12868F6
:100E000000EB4000B8FBF0F087B209E0286800EB87
:100E1000C00101EB0010B8FBF0F087B247F4804747
:100E2000C7F30B0008B947F0010747F40040064339
:100E30004FF4967009FB00F04FF47A7190FBF1F0DB
:100E4000401C2084A683208840F001002080268852
:100E50004FF6F5300640A888698908430643268086
:100E6000A88929890843208105B0BDE8F0830000E6
:100E700000127A0040420F00A086010010B504461F
:100E80000021204600F062F8204600F015FC002109
:100E9000204600F061F8022002F04AF801212046C5
:100EA00000F054F8022002F043F80021204600F040
:100EB0004DF810BD10B504460021204600F046F85C
:100EC000204600F0F9FB0121204600F045F8022001
:100ED00002F02EF80121204600F038F8022002F03E
:100EE00027F80021204600F031F810BD2DE9F0412F
:100EF00007460D4600260024384600F0CDFB00BF13
:100F000017E00021384600F021F8022002F010F826
:100F10000121384600F01AF86006040E384600F049
:100F2000B1FB08B1601CC4B2012002F001F8701CD2
:100F3000C6B2082EE5DB1DB93846FFF7BBFF02E05D
:100F40003846FFF79BFF2046BDE8F08108B9014A0B
:100F5000116070479881214208B9014A11607047B9
:100F60009C81214270B506460C46304600F0A4FB39
:100F700000213046FFF7EAFF00251FE0E00920B11D
:100F800001213046FFF7E8FF03E000213046FFF77C
:100F9000E3FF6006040E022001F0CAFF0121304683
:100FA000FFF7D4FF022001F0C3FF00213046FFF716
:100FB000CDFF022001F0BCFF681CC5B2082DDDDBAF
:100FC00070BD10B50446204600F076FB0121204696
:100FD000FFF7C2FF01212046FFF7B8FF042001F010
:100FE000A7FF00212046FFF7B7FF042001F0A0FF74
:100FF00000212046FFF7AAFF10BD10B50446204689
:1010000000F05AFB00212046FFF7A0FF00212046F8
:10101000FFF7A2FF042001F08BFF01212046FFF71C
:1010200095FF01212046FFF797FF042001F080FF84
:1010300010BD70B505460024284600F02DFB0120A8
:1010400001F076FF01212846FFF780FF012001F023
:101050006FFF08E0601CC4B2FA2C04DD2846FFF7DD
:10106000CCFF012070BD284600F00CFB0028F1D118
:1010700000212846FFF76AFF0020F3E74CF6CC403A
:1010800001490860704700000030004010B500F0D2
:101090001BF810BD70B505460C4645F2555000F0E2
:1010A00027F8284600F018F8204600F01BF800F05A
:1010B0000BF8FFF7E3FF024800680249086070BDC3
:1010C00040000020500000204AF6AA200149086094
:1010D0007047000000300040014948607047000040
:1010E0000030004001498860704700000030004037
:1010F00001490860704700000030004010B5044608
:1011000020680D490840B0F1005F0ED100BF0B48C8
:10111000006800F4E0600A490843001D07490860C0
:10112000BFF3408F00BF00BFFEE7064B3B2206A186
:101130000AA001F0BBFB10BD0000FE2F0CED00E08B
:101140000000FA05E04F000853797374656D5C7315
:1011500072635C7379732E63000000002573282589
:1011600064292D3C25733E3A6164642069732065CF
:1011700072720A002DE9F04105460E4614464FEA08
:10118000E27C02EB9C7CCCF387074FEAE27C02EB2B
:101190009C7C4FEAAC0CA2EB8C0C0CF0FF010424FD
:1011A00004EBC104E1B2C3F1040405FA04F00F2416
:1011B0001C413440204300F00F00202A0CDA4FF08D
:1011C000E024D4F800C1012494404CEA040C4FF010
:1011D000E024C4F800C10DE00D4C2468A2F1200CFD
:1011E0004FF0010808FA0CF844EA08044FF0E02C2C
:1011F000CCF80441074CE45D00FA01FC44EA0C041D
:1012000004F0FF0C034C04F807C0BDE8F0810000B7
:1012100004E100E000E400E000BFFEE7704708B52D
:101220001E208DF8000003208DF8010002208DF8AB
:10123000020001208DF80300684600F001F808BDA7
:1012400070B5002100230F22C47804B3154C246824
:1012500004F4E064C4F5E064210AC1F10403CA4067
:10126000447804FA03F184781440214309010E4CB8
:101270000678A155047804F01F050124AC400578D8
:101280006D11AD0005F1E025C5F8004109E00478D5
:1012900004F01F050124AC40044D0678761145F892
:1012A000264070BD0CED00E000E400E080E100E0CD
:1012B00002490143024A1160704700000000FA052C
:1012C0000CED00E0704710B502460B4600200021EF
:1012D00004E0545C0444E0B24C1CA1B29942F8DB37
:1012E00010BD000010B5044605480078012805D15E
:1012F000002003490870204601F0A2F910BD00004B
:101300003B0000202DE9F04107460D4614461E46DD
:101310004EF6AA30208068886080A6821721204679
:10132000FFF7D1FF8046C8F10000E0751822214682
:10133000384601F0F5F8BDE8F08100002DE9F843EA
:1013400007463B4C3B4D4FF000080026B14638465F
:1013500001F0FAF9012866D118212046FEF71DFF99
:1013600018212846FEF719FF384601F02BF92146CF
:10137000384601F0A3F918212046FFF7A4FF0646DE
:1013800026B1628831462CA001F090FA002E3BD1A4
:1013900020884EF6AA31884236D1A08A102833DC44
:1013A00060882B4B90222BA100902FA001F07EFA99
:1013B0006088032802D0062822D111E04FF00008EF
:1013C0004146284600F08AF84B462A4621463846D0
:1013D000FFF798FF29A001F069FA00F06DF812E01C
:1013E00000F064F828714FF000084FF001092879E7
:1013F000174B9F2217A1009025A001F057FA02E099
:101400000120A87500BF04E00120274908700320CF
:10141000A8754146284600F061F84B462A46214609
:101420003846FFF76FFF3846FFF75CFFBDE8F883EB
:10143000821600209A160020636865636B53756DF1
:101440003D25642C20636D643D2564200A00000066
:10145000744F0008557365725C7372635C70726FD1
:10146000636573732E6300002573282564292D3C62
:1014700025733E3A636D643D25640A007265626FB0
:101480006F7420666F7220757067726164650A0000
:101490002573282564292D3C25733E3A7665723ADA
:1014A000307825780A0000003B00002001480078D1
:1014B000704700003C00002008B545F2AA5000909B
:1014C00001226946044800F01BF94FF00060FFF765
:1014D00015FE002008BD00000400070811B9002215
:1014E00082750DE04A1C12B90222827508E00129BA
:1014F00002D10122827503E0022901D10322827503
:10150000704700000A2002490870032048707047A5
:10151000C415002029B1064AD2690243044BDA619E
:1015200004E0034AD2698243014BDA61704700004C
:101530000010024029B1064A12690243044B1A61A5
:1015400004E0034A12698243014B1A6170470000AC
:101550000010024029B1064A92690243044B9A6185
:1015600004E0034A92698243014B9A61704700008C
:101570000010024029B1064AD2680243044BDA60E7
:1015800004E0034AD2688243014BDA6070470000EE
:101590000010024010B501210448FFF7BBFF0121F4
:1015A00044F27D00FFF7D6FF10BD000002485E0048
:1015B00030B500210022002400232D4D6D6805F078
:1015C0000C0121B1042905D0082923D105E0294DBA
:1015D000056022E0274D05601FE0254D6D6805F48C
:1015E0007012234D6D6805F48034022505EB92429C
:1015F0001CB9214D554305600BE01D4D6D6805F488
:1016000000351DB11C4D5543056002E0194D554391
:10161000056002E0174D056000BF00BF144D6D6806
:1016200005F0F0010909154D6B5C0568DD4045606A
:101630000F4D6D6805F4E061090A104D6B5C45685B
:10164000DD4085600A4D6D6805F46051C90A0B4D97
:101650006B5C4568DD40C560054D6D6805F4404133
:10166000890B074D6B5CC568B5FBF3F5056130BDB3
:101670000010024000127A0000093D008E0D00208B
:101680009E0D0020014619B902480068C0B270479B
:101690000020FCE71C81214250B90649096821F06D
:1016A0007041044A11601146096841F0804111609F
:1016B00070470000000C014050B90649096821F04C
:1016C0007041044A11601146096841F0E04111601F
:1016D00070470000000C014030B503460C4615462B
:1016E000002207E0184600F008F824F812009B1CBE
:1016F000501C82B2AA42F5DB30BD01460888704713
:101700002DE9F05F80468A461746B8F1006F02D394
:101710003348804501D3BDE8F09FFFF72BF9A8F1CE
:10172000006B4FEADB26CBF34909C9F58064A74279
:1017300000DC3C464DE04FF0006101EBC6204A144E
:101740002849FFF7C9FF00250BE009EB05002549F3
:1017500031F810004FF6FF71884200D003E0681C9A
:1017600085B2A542F1DB00BFA5421BDA4FF0006154
:1017700001EBC620FFF794F8002508E03AF81500C1
:1017800005EB0901174A22F81100681C85B2A54231
:10179000F4DB4FF0006101EBC6204A14114900F060
:1017A00023F804E022465146404600F01DF8A742C7
:1017B00000D10FE0761C4FF000090AEB440AA04468
:1017C000381B87B2B7F5806F02DD4FF4806400E00C
:1017D0003C46B0E700BFFFF7A3F800BF9BE700005F
:1017E00000000808C40D00202DE9F04105460E4612
:1017F0001746002407E036F814102846FFF79AF839
:10180000AD1C601C84B2BC42F5DBBDE8F0817047C2
:1018100010B500F001F810BD0CB50020019000904B
:101820003348006840F480303149086000BF3048D8
:10183000006800F4003000900198401C019000986E
:1018400018B90198B0F5A06FF1D12948006800F4EB
:10185000003010B10120009001E0002000900098BD
:10186000012843D12348006840F010002149086056
:101870000846006820F0030008600846006840F051
:10188000020008601A4840681949486008464068E4
:1018900048600846406840F48060486008464068F8
:1018A00020F47C1048600846406840F4E810486026
:1018B0000846006840F08070086000BF0C4800686F
:1018C00000F000700028F9D00948406820F00300BB
:1018D000074948600846406840F00200486000BF81
:1018E0000348406800F00C000828F9D10CBD000046
:1018F0000010024000200240042808D14FF0E021EF
:10190000096941F004014FF0E022116107E04FF056
:10191000E021096921F004014FF0E02211617047D4
:101920007047000010B51348006840F001001149ED
:10193000086008464068104908400E49486008465B
:1019400000680E4908400B4908600846006820F40A
:10195000802008600846406820F4FE0048604FF48C
:101960001F008860FFF754FF4FF0006004490860D3
:1019700010BD0000001002400000FFF8FFFFF6FE5F
:1019800008ED00E010B53A480088401C384908804E
:1019900038480088401C3749088037480068401C98
:1019A000354908600846006840F6B831884248D199
:1019B0003248007800F0200020280AD03048006823
:1019C00000F0100028B92E48006840F010002C49A3
:1019D00008602B48006800F0200028B928480068FB
:1019E00040F02000264908602448007800F01000EC
:1019F00010280AD02248006800F0400028B920488A
:101A0000006840F040001E4908601D48006800F072
:101A1000800028B91A48006840F080001849086022
:101A20001748006800F4807028B91548006840F431
:101A300000601349086000200F4908600120114927
:101A400008601148007868B109480088B0F5617FE6
:101A500008D10D48007800200B490870044908801F
:101A6000044908800121880700F099F910BD0000A1
:101A70007E00002080000020880000208C000020D4
:101A800000040140900000208400002010B50121D6
:101A9000204800F0A2F900283AD001211D4800F0AA
:101AA0007EF91D480068401C1B4908601B480068FF
:101AB000401C1A49086008460068B0F1FF3F01D198
:101AC000002008601448006842F21071884207D371
:101AD00013480068401C1249086000200E49086045
:101AE0000F4800686FF00041884202D100200C4985
:101AF000086047F23052094801680A48006801F05E
:101B0000ADFC28B1FFF7C2FA044800680549086037
:101B100010BD0000000400404400002040000020F0
:101B200048000020500000207FB505460C460121EA
:101B30000220FFF7EFFCADF80850ADF8044000209C
:101B4000ADF80A00ADF8060001A9104800F068FAE7
:101B500001210E4800F020F9012211460B4800F047
:101B60004DF91D208DF8000002208DF801000320A2
:101B70008DF8020001208DF803006846FFF760FB36
:101B80000121024800F00EF97FBD00000004004072
:101B900010B500F003F800F0A1F810BD08B5012160
:101BA0000803FEF7B3FF4FF46040ADF800001820C3
:101BB0008DF8030003208DF8020069460148FEF706
:101BC00019FF08BD0014014010B501213D4800F087
:101BD00004F9002875D03C48006800B33B480088F1
:101BE0003849383108803A48007828B137480068C9
:101BF000801C3649086004E034480068801E334980
:101C0000086032480068B0F5FA7F02DD00203049F4
:101C100008702E48006810B901202D4908702D4821
:101C2000006800B32948008826493C3108802848CC
:101C3000007828B125480068801C2449086004E029
:101C400022480068801E2149086020480068B0F5DD
:101C5000FA7F02DD00201E4908701C48006810B998
:101C600001201B4908701C48006800B31748008811
:101C70001449403108801648007828B1134800689C
:101C8000801C1249086004E010480068801E0F495B
:101C900008600E480068B0F5FA7F02DD00200C49AC
:101CA00008700A48006810B901200949087001F05D
:101CB00083FF02F0BBF901F0F9FF0121014800F0B8
:101CC0006EF810BD000800405C00002054000020A9
:101CD00058000020640000206000002000B587B09C
:101CE00001210420FFF716FC4FF4FA70ADF8140040
:101CF00040F2A460ADF810000020ADF81600ADF879
:101D0000120004A91D4800F08BF96020ADF8000016
:101D10000120ADF802000020ADF80600ADF8080083
:101D20006946164800F074F80821144800F0C2F81B
:101D30006946124800F0CCF80821104800F018F964
:101D400069460E4800F01EF908210C4800F058F9C9
:101D500001210A4800F014F80121084800F022F897
:101D600001221146054800F049F8FFF758FA012111
:101D7000032002F0CBF807B000BD000000080040CF
:101D800021B1028842F08002028004E002884FF60E
:101D90007F731A4002807047CA4302827047CA4369
:101DA0000282704721B1028842F00102028004E001
:101DB00002884FF6FE731A400280704731B1B0F8C6
:101DC000442042F40042A0F8442005E0B0F844204A
:101DD000C2F30E02A0F84420704730B5024600203E
:101DE00000230024158A05EA0103958905EA010408
:101DF00013B10CB1012000E0002030BD1AB183897D
:101E00000B43838102E083898B4383817047000009
:101E100070B5002400220023058C4FF6EF76354084
:101E20000584028C8388048B48F6FF752C404FF69E
:101E3000FF452C400D884FF6FF7606EA05252C431A
:101E40004FF6DF752A400D8906EA05152A434D88AD
:101E500006EA05152A43154DA84202D0144DA842A2
:101E60001DD14FF67F752A404D894FF6FF7606EA61
:101E700005152A434FF6BF752A408D8806EA0515D9
:101E80002A434FF6FF352B404FF2FF752B408D89CB
:101E900006EA85052B43CD8906EA85052B43838019
:101EA0000483CD880587028470BD0000002C0140AA
:101EB000003401400A460021018B4FF2FF731940A4
:101EC0004FF6FF7303EA02231943018370470000B2
:101ED00070B5002400220023058C4FF6FF663540C4
:101EE0000584028C8388848B4FF68F752C404FF6C7
:101EF000FC752C400D882C434FF6FF552A400D8968
:101F00004FF6FF7606EA05252A434D8806EA0525A1
:101F10002A43154DA84202D0144DA8421DD14FF2BC
:101F2000FF752A404D894FF6FF7606EA05252A43BC
:101F30004FF6FF352A408D8806EA05252A434EF6DE
:101F4000FF752B404DF6FF752B408D8906EA051570
:101F50002B43CD8906EA05152B4383808483CD88E6
:101F60008587028470BD0000002C014000340140D0
:101F70000A460021818B4FF6F77319401143818384
:101F80007047000070B5002200230024058C4EF637
:101F9000FF7635400584038C8488828B48F6FF7574
:101FA0002A404FF6FF452A400D884FF6FF7606EA95
:101FB00005252A434DF6FF752B400D8906EA0535A8
:101FC0002B434D8806EA05352B430B4DA84202D022
:101FD0000A4DA84208D14BF6FF752C408D894FF66B
:101FE000FF7606EA85152C4384808283CD88A0F88D
:101FF0004050038470BD0000002C014000340140BB
:102000000A460021818B4FF2FF7319404FF6FF7390
:1020100003EA022319438183704701877047000058
:10202000002202881D4B98420ED01D4B98420BD0C7
:10203000B0F1804F08D01B4B984205D01A4B984204
:1020400002D01A4B984204D14FF68F731A404B8836
:102050001A43174B984207D0164B984204D04FF6BC
:10206000FF431A40CB881A4302808B8883850B88F4
:1020700003850A4B98420BD0094B984208D00E4B6F
:10208000984205D00D4B984202D00D4B984201D199
:102090000B7A03860123838270470000002C0140E5
:1020A000003401400004004000080040000C0040E3
:1020B0000010004000140040004001400044014076
:1020C0000048014010B540F22551104800F049F990
:1020D000A8B10E4800F000FAC4B20D480D490988B5
:1020E00044540C480088401C0A490880084600886F
:1020F000172804DD0020088001200749087040F2FD
:102100002551024800F0B7F810BD0000004C004017
:10211000E21600206E0000206A00002010B540F298
:102120002551104800F01DF9A8B10E4800F0D4F96F
:10213000C4B20D480D49098844540C480088401C1D
:102140000A49088008460088172804DD0020088016
:1021500001200749087040F22551024800F08BF831
:1021600010BD000000500040FA1600207000002052
:102170006B00002010B51FA000F098FB40F2255125
:102180001F4800F0EEF810B31D4800F0A5F9C4B2E6
:102190001C48008800F40040C8B91A48008800F4C0
:1021A000804060B10A2C03D000201649088020E04E
:1021B0001448008840F400401249088019E00D2CB2
:1021C00006D11048008840F480400E49088010E095
:1021D0000C480088C0F30D000B490C5409480088D6
:1021E000401C0849088008460088C72801DD0020F7
:1021F000088010BD32303139303432320A0D0000DF
:1022000000380140BC0D00201217002010B540F22C
:102210002551104800F0A5F8A8B10E4800F05CF96F
:10222000C4B20D480D49098844540C480088401C2C
:102230000A49088008460088172804DD0020088025
:1022400001200749087040F22551024800F013F8B8
:1022500010BD000000480040CA1600206C0000209D
:102260006900002001F40072B2F5007F00D100BFC8
:10227000CA430280704710B50022002340F66A145A
:10228000A14200D100BF0A1201249440A3B2DC4352
:10229000048010BD21B1828942F40052828104E0A1
:1022A00082894DF6FF731A408281704710B504464B
:1022B0002048844209D101218803FFF75BF90021FE
:1022C0004FF48040FFF756F932E01B48844209D1B1
:1022D00001214804FFF72EF900214FF40030FFF7E9
:1022E00029F925E01548844209D101218804FFF726
:1022F00021F900214FF48020FFF71CF918E0104865
:10230000844209D10121C804FFF714F900214FF4D8
:102310000020FFF70FF90BE00A48844208D10121A1
:102320000805FFF707F900214FF48010FFF702F9C5
:1023300010BD00000038014000440040004800404B
:10234000004C00400050004002460020B1F5007FE4
:1023500000D100BF13880B400BB1012000E000202A
:10236000704770B50246002400230025002040F687
:102370006A16B14200D100BFC1F3421501F01F033C
:10238000012606FA03F3012D02D19689334006E0B7
:10239000022D02D1168A334001E0968A33400C1296
:1023A000012606FA04F41688344013B10CB101205A
:1023B00000E0002070BDF0B5034600240026002593
:1023C000002040F66A17B94200D100BF1846C1F399
:1023D000421401F01F06012707FA06F5012C01D16E
:1023E0000C3004E0022C01D1103000E014301AB19E
:1023F00007682F43076002E00768AF430760F0BD3E
:102400002DE9F04786B005460E460024A24600BFDF
:10241000A1460027B08900B100BF2F462C8A4CF698
:10242000FF700440F08804432C82AC894EF6F31010
:102430000440B08831890843718908430443AC8162
:10244000AC8A4FF6FF400440B0890443AC8201A837
:10245000FFF7AEF81F48874202D1DDF810A001E077
:10246000DDF80CA0A88900F4004040B10AEBCA00D6
:1024700000EB0A1031684900B0FBF1F807E00AEB05
:10248000CA0000EB0A1031688900B0FBF1F8642043
:10249000B8FBF0F004012009642101FB1089A88930
:1024A00000F4004040B1322000EBC900B0FBF1F075
:1024B00000F00700044308E0322000EB091064211B
:1024C000B0FBF1F000F00F0004432C8106B0BDE832
:1024D000F08700000038014001468888C0F30800FA
:1024E0007047C1F3080282807047F0B507460D4679
:1024F0001646002440213846FFF7B4FE00BF0CE02A
:10250000295D3846FFF7EDFF00BF40213846FFF751
:102510001BFF0128F9D1601CC4B2B442F0DBF0BD4E
:10252000F8B504460D461646012C05D1324629461B
:102530001248FFF7DAFF1FE0022C05D13246294688
:102540000F48FFF7D2FF17E0032C05D1324629468A
:102550000C48FFF7CAFF0FE0042C05D1324629468C
:102560000948FFF7C2FF07E0084B40F26D1208A1CF
:102570000CA0009400F09AF9F8BD0000004800405B
:10258000004C00400050004000380140D04F00088F
:10259000557365725C7372635C75736172742E63DC
:1025A000000000002573282564292D3C25733E3A40
:1025B000756E6B6E6F776E207573617274202578FF
:1025C0000A00000038B50446012C03D100200B4955
:1025D000087012E0022C03D10020094908700CE0B9
:1025E000032C03D100200749087006E0064B402267
:1025F00006A10BA0009400F059F938BD6900002035
:102600006A0000206B000020974F00085573657228
:102610005C7372635C75736172742E6300000000FA
:102620002573282564292D3C25733E3A756E6B6E03
:102630006F776E2075736172742025780A00000030
:1026400038B50446012C03D100200B49088012E064
:10265000022C03D10020094908800CE0032C03D18F
:1026600000200749088006E0064B542206A10BA073
:10267000009400F01BF938BD6C0000206E000020B3
:1026800070000020AB4F0008557365725C73726375
:102690005C75736172742E63000000002573282539
:1026A00064292D3C25733E3A756E6B6E6F776E20F4
:1026B00075736172742025780A00000038B50446ED
:1026C0000D46012C05D118220E492846FDF74CFD78
:1026D00016E0022C05D118220B492846FDF744FDCF
:1026E0000EE0032C05D1182208492846FDF73CFDD1
:1026F00006E0074B682207A10BA0009400F0D6F873
:1027000038BD0000CA160020E2160020FA1600208C
:10271000BE4F0008557365725C7372635C757361BC
:1027200072742E63000000002573282564292D3C57
:1027300025733E3A756E6B6E6F776E20757361729E
:10274000742025780A00000038B50446012C02D117
:102750000A48007838BD022C02D109480078F9E710
:10276000032C02D107480078F4E7074B2B2207A17E
:102770000BA0009400F09AF80220EBE7690000201B
:102780006A0000206B000020854F000855736572B9
:102790005C7372635C75736172742E630000000079
:1027A0002573282564292D3C25733E3A756E6B6E82
:1027B0006F776E2075736172742025780A000000AF
:1027C00000BFFEE70020014908607047082C004068
:1027D00040F08001014A116070470000002C004069
:1027E0000120014908607047A480054210B50348E4
:1027F000007800F033F8FFF7E5FF10BD720000200D
:1028000070B506460C4615460A480078304009491E
:102810000870284600F02AF8204600F033F80548F2
:102820000078FFF7D5FFFFF7CDFF00F005F8FFF7C1
:10283000D7FF70BD7200002008B500208DF80000A1
:1028400002208DF8010003208DF8020001208DF890
:1028500003006846FEF7F4FC08BD000000F07F01AD
:10286000014A116070470000002C00400021044A1A
:10287000126822F4C0710143014A116070470000E0
:10288000042C004008B5002100910749096821F097
:102890007F01009100F07F01009A11430091024AEC
:1028A0000099116008BD0000042C00400FB4054BD6
:1028B00010B503A9044A029800F018F810BC5DF89E
:1028C00014FB000041340008B80D002002E008C8E5
:1028D000121F08C1002AFAD170477047002001E09A
:1028E00001C1121F002AFBD1704700002DE9FF4FE4
:1028F0008DB00F460546002606E025280BD0DDE901
:102900000F1290476D1C761C28780028F5D111B065
:102910003046BDE8F08F0024A246A1460122EC49D2
:1029200000E0044315F8013F203B02FA03F008429F
:10293000F7D128782A2810D06FF02F022878A0F13C
:102940003001092914D80AEB8A0102EB410144F055
:10295000020400EB010A6D1CF0E701CF5FEA000AF8
:1029600003D544F40054CAF1000A44F002046D1C7B
:1029700028782E2817D115F8010F44F004042A28CE
:102980000ED06FF02F022878A0F1300109290AD863
:1029900009EB890102EB410100EB01096D1CF2E733
:1029A00057F8049B6D1C28786C280FD006DC4C2847
:1029B00017D068280DD06A2814D104E0742810D0EC
:1029C0007A280FD10DE044F400140AE044F4801496
:1029D00001E044F440146978814202D104F5801486
:1029E0006D1C6D1C2A786E2A1FD00CDC632A31D036
:1029F00004DC002A8BD0582A11D1A3E0642A68D0C5
:102A0000692A0CD165E0732A2ED004DC6F2A73D0BA
:102A1000702A04D19BE0752A6FD0782A6ED01046B8
:102A2000DDE90F129047761C50E1C4F302500228F2
:102A300006D0032809D0042801CF09D0066045E15B
:102A400001CFF117C0E9006140E101CF06803DE10F
:102A500006703BE117F8040B8DF8000000208DF89C
:102A60000100EB46012003E057F804BB4FF0FF30B4
:102A700061074FF0000102D40DE008F10101884622
:102A800049450FDA8045F8DB1BF808100029F4D11E
:102A900008E008F1010188468142FADB1BF80810C2
:102AA0000029F6D1DDE90F23AAEB08008146214673
:102AB00000F036F9304400EB080604E0DDE90F12BF
:102AC0001BF8010B9047B8F10108F7D221464846A0
:102AD000F7E00A21C4F302534FF0000B0891022BD8
:102AE00004D001CFC117032B09D00AE0FF1D27F046
:102AF0000707F7E8020108E032E01FE020E000B23B
:102B0000C117042B01D140B2C117031E71F100039C
:102B100007DA4FF0000CD0EB0C006CEB01012D2319
:102B200002E0230504D52B238DF82430012303E094
:102B3000E30701D02023F7E7984658E00A2110E088
:102B400010210EE010204FF0000B08900CE0102137
:102B50004FF0000B44F004044FF00809089103E023
:102B600008214FF0000B0891C4F30253022B04D04C
:102B700001CF0021032B06D006E0FF1D27F0070739
:102B8000F7E8020103E080B2042B00D1C0B24FF09D
:102B9000000823072BD5702A07D0DDF820C08CF061
:102BA000100C5CEA0B0C05D00EE040238DF82430AD
:102BB000012308E050EA010306D030238DF82430C9
:102BC0008DF8252002239846DDF820C08CF0080CF3
:102BD0005CEA0B0C0BD150EA010301D1630706D567
:102BE00030238DF824304FF00108A9F10109582A4B
:102BF00004D038A20B9208AA0A920BE03AA2F9E795
:102C00005B46089AFDF7B5FB0B9B9B5C0A9A521E2C
:102C10000A92137050EA0102F2D10A98ADEB00005B
:102C200000F1200B600702D524F4803401E04FF05E
:102C30000109D94502DDA9EB0B0000E0002000EB03
:102C40000B0141440890AAEB010AE00306D4DDE938
:102C50000F232146504600F063F806444FF0000968
:102C600008E009A911F80900DDE90F12904709F100
:102C70000109761CC145F4DBE0030CD5DDE90F2327
:102C80002146504600F04CF8064404E0DDE90F12FE
:102C900030209047761C0899481E08900029F5DCE2
:102CA00008E00A980A990078491C0A91DDE90F1298
:102CB0009047761CBBF10001ABF1010BF1DC214622
:102CC0005046DDE90F2300F019F806446D1C1BE6A1
:102CD00009280100303132333435363738396162F2
:102CE00063646566000000003031323334353637B6
:102CF0003839414243444546000000002DE9F04187
:102D0000044600251E461746880404D405E03946CB
:102D10002020B0476D1C641EF9D52846BDE8F0811F
:102D20002DE9F041044600251E469046C80301D512
:102D3000302700E02027880404D505E041463846C6
:102D4000B0476D1C641EF9D52846BDE8F08100220D
:102D500012E00378412B06DB03787A2B03DC03783F
:102D6000203B037005E00378202B02D10378403329
:102D70000370401C531CDAB28A42EADB704700221F
:102D800015E00378412B06DB03785A2B03DC03782C
:102D9000403B037008E00378612B05DB03787A2B56
:102DA00002DC0378463B0370401C531CDAB28A42B3
:102DB000E7DB704710B50948006868B14FF47A72D4
:102DC000074801680748006800F048FB20B101F09F
:102DD000C3FF00200149086010BD00000000002072
:102DE000400000200400002008B58020ADF800005D
:102DF00003208DF8020004208DF803006946254861
:102E0000FDF7F8FD4FF4C050ADF8000003208DF839
:102E1000020010208DF8030069461F48FDF7EAFD07
:102E20004FF400611C48FDF7CDFE4FF480511A4865
:102E3000FDF7C8FE8020ADF8000003208DF80200E9
:102E400010208DF8030069461448FDF7D3FD80215A
:102E50001248FDF7B7FE4E20ADF8000003208DF8B4
:102E6000020010208DF8030069460A48FDF7C2FDF4
:102E700002210848FDF7A4FE04210648FDF7A0FE44
:102E800008210448FDF79EFE40210248FDF79AFE06
:102E900008BD000000140140000801400018014076
:102EA00010B56FF00400FEF727FD0A4800680A49D4
:102EB000B0FBF1F0094908700846007800EB4001CA
:102EC000C1EBC0104FF6FF7101EAC0000449088051
:102ED00010BD0000A40D002000127A00BE0D0020DD
:102EE000C00D00200146114A12884A434FF0E023EA
:102EF0005A6100229A611A46126942F001021A616F
:102F000000BF4FF0E022106900F001021AB100F496
:102F10008032002AF5D04FF0E022126922F001023F
:102F20004FF0E0231A6100229A617047C00D002023
:102F30000146114A12784A434FF0E0235A610022B9
:102F40009A611A46126942F001021A6100BF4FF0FD
:102F5000E022106900F001021AB100F48032002A68
:102F6000F5D04FF0E022126922F001024FF0E02389
:102F70001A6100229A617047BE0D002010B53B48CF
:102F8000006870B980213A48FDF708FE48B9012071
:102F900036490860374800683749086037A0FFF7AE
:102FA00085FC3248006878B13648006860B98021F5
:102FB0002F48FDF7F3FD002806DD012031490860A8
:102FC0002C480068304908602E480068002831D03D
:102FD00041F28832274801682B48006800F03EFA29
:102FE00000B32A48006890B94CF250322648016874
:102FF0002148006800F032FA48B15520244981F890
:10300000600001202149086022A0FFF74FFC00204A
:1030100016490860184908601A4908601A4908608A
:103020001A49086080211248FDF7B8FD10B9002048
:10303000144908600D480068B8B114480068A0B988
:103040004CF250320B4801680B48006800F006FA59
:1030500058B155200E4981F8600001F009FC0120AB
:103060000A4908600DA0FFF721FC10BD14000020E4
:1030700000140140400000201800002062620A0D88
:10308000000000001C000020200000202400002080
:10309000C415002063630A0D0000000064640A0D7B
:1030A0000000000010B51F48006860B980211E486C
:1030B000FDF774FD38B901201A49086001F030FCB1
:1030C0001AA0FFF7F3FB1748006878B11B480068A7
:1030D00060B980211448FDF761FD002806DD01205C
:1030E00016490860164800681649086013480068C9
:1030F000B8B141F28832124801681248006800F005
:10310000ADF930B10020074908600C4908600D494D
:10311000086080210448FDF741FD10B900200749EF
:10312000086010BD0800002000140140616120709B
:103130006F776572206F6E0A0D0000000C00002092
:10314000400000201000002010B54FF0FF34402157
:103150000C48FDF72CFD044614B10B48006828B15B
:103160000A48006810B9FFF79DFF09E0012C02D062
:103170000648006820B10448006808B9FFF7FEFE61
:1031800010BD0000001401400800002014000020C1
:1031900010B586B004462348FFF788F84FF4007056
:1031A000ADF8140003208DF8160018208DF81700D4
:1031B00005A91D48FDF71EFC4FF48060ADF8140012
:1031C00004208DF8170005A91748FDF713FC2520EA
:1031D0008DF8000003208DF801008DF80200012019
:1031E0008DF803006846FEF72BF801940020ADF837
:1031F0000800ADF80A00ADF80C00ADF810000C2086
:10320000ADF80E0001A90748FFF7FAF8012240F2D5
:1032100025510448FFF7CFF801210248FFF73AF89B
:1032200006B010BD003801400008014030B589B03B
:1032300005460C460121C802FEF78CF90121412008
:10324000FEF788F901211E48FDF760FC4FF400608D
:10325000ADF8200018208DF8230003208DF82200FF
:1032600008A91848FDF7C6FBADF81850ADF8144092
:103270000020ADF81A00ADF8160005A91248FEF7B7
:10328000CFFE7020ADF804000120ADF8060000204C
:10329000ADF80C003C20ADF80A0001A90A48FEF781
:1032A000B7FD08210848FEF705FE01210648FEF794
:1032B00085FD01210448FEF775FD09B030BD000011
:1032C000C000160000180140002C014010B51F4836
:1032D000847840211E48FDF76AFC28B900201B496C
:1032E000887100F037F810BD1848C07900F08000F0
:1032F00030B10020154988713C2000F02BF822E005
:10330000282C05DC3C201149887100F023F81AE0D4
:10331000282C07DD2C2C05DC4B200C49887100F093
:1033200019F810E02C2C07DD302C05DC5A20074959
:10333000887100F00FF806E0302C04DD64200349AA
:10334000887100F007F800BFCDE70000C415002029
:103350000014014010B5044621460248FEF75DFE08
:1033600010BD0000002C014070B50546002428E087
:10337000204601F02AFC002001F00AFC0020FDF7A5
:1033800020FE78210020FDF7EDFD0020FDF751FE25
:1033900040210020FDF7E6FD0020FDF74AFE002653
:1033A00008E029460020FDF7DDFD0020FDF741FE85
:1033B000701CC6B2802EF4DB0020FDF71EFE601CE0
:1033C000C4B2082CD4DB70BD2DE9F04705460E468B
:1033D00017469846DDF820A034462BE0204601F041
:1033E000F4FB404601F0D4FB0020FDF7EAFD782114
:1033F0000020FDF7B7FD0020FDF71BFE4021002057
:10340000FDF7B0FD0020FDF714FE4FF000090AE0C3
:1034100029460020FDF7A6FD0020FDF70AFE09F170
:10342000010000F0FF09D145F2DB0020FDF7E5FDCA
:10343000601CC4B2781C8442D0DBBDE8F087000079
:1034400000BF054A128802F04002002AF9D0C2B239
:10345000014B1B1D1A8070470038014003469942FA
:1034600004D3C81A904208D901207047C3F1FF3035
:103470000844904201D90120F7E70020F5E710B594
:103480000220FDF75BFF10BD08B5C020ADF80000BD
:1034900014208DF8030003208DF8020069460448CB
:1034A000FDF7A8FAC0210248FDF78CFB08BD00001B
:1034B000000C014000B585B021208DF800000020EF
:1034C0008DF801008DF8020001208DF80300684698
:1034D000FDF7B6FE22208DF8000001208DF80200D5
:1034E0006846FDF7ADFE1748FDF72CFC0020ADF84F
:1034F00008004BF6FF70ADF80A009020ADF80C0004
:103500004FF48060ADF80E000001ADF810000E48D9
:10351000019001A90B48FDF73BFC012291020948EB
:10352000FDF72CFC012251020648FDF727FC012281
:1035300011020448FDF722FC01210248FDF7F6FBC9
:1035400005B000BD00580040801A060008B54FF4D1
:103550004060ADF8000003208DF802001C208DF8BB
:10356000030069460648FDF745FA01218805FDF785
:10357000E1FF00214FF48000FDF7DCFF08BD0000F3
:10358000000C014010B5FFF7E1FFFFF793FF10BDFE
:1035900010B5FFF779FFFFF7F5FF10BD70B50024F8
:1035A000002500261A48007800F0400000282ED0A0
:1035B00018480068040E17480068C0F30745E84340
:1035C000C0B2A0421DD113480088C0F3072411489F
:1035D0000578E843C0B2A04213D10F488477807FBA
:1035E000D02807D140210D48FDF7D8FA06460EB97C
:1035F00001F096F900F096FA0748817F08A0FFF7DE
:1036000055F90348007820F0C0000149087070BDEA
:103610007400002078000020C41500200014014030
:1036200076616C3A30782578200A0D001FB54FF48A
:103630000060ADF80C0003208DF80E0048208DF8D6
:103640000F0003A95348FDF7D5F9F020ADF80C00A1
:1036500003208DF80E0048208DF80F0003A94E4876
:10366000FDF7C8F92020FDF7B7F805210020FDF788
:10367000A1F92020019000208DF8080010208DF87D
:10368000090001208DF80A0001A8FDF7BFF84020CD
:10369000FDF7A2F806210020FDF78CF940200190EB
:1036A00000208DF8080010208DF8090001208DF809
:1036B0000A0001A8FDF7AAF88020FDF78DF8072180
:1036C0000020FDF777F98020019000208DF8080098
:1036D00010208DF8090001208DF80A0001A8FDF7DF
:1036E00095F817208DF8000002208DF801008DF864
:1036F000020001208DF803006846FDF7A1FD1020AF
:10370000FDF76AF804210020FDF754F9102001901C
:1037100000208DF8080010208DF8090001208DF898
:103720000A0001A8FDF772F80A208DF800000220B7
:103730008DF8010001208DF802008DF80300684625
:10374000FDF77EFD4FF40060FDF746F80B210320E6
:10375000FDF730F94FF40060019000208DF808006B
:1037600010208DF8090001208DF80A0001A8FDF74E
:103770004DF828208DF8000002208DF8010000206F
:103780008DF8020001208DF803006846FDF758FD12
:103790001FBD0000001401400008014010B5FFF7F4
:1037A00045FF4721632000F08BF910BD10B54FF4A1
:1037B0000061B148FDF7F2F920B14FF40060FDF768
:1037C00011F818BB1021AD48FDF7E8F918B1102029
:1037D000FDF708F8D0B92021A848FDF7DFF918B1A6
:1037E0002020FCF7FFFF88B94021A448FDF7D6F957
:1037F00018B14020FCF7F6FF40B980219F48FDF743
:10380000CDF918B38020FCF7EDFFF8B108219C48F2
:10381000FDF7D8F904219A48FDF7D4F90020994919
:1038200008809948007840F0100097490870974840
:103830000088552806DB954800885F2802DC0120B7
:103840009349087000209149088013E108218C48B1
:10385000FDF7B6F904218A48FDF7B2F98A480078E5
:1038600000F0100000287DD08748007800F080002C
:1038700000B384480088032809DB824800880828B0
:1038800005DC8448006840008249086083E07D4888
:1038900000880E287FDB7B48008812287BDC7D486F
:1038A000006840007B4908600846006840F001005D
:1038B000086070E073480088292815DB714800888B
:1038C000302811DC72480078002864D06E480078F7
:1038D00040F080006C49087000206E4908606E4915
:1038E00008706E49087056E06648008814280FDB9F
:1038F0006448008819280BDC67480078401C66493A
:1039000008706148007820F080005F49087042E04C
:103910005C480088C82802DB5D480078D8B360485E
:10392000007800F00800B8B15E48007840F0100060
:103930005C4908705C48006800F0400060B15B487A
:1039400000685B49086006205A49087056480068BC
:1039500020F04000544908605148007800F002000F
:10396000C8B100E079E04F48007840F020004D49B0
:1039700008704D48006800F0100060B14B480068C6
:103980004D49086006204B4908704748006820F000
:103990001000454908604048007820B93F48007849
:1039A000401C3E4908703D480078212855D101202F
:1039B000424908603B48007800F0200020280AD0E7
:1039C0003948006800F0100028B93748006840F016
:1039D0001000354908603448006800F0200028B91C
:1039E0003148006840F020002F4908602D480078D9
:1039F00000F0100010280AD02B48006800F04000AA
:103A000028B92948006840F0400027490860264846
:103A1000006800F0800028B92348006840F080006A
:103A2000214908602048006800F4807028B91E48C9
:103A3000006840F400601C4908601348007800F0FA
:103A4000800050B11048007840F040000E490870E6
:103A500013480078002012490870002009490880A6
:103A60000A4908800A4908700748007820F01000C9
:103A70000549087010BD0000001401400008014015
:103A8000001001407E000020740000208000002013
:103A900082000020780000207C00002083000020AD
:103AA000840000208C000020000401404800002019
:103AB000300000203800002034000020900000205A
:103AC0007FB504460D4601210846FDF723FDADF8FC
:103AD0000850ADF804400020ADF80A00ADF806002B
:103AE0008DF80C0001A94FF08040FEF799FA0122F1
:103AF00011469007FEF782F901218807FEF752F977
:103B000001218807FEF748F91C208DF800000120EC
:103B10008DF803008DF801008DF802006846FDF76E
:103B20008FFB7FBD10B501201F49086041031F486E
:103B3000FDF734F858B901201D4908604FF4FC70B6
:103B40001C490880091D0880091D08802AE04FF4DF
:103B500080411648FDF722F858B902201449086040
:103B60004FF4FC7013490880091D0880091D088066
:103B700018E04FF400410D48FDF710F858B9032044
:103B80000B4908604FF4FC700A490880091D088041
:103B9000091D088006E0002006490831088004203D
:103BA0000349086010BD0000CC0000200014014053
:103BB000D0000020380800401A48006800B970475B
:103BC000194801680068401C174A1060022900D09B
:103BD000F5E700201449086012490860134800689E
:103BE000012806D0022808D003280BD0042814D1BD
:103BF0000DE000200E49088010E000200C49091D4E
:103C000008800BE000200A490831088006E04FF4E4
:103C1000FC7007490831088000E000BF00BF00BF0A
:103C2000CDE70000CC000020D4000020D000002010
:103C30003808004070B504460D461748005D00F096
:103C4000400038B31448005D00F0020060B100F09D
:103C500097F94FF4FC7011490880091D0880091D6F
:103C60000880012028600FE000200D4908600D4900
:103C700008600D49086028604FF4FC70074908800F
:103C8000091D0880091D08800348005D20F04000E0
:103C90000149085570BD0000C415002038080040D7
:103CA0005C00002064000020600000207C4890F848
:103CB0006E0000B970477A4890F87100012849D128
:103CC000784800887849088078480068C0B174480E
:103CD00090F8740073490968884208DB704890F8CE
:103CE0006F007049096808446E49086020E06C481C
:103CF00090F870006B49096808446A49086017E049
:103D0000674890F8740067490968884208DB64488E
:103D100090F86F0063490968081A6249086007E073
:103D20005F4890F870005F490968081A5D490860AB
:103D30005C480068B0F5FA7F02DB00205B49086050
:103D400058480068002805DC012058490860002018
:103D500054490860524890F8710002284AD15148ED
:103D600000885149091D088050480068C0B14C487E
:103D700090F874004B490968884208DB484890F87D
:103D80006F004849096808444649086020E04448F3
:103D900090F870004349096808444249086017E0F8
:103DA0003F4890F874003F490968884208DB3C4866
:103DB00090F86F003B490968081A3A49086007E023
:103DC000374890F8700037490968081A3549086083
:103DD00034480068B0F5FA7F02DB00203349086000
:103DE00030480068002805DC0120304908600020C8
:103DF0002C4908602A4890F8710003284ED12948C0
:103E0000008829490831088028480068C0B1244842
:103E100090F8740023490968884208DB204890F82C
:103E20006F002049096808441E49086020E01C48CA
:103E300090F870001B49096808441A49086017E0A7
:103E4000174890F8740017490968884208DB14483D
:103E500090F86F0013490968081A1249086007E0D2
:103E60000F4890F870000F490968081A0D4908605A
:103E70000C480068B0F5FA7F06DB00200B490860AB
:103E80004FF4FA700749086006480068002805DC0E
:103E900001200649086000200249086000BF09E7C8
:103EA000C4150020D800002038080040DC000020A5
:103EB000144890F8720000B97047124890F87100E9
:103EC000012805D10F4890F8730080000E49088042
:103ED0000C4890F87100022806D10A4890F8730047
:103EE00080000949091D0880064890F871000328E0
:103EF00006D1044890F87300800003490831088017
:103F000000BFD9E7C41500203808004070B504464A
:103F10000D463DB3012C04D0022C0CD0032C20D133
:103F200015E00020154908804FF4FC70091D088039
:103F3000091D088015E04FF4FC701049088000202E
:103F4000091D08804FF4FC70091D088009E04FF43A
:103F5000FC700A490880091D08800020091D08809E
:103F600000BF09E000F00CF84FF4FC700349088032
:103F7000091D0880091D088070BD00003808004038
:103F8000002006490860064908600649086006499D
:103F9000086006490860064908607047B4000020C0
:103FA000B8000020BC0000205C000020640000205D
:103FB0006000002070B504460D461748005D00F013
:103FC000200038B31448005D00F0040060B1FFF732
:103FD000D7FF4FF4FC7011490880091D0880091DA6
:103FE0000880012028600FE0002028600C4908604C
:103FF0000C4908600C4908604FF4FC7007490880C0
:10400000091D0880091D08800348005D20F020007C
:104010000149085570BD0000C41500203808004053
:10402000B4000020B8000020BC0000202448006834
:1040300098B14FF4FC702349088023480168006858
:10404000401C214A1060214890F86B00814204DB3B
:1040500000201C490880114608601D480068A8B16E
:104060004FF4FC701749091D08801A480168006860
:10407000401C184A1060154890F86C00814205DB1E
:1040800000201049091D0880114608601248006888
:10409000A8B14FF4FC700B49083108800F48016843
:1040A0000068401C0D4A1060084890F86D0081427D
:1040B00005DB00200349083108801146086070477D
:1040C000B400002038080040C0000020C4150020C3
:1040D000B8000020C4000020BC000020C800002060
:1040E00070B505460C460948005D00F0800060B1DF
:1040F0000648005D00F001012846FFF707FF03486E
:10410000005D20F080000149085570BDC4150020F5
:1041100010B50D480068012806D10C4800680C490C
:1041200008600020084908604CF2503207480168D6
:1041300007480068FFF792F920B100F00BF8012062
:104140000149086010BD00002C0000204000002044
:104150002800002010B50020FCF733FF9F2100202D
:10416000FCF700FF0020FCF764FF01210020FCF7B2
:10417000BDFE0649887000210846FCF7B7FE0349DA
:10418000C8700020FCF739FF10BD0000C4150020E6
:104190000025002403202F49087000F093FDFEF74E
:1041A00023FE6420FEF79EFE2BA0FEF77FFB4FE070
:1041B000FFF765F900F0BDFD2A4800682A49096843
:1041C000451A002D00DA6D4222480078854219DB3D
:1041D00024480068244908602448007800F0100052
:1041E00080B12248007820F0100020490870204853
:1041F000006800F0400028B91D48006840F0400009
:104200001B490860174800681A490968441A002CBD
:1042100000DA64420F480078844219DB11480068D4
:10422000144908601148007800F0200080B10F4860
:10423000007820F020000D4908700D48006800F05B
:10424000100028B90A48006840F0100008490860CA
:10425000AEE7000038000020656E74657220617062
:10426000700A000048000020300000208C00002070
:10427000000401403400002010B50020FFF774F85E
:1042800010BD0000F0B587B006460F46002514218A
:1042900002A8FBF782FF00244DE004F126002F491D
:1042A0000D5C642D0FDB642095FBF0F0801C002179
:1042B00001EB840102AA5054642095FBF0F100FB4D
:1042C0001150C5B208E0642095FBF0F0801C00217D
:1042D00001EB840102AA50540A2D0FDB0A2095FB42
:1042E000F0F0801C012101EB840102AA50540A2045
:1042F00095FBF0F100FB1150C5B208E00A2095FBD8
:10430000F0F0801C012101EB840102AA5054A81C8A
:10431000022101EB840102AA50540120032101EB88
:1043200084015054032C04D10020032101EB8401AB
:104330005054601CC4B2042CAFDB802000233246F2
:10434000314600901846FFF73FF83B46324602A937
:10435000032000F099FC07B0F0BD0000C415002058
:1043600038B50025002000900024174890F82C5004
:1043700000BF26E020202041284038B1601CC0B298
:104380008DF8000000208DF8010006E0E01DC0B2AD
:104390008DF8000000208DF8010044B905F04000C0
:1043A00028B10D208DF8000000208DF8010004EBED
:1043B00004100D30C2B20021684600F025F9601CDF
:1043C000C4B2062CD6DB38BDC415002008B50220C7
:1043D000ADF8000003208DF8020010208DF80300D6
:1043E00069460948FCF706FB4FF48060ADF8000011
:1043F00003208DF8020010208DF803006946034861
:10440000FCF7F8FA08BD000000100140001401405C
:1044100010B5122000F056FBAE2000F086FBA12064
:1044200000F071FB1F2000F09BFB002000F074FBEC
:10443000002000F0C3FB052000F089FB022000F003
:1044400038FBA12000F09EFBC82000F04DFB12209D
:1044500000F041FBEF2000F04DFB152000F089FB40
:10446000082000F01DFBA42000F065FBA62000F052
:1044700068FB0020FEF778FFAF2000F056FB0A2013
:10448000FEF730FD10BD10B5FFF7A0FF00F006F8F5
:10449000FFF7BEFF00F0A6F810BD000010B54FF406
:1044A00080610748FCF78EFB00F0EEF82820FEF74D
:1044B00019FD00F0E1F80520FEF73AFD10BD0000FF
:1044C000001401402DE9F84F82460F469046994668
:1044D000DDF828B0BAF1010F06D0BAF1020F04D00E
:1044E000BAF1030F0BD105E00AE0781E3B4901EB5E
:1044F000401605E0781E3A4901EB001600E000BFC7
:1045000000BF3446484600F060FB584600F040FBD0
:104510000020FCF756FD78210020FCF723FD002049
:10452000FCF787FD40210020FCF71CFD0020FCF774
:1045300080FD00250DE0207800F0AEF801460090E7
:104540000020FCF70FFD0020FCF773FDA41C681C85
:10455000C5B24545EFDB00210846FCF703FD00200E
:10456000FCF767FD0020FCF748FD09F10101C8B226
:1045700000F02BFB584600F00BFB0020FCF721FD60
:1045800078210020FCF7EEFC0020FCF752FD4021D2
:104590000020FCF7E7FC0020FCF74BFD741C002515
:1045A0000DE0207800F078F8014600900020FCF73C
:1045B000D9FC0020FCF73DFDA41C681CC5B2454594
:1045C000EFDB00210846FCF7CDFC0020FCF731FDB5
:1045D0000020FCF712FDBDE8F88F00002004002049
:1045E000E00000200EB505A207CA8DE807000923E8
:1045F0001C220121684600F023F80EBD09061205B1
:1046000005030F0D0D000000F8B506460F461446D1
:1046100035462878352804D104F11800C4B26D1C41
:10462000F8BD009429783B4610220220FFF74AFF8C
:1046300004F11800C4B2287800B9F1E700BFEFE731
:104640002DE9F84305460E4614461F46A8460CE0E1
:10465000009498F80010334608220320FFF732FF39
:1046600008F1010804F10800C4B23800A7F1010103
:10467000CFB2EDD1BDE8F88310B502210148FCF7B7
:10468000A1FA10BD0010014010B502210148FCF74D
:1046900097FA10BD001001400146002001F00F0202
:1046A000054B9A5C40EA0212D0B21A4602EB211284
:1046B00012781043704700007E0D002010B50446AC
:1046C0000020FCF77EFC78210020FCF74BFC00204A
:1046D000FCF7AFFC00210846FCF744FC0020FCF787
:1046E000A8FC21460020FCF73DFC0020FCF7A1FCC3
:1046F0000020FCF782FC10BD70B588B0182102A81C
:10470000FBF74BFD00250024584890F8480000F0C6
:104710008000802824D1554890F8480000F07F059B
:104720000020524981F8480000BF07E04F4904F1DA
:104730004900085C02A90855601CC4B2AC42F5DB14
:10474000294602A8FEF71BFBE800C0F1800606EB35
:10475000D670C0F347022B46012102A8FFF770FF75
:10476000424890F84700012805D100203F4981F8D0
:104770004700FEF7F9FD3D4890F82A00012805D1D1
:1047800000203A4981F82A00FFF7EAFD374890F8FF
:104790002500012807D10020344981F82500132184
:1047A0000320FFF76FFD314890F82E0000F0010064
:1047B00030B100202D4981F82E00AF2000F0B5F96E
:1047C0002A4890F82E0000F00200022806D10020AE
:1047D000264981F82E00AE2000F0A7F9234890F872
:1047E0002E0000F00400042807D100201F4981F8A2
:1047F0002E0091F82F0000F07DF91C4890F82D0054
:1048000000F0800080282ED1184890F82D0000F08C
:104810007F050020154981F82D00002407E0134989
:1048200004F13200085C02A90855601CC4B2AC4215
:10483000F5DB294602A8FEF78AFA8020002303222E
:10484000114600901846FEF7BFFD05EB45004000FD
:10485000C0F1800606EBD670C0F34703032202A91D
:10486000012000F011FA08B070BD0000C41500204E
:1048700010B51FA0FEF71AF80020FEF76BFD4FF4ED
:104880007A70FEF72FFB40212248FCF799F90021AE
:104890000320FFF73BFBFFF7EFFC04211E48FCF76A
:1048A0008FF94FF400611D48FCF78AF94FF48051ED
:1048B0001A48FCF785F980211748FCF781F908218F
:1048C0001448FCF77DF94FF47A70FEF70BFB4FF4B8
:1048D0007A70FEF707FB4FF47A70FEF703FB4FF494
:1048E0007A70FEF7FFFA4FF47A70FEF7FBFA10BD0C
:1048F0002A2A2A2A2A2A20706F7765725F6F6666D5
:104900005F73797374656D202A2A2A2A2A2A0A0D70
:1049100000000000001401400018014000080140A0
:1049200010B518A0FDF7C2FF01210320FFF7EEFA32
:10493000FFF7A2FCFFF756FE40211A48FCF742F9A8
:1049400004211948FCF73EF94FF400611748FCF7C1
:1049500039F94FF480511548FCF734F98021124899
:10496000FCF730F908210F48FCF72CF94FF47A7066
:10497000FEF7B8FA01200E4908600E4800680E499B
:10498000086010BD2A2A2A2A2A2A20706F776572A9
:104990005F6F6E5F73797374656D202A2A2A2A2AE5
:1049A0002A0A0D00001401400018014000080140CF
:1049B00000000020400000200400002008B5042072
:1049C000ADF8000003208DF8020010208DF80300E0
:1049D00069460748FCF70EF804210548FCF7F0F893
:1049E0000520FEF77FFA04210148FCF7EBF808BD2B
:1049F0000018014010B5204890F86100442807D104
:104A0000FFF736FF00201C4981F8610081F8600043
:104A1000194890F8620055282DD118A0FDF746FFDF
:104A20000020FEF797FC4FF47A70FEF75BFA402106
:104A30001A48FCF7C5F800210320FFF767FAFFF7D3
:104A40001BFC4FF47A70FEF74DFA4FF47A70FEF7C4
:104A500049FA4FF47A70FEF745FA4FF47A70FEF790
:104A600041FA4FF47A70FEF73DFAFFF759FF002044
:104A7000014981F8620010BDC41500202A2A2A2AA3
:104A80002A2A207265737461727420737973746555
:104A90006D202A2A2A2A2A2A0A0D00000014014021
:104AA00010B50446DB20FFF709FE0820FFF706FEDD
:104AB00010BD10B504462020FFF700FE2046FFF78A
:104AC000FDFD10BD10B50446FD20FFF7F7FD2046A3
:104AD000FFF7F4FD10BD10B50446DA20FFF7EEFD38
:104AE0002046FFF7EBFD10BD10B504462046FFF74A
:104AF000E5FD10BD10B504468120FFF7DFFD20461F
:104B0000FFF7DCFD10BD10B50446D520FFF7D6FD3C
:104B10002046FFF7D3FD10BD10B50446D320FFF7A4
:104B2000CDFD0020FFF7CAFD10BD10B5044620469C
:104B3000FFF7C4FD10BD10B504462046FFF7BEFDCB
:104B400010BD10B504462046FFF7B8FD10BD10B5E6
:104B50000446D820FFF7B2FD2046FFF7AFFD10BD99
:104B600010B50446A820FFF7A9FD2046FFF7A6FDD3
:104B700010BD10B50446D920FFF7A0FD1520FFF7A2
:104B80009DFD10BD10B504462046FFF797FD10BDF2
:104B900070B504462546E11704EB11710911A4EB29
:104BA0000111C8B2FFF78AFD2546E11704EB117128
:104BB00009111031C8B2FFF781FD70BD10B5044670
:104BC00044F04000FFF77AFD10BD10B5044644F0F4
:104BD000B000FFF773FD10BD2DE9F04707460D4605
:104BE00090469946012F04D0022F08D0032F12D1EE
:104BF0000BE0681E00EB8000204944180CE0681EA2
:104C000000EB80001E49441806E0681E00EB80009F
:104C10001C49441800E000BF00BF4046FFF7D5FF25
:104C20004846FFF7B5FF0020FCF7CBF978210020BC
:104C3000FCF798F90020FCF7FCF940210020FCF774
:104C400091F90020FCF7F5F9002609E02178002011
:104C5000FCF788F90020FCF7ECF9641C701CC6B264
:104C6000052EF3DB00210846FCF77CF90020FCF759
:104C7000E0F90020FCF7C1F9BDE8F087B706002095
:104C8000670B0020C00500202DE9F04107460D46C6
:104C900090461E462C463346424660210120FFF7CF
:104CA0009BFF0BE02178334642463846FFF794FFDE
:104CB000641CB01DC6B2207800B900E0F2E700BF66
:104CC000BDE8F08110B5FEF7EBF84FF4A060FCF7FB
:104CD000EFFAFCF75FFC4FF4E130FEF759FA472199
:104CE0006320FCF721FF40F271210620FCF7D2F986
:104CF0004FF4C0725F21FF20FDF782FD1E20FEF7FA
:104D0000F1F800F029F84FF4E131242000F032F8F6
:104D1000FEF73EFCFEF742FDFCF73AFFFFF7B3FB60
:104D200018216320FEF782FAFCF7ECFBFFF746FE42
:104D300010BD10B5FFF7ECF900F0E8F8FFF7DCFC68
:104D400000F090F8FFF756FEFEF7FEF9FEF732F896
:104D5000FEF724FC10BD000010B5002003490880B8
:104D600018210348FBF719FA10BD00006E0000205F
:104D7000E21600202DE9F05F05460E463001FBF7F4
:104D8000DFFA8146334905FB01F0FBF7D9FA824689
:104D90004946FBF797FA07463846FBF7D6FA84B23E
:104DA0002046FBF7CDFA83463946FBF756FA824692
:104DB0004FF08341FBF754FA8146FBF7C6FA804671
:104DC0004FF6FF7000EA041404EB080084B2224896
:104DD000806940F01000204988610846C06940F4AD
:104DE0000020C8611D48406820F47F401B4948608E
:104DF0000846406840F40B4048600846C06840F4EC
:104E00000060C8601448006940F40020124908613D
:104E10000846006920F40020086111480480001D44
:104E2000008842F20C0108430D49091D088008461C
:104E3000008840F4807008800846008840F0200018
:104E400008800223342200211846FCF793F9BDE8BC
:104E5000F09F000040420F0000100240001001408F
:104E6000084C004010B51F480068012806D11E48B4
:104E700000681E49086000201A4908601C4890F824
:104E80007B0000F0800018B100201A49086002E0A1
:104E90000120184908604CF2503213480168134849
:104EA0000068FEF7DBFA68B101200E49086011487E
:104EB000006810B1FEF70AFA04E00E4801680EA07F
:104EC000FDF7F4FC0A48C07900F0800048B10849B9
:104ED0008879FEF73FFA0648C07920F0800004493F
:104EE000C87110BDA800002040000020AC000020C8
:104EF000C4150020B000002066616E5F6175746F9C
:104F00005F6374726C3A2025640A0D0010B522218B
:104F10000120FFF7E5F823210220FFF7E1F8242123
:104F20000320FFF7DDF80D492220FEF783FE0C4930
:104F30002320FEF77FFE0B492420FEF77BFE0A4963
:104F40002220FFF737F809492320FFF733F80849F3
:104F50002420FFF72FF8FEF7ABFF10BD5C00002008
:104F60006400002060000020B4000020B800002091
:104F7000BC00002050726F635F55617274436F6EA6
:104F800074726F6C0055534152545F67657452657B
:104F90006376466C61670055534152545F636C659C
:104FA000617252656376466C616700555341525495
:104FB0005F636C656172526563764C656E00555334
:104FC0004152545F67657452656376446174610051
:104FD00055534152545F577269746544617461005E
:104FE0004961705F4C6F61645F4170700000000048
:104FF0001050000800000020C40D0000A6040008A6
:10500000DC590008C40D00201C0E0000DC2800083C
:10501000012C0227010A1BF4290A1F7F6469040975
:10502000127C093084400D07F00FF0188018800FB3
:10503000F007F0400D1FF01FF0111011101FF00EBF
:10504000E01E0FE01FF010016D1C700C6020A8091D
:10505000101018300FE007C0301A112479101129F0
:1050600002390F69407D901CF00C601A01A82908D4
:10507000611A106C29247112601A703B291439804E
:1050800049306F07C01EF01830102920390259101E
:1050900012045C038004522906120612034B01809D
:1050A0001069C07C1FF00F50299E121FAA0EA09EEF
:1050B000181FFC0FE420193E430E70380D0C201E03
:1050C000301310119018F00860AE190239B059E091
:1050D0001A1F40B9B01AC00812301A30183AC0105E
:1050E000194A11147003801A702222801E18701C35
:1050F000F007B03C1CF018601A1E8A1E01F001F087
:105100001F0A3960480B7010F0119013101E101C0C
:1051100061180B6004F00490049007F003CE59F07E
:105120001C1004101039703C03E00710AD0630026B
:10513000201049FE591029401A90843112014A0F5B
:10514000E219023920780CE207F20412041207FE79
:1051500007FC601112046970294C3C37F037E451A8
:105160001B0204023C37FE372E49301138088001FB
:10517000C007700630C01901391459301B07F08080
:10518000116B07E0524910896069B069D019880A2B
:1051900012FEE029186950120112021A0602392083
:1051A0001B1007DE19023CF00460B0111B1FE0C2A7
:1051B00019324A04801940298C2938391014C00743
:1051C000E012301A30185AC01012F01C3003C0120E
:1051D0002AF0127F0630077001C0D0160207E207DE
:1051E000F212161C1C07F8382960380B30047004C2
:1051F000D0059007100660211809FFC08040844048
:105200008450023A70063F4095408E40C45E412B68
:105210001F80021E3FC07FE0FF821209D008462097
:10522000402030C00F221F100C807E50FF50FF70B6
:10523000FF507E501A8010911CCF3090011E92902A
:105240008B108002800B9F90821086108910D0B046
:105250001CCCB0941E3A931C49222E92109210CC72
:10526000BE51120F180A39C049204920FFF0893871
:105270002BFFF00C9A398049C07C8E5095C02902D2
:105280000916C01408800512021A0508911210AC04
:10529000201F40C01420805F891F0911C01194880D
:1052A000D0D0F9C01380929492D0CCD9C0111248BA
:1052B0001C48D03816A9C019021A50023A700629A3
:1052C0000E4B40FFC0236060163E5149453E1442DC
:1052D0007F40202942615149462141454B311814F4
:1052E000127F1027454545393C4A4949300171092B
:1052F00005033649494936064949291E1AFC013138
:1053000059071AE0011A600429541AEC0131300DD2
:10531000043CFCFCF08080F0FCFC3C04300C070FEB
:105320001F1F1C181C1F1F0F071A1F014905590CAE
:10533000411A012319204201300C80E0E0F0703066
:1053400070F0E0E0801AF00171290B2A3001690C3D
:105350001C70F0F024280B0F3F3F7F7060707F3F80
:105360003FF81A7F011A6001590B1A6301690C1981
:10537000242A7F242A4F9419021B147F0210102420
:105380002A7F2A12231308646236495522503305B6
:1053900003241C22411441221C1F14083E08140837
:1053A0000512081A50772A080111295D100B2010E8
:1053B0000804023E5149453E14427F401029426193
:1053C0005149462141454B311814127F102745455C
:1053D00045393C4A49493001710905033649494973
:1053E00036064949291E3336361A56051B081464F9
:1053F0002A140119692813140802015109063249B7
:1054000079413E7E1111117E7F321F3E4141412282
:105410007F042A1C0F180D417F090909013E4149EB
:10542000497A7F86127F14417F412F2040413F01FE
:105430007F4C1B7F4001280B7F020C027F7F0408FA
:10544000107F3C2A3E32180D063E4151215E7F09F5
:10545000192946464618083101017F01013F2C18E1
:10546000163F1F2040201F3F4038403F6314081460
:10547000630708700807C71345431974111A0246D9
:1054800012201441417F2E04020102045E1A4008DA
:1054900019FA180F545454787F4844443838444417
:1054A0004420051C487F38141F18087E090102E6B5
:1054B0001008493F7F080404781C447D40A0134431
:1054C0003D257F10284419A2112F7C0418047C7CF0
:1054D0001E293C1B387CFE3E0808141418141B08B7
:1054E0004846180D20043F4440203C4040207C1C8E
:1054F000A018091C3C4030403C442842100B0C5082
:1055000050503C4464544C4434083641327F14417A
:105510003608299F77023E55554122224F20151803
:1055200024742E24487E4942405D2222225D1516B5
:105530007C16152277160A555555281A010211189E
:105540000B0A0D0A0408142A14220401121C140860
:1055500008082A010111140205021D44445F44B5E4
:1055600019FC18097E2020103E060F7F7033181892
:105570003C4050203C111A223C2822081708342AAB
:105580007D1708046A593048454020702926287044
:105590007028262970702A252A7072290A2B29243E
:1055A0000F48132D2A707E117F49490E51517111F8
:1055B0007C55565444051C5655560A145455441BE4
:1055C000457E7224447E4524467D4614457C45191B
:1055D000303816413E7C0A11227D38454644383821
:1055E000444645383846454605183539384544451A
:1055F0003822140814222E5149453A3C4142403C7D
:105600003C4042413C3C4241423C3C4140413C0CDC
:105610001062110C7F1212120C403E0149362073A9
:10562000180878205456557820781A780F190A19D6
:105630007D190F180F57567824547854580C52522D
:10564000721338281B1838281B1838281B183823C1
:10565000121824497A4024487A411C4A7942051399
:1056600078423819314A4E4A307A110A0970304965
:105670004A483030484A4930304A494A05181F31B3
:10568000304A484A3008082A08083864544C3838E8
:105690004142207838404221783842412205281D75
:1056A0004022780C5052513C7E141414080C515076
:1056B000513C1E0909295E081515354EEB2A20506C
:1056C0001A20FA190A1A490A1A7C0A1808382050AE
:1056D000507C031F231B510E051B467CC31A44AF8D
:1056E00019A014447C40167F4844404014497F442C
:1056F00018087C0812217C78109B2B7C090A29A5AC
:10570000281A3847444738304B484B303E417F4990
:105710004938443854587C151635481E1B1048F03B
:105720001C202048051A48501C20204905102D0433
:10573000057E0504083C4822013C4245423C384273
:105740004522783C4340433C38434023780C116069
:10575000110C4466554C44486A59482B44640A1B52
:10576000685A0A200965564D4448695A492402017D
:10577000021C010201051B010109290A1129042C3F
:105780000205021D120118147F05153A503E5555A9
:105790004122181408140C444A4A5101180E4A4A6E
:1057A0004474424142747E1111117EAD280D493678
:1057B0007F02010103704E414E700F180D4161517F
:1057C0004945437F0808087F3E0F123E14417F4140
:1057D00018317F08142241700E010E707F020C02F6
:1057E0007F7F0408107F635D495D633E4141413E18
:1057F000413F013F417F0909090663554941410184
:10580000017F51180B017E010308557F5508637D08
:1058100010256307487F48075E6101615E38444890
:10582000304C7C2A2A2A144438040408304B4D5941
:10583000302854544420100F185552223E040202BE
:105840007C3C4A4A4A3C143C4020182D7C10284499
:105850004041320C30407E2020103E1C2040201C55
:10586000142B2A2A603844444438443C047C447055
:10587000282424180C121252141E4C5424043C4A9E
:105880001B3C4028180818247E241844284210196C
:105890000C107E100C38443044380A0A4A2A1E0480
:1058A0004434140C20107804181618084C48384852
:1058B000487848484828187C08087C082818401070
:1058C00016405454547C12182D5840380801182F93
:1058D00001413D090710087C02010E0243221E42CD
:1058E000427E424222120A7F02423F02423E0A0A9E
:1058F0007F0A0A084642221E0403423E0242011861
:10590000097E024F221F024A4A87192910182A4687
:10591000023F424A46064840201E08464A321E0AB6
:105920004A3E09080E10094E201E04453D05041488
:105930007F08101F44241F0404403C100C40422ADE
:10594000122A0622127B16221440201F12781D02F2
:1059500004783FF01A445B1964100F0204083032D7
:10596000027F0232021222520E180B2A2A2A4038D3
:105970002422207040EB180C060A3E4A4A4A047F53
:1059800004140C4B1B7E400D28094A7E0405452556
:105990001C0F4B127C18097E40307E40201008C13D
:1059A0001D427E0E025019711720180204010234A4
:1059B000070507401008040C020A060E0109050D30
:1059C000030B070F1C01020320300B03040607081A
:0C59D000090204060884A24A04691AC1F6
:0400000508000131BD
:00000001FF
