:020000040801F1
:10000000E01B00204D01010831140108510D0108C9
:100010002D140108A5060108B929010800000000F7
:10002000000000000000000000000000171A010896
:10003000A906010800000000D9140108291B0108C5
:10004000E529010867010108670101086701010846
:1000500067010108670101086701010867010108DC
:100060006701010821070108350701086701010838
:1000700067010108670101086701010867010108BC
:1000800067010108670101086701010867010108AC
:10009000670101086701010867010108C907010834
:1000A000670101086701010867010108670101088C
:1000B0008D1B0108691C0108A51D010867010108C5
:1000C00067010108E10D0108550D010867010108EC
:1000D000670101085123010867010108E9230108AC
:1000E000AD06010867010108670101086701010801
:1000F000670101086701010867010108670101083C
:10010000670101086701010867010108670101082B
:10011000A1220108F922010867010108670101080D
:10012000670101086701010867010108670101080B
:10013000DFF80CD000F08AF900480047C1420108FE
:10014000E01B002080F308887047000006488047C5
:1001500006480047FEE7FEE7FEE7FEE7FEE7FEE7AC
:10016000FEE7FEE7FEE7FEE72D1B0108310101086F
:1001700040EA01039B0703D009E008C9121F08C029
:10018000042AFAD203E011F8013B00F8013B521EA9
:10019000F9D27047D2B201E000F8012B491EFBD220
:1001A00070470022F6E710B513460A460446194682
:1001B000FFF7F0FF204610BDF0B480EA0102D40F33
:1001C0004200B2EB410F02D20246084611464A00F5
:1001D00042D0C30DDDB2C1F3C752AD1A202D35DABE
:1001E000C1F3160141F4000204B15242C5F12006E8
:1001F00002FA06F12A411044B3EBD05F23D0C4B118
:10020000012DA0EBC35009DCF0BC4FF0004202EA24
:10021000C352DBB200F5000000F0E9B8400000F185
:10022000807000EBC350A0F1807040EAD1704900AB
:1002300009E0490841EAC071A0EBC35000F5000095
:10024000400800EBC350F0BC00F0C8B86142012286
:1002500002EB4101001BF6E7F0BC704781F0004162
:10026000AAE780F00040A7E780EA010210B502F09B
:100270000043400022D04A001FD0010E01EB126162
:10028000C0F35600C2F3560240F4000042F40002EC
:10029000A0FB022000047F39140400D0401C50EA67
:1002A000124001D44000491EC2B20C0604EBD0102B
:1002B000401C4008802A02D003E0002010BD20F03E
:1002C0000100002900DA0020184310BD30B480EA94
:1002D000010202F0004530F0004221F0004013D04E
:1002E00090B1C30DD40DC2F31601C0F31600E41A89
:1002F00041F4000140F400027D34914201D3641CBA
:1003000000E04900002C02DA30BC002070474FF4B6
:1003100000000023914201D3891A034340084FEAA9
:100320004101F7D151B1914202D14FF0004105E0B6
:1003300002D24FF0010101E06FF0010103EBC45064
:10034000284430BC00F04AB896230022114600F041
:100350004EB820F00040C10DC0F3160040F400007C
:100360007F2901DA00207047962903DCC1F196014C
:10037000C84070479639884070472DE9F05F0546C0
:10038000002092469B4688460646814640241BE054
:10039000284641464746224600F079F853465A46D9
:1003A000C01A914110D311461846224600F060F859
:1003B0002D1A67EB01084F4622460120002100F06C
:1003C00057F817EB00094E41201EA4F10104DFDCB1
:1003D000484631462A464346BDE8F09F0029A8BF5B
:1003E0007047401C490008BF20F00100704710B45E
:1003F000B0FA80FC00FA0CF050EA010404BF10BC13
:10040000704749B1CCF1200421FA04F411FA0CF13F
:1004100018BF012121430843A3EB0C01CB1D4FEA78
:1004200000614FEA102042BF002010BC704700EB73
:10043000C35010440029A4BF10BC7047401C4900A1
:1004400008BF20F0010010BC70470000064C074DAB
:1004500006E0E06840F0010394E807009847103494
:10046000AC42F6D3FFF768FE5850010878500108F7
:10047000202A04DB203A00FA02F100207047914064
:10048000C2F1200320FA03F3194390407047202A59
:1004900004DB203A21FA02F00021704721FA02F32E
:1004A000D040C2F12002914008431946704770B510
:1004B0008C1810F8015B15F0070301D110F8013B0F
:1004C0002A1106D110F8012B03E010F8016B01F896
:1004D000016B5B1EF9D12B0705D40023521E0DD4EE
:1004E00001F8013BFAE710F8013BCB1A921C03E03C
:1004F00013F8015B01F8015B521EF9D5A142D8D374
:10050000002070BD70B50446002660882D286FD08D
:100510000EDC242835D006DC07286AD0222816D025
:10052000232867D120E0252860D02A28F9D155E07A
:10053000612875D006DC2E2867D0472849D0482886
:10054000EFD12BE062286CD07B28EAD185E02079BE
:100550004D4981F82200084690F82200242802D153
:10056000022081F86B008CE02079474981F8230054
:10057000084690F82300242802D1022081F86C005C
:100580007FE02079404981F82400084690F8240053
:10059000242802D1022081F86D0072E020793A49C6
:1005A00081F84800084690F8480000F07F06102EB9
:1005B0000BDA002506E0201D415D334A05F14900B4
:1005C00011546D1CB542F6DB02E030A002F06AFA6D
:1005D00057E020792C4981F8470052E020792A49D8
:1005E00081F82A00607981F82C004AE0002509E0B2
:1005F00018E037E044E0201D415D05F12500224A66
:1006000011546D1C052DF6DB3BE020791E4981F865
:100610002E00A08A012802DD207981F82F0030E029
:1006200024E028E02079184981F82D00084690F848
:100630002D0000F07F06102E0BDA002506E0201DAD
:10064000415D114A05F1320011546D1CB542F6DBD3
:1006500002E00EA002F026FA13E020790A4981F8A0
:100660007B000EE020790849C8710AE0207906492C
:1006700081F8610005E02079034981F8620000E01B
:1006800000BF00BF70BD0000C415002073656E641C
:100690002064617461206C656E206572726F7221D6
:1006A0000A00000000BFFEE77047000010B54FF4DD
:1006B000006000F05BF958B31648007820B1154887
:1006C000007800F00400F8B113480068012813D145
:1006D000102000F045F9402000F042F90F48006872
:1006E00020F040000D4908600846006820F0100026
:1006F000086000200849086003F02AF905480078DE
:1007000040F00400034908704FF4006000F028F93D
:1007100010BD000076000020800000200004014091
:1007200010B5082000F022F910B1082000F018F9E7
:1007300010BD000010B5102000F018F900283BD0C3
:100740001E48007820B11D48007800F0020080B3F8
:100750001B480068012824D1202000F001F9402026
:1007600000F0FEF8802000F0FBF84FF4006000F08D
:10077000F7F81448006820F0200012490860084685
:10078000006820F0400008600846006820F0800003
:1007900008600846006820F40060086000200849EE
:1007A000086003F0D5F80548007840F002000349DE
:1007B0000870102000F0D4F810BD00007600002072
:1007C000800000200004014010B5202000F0CEF889
:1007D00000283BD05F48007820B15E48007800F0E8
:1007E000010080B35C480068012824D1102000F08B
:1007F000B7F8402000F0B4F8802000F0B1F84FF4D2
:10080000006000F0ADF85548006820F01000534932
:1008100008600846006820F040000860084600684C
:1008200020F0800008600846006820F4006008603E
:1008300000204949086003F08BF84648007840F0F2
:10084000010044490870202000F08AF8402000F0A0
:100850008DF800283BD03F48007820B13D48007813
:1008600000F0080080B33C480068012824D1102023
:1008700000F076F8202000F073F8802000F070F887
:100880004FF4006000F06CF83448006820F020005D
:10089000324908600846006820F0100008600846E9
:1008A000006820F0800008600846006820F40060BE
:1008B000086000202849086003F04AF825480078BD
:1008C00040F0080023490870402000F049F88020DB
:1008D00000F04CF800283BD01E48007820B11D489D
:1008E000007800F0100080B31B480068012824D174
:1008F000102000F035F8202000F032F8402000F001
:100900002FF84FF4006000F02BF81448006820F036
:100910002000124908600846006820F04000086086
:100920000846006820F0100008600846006820F4BF
:100930000060086000200849086003F009F80548D5
:10094000007840F0100003490870802000F008F89B
:1009500010BD00007600002080000020000401404F
:10096000014908607047000014040140014600205E
:100970000022074B1B6803EA0102054B14331B6876
:100980000B4013B10AB1012000E0002070470000C5
:1009900000040140002123498279002A3AD00A4606
:1009A000126803689A430B461A600A1D12680368AE
:1009B0009A430B1D1A60027911440A6803681A43AE
:1009C0000A60184A0832126803689A43154B0833C4
:1009D0001A601A1D126803689A43124B0C331A608E
:1009E0004279102A0ED11A1F126803681A430D4B60
:1009F00008331A601A1D126803681A43094B0C3336
:100A00001A600DE00749427911440A6803681A43E5
:100A10000A6005E0027911440A6803689A430A6093
:100A2000704700000004014030B5044604254FF42F
:100A3000302000F06FF80546042D17D10C480069EE
:100A400040F002000A49086108464461006940F02C
:100A5000400008614FF4302000F05CF8054604487F
:100A6000006941F6FD71084001490861284630BD22
:100A70000020024004200B49C96801F0010109B1BE
:100A800001200EE00749C96801F0040109B1022004
:100A900007E00449C96801F0100109B1032000E032
:100AA00004207047002002400348006940F08000A5
:100AB00001490861704700000020024070B50446FB
:100AC0000D460426F00200F025F80646042E11D14A
:100AD0000948006940F00100074908612580F002DB
:100AE00000F018F806460448006941F6FE71084017
:100AF00001490861304670BD0020024002480349A8
:100B00004860034848607047230167450020024061
:100B1000AB89EFCD00B502460423FFF7ABFF0346D8
:100B200003E0FFF7A7FF0346521E012B01D1002A65
:100B3000F7D102B90523184600BD000030B50022E8
:100B40008B071C0F0F2303FA04F20B4B8C1053F886
:100B500024309343084C8D1044F8253023468C10E4
:100B600053F824308C07240F00FA04F42343024C7A
:100B70008D1044F8253030BD080001402DE9F041CA
:100B8000024600250026002000230024002791F8BB
:100B900003C00CF00F0591F803C00CF0100CBCF171
:100BA000000F03D091F802C04CEA050591F800C08F
:100BB000BCF1000F31D0146800202BE04FF0010C85
:100BC0000CFA00F3B1F800C00CEA03069E4220D1F3
:100BD00083004FF00F0C0CFA03F7BC4305FA03FC3B
:100BE0004CEA040491F803C0BCF1280F06D14FF081
:100BF000010C0CFA00FCC2F814C00AE091F803C022
:100C0000BCF1480F05D14FF0010C0CFA00FCC2F802
:100C100010C0401C0828D1D31460B1F800C0BCF14A
:100C2000FF0F34DD546800202EE000F1080C4FF077
:100C3000010808FA0CF3B1F800C00CEA03069E4262
:100C400021D183004FF00F0C0CFA03F7BC4305FAD7
:100C500003FC4CEA040491F803C0BCF1280F05D151
:100C600000F1080C08FA0CF8C2F8148091F803C0DF
:100C7000BCF1480F07D100F1080C4FF0010808FA49
:100C80000CF8C2F81080401C0828CED35460BDE890
:100C9000F0810000F0B50A46002300240021002561
:100CA00000F00046B6F1004F02D11D4EF16901E09F
:100CB0001B4E7168C0F3034583B200F44016B6F5CD
:100CC000401F08D121F07061154E766826F07066DD
:100CD000134F7E6012E000F48016B6F5801F06D137
:100CE000032606FA05F4A14341F0706106E0460DC3
:100CF000360103FA06F6B14341F0706122B1460DA8
:100D0000360103FA06F6314300F00046B6F1004F13
:100D100002D1034EF16101E0014E7160F0BD0000AF
:100D2000000001400246002093680B400BB10120F7
:100D300000E00020704702460020D3680B400BB152
:100D4000012000E000207047416170470161704759
:100D500000BFFEE708B50020009020480088009002
:100D6000009800F48060B0F5806F08D11B480088BF
:100D70004FF6FF3108401949088000200090009884
:100D800000F40070B0F5007F08D1144800884FF6D9
:100D9000FF3108401149088000200090009800F4BD
:100DA0008070B0F5807F08D10C4800884FF6FF6155
:100DB00008400A49088000200090009800F4006074
:100DC000B0F5006F08D1054800884FF2FF71084068
:100DD000024908800020009008BD0000145800401F
:100DE0000CB50020019000902E48008801902D48FD
:100DF000001D00880090009800F0010000284FD1ED
:100E0000019800F08200822802D100200190009019
:100E1000019800F00200022806D100200190009005
:100E20002149087021490870019800F0800080284D
:100E300009D11F481D490978405C1A49091F0880DB
:100E4000002001900090019800F04000402817D148
:100E50001548007850B91348001F008813490870DE
:100E600011480078401C1049087006E00D48001F2A
:100E700000880F490D4A1278885400200190009094
:100E8000019800F0100010280AD106481438008894
:100E900040F00100034914390880002001900090BF
:100EA0000CBD00001458004030000020310000202C
:100EB000C415002021B1028842F00102028004E042
:100EC00002884FF6FE731A400280704710B5044640
:100ED0000B48844209D10121480500F02FFC002174
:100EE0004FF4001000F02AFC08E00121880500F012
:100EF00025FC00214FF4800000F020FC10BD000014
:100F0000005400401AB183880B43838002E0838839
:100F10008B438380704700002DE9F04385B0044681
:100F20000D460026B1460427DFF8CC80A6884FF690
:100F3000C0700640684600F03FFCDDF808802F488E
:100F4000B8FBF0F01FFA80F946EA0906A68020886F
:100F50004FF6FE7108402080002629492868884203
:100F60000CD828684000B8FBF0F087B2042F00DAF4
:100F700004273E4309F10100208427E0E8884BF66E
:100F8000FF71884206D1286800EB4000B8FBF0F002
:100F900087B209E0286800EBC00101EB0010B8FB44
:100FA000F0F087B247F48047C7F30B0008B947F069
:100FB000010747F4004006434FF4967009FB00F028
:100FC0004FF47A7190FBF1F0401C2084A6832088B6
:100FD00040F00100208026884FF6F5300640A888B2
:100FE0006989084306432680A88929890843208106
:100FF00005B0BDE8F083000000127A0040420F0007
:10100000A086010010B504460021204600F062F8D9
:10101000204600F055FC0021204600F061F8022037
:1010200002F082F80121204600F054F8022002F07C
:101030007BF80021204600F04DF810BD10B50446A5
:101040000021204600F046F8204600F039FC01213E
:10105000204600F045F8022002F066F80121204603
:1010600000F038F8022002F05FF80021204600F07E
:1010700031F810BD2DE9F04107460D460026002449
:10108000384600F00DFC00BF17E00021384600F0A4
:1010900021F8022002F048F80121384600F01AF841
:1010A0006006040E384600F0F1FB08B1601CC4B2C3
:1010B000012002F039F8701CC6B2082EE5DB1DB91C
:1010C0003846FFF7BBFF02E03846FFF79BFF20469C
:1010D000BDE8F08108B9014A11607047988121424A
:1010E00008B9014A116070479C81214270B50646DB
:1010F0000C46304600F0E4FB00213046FFF7EAFFE3
:1011000000251FE0E00920B101213046FFF7E8FF8C
:1011100003E000213046FFF7E3FF6006040E0220E3
:1011200002F002F801213046FFF7D4FF022001F05F
:10113000FBFF00213046FFF7CDFF022001F0F4FF56
:10114000681CC5B2082DDDDB70BD10B50446204615
:1011500000F0B6FB01212046FFF7C2FF0121204627
:10116000FFF7B8FF042001F0DFFF00212046FFF762
:10117000B7FF042001F0D8FF00212046FFF7AAFFA7
:1011800010BD10B50446204600F09AFB0021204611
:10119000FFF7A0FF00212046FFF7A2FF042001F087
:1011A000C3FF01212046FFF795FF01212046FFF7ED
:1011B00097FF042001F0B8FF10BD70B5054600246C
:1011C000284600F06DFB012001F0AEFF012128460A
:1011D000FFF780FF012001F0A7FF08E0601CC4B208
:1011E000FA2C04DD2846FFF7CCFF012070BD28460D
:1011F00000F04CFB0028F1D100212846FFF76AFFE0
:101200000020F3E74CF6CC4001490860704700002D
:101210000030004010B500F01BF810BD70B5054659
:101220000C4645F2555000F027F8284600F018F813
:10123000204600F01BF800F00BF8FFF7E3FF024830
:1012400000680249086070BD34000020440000209E
:101250004AF6AA20014908607047000000300040AB
:101260000149486070470000003000400149886033
:1012700070470000003000400149086070470000DE
:101280000030004010B50446206809490840B0F11C
:10129000005F0BD107A001F005FC60680B490860F6
:1012A0002068FEF74FFF09480068804710BD000026
:1012B0000000FE2F7374617274206A756D70207463
:1012C0006F2061707061646472210A00C00D00209B
:1012D00000210020264A1268264B1B68D11A0029DB
:1012E00000DA4942244A1278914219DB204A1268F6
:1012F000204B1A60214A127802F0100282B11F4A74
:10130000127822F010021D4B1A701D4A126802F06A
:1013100040022AB91A4A126842F04002184B1A6079
:10132000134A1268174B1B68D01A002800DA404293
:10133000114A1278904219DB0D4A1268114B1A605B
:101340000E4A127802F0200282B10C4A127822F082
:1013500020020A4B1A700A4A126802F010022AB9D7
:10136000074A126842F01002054B1A6070470000ED
:101370003C000020840000208C0000207C00002025
:1013800000040140880000202DE9F04105460E468A
:1013900014464FEAE27C02EB9C7CCCF387074FEAD1
:1013A000E27C02EB9C7C4FEAAC0CA2EB8C0C0CF0C8
:1013B000FF01042404EBC104E1B2C3F1040405FA03
:1013C00004F00F241C413440204300F00F00202A79
:1013D0000CDA4FF0E024D4F800C1012494404CEA28
:1013E000040C4FF0E024C4F800C10DE00D4C24685B
:1013F000A2F1200C4FF0010808FA0CF844EA0804A6
:101400004FF0E02CCCF80441074CE45D00FA01FCFD
:1014100044EA0C0404F0FF0C034C04F807C0BDE8D8
:10142000F081000004E100E000E400E000BFFEE71E
:10143000704708B51E208DF8000003208DF80100CC
:1014400002208DF8020001208DF80300684600F0AC
:1014500001F808BD70B5002100230F22C47804B341
:10146000154C246804F4E064C4F5E064210AC1F179
:101470000403CA40447804FA03F1847814402143F9
:1014800009010E4C0678A155047804F01F050124CB
:10149000AC4005786D11AD0005F1E025C5F80041BF
:1014A00009E0047804F01F050124AC40044D0678DF
:1014B000761145F8264070BD0CED00E000E400E038
:1014C00080E100E002490143024A116070470000D8
:1014D0000000FA050CED00E0704710B502460B461F
:1014E0000020002104E0545C0444E0B24C1CA1B292
:1014F0009942F8DB10BD000010B50446054800789D
:10150000012805D1002003490870204601F086F922
:1015100010BD0000320000202DE9F04107460D46C5
:1015200014461E464EF6AA30208068886080A68247
:1015300017212046FFF7D1FF8046C8F10000E07573
:1015400018222146384601F0D9F8BDE8F0810000A4
:101550002DE9F84307463D4C3D4D4FF0000800266D
:10156000B146384601F0DEF9012869D1182120463C
:10157000FEF717FE18212846FEF713FE384601F045
:101580000FF92146384601F087F918212046FFF768
:10159000A4FF0646002E44D120884EF6AA31884288
:1015A0003FD1A08A10283CDC6088072830DA6288A6
:1015B000314628A001F076FA6088032802D0062878
:1015C00022D111E04FF000084146284600F08AF889
:1015D0004B462A4621463846FFF79EFF23A001F0DE
:1015E00061FA00F06DF812E000F064F828714FF035
:1015F00000084FF001092879214B942221A1009085
:1016000025A001F04FFA02E00120A87500BF0DE00F
:10161000628831460FA001F045FA2046FEF772FFBE
:1016200004E00120224908700320A875414628469D
:1016300000F058F84B462A4621463846FFF76CFF23
:101640003846FFF759FFBDE8F883000082160020F6
:101650009A160020636865636B53756D3D25642C95
:1016600020636D643D30782578200A007265626FD2
:101670006F7420666F7220757067726164650A000E
:10168000EC4F0108557365725C7372635C70726F26
:10169000636573732E6300002573282564292D3C30
:1016A00025733E3A7665723A307825780A00000054
:1016B000320000200148007870470000330000200D
:1016C00008B545F2AA50009001226946044800F08E
:1016D0001BF94FF00060FFF7D5FD002008BD0000AA
:1016E0000400070811B9002282750DE04A1C12B9E6
:1016F0000222827508E0012902D10122827503E0ED
:10170000022901D103228275704700000A20024994
:101710000870032048707047C415002029B1064A9C
:10172000D2690243044BDA6104E0034AD26982437E
:10173000014BDA61704700000010024029B1064AEF
:1017400012690243044B1A6104E0034A126982439E
:10175000014B1A61704700000010024029B1064A8F
:1017600092690243044B9A6104E0034A92698243FE
:10177000014B9A61704700000010024029B1064AEF
:10178000D2680243044BDA6004E0034AD268824321
:10179000014BDA60704700000010024010B50121D3
:1017A0000448FFF7BBFF012144F27D00FFF7D6FF9D
:1017B00010BD000002485E0030B500210022002468
:1017C00000232D4D6D6805F00C0121B1042905D0D1
:1017D000082923D105E0294D056022E0274D056049
:1017E0001FE0254D6D6805F47012234D6D6805F4FA
:1017F0008034022505EB92421CB9214D554305600A
:101800000BE01D4D6D6805F400351DB11C4D5543B1
:10181000056002E0194D5543056002E0174D056073
:1018200000BF00BF144D6D6805F0F0010909154DAA
:101830006B5C0568DD4045600F4D6D6805F4E06147
:10184000090A104D6B5C4568DD4085600A4D6D6886
:1018500005F46051C90A0B4D6B5C4568DD40C560FD
:10186000054D6D6805F44041890B074D6B5CC568FB
:10187000B5FBF3F5056130BD0010024000127A009F
:1018800000093D008A0D00209A0D0020014619B97B
:1018900002480068C0B270470020FCE71C8121426A
:1018A00050B90649096821F07041044A1160114697
:1018B000096841F08041116070470000000C014050
:1018C00050B90649096821F07041044A1160114677
:1018D000096841F0E041116070470000000C0140D0
:1018E00030B503460C461546002207E0184600F0C6
:1018F00008F824F812009B1C501C82B2AA42F5DBA7
:1019000030BD0146088870472DE9F05F80468A4661
:101910001746B8F1006F02D33348804501D3BDE8C4
:10192000F09FFFF7EBF8A8F1006B4FEADB26CBF353
:101930004909C9F58064A74200DC3C464DE04FF000
:10194000006101EBC6204A142849FFF7C9FF0025B2
:101950000BE009EB0500254931F810004FF6FF7147
:10196000884200D003E0681C85B2A542F1DB00BFCD
:10197000A5421BDA4FF0006101EBC620FFF754F8D7
:10198000002508E03AF8150005EB0901174A22F88E
:101990001100681C85B2A542F4DB4FF0006101EB39
:1019A000C6204A14114900F023F804E022465146AB
:1019B000404600F01DF8A74200D10FE0761C4FF022
:1019C00000090AEB440AA044381B87B2B7F5806FC0
:1019D00002DD4FF4806400E03C46B0E700BFFFF753
:1019E00063F800BF9BE7000000000808C40D00205A
:1019F0002DE9F04105460E461746002407E036F86B
:101A000014102846FFF75AF8AD1C601C84B2BC4283
:101A1000F5DBBDE8F081704710B500F001F810BDAE
:101A20000CB50020019000903348006840F48030ED
:101A30003149086000BF3048006800F40030009071
:101A40000198401C0190009818B90198B0F5A06F5A
:101A5000F1D12948006800F4003010B10120009055
:101A600001E0002000900098012843D1234800683D
:101A700040F01000214908600846006820F003008B
:101A800008600846006840F0020008601A48406894
:101A9000194948600846406848600846406840F474
:101AA000806048600846406820F47C104860084622
:101AB000406840F4E81048600846006840F08070D4
:101AC000086000BF0C48006800F000700028F9D0E2
:101AD0000948406820F0030007494860084640680C
:101AE00040F00200486000BF0348406800F00C006E
:101AF0000828F9D10CBD000000100240002002406F
:101B0000042808D14FF0E021096941F004014FF0A9
:101B1000E022116107E04FF0E021096921F00401A2
:101B20004FF0E022116170477047000010B5124875
:101B3000006840F0010010490860084640680F49FD
:101B400008400D494860084600680D4908400A49A8
:101B500008600846006820F4802008600846406855
:101B600020F4FE0048604FF41F008860FFF754FF28
:101B700004480549086010BD001002400000FFF84D
:101B8000FFFFF6FE0000010808ED00E010B52F4849
:101B90000088401C2D4908802D480088401C2C4995
:101BA00008802C480068401C2A49086008460068E4
:101BB00040F6B831884232D12748007800F0200042
:101BC00020280AD02548006800F0100028B92348D2
:101BD000006840F01000214908601F48007800F0BC
:101BE000100010280AD01D48006800F0400028B9F5
:101BF0001A48006840F0400018490860174800681B
:101C000000F4807028B91548006840F4006013495A
:101C1000086000200F490860012011490860114840
:101C2000007868B109480088B0F5617F08D10D4897
:101C3000007800200B490870044908800449088096
:101C40000121880700F099F910BD00007000002004
:101C500072000020780000207C0000200004014079
:101C6000800000207600002010B50121204800F0FF
:101C7000A2F900283AD001211D4800F07EF91D4844
:101C80000068401C1B4908601B480068401C1A493A
:101C9000086008460068B0F1FF3F01D100200860ED
:101CA0001448006842F21071884207D31348006854
:101CB000401C1249086000200E4908600F48006867
:101CC0006FF00041884202D100200C49086047F2C1
:101CD0003052094801680A48006801F0BBFC28B18D
:101CE000FFF798FA044800680549086010BD000035
:101CF0000004004038000020340000203C00002098
:101D0000440000207FB505460C4601210220FFF764
:101D100005FDADF80850ADF804400020ADF80A000C
:101D2000ADF8060001A9104800F068FA01210E483C
:101D300000F020F9012211460B4800F04DF91D205A
:101D40008DF8000002208DF8010003208DF80200BC
:101D500001208DF803006846FFF77CFB0121024853
:101D600000F00EF97FBD00000004004010B500F047
:101D700003F800F0A1F810BD08B501210803FEF733
:101D800089FF4FF46040ADF8000018208DF8030083
:101D900003208DF8020069460148FEF7EFFE08BDFA
:101DA0000014014010B501213D4800F004F900285D
:101DB00075D03C48006800B33B480088384938314A
:101DC00008803A48007828B137480068801C3649B6
:101DD000086004E034480068801E334908603248D7
:101DE0000068B0F5FA7F02DD0020304908702E4807
:101DF000006810B901202D4908702D48006800B313
:101E00002948008826493C3108802848007828B1B4
:101E100025480068801C2449086004E022480068C6
:101E2000801E2149086020480068B0F5FA7F02DD75
:101E300000201E4908701C48006810B901201B4989
:101E400008701C48006800B31748008814494031E6
:101E500008801648007828B113480068801C124991
:101E6000086004E010480068801E0F4908600E48B2
:101E70000068B0F5FA7F02DD00200C4908700A48BE
:101E8000006810B901200949087001F02DFF02F027
:101E900065F901F0A3FF0121014800F06EF810BDC3
:101EA0000008004050000020480000204C000020A6
:101EB000580000205400002000B587B00121042004
:101EC000FFF72CFC4FF4FA70ADF8140040F2A46058
:101ED000ADF810000020ADF81600ADF8120004A90E
:101EE0001D4800F08BF96020ADF800000120ADF82E
:101EF00002000020ADF80600ADF80800694616485B
:101F000000F074F80821144800F0C2F8694612483D
:101F100000F0CCF80821104800F018F969460E4886
:101F200000F01EF908210C4800F058F901210A4878
:101F300000F014F80121084800F022F801221146AF
:101F4000054800F049F8FFF774FA0121032002F078
:101F500075F807B000BD00000008004021B10288FC
:101F600042F08002028004E002884FF67F731A403C
:101F700002807047CA4302827047CA430282704798
:101F800021B1028842F00102028004E002884FF68B
:101F9000FE731A400280704731B1B0F8442042F419
:101FA0000042A0F8442005E0B0F84420C2F30E023D
:101FB000A0F84420704730B50246002000230024DA
:101FC000158A05EA0103958905EA010413B10CB1EC
:101FD000012000E0002030BD1AB183890B438381CA
:101FE00002E083898B4383817047000070B5002431
:101FF00000220023058C4FF6EF7635400584028CD5
:102000008388048B48F6FF752C404FF6FF452C4023
:102010000D884FF6FF7606EA05252C434FF6DF754F
:102020002A400D8906EA05152A434D8806EA05155A
:102030002A43154DA84202D0144DA8421DD14FF697
:102040007F752A404D894FF6FF7606EA05152A432B
:102050004FF6BF752A408D8806EA05152A434FF6CC
:10206000FF352B404FF2FF752B408D8906EA850521
:102070002B43CD8906EA85052B4383800483CD88D5
:102080000587028470BD0000002C0140003401402F
:102090000A460021018B4FF2FF7319404FF6FF7380
:1020A00003EA0223194301837047000070B500243E
:1020B00000220023058C4FF6FF6635400584028C14
:1020C0008388848B4FF68F752C404FF6FC752C401F
:1020D0000D882C434FF6FF552A400D894FF6FF76A9
:1020E00006EA05252A434D8806EA05252A43154DAB
:1020F000A84202D0144DA8421DD14FF2FF752A40CC
:102100004D894FF6FF7606EA05252A434FF6FF353F
:102110002A408D8806EA05252A434EF6FF752B4096
:102120004DF6FF752B408D8906EA05152B43CD89A9
:1021300006EA05152B4383808483CD888587028436
:1021400070BD0000002C0140003401400A4600210F
:10215000818B4FF6F773194011438183704700005C
:1021600070B5002200230024058C4EF6FF76354022
:102170000584038C8488828B48F6FF752A404FF6CD
:10218000FF452A400D884FF6FF7606EA05252A43CB
:102190004DF6FF752B400D8906EA05352B434D881A
:1021A00006EA05352B430B4DA84202D00A4DA84242
:1021B00008D14BF6FF752C408D894FF6FF7606EA65
:1021C00085152C4384808283CD88A0F840500384F9
:1021D00070BD0000002C0140003401400A4600217F
:1021E000818B4FF2FF7319404FF6FF7303EA02230E
:1021F00019438183704701877047000000220288DD
:102200001D4B98420ED01D4B98420BD0B0F1804F21
:1022100008D01B4B984205D01A4B984202D01A4B5B
:10222000984204D14FF68F731A404B881A43174BCC
:10223000984207D0164B984204D04FF6FF431A40FD
:10224000CB881A4302808B8883850B8803850A4BD1
:1022500098420BD0094B984208D00E4B984205D0BB
:102260000D4B984202D00D4B984201D10B7A038658
:102270000123838270470000002C0140003401409C
:102280000004004000080040000C00400010004026
:10229000001400400040014000440140004801405B
:1022A00010B540F22551104800F049F9A8B10E4888
:1022B00000F000FAC4B20D480D49098844540C4896
:1022C0000088401C0A49088008460088172804DD59
:1022D0000020088001200749087040F2255102487B
:1022E00000F0B7F810BD0000004C0040E2160020DE
:1022F000620000205E00002010B540F22551104819
:1023000000F01DF9A8B10E4800F0D4F9C4B20D4890
:102310000D49098844540C480088401C0A4908802B
:1023200008460088172804DD00200880012007499E
:10233000087040F22551024800F08BF810BD0000F3
:1023400000500040FA160020640000205F000020CA
:1023500010B51FA000F0A6FB40F225511F4800F069
:10236000EEF810B31D4800F0A5F9C4B21C4800886F
:1023700000F40040C8B91A48008800F4804060B1F9
:102380000A2C03D000201649088020E01448008859
:1023900040F400401249088019E00D2C06D1104885
:1023A000008840F480400E49088010E00C48008806
:1023B000C0F30D000B490C5409480088401C084923
:1023C000088008460088C72801DD0020088010BD6D
:1023D00032303139303432320A0D000000380140D9
:1023E000B80D00201217002010B540F225511048FA
:1023F00000F0A5F8A8B10E4800F05CF9C4B20D4891
:102400000D49098844540C480088401C0A4908803A
:1024100008460088172804DD0020088001200749AD
:10242000087040F22551024800F013F810BD00007A
:1024300000480040CA160020600000205D00002017
:1024400001F40072B2F5007F00D100BFCA430280E0
:10245000704710B50022002340F66A14A14200D153
:1024600000BF0A1201249440A3B2DC43048010BDD3
:1024700021B1828942F40052828104E082894DF6C2
:10248000FF731A408281704710B504462048844289
:1024900009D101218803FFF771F900214FF4804031
:1024A000FFF76CF932E01B48844209D1012148044E
:1024B000FFF744F900214FF40030FFF73FF925E022
:1024C0001548844209D101218804FFF737F900211A
:1024D0004FF48020FFF732F918E01048844209D108
:1024E0000121C804FFF72AF900214FF40020FFF76B
:1024F00025F90BE00A48844208D101210805FFF7BD
:102500001DF900214FF48010FFF718F910BD0000ED
:10251000003801400044004000480040004C0040AA
:102520000050004002460020B1F5007F00D100BFFE
:1025300013880B400BB1012000E00020704770B5FC
:102540000246002400230025002040F66A16B1420E
:1025500000D100BFC1F3421501F01F03012606FAA6
:1025600003F3012D02D19689334006E0022D02D1FA
:10257000168A334001E0968A33400C12012606FA8F
:1025800004F41688344013B10CB1012000E000209F
:1025900070BDF0B50346002400260025002040F65B
:1025A0006A17B94200D100BF1846C1F3421401F0C6
:1025B0001F06012707FA06F5012C01D10C3004E0B3
:1025C000022C01D1103000E014301AB107682F43FB
:1025D000076002E00768AF430760F0BD2DE9F047F0
:1025E00086B005460E460024A24600BFA14600273D
:1025F000B08900B100BF2F462C8A4CF6FF70044012
:10260000F08804432C82AC894EF6F3100440B08865
:1026100031890843718908430443AC81AC8A4FF681
:10262000FF400440B0890443AC8201A8FFF7C4F81E
:102630001F48874202D1DDF810A001E0DDF80CA0B0
:10264000A88900F4004040B10AEBCA0000EB0A1070
:1026500031684900B0FBF1F807E00AEBCA0000EB73
:102660000A1031688900B0FBF1F86420B8FBF0F083
:1026700004012009642101FB1089A88900F40040AD
:1026800040B1322000EBC900B0FBF1F000F00700D0
:10269000044308E0322000EB09106421B0FBF1F0A4
:1026A00000F00F0004432C8106B0BDE8F087000065
:1026B0000038014001468888C0F308007047C1F324
:1026C000080282807047F0B507460D461646002482
:1026D00040213846FFF7B4FE00BF0CE0295D3846C4
:1026E000FFF7EDFF00BF40213846FFF71BFF012831
:1026F000F9D1601CC4B2B442F0DBF0BDF8B50446B9
:102700000D461646012C05D1324629461248FFF7E0
:10271000DAFF1FE0022C05D1324629460F48FFF7A9
:10272000D2FF17E0032C05D1324629460C48FFF7AB
:10273000CAFF0FE0042C05D1324629460948FFF7AD
:10274000C2FF07E0084B4FF4B77208A10CA0009439
:1027500000F0A8F9F8BD000000480040004C00401F
:102760000050004000380140485001085573657220
:102770005C7372635C75736172742E630000000099
:102780002573282564292D3C25733E3A756E6B6EA2
:102790006F776E2075736172742025780A000000CF
:1027A00038B50446012C03D100200B49087012E013
:1027B000022C03D10020094908700CE0032C03D13E
:1027C00000200749087006E0064B412206A10BA035
:1027D000009400F067F938BD5D0000205E00002025
:1027E0005F0000200F500108557365725C737263BF
:1027F0005C75736172742E630000000025732825D8
:1028000064292D3C25733E3A756E6B6E6F776E2092
:1028100075736172742025780A00000038B504468B
:10282000012C03D100200B49088012E0022C03D1B7
:102830000020094908800CE0032C03D1002007493F
:10284000088006E0064B552206A10BA0009400F07C
:1028500029F938BD600000206200002064000020DB
:1028600023500108557365725C7372635C75736104
:1028700072742E63000000002573282564292D3C06
:1028800025733E3A756E6B6E6F776E20757361724D
:10289000742025780A00000038B504460D46012C46
:1028A00005D118220E492846FDF762FC16E0022CDD
:1028B00005D118220B492846FDF75AFC0EE0032CDF
:1028C00005D1182208492846FDF752FC06E0074BBF
:1028D000692207A10BA0009400F0E4F838BD0000C5
:1028E000CA160020E2160020FA1600203650010811
:1028F000557365725C7372635C75736172742E6379
:10290000000000002573282564292D3C25733E3ADC
:10291000756E6B6E6F776E2075736172742025789B
:102920000A00000038B50446012C02D10C4800789A
:1029300038BD022C02D10B480078F9E7032C02D1F4
:1029400009480078F4E709A000F0ACF80C4B2C2201
:102950000CA111A0009400F0A5F80220E8E7000007
:102960005D0000205E0000205F000020617070208C
:10297000756E6B6E6F776E207573617274210A00CD
:10298000FD4F0108557365725C7372635C7573610A
:1029900072742E63000000002573282564292D3CE5
:1029A00025733E3A756E6B6E6F776E20757361722C
:1029B000742025780A00000000BFFEE700200149CE
:1029C00008607047082C004040F08001014A116007
:1029D00070470000002C004001200149086070474A
:1029E000A480054210B50348007800F033F8FFF7E3
:1029F000E5FF10BD6600002070B506460C46154682
:102A00000A480078304009490870284600F02AF842
:102A1000204600F033F805480078FFF7D5FFFFF7B0
:102A2000CDFF00F005F8FFF7D7FF70BD660000206E
:102A300008B500208DF8000002208DF80100032069
:102A40008DF8020001208DF803006846FEF702FDB4
:102A500008BD000000F07F01014A116070470000CE
:102A6000002C00400021044A126822F4C071014386
:102A7000014A116070470000042C004008B5002195
:102A800000910749096821F07F01009100F07F0162
:102A9000009A11430091024A0099116008BD00009C
:102AA000042C00400FB4054B10B503A9044A02984A
:102AB00000F018F810BC5DF814FB0000393601086E
:102AC000B40D002002E008C8121F08C1002AFAD184
:102AD00070477047002001E001C1121F002AFBD19E
:102AE000704700002DE9FF4F8DB00F4605460026C8
:102AF00006E025280BD0DDE90F1290476D1C761CEF
:102B000028780028F5D111B03046BDE8F08F0024B8
:102B1000A246A1460122EC4900E0044315F8013F1A
:102B2000203B02FA03F00842F7D128782A2810D077
:102B30006FF02F022878A0F13001092914D80AEB90
:102B40008A0102EB410144F0020400EB010A6D1C12
:102B5000F0E701CF5FEA000A03D544F40054CAF15C
:102B6000000A44F002046D1C28782E2817D115F8AD
:102B7000010F44F004042A280ED06FF02F022878A9
:102B8000A0F1300109290AD809EB890102EB4101C2
:102B900000EB01096D1CF2E757F8049B6D1C2878C7
:102BA0006C280FD006DC4C2817D068280DD06A2876
:102BB00014D104E0742810D07A280FD10DE044F429
:102BC00000140AE044F4801401E044F440146978ED
:102BD000814202D104F580146D1C6D1C2A786E2A86
:102BE0001FD00CDC632A31D004DC002A8BD0582A99
:102BF00011D1A3E0642A68D0692A0CD165E0732A58
:102C00002ED004DC6F2A73D0702A04D19BE0752A81
:102C10006FD0782A6ED01046DDE90F129047761CEF
:102C200050E1C4F30250022806D0032809D004283A
:102C300001CF09D0066045E101CFF117C0E900617D
:102C400040E101CF06803DE106703BE117F8040B3F
:102C50008DF8000000208DF80100EB46012003E014
:102C600057F804BB4FF0FF3061074FF0000102D46A
:102C70000DE008F10101884649450FDA8045F8DB8F
:102C80001BF808100029F4D108E008F1010188467A
:102C90008142FADB1BF808100029F6D1DDE90F2389
:102CA000AAEB08008146214600F036F9304400EBDB
:102CB000080604E0DDE90F121BF8010B9047B8F19C
:102CC0000108F7D221464846F7E00A21C4F302532F
:102CD0004FF0000B0891022B04D001CFC117032B3A
:102CE00009D00AE0FF1D27F00707F7E8020108E016
:102CF00032E01FE020E000B2C117042B01D140B246
:102D0000C117031E71F1000307DA4FF0000CD0EB7E
:102D10000C006CEB01012D2302E0230504D52B23CD
:102D20008DF82430012303E0E30701D02023F7E7E7
:102D3000984658E00A2110E010210EE010204FF0D4
:102D4000000B08900CE010214FF0000B44F004043D
:102D50004FF00809089103E008214FF0000B08919B
:102D6000C4F30253022B04D001CF0021032B06D061
:102D700006E0FF1D27F00707F7E8020103E080B235
:102D8000042B00D1C0B24FF0000823072BD5702AC6
:102D900007D0DDF820C08CF0100C5CEA0B0C05D0DD
:102DA0000EE040238DF82430012308E050EA0103AF
:102DB00006D030238DF824308DF825200223984644
:102DC000DDF820C08CF0080C5CEA0B0C0BD150EA4B
:102DD000010301D1630706D530238DF824304FF06D
:102DE0000108A9F10109582A04D038A20B9208AAB7
:102DF0000A920BE03AA2F9E75B46089AFDF7BDFAA2
:102E00000B9B9B5C0A9A521E0A92137050EA0102B5
:102E1000F2D10A98ADEB000000F1200B600702D55B
:102E200024F4803401E04FF00109D94502DDA9EB1B
:102E30000B0000E0002000EB0B0141440890AAEBDE
:102E4000010AE00306D4DDE90F232146504600F0D5
:102E500063F806444FF0000908E009A911F80900D9
:102E6000DDE90F12904709F10109761CC145F4DB39
:102E7000E0030CD5DDE90F232146504600F04CF865
:102E8000064404E0DDE90F1230209047761C0899D3
:102E9000481E08900029F5DC08E00A980A99007895
:102EA000491C0A91DDE90F129047761CBBF1000125
:102EB000ABF1010BF1DC21465046DDE90F2300F0B8
:102EC00019F806446D1C1BE6092801003031323325
:102ED0003435363738396162636465660000000056
:102EE0003031323334353637383941424344454640
:102EF000000000002DE9F041044600251E4617465B
:102F0000880404D405E039462020B0476D1C641EB7
:102F1000F9D52846BDE8F0812DE9F04104460025A9
:102F20001E469046C80301D5302700E020278804BC
:102F300004D505E041463846B0476D1C641EF9D5FE
:102F40002846BDE8F081002212E00378412B06DB21
:102F500003787A2B03DC0378203B037005E00378C9
:102F6000202B02D1037840330370401C531CDAB28B
:102F70008A42EADB7047002215E00378412B06DB2A
:102F800003785A2B03DC0378403B037008E0037896
:102F9000612B05DB03787A2B02DC0378463B037058
:102FA000401C531CDAB28A42E7DB704710B509486F
:102FB000006868B14FF47A720748016807480068F2
:102FC00000F048FB20B101F003FF00200149086038
:102FD00010BD00000000002034000020040000208C
:102FE00008B58020ADF8000003208DF80200042011
:102FF0008DF8030069462548FDF7C0FD4FF4C05029
:10300000ADF8000003208DF8020010208DF80300B9
:1030100069461F48FDF7B2FD4FF400611C48FDF7FB
:1030200095FE4FF480511A48FDF790FE8020ADF8D0
:10303000000003208DF8020010208DF8030069467F
:103040001448FDF79BFD80211248FDF77FFE4E20BE
:10305000ADF8000003208DF8020010208DF8030069
:1030600069460A48FDF78AFD02210848FDF76CFE13
:1030700004210648FDF768FE08210448FDF766FEB6
:1030800040210248FDF762FE08BD00000014014027
:10309000000801400018014010B56FF00400FEF771
:1030A0002FFD0A4800680A49B0FBF1F00949087091
:1030B0000846007800EB4001C1EBC0104FF6FF71ED
:1030C00001EAC0000449088010BD0000A00D0020E6
:1030D00000127A00BA0D0020BC0D00200146114AF2
:1030E00012884A434FF0E0235A6100229A611A463F
:1030F000126942F001021A6100BF4FF0E02210692C
:1031000000F001021AB100F48032002AF5D04FF02D
:10311000E022126922F001024FF0E0231A6100223E
:103120009A617047BC0D00200146114A12784A434B
:103130004FF0E0235A6100229A611A46126942F068
:1031400001021A6100BF4FF0E022106900F0010295
:103150001AB100F48032002AF5D04FF0E022126953
:1031600022F001024FF0E0231A6100229A617047B9
:10317000BA0D002010B53B48006870B980213A486C
:10318000FDF7D0FD48B9012036490860374800688E
:103190003749086037A0FFF785FC3248006878B1EE
:1031A0003648006860B980212F48FDF7BBFD002834
:1031B00006DD0120314908602C480068304908606C
:1031C0002E480068002831D041F288322748016833
:1031D0002B48006800F03EFA00B32A48006890B916
:1031E0004CF25032264801682148006800F032FA5B
:1031F00048B15520244981F8600001202149086028
:1032000022A0FFF74FFC002016490860184908600B
:103210001A4908601A4908601A4908608021124852
:10322000FDF780FD10B90020144908600D480068C2
:10323000B8B114480068A0B94CF250320B4801688C
:103240000B48006800F006FA58B155200E4981F885
:10325000600001F049FB01200A4908600DA0FFF75A
:1032600021FC10BD14000020001401403400002097
:103270001800002062620A0D000000001C000020FF
:103280002000002024000020C415002063630A0DE4
:103290000000000064640A0D0000000010B51F4823
:1032A000006860B980211E48FDF73CFD38B9012057
:1032B0001A49086001F070FB1AA0FFF7F3FB1748EA
:1032C000006878B11B48006860B980211448FDF798
:1032D00029FD002806DD012016490860164800680F
:1032E0001649086013480068B8B141F288321248A4
:1032F00001681248006800F0ADF930B100200749BC
:1033000008600C4908600D49086080210448FDF7F9
:1033100009FD10B900200749086010BD0800002011
:1033200000140140616120706F776572206F6E0A32
:103330000D0000000C0000203400002010000020D0
:1033400010B54FF0FF3440210C48FDF7F4FC044663
:1033500014B10B48006828B10A48006810B9FFF79B
:103360009DFF09E0012C02D00648006820B1044806
:10337000006808B9FFF7FEFE10BD00000014014010
:10338000080000201400002010B586B00446234831
:10339000FFF77AF84FF40070ADF8140003208DF8B1
:1033A000160018208DF8170005A91D48FDF7E6FB4B
:1033B0004FF48060ADF8140004208DF8170005A9C3
:1033C0001748FDF7DBFB25208DF8000003208DF862
:1033D00001008DF8020001208DF803006846FEF719
:1033E00039F801940020ADF80800ADF80A00ADF8F6
:1033F0000C00ADF810000C20ADF80E0001A9074834
:10340000FFF7ECF8012240F225510448FFF7C1F81C
:1034100001210248FFF72CF806B010BD003801402A
:103420000008014030B589B005460C460121C802AC
:10343000FEF794F901214120FEF790F901211E4881
:10344000FDF728FC4FF40060ADF8200018208DF83F
:10345000230003208DF8220008A91848FDF78EFBF1
:10346000ADF81850ADF814400020ADF81A00ADF8D2
:10347000160005A91248FEF7C1FE7020ADF8040041
:103480000120ADF806000020ADF80C003C20ADF89E
:103490000A0001A90A48FEF7A9FD08210848FEF71D
:1034A000F7FD01210648FEF777FD01210448FEF7EC
:1034B00067FD09B030BD0000C000160000180140D3
:1034C000002C014010B51F48847840211E48FDF7AC
:1034D00032FC28B900201B49887100F037F810BD74
:1034E0001848C07900F0800030B10020154988717B
:1034F0003C2000F02BF822E0282C05DC3C20114970
:10350000887100F023F81AE0282C07DD2C2C05DC4C
:103510004B200C49887100F019F810E02C2C07DDC5
:10352000302C05DC5A200749887100F00FF806E0BE
:10353000302C04DD64200349887100F007F800BFD7
:10354000CDE70000C41500200014014010B504466A
:1035500021460248FEF74FFE10BD0000002C01403E
:1035600070B50546002428E0204601F06AFB0020E3
:1035700001F04AFB0020FDF7E8FD78210020FDF76F
:10358000B5FD0020FDF719FE40210020FDF7AEFD3E
:103590000020FDF712FE002608E029460020FDF776
:1035A000A5FD0020FDF709FE701CC6B2802EF4DBDD
:1035B0000020FDF7E6FD601CC4B2082CD4DB70BD12
:1035C0002DE9F04705460E4617469846DDF820A03F
:1035D00034462BE0204601F034FB404601F014FB5A
:1035E0000020FDF7B2FD78210020FDF77FFD0020CF
:1035F000FDF7E3FD40210020FDF778FD0020FDF7F9
:10360000DCFD4FF000090AE029460020FDF76EFDC1
:103610000020FDF7D2FD09F1010000F0FF09D145BE
:10362000F2DB0020FDF7ADFD601CC4B2781C8442C3
:10363000D0DBBDE8F087000000BF054A128802F029
:103640004002002AF9D0C2B2014B1B1D1A807047FC
:10365000003801400346994204D3C81A904208D961
:1036600001207047C3F1FF300844904201D9012086
:10367000F7E70020F5E710B50220FDF769FF10BD60
:1036800008B5C020ADF8000014208DF80300032019
:103690008DF8020069460448FDF770FAC02102481F
:1036A000FDF754FB08BD0000000C014000B585B0DB
:1036B00021208DF8000000208DF801008DF8020017
:1036C00001208DF803006846FDF7C4FE22208DF826
:1036D000000001208DF802006846FDF7BBFE174888
:1036E000FDF7F4FB0020ADF808004BF6FF70ADF8D5
:1036F0000A009020ADF80C004FF48060ADF80E0089
:103700000001ADF810000E48019001A90B48FDF72B
:1037100003FC012291020948FDF7F4FB012251024A
:103720000648FDF7EFFB012211020448FDF7EAFB12
:1037300001210248FDF7BEFB05B000BD0058004066
:10374000801A060008B54FF44060ADF80000032071
:103750008DF802001C208DF8030069460648FDF72D
:103760000DFA01218805FDF7E9FF00214FF48000E3
:10377000FDF7E4FF08BD0000000C014010B5FFF7A5
:10378000E1FFFFF793FF10BD10B5FFF779FFFFF7DB
:10379000F5FF10BD70B50024002500261A480078FA
:1037A00000F0400000282ED018480068040E17488A
:1037B0000068C0F30745E843C0B2A0421DD11348DA
:1037C0000088C0F3072411480578E843C0B2A0423E
:1037D00013D10F488477807FD02807D140210D482E
:1037E000FDF7A0FA06460EB901F0D6F800F032FA5D
:1037F0000748817F08A0FFF755F90348007820F0BB
:10380000C0000149087070BD680000206C000020F5
:10381000C41500200014014076616C3A3078257898
:10382000200A00001FB54FF40060ADF80C00032023
:103830008DF80E0048208DF80F0003A93E48FDF7D3
:103840009DF95020ADF80C0003208DF80E004820A3
:103850008DF80F0003A93948FDF790F94020FDF7D6
:103860007FF806210020FDF769F940200190002033
:103870008DF8080010208DF8090001208DF80A004D
:1038800001A8FDF787F817208DF8000002208DF8B9
:1038900001008DF8020001208DF803006846FDF755
:1038A000D9FD1020FDF75CF804210020FDF746F952
:1038B0001020019000208DF8080010208DF80900DC
:1038C00001208DF80A0001A8FDF764F80A208DF8A0
:1038D000000002208DF8010001208DF802008DF813
:1038E00003006846FDF7B6FD4FF40060FDF738F8B9
:1038F0000B210320FDF722F94FF400600190002016
:103900008DF8080010208DF8090001208DF80A00BC
:1039100001A8FDF73FF828208DF8000002208DF85F
:10392000010000208DF8020001208DF80300684698
:10393000FDF790FD1FBD000000140140000801408C
:1039400010B5FFF76FFF4721632000F051F910BD5C
:1039500010B54FF400619548FDF7E4F920B14FF43C
:103960000060FDF703F888B910219148FDF7DAF9F6
:1039700018B11020FCF7FAFF40B940218C48FDF740
:10398000D1F9D8B14020FCF7F1FFB8B10020894946
:1039900008808948007840F01000874908708748FF
:1039A0000088552806DB854800885F2802DC012056
:1039B00083490870002081490880F5E07E4800783E
:1039C00000F0100000287DD07B48007800F08000D7
:1039D00000B378480088032809DB76480088082867
:1039E00005DC7848006840007649086083E071484B
:1039F00000880E287FDB6F48008812287BDC714826
:103A0000006840006F4908600846006840F0010007
:103A1000086070E067480088292815DB6548008841
:103A2000302811DC66480078002864D062480078AD
:103A300040F08000604908700020624908606249D7
:103A400008706249087056E05A48008814280FDB55
:103A50005848008819280BDC5B480078401C5A49FC
:103A600008705548007820F080005349087042E003
:103A700050480088C82802DB51480078D8B3544821
:103A8000007800F00800B8B15248007840F010000B
:103A9000504908705048006800F0400060B14F483D
:103AA00000684F49086006204E4908704A4800687F
:103AB00020F04000484908604548007800F00200C6
:103AC000C8B100E063E04348007840F0200041497D
:103AD00008704148006800F0100060B13F4800687D
:103AE0004149086006203F4908703B48006820F0C3
:103AF0001000394908603448007820B9334800780C
:103B0000401C324908703148007821283FD10120FB
:103B1000364908602F48007800F0200020280AD09D
:103B20002D48006800F0100028B92B48006840F0CC
:103B30001000294908602748007800F0100010287C
:103B40000AD02548006800F0400028B922480068E3
:103B500040F04000204908601F48006800F4807071
:103B600028B91D48006840F400601B4908601248ED
:103B7000007800F0800050B10F48007840F040001D
:103B80000D49087012480078002011490870002083
:103B900008490880094908800949087006480078E2
:103BA00020F010000449087010BD0000001401400E
:103BB0000008014070000020680000207200002012
:103BC000740000206C000020A00000207500002080
:103BD000760000207C000020000401403C00002012
:103BE000840000208C00002088000020800000203D
:103BF0007FB504460D4601210846FDF78FFDADF85F
:103C00000850ADF804400020ADF80A00ADF80600F9
:103C10008DF80C0001A94FF08040FEF7EFFA012269
:103C200011469007FEF7D8F901218807FEF7A8F999
:103C300001218807FEF79EF91C208DF80000012065
:103C40008DF803008DF801008DF802006846FDF73D
:103C500001FC7FBD10B501201F49086041031F48CA
:103C6000FDF760F858B901201D4908604FF4FC7059
:103C70001C490880091D0880091D08802AE04FF4AE
:103C800080411648FDF74EF858B9022014490860E3
:103C90004FF4FC7013490880091D0880091D088035
:103CA00018E04FF400410D48FDF73CF858B90320E7
:103CB0000B4908604FF4FC700A490880091D088010
:103CC000091D088006E0002006490831088004200C
:103CD0000349086010BD0000C80000200014014026
:103CE000CC000020380800401A48006800B970472E
:103CF000194801680068401C174A1060022900D06A
:103D0000F5E700201449086012490860134800686C
:103D1000012806D0022808D003280BD0042814D18B
:103D20000DE000200E49088010E000200C49091D1C
:103D300008800BE000200A490831088006E04FF4B3
:103D4000FC7007490831088000E000BF00BF00BFD9
:103D5000CDE70000C8000020D0000020CC000020EB
:103D60003808004070B504460D461748005D00F065
:103D7000400038B31448005D00F0020060B100F06C
:103D800097F94FF4FC7011490880091D0880091D3E
:103D90000880012028600FE000200D4908600D49CF
:103DA00008600D49086028604FF4FC7007490880DE
:103DB000091D0880091D08800348005D20F04000AF
:103DC0000149085570BD0000C415002038080040A6
:103DD0005000002058000020540000207C4890F83B
:103DE0006E0000B970477A4890F87100012849D1F7
:103DF000784800887849088078480068C0B17448DD
:103E000090F8740073490968884208DB704890F89C
:103E10006F007049096808446E49086020E06C48EA
:103E200090F870006B49096808446A49086017E017
:103E3000674890F8740067490968884208DB64485D
:103E400090F86F0063490968081A6249086007E042
:103E50005F4890F870005F490968081A5D4908607A
:103E60005C480068B0F5FA7F02DB00205B4908601F
:103E700058480068002805DC0120584908600020E7
:103E800054490860524890F8710002284AD15148BC
:103E900000885149091D088050480068C0B14C484D
:103EA00090F874004B490968884208DB484890F84C
:103EB0006F004849096808444649086020E04448C2
:103EC00090F870004349096808444249086017E0C7
:103ED0003F4890F874003F490968884208DB3C4835
:103EE00090F86F003B490968081A3A49086007E0F2
:103EF000374890F8700037490968081A3549086052
:103F000034480068B0F5FA7F02DB002033490860CE
:103F100030480068002805DC012030490860002096
:103F20002C4908602A4890F8710003284ED129488E
:103F3000008829490831088028480068C0B1244811
:103F400090F8740023490968884208DB204890F8FB
:103F50006F002049096808441E49086020E01C4899
:103F600090F870001B49096808441A49086017E076
:103F7000174890F8740017490968884208DB14480C
:103F800090F86F0013490968081A1249086007E0A1
:103F90000F4890F870000F490968081A0D49086029
:103FA0000C480068B0F5FA7F06DB00200B4908607A
:103FB0004FF4FA700749086006480068002805DCDD
:103FC00001200649086000200249086000BF09E797
:103FD000C4150020D400002038080040D80000207C
:103FE000144890F8720000B97047124890F87100B8
:103FF000012805D10F4890F8730080000E49088011
:104000000C4890F87100022806D10A4890F8730015
:1040100080000949091D0880064890F871000328AE
:1040200006D1044890F873008000034908310880E5
:1040300000BFD9E7C41500203808004070B5044619
:104040000D463DB3012C04D0022C0CD0032C20D102
:1040500015E00020154908804FF4FC70091D088008
:10406000091D088015E04FF4FC70104908800020FD
:10407000091D08804FF4FC70091D088009E04FF409
:10408000FC700A490880091D08800020091D08806D
:1040900000BF09E000F00CF84FF4FC700349088001
:1040A000091D0880091D088070BD00003808004007
:1040B000002006490860064908600649086006496C
:1040C000086006490860064908607047B000002093
:1040D000B4000020B800002050000020580000204C
:1040E0005400002070B504460D461748005D00F0EE
:1040F000200038B31448005D00F0040060B1FFF701
:10410000D7FF4FF4FC7011490880091D0880091D74
:104110000880012028600FE0002028600C4908601A
:104120000C4908600C4908604FF4FC70074908808E
:10413000091D0880091D08800348005D20F020004B
:104140000149085570BD0000C41500203808004022
:10415000B0000020B4000020B8000020244800680F
:1041600098B14FF4FC702349088023480168006827
:10417000401C214A1060214890F86B00814204DB0A
:1041800000201C490880114608601D480068A8B13D
:104190004FF4FC701749091D08801A48016800682F
:1041A000401C184A1060154890F86C00814205DBED
:1041B00000201049091D0880114608601248006857
:1041C000A8B14FF4FC700B49083108800F48016812
:1041D0000068401C0D4A1060084890F86D0081424C
:1041E00005DB00200349083108801146086070474C
:1041F000B000002038080040BC000020C41500209A
:10420000B4000020C0000020B8000020C40000203E
:1042100070B505460C460948005D00F0800060B1AD
:104220000648005D00F001012846FFF707FF03483C
:10423000005D20F080000149085570BDC4150020C4
:1042400010B50D480068012806D10C4800680C49DB
:1042500008600020084908604CF2503207480168A5
:1042600007480068FFF7F6F920B100F00BF80120CD
:104270000149086010BD00002C000020340000201F
:104280002800002010B50020FCF75FFF9F210020D0
:10429000FCF72CFF0020FCF790FF01210020FCF729
:1042A000E9FE0649887000210846FCF7E3FE034951
:1042B000C8700020FCF765FF10BD0000C415002089
:1042C00000F03CFDFEF78CFE6420FEF707FF05A022
:1042D000FEF7E8FB05E0FFF7CEF900F066FDFCF71E
:1042E000F7FFF8E7656E746572206170700A000070
:1042F00010B50020FFF734F910BD0000F0B587B00D
:1043000006460F460025142102A8FBF74AFF0024A9
:104310004DE004F126002F490D5C642D0FDB642075
:1043200095FBF0F0801C002101EB840102AA50549F
:10433000642095FBF0F100FB1150C5B208E0642049
:1043400095FBF0F0801C002101EB840102AA50547F
:104350000A2D0FDB0A2095FBF0F0801C012101EBF8
:10436000840102AA50540A2095FBF0F100FB115081
:10437000C5B208E00A2095FBF0F0801C012101EB9A
:10438000840102AA5054A81C022101EB840102AA54
:1043900050540120032101EB84015054032C04D11B
:1043A0000020032101EB84015054601CC4B2042C92
:1043B000AFDB802000233246314600901846FFF7DD
:1043C000FFF83B46324602A9032000F099FC07B0F3
:1043D000F0BD0000C415002038B500250020009075
:1043E0000024174890F82C5000BF26E020202041E0
:1043F000284038B1601CC0B28DF8000000208DF854
:10440000010006E0E01DC0B28DF8000000208DF82C
:10441000010044B905F0400028B10D208DF80000DE
:1044200000208DF8010004EB04100D30C2B2002111
:10443000684600F025F9601CC4B2062CD6DB38BDF6
:10444000C415002008B50220ADF8000003208DF847
:10445000020010208DF8030069460948FCF78EFB26
:104460004FF48060ADF8000003208DF802001020AA
:104470008DF8030069460348FCF780FB08BD000087
:10448000001001400014014010B5122000F056FB4E
:10449000AE2000F086FBA12000F071FB1F2000F091
:1044A0009BFB002000F074FB002000F0C3FB052004
:1044B00000F089FB022000F038FBA12000F09EFBF9
:1044C000C82000F04DFB122000F041FBEF2000F06F
:1044D0004DFB152000F089FB082000F01DFBA420F7
:1044E00000F065FBA62000F068FB0020FFF738F81D
:1044F000AF2000F056FB0A20FEF7F0FD10BD10B50E
:10450000FFF7A0FF00F006F8FFF7BEFF00F0A6F8E7
:1045100010BD000010B54FF480610748FCF716FC91
:1045200000F0EEF82820FEF7D9FD00F0E1F80520B4
:10453000FEF7FAFD10BD0000001401402DE9F84F10
:1045400082460F4690469946DDF828B0BAF1010F31
:1045500006D0BAF1020F04D0BAF1030F0BD105E077
:104560000AE0781E3B4901EB401605E0781E3A4907
:1045700001EB001600E000BF00BF3446484600F0E3
:1045800060FB584600F040FB0020FCF7DEFD782180
:104590000020FCF7ABFD0020FCF70FFE40210020BF
:1045A000FCF7A4FD0020FCF708FE00250DE02078B4
:1045B00000F0AEF8014600900020FCF797FD0020C7
:1045C000FCF7FBFDA41C681CC5B24545EFDB0021D0
:1045D0000846FCF78BFD0020FCF7EFFD0020FCF700
:1045E000D0FD09F10101C8B200F02BFB584600F0E4
:1045F0000BFB0020FCF7A9FD78210020FCF776FDDD
:104600000020FCF7DAFD40210020FCF76FFD0020C0
:10461000FCF7D3FD741C00250DE0207800F078F83D
:10462000014600900020FCF761FD0020FCF7C5FD6D
:10463000A41C681CC5B24545EFDB00210846FCF709
:1046400055FD0020FCF7B9FD0020FCF79AFDBDE800
:10465000F88F00001C040020DC0000200EB505A22D
:1046600007CA8DE8070009231C220121684600F0D3
:1046700023F80EBD0906120505030F0D0D000000FD
:10468000F8B506460F46144635462878352804D135
:1046900004F11800C4B26D1CF8BD009429783B46A3
:1046A00010220220FFF74AFF04F11800C4B2287854
:1046B00000B9F1E700BFEFE72DE9F84305460E46E4
:1046C00014461F46A8460CE0009498F800103346A4
:1046D00008220320FFF732FF08F1010804F1080067
:1046E000C4B23800A7F10101CFB2EDD1BDE8F88323
:1046F00010B502210148FCF729FB10BD0010014054
:1047000010B502210148FCF71FFB10BD001001404D
:104710000146002001F00F02054B9A5C40EA0212AC
:10472000D0B21A4602EB21121278104370470000F3
:104730007A0D002010B504460020FCF706FD782114
:104740000020FCF7D3FC0020FCF737FD00210846D1
:10475000FCF7CCFC0020FCF730FD21460020FCF7E4
:10476000C5FC0020FCF729FD0020FCF70AFD10BD68
:1047700070B588B0182102A8FBF713FD00250024AE
:10478000584890F8480000F08000802824D155480F
:1047900090F8480000F07F050020524981F8480059
:1047A00000BF07E04F4904F14900085C02A9085521
:1047B000601CC4B2AC42F5DB294602A8FEF7DBFB65
:1047C000E800C0F1800606EBD670C0F347022B4626
:1047D000012102A8FFF770FF424890F84700012826
:1047E00005D100203F4981F84700FEF7B9FE3D485A
:1047F00090F82A00012805D100203A4981F82A00C2
:10480000FFF7EAFD374890F82500012807D100207E
:10481000344981F8250013210320FFF76FFD31484B
:1048200090F82E0000F0010030B100202D4981F8F1
:104830002E00AF2000F0B5F92A4890F82E0000F0C5
:104840000200022806D10020264981F82E00AE2061
:1048500000F0A7F9234890F82E0000F00400042887
:1048600007D100201F4981F82E0091F82F0000F099
:104870007DF91C4890F82D0000F0800080282ED192
:10488000184890F82D0000F07F050020154981F8A8
:104890002D00002407E0134904F13200085C02A94E
:1048A0000855601CC4B2AC42F5DB294602A8FEF7ED
:1048B0004AFB802000230322114600901846FEF791
:1048C0007FFE05EB45004000C0F1800606EBD67088
:1048D000C0F34703032202A9012000F011FA08B037
:1048E00070BD0000C415002010B51FA0FEF7DAF857
:1048F0000020FEF72BFE4FF47A70FEF7EFFB40210D
:104900002248FCF721FA00210320FFF797FBFFF76D
:10491000EFFC04211E48FCF717FA4FF400611D4814
:10492000FCF712FA4FF480511A48FCF70DFA802177
:104930001748FCF709FA08211448FCF705FA4FF468
:104940007A70FEF7CBFB4FF47A70FEF7C7FB4FF49B
:104950007A70FEF7C3FB4FF47A70FEF7BFFB4FF49B
:104960007A70FEF7BBFB10BD2A2A2A2A2A2A207059
:104970006F7765725F6F66665F73797374656D20BC
:104980002A2A2A2A2A2A0A0D0000000000140140BF
:10499000001801400008014010B518A0FEF782F889
:1049A00001210320FFF74AFBFFF7A2FCFFF756FEA9
:1049B00040211A48FCF7CAF904211948FCF7C6F946
:1049C0004FF400611748FCF7C1F94FF480511548C6
:1049D000FCF7BCF980211248FCF7B8F908210F4810
:1049E000FCF7B4F94FF47A70FEF778FB01200E491A
:1049F00008600E4800680E49086010BD2A2A2A2A5D
:104A00002A2A20706F7765725F6F6E5F7379737497
:104A1000656D202A2A2A2A2A2A0A0D00001401403C
:104A20000018014000080140000000203400002070
:104A30000400002008B50420ADF8000003208DF824
:104A4000020010208DF8030069460748FCF796F82D
:104A500004210548FCF778F90520FEF73FFB042107
:104A60000148FCF773F908BD0018014010B5204853
:104A700090F86100442807D1FFF736FF00201C4959
:104A800081F8610081F86000194890F862005528AB
:104A90002DD118A0FEF706F80020FEF757FD4FF4C1
:104AA0007A70FEF71BFB40211A48FCF74DF90021F4
:104AB0000320FFF7C3FAFFF71BFC4FF47A70FEF7F1
:104AC0000DFB4FF47A70FEF709FB4FF47A70FEF796
:104AD00005FB4FF47A70FEF701FB4FF47A70FEF796
:104AE000FDFAFFF759FF0020014981F8620010BD6F
:104AF000C41500202A2A2A2A2A2A20726573746182
:104B000072742073797374656D202A2A2A2A2A2ADE
:104B10000A0D00000014014010B50446DB20FFF729
:104B200009FE0820FFF706FE10BD10B50446202040
:104B3000FFF700FE2046FFF7FDFD10BD10B504464F
:104B4000FD20FFF7F7FD2046FFF7F4FD10BD10B57F
:104B50000446DA20FFF7EEFD2046FFF7EBFD10BD1F
:104B600010B504462046FFF7E5FD10BD10B504461C
:104B70008120FFF7DFFD2046FFF7DCFD10BD10B5FB
:104B80000446D520FFF7D6FD2046FFF7D3FD10BD24
:104B900010B50446D320FFF7CDFD0020FFF7CAFD76
:104BA00010BD10B504462046FFF7C4FD10BD10B57A
:104BB00004462046FFF7BEFD10BD10B50446204652
:104BC000FFF7B8FD10BD10B50446D820FFF7B2FDC1
:104BD0002046FFF7AFFD10BD10B50446A820FFF733
:104BE000A9FD2046FFF7A6FD10BD10B50446D9204B
:104BF000FFF7A0FD1520FFF79DFD10BD10B5044681
:104C00002046FFF797FD10BD70B504462546E11715
:104C100004EB11710911A4EB0111C8B2FFF78AFD71
:104C20002546E11704EB117109111031C8B2FFF7E5
:104C300081FD70BD10B5044644F04000FFF77AFDD9
:104C400010BD10B5044644F0B000FFF773FD10BD71
:104C50002DE9F04707460D4690469946012F04D0AE
:104C6000022F08D0032F12D10BE0681E00EB80004A
:104C7000204944180CE0681E00EB80001E494418CF
:104C800006E0681E00EB80001C49441800E000BFED
:104C900000BF4046FFF7D5FF4846FFF7B5FF0020AD
:104CA000FCF753FA78210020FCF720FA0020FCF7EB
:104CB00084FA40210020FCF719FA0020FCF77DFA65
:104CC000002609E021780020FCF710FA0020FCF70C
:104CD00074FA641C701CC6B2052EF3DB0021084672
:104CE000FCF704FA0020FCF768FA0020FCF749FA08
:104CF000BDE8F087B3060020630B0020BC05002050
:104D00002DE9F04107460D4690461E462C46334697
:104D1000424660210120FFF79BFF0BE021783346DC
:104D200042463846FFF794FF641CB01DC6B2207897
:104D300000B900E0F2E700BFBDE8F08110B5FEF772
:104D4000ABF94FF4A060FCF7BDFBFCF727FD4FF477
:104D5000E130FEF719FB47216320FCF7D3FF40F257
:104D600071210620FCF75AFA4FF4C0725F21FF2030
:104D7000FDF742FE1E20FEF7B1F900F029F84FF4CE
:104D8000E131242000F032F8FEF7FEFCFEF7D8FDFA
:104D9000FCF7ECFFFFF7B3FB18216320FEF742FBA3
:104DA000FCF7B4FCFFF746FE10BD10B5FFF748FA5C
:104DB00000F0E8F8FFF7DCFC00F090F8FFF756FE93
:104DC000FEF7BEFAFEF7F2F8FEF7E4FC10BD0000B5
:104DD00010B500200349088018210348FBF7E1F9CA
:104DE00010BD000062000020E21600202DE9F05FF7
:104DF00005460E463001FBF7A7FA8146334905FB0D
:104E000001F0FBF7A1FA82464946FBF75FFA074635
:104E10003846FBF79EFA84B22046FBF795FA8346A4
:104E20003946FBF71EFA82464FF08341FBF71CFA26
:104E30008146FBF78EFA80464FF6FF7000EA0414B5
:104E400004EB080084B22248806940F01000204939
:104E500088610846C06940F40020C8611D48406868
:104E600020F47F401B4948600846406840F40B40EE
:104E700048600846C06840F40060C8601448006993
:104E800040F40020124908610846006920F400201F
:104E9000086111480480001D008842F20C0108439B
:104EA0000D49091D08800846008840F4807008807C
:104EB0000846008840F020000880022334220021A8
:104EC0001846FCF761FABDE8F09F000040420F0071
:104ED0000010024000100140084C004010B51F486F
:104EE0000068012806D11E4800681E49086000209D
:104EF0001A4908601C4890F87B0000F0800018B147
:104F000000201A49086002E00120184908604CF2AC
:104F100050321348016813480068FEF79BFB68B1E4
:104F200001200E4908601148006810B1FEF7CAFA66
:104F300004E00E4801680EA0FDF7B4FD0A48C079F0
:104F400000F0800048B108498879FEF7FFFA06486A
:104F5000C07920F080000449C87110BDAC00002069
:104F600034000020A4000020C4150020A800002068
:104F700066616E5F6175746F5F6374726C3A202551
:104F8000640A0D0010B522210120FFF741F9232109
:104F90000220FFF73DF924210320FFF739F90D49DD
:104FA0002220FEF7DFFE0C492320FEF7DBFE0B4933
:104FB0002420FEF7D7FE0A492220FFF793F809497B
:104FC0002320FFF78FF808492420FFF78BF8FFF71D
:104FD00007F810BD500000205800002054000020A9
:104FE000B0000020B4000020B800002050726F63B1
:104FF0005F55617274436F6E74726F6C00555341EC
:1050000052545F67657452656376466C61670055FC
:10501000534152545F636C65617252656376466CAE
:1050200061670055534152545F636C65617252650C
:1050300063764C656E0055534152545F67657452F8
:10504000656376446174610055534152545F5772F1
:1050500069746544617461007850010800000020A3
:10506000C40D0000AE0401084C5A0108C40D002014
:105070001C0E0000D42A0108012C021B010A1AF49C
:105080001D110A237F540A1903642918091B630997
:10509000138C400D07F00FF0188018800FF007F008
:1050A000400D1FF01FF0111011101FF00EE01E0F29
:1050B000E01FF010016D1C700C6020A80910101882
:1050C000300FE007C0301A11247910112902390F6E
:1050D00069407D901CF00C601A01A82908611A1023
:1050E0006C29247112601A703B2914398049306F81
:1050F00007C01EF018301029203902591012045C24
:10510000038004522906120612034B01801069C065
:105110007C1FF00F50299E121FAA0EA09E181FFC84
:105120000FE420193E430E70380D0C201E30131072
:10513000119018F00860AE190239B059E01A1F40FA
:10514000B9B01AC00812301A30183AC010194A11F2
:10515000147003801A702222801E18701CF007B091
:105160003C1CF018601A1E8A1E01F001F01F0A395B
:1051700060480B7010F0119013101E101C61180B7A
:105180006004F00490049007F003CE59F01C100462
:10519000101039703C03E00710AD063002201049B2
:1051A000FE591029401A90843112014A0FE2190267
:1051B0003920780CE207F20412041207FE07FC60A3
:1051C0001112046970294C3C37F037E4511B02047A
:1051D000023C37FE372E49301138088001C0077075
:1051E0000630C01901391459301B07F080116B07C4
:1051F000E0524910896069B069D019880A12FEE04E
:1052000029186950120112021A060239201B1007D0
:10521000DE19023CF00460B0111B1FE0C219324AD3
:1052200004801940298C2938391014C007E0123045
:105230001A30185AC01012F01C3003C0122AF01293
:105240007F0630077001C0D0160207E207F212167F
:105250001C1C07F8382960380B30047004D0059006
:1052600007100660211809FFC08040844084500266
:105270003A70063F4095408E40C45E412B1F80022D
:105280001E3FC07FE0FF821209D008462040203038
:10529000C00F221F100C807E50FF50FF70FF507E09
:1052A000501A8010911CCF3090011E92908B10806C
:1052B00002800B9F90821086108910D0B01CCCB059
:1052C000941E3A931C49222E92109210CCBE511279
:1052D0000F180A39C049204920FFF089382BFFF008
:1052E0000C9A398049C07C8E5095C029020916C09D
:1052F0001408800512021A0508911210AC201F40F4
:10530000C01420805F891F0911C0119488D0D0F982
:10531000C01380929492D0CCD9C01112481C48D0AE
:105320003816A9C019021A50023A7006290E4B40CD
:10533000FFC0236060163E5149453E14427F402025
:105340002942615149462141454B311814127F10C1
:1053500027454545393C4A4949300171090503361D
:1053600049494936064949291E1AFC013159071A8B
:10537000E0011A600429541AEC0131300D043CFCA0
:10538000FCF08080F0FCFC3C04300C070F1F1F1C5D
:10539000181C1F1F0F071A1F014905590C411A013C
:1053A0002319204201300C80E0E0F0703070F0E012
:1053B000E0801AF00171290B2A3001690C1C70F091
:1053C000F024280B0F3F3F7F7060707F3F3FF81A3B
:1053D0007F011A6001590B1A6301690C19242A7F95
:1053E000242A4F9419021B147F021010242A7F2AAA
:1053F0001223130864623649552250330503241CD6
:1054000022411441221C1F14083E081408051208EA
:105410001A50772A080111295D100B201008040288
:105420003E5149453E14427F401029426151494650
:105430002141454B311814127F1027454545393C11
:105440004A49493001710905033649494936064937
:1054500049291E3336361A56051B0814642A1401CE
:105460001969281314080201510906324979413E8D
:105470007E1111117E7F321F3E414141227F042A5D
:105480001C0F180D417F090909013E4149497A7FE6
:1054900086127F14417F412F2040413F017F4C1BEA
:1054A0007F4001280B7F020C027F7F0408107F3CA5
:1054B0002A3E32180D063E4151215E7F09192946C8
:1054C000464618083101017F01013F2C18163F1F85
:1054D0002040201F3F4038403F63140814630708F2
:1054E000700807C71345431974111A024612201495
:1054F00041417F2E04020102045E1A400819FA1885
:105500000F545454787F4844443838444444200568
:105510001C487F38141F18087E090102E61008494C
:105520003F7F080404781C447D40A013443D257F40
:1055300010284419A2112F7C0418047C7C1E293CDD
:105540001B387CFE3E0808141418141B0848461823
:105550000D20043F4440203C4040207C1CA0180902
:105560001C3C4030403C442842100B0C5050503CF6
:105570004464544C4434083641327F14413608297F
:105580009F77023E55554122224F20151824742E34
:1055900024487E4942405D2222225D15167C161564
:1055A0002277160A555555281A010211180B0A0DB3
:1055B0000A0408142A14220401121C140808082AD8
:1055C000010111140205021D44445F44B519FC1881
:1055D000097E2020103E060F7F703318183C405083
:1055E000203C111A223C2822081708342A7D17086B
:1055F000046A5930484540207029262870702826B2
:105600002970702A252A7072290A2B29240F481321
:105610002D2A707E117F49490E515171117C5556CA
:105620005444051C5655560A145455441B457E7265
:1056300024447E4524467D4614457C451930381661
:10564000413E7C0A11227D3845464438384446455F
:10565000383846454605183539384544453822140A
:105660000814222E5149453A3C4142403C3C4042BC
:10567000413C3C4241423C3C4140413C0C106211A7
:105680000C7F1212120C403E014936207318087824
:10569000205456557820781A780F190A197D190F59
:1056A000180F57567824547854580C5252721338A5
:1056B000281B1838281B1838281B183823121824C0
:1056C000497A4024487A411C4A7942051378423885
:1056D00019314A4E4A307A110A097030494A483025
:1056E00030484A4930304A494A05181F31304A4843
:1056F0004A3008082A08083864544C383841422097
:105700007838404221783842412205281D402278CD
:105710000C5052513C7E141414080C5150513C1E34
:105720000909295E081515354EEB2A20501A20FA72
:10573000190A1A490A1A7C0A1808382050507C03A2
:105740001F231B510E051B467CC31A44AF19A0141E
:10575000447C40167F4844404014497F4418087CEC
:105760000812217C78109B2B7C090A29A5281A385D
:1057700047444738304B484B303E417F49493844D5
:105780003854587C151635481E1B1048F01C202034
:1057900048051A48501C20204905102D04057E0597
:1057A00004083C4822013C4245423C3842452278AC
:1057B0003C4340433C38434023780C1160110C4477
:1057C00066554C44486A59482B44640A1B685A0A77
:1057D000200965564D4448695A49240201021C01BA
:1057E0000201051B010109290A1129042C020502E5
:1057F0001D120118147F05153A503E5555412218C7
:105800001408140C444A4A5101180E4A4A4474427E
:105810004142747E1111117EAD280D49367F02017F
:105820000103704E414E700F180D416151494543BF
:105830007F0808087F3E0F123E14417F4118317FD8
:1058400008142241700E010E707F020C027F7F044B
:1058500008107F635D495D633E4141413E413F0128
:105860003F417F09090906635549414101017F51C3
:10587000180B017E010308557F5508637D102563D1
:1058800007487F48075E6101615E384448304C7CC0
:105890002A2A2A144438040408304B4D593028541D
:1058A000544420100F185552223E0402027C3C4AF8
:1058B0004A4A3C143C4020182D7C10284440413278
:1058C0000C30407E2020103E1C2040201C142B2A2F
:1058D0002A603844444438443C047C4470282424DE
:1058E000180C121252141E4C5424043C4A1B3C4007
:1058F00028180818247E241844284210190C107EF9
:10590000100C38443044380A0A4A2A1E044434141D
:105910000C20107804181618084C48384848784865
:10592000484828187C08087C08281840101640545D
:1059300054547C12182D5840380801182F01413D4D
:10594000090710087C02010E0243221E42427E42D9
:105950004222120A7F02423F02423E0A0A7F0A0A9C
:10596000084642221E0403423E02420118097E02FA
:105970004F221F024A4A87192910182A46023F421D
:105980004A46064840201E08464A321E0A4A3E0938
:10599000080E10094E201E04453D0504147F081012
:1059A0001F44241F0404403C100C40422A122A06C3
:1059B00022127B16221440201F12781D0204783F09
:1059C000F01A445B1964100F0204083032027F029F
:1059D00032021222520E180B2A2A2A403824222080
:1059E0007040EB180C060A3E4A4A4A047F04140C25
:1059F0004B1B7E400D28094A7E040545251C0F4B94
:105A0000127C18097E40307E40201008C11D427E65
:105A10000E025019711720180204010234070507FD
:105A2000401008040C020A060E0109050D030B07BD
:105A30000F1C01020320300B0304060708090204AF
:0C5A4000060884A24A04691A0110000044
:0400000508010131BC
:00000001FF
