:020000040800F2
:10000000601600200D2C00082508000827080008AD
:100010002B0800082F080008330800080000000023
:100020000000000000000000000000003708000889
:1000300039080008000000003B0800083D080008DF
:10004000FF050008272C0008272C0008272C000893
:10005000272C0008272C0008272C0008272C000834
:10006000272C0008272C0008272C0008272C000824
:10007000272C0008272C0008272C0008272C000814
:10008000272C0008272C0008272C0008272C000804
:10009000272C0008272C0008272C0008272C0008F4
:1000A000272C0008272C0008272C0008272C0008E4
:1000B000272C0008272C0008272C0008272C0008D4
:1000C000272C0008D112000891130008272C0008E3
:1000D000272C0008BD2E0008272C0008E30200088A
:1000E000BF060008272C0008272C0008272C000832
:1000F000272C0008272C0008272C0008272C000894
:10010000272C0008272C0008272C0008272C000883
:10011000BD030008272C0008272C0008272C000806
:10012000272C0008272C0008272C0008272C000863
:10013000DFF80CD003F00AF8004800472B0700084E
:100140006016002080F308887047000038B5044628
:10015000012C02D1E048007838BD022C02D1DF48E2
:100160000078F9E7042C02D1DD480078F4E7DDA03F
:1001700003F01EF8E14B2A22E1A1E6A0009403F06F
:1001800017F80220E8E738B50446012C03D1002017
:10019000D149087012E0022C03D10020CF49087029
:1001A0000CE0042C03D10020CD49087006E0E14B9F
:1001B0003F22D3A1D7A0009402F0FAFF38BD38B592
:1001C0000446012C03D10020DB49088012E0022CF8
:1001D00003D10020D94908800CE0042C03D1002071
:1001E000D749088006E0D74B5322C5A1C9A0009487
:1001F00002F0DEFF38BD38B504460D46012C05D1AE
:100200001822D149284602F04BFF16E0022C05D1F6
:100210001822CE49284602F043FF0EE0042C05D1F7
:100220001822CB49284602F03BFF06E0C94B682262
:10023000B3A1B8A0009402F0BBFF38BD10B50446CE
:100240001821204602F045FF1822C049204602F03E
:1002500027FF10BD10B586B004464FF48060ADF89E
:10026000140003208DF8160018208DF8170005A93A
:10027000B94801F027FD4FF40060ADF814000420E8
:100280008DF8170005A9B44801F01CFD27208DF852
:10029000000003208DF801008DF8020001208DF888
:1002A0000300684601F0D9F801940020ADF8080079
:1002B000ADF80A00ADF80C00ADF810000C20ADF858
:1002C0000E0001A9A54802F082FA012240F2255150
:1002D000A24802F014FB0121A04802F004FB06B082
:1002E00010BD10B540F225519C4802F008FCA8B1A1
:1002F0009A4802F09AFBC4B293488F490988445443
:100300008D480088401C8C490880084600881728C2
:1003100004DD0020088001206F49087040F225515B
:100320008E4802F020FC10BD10B586B004468C4803
:1003300002F00AFA4FF48060ADF8140003208DF843
:10034000160018208DF8170005A9864801F0BAFCA0
:100350004FF40060ADF8140004208DF8170005A9D3
:10036000804801F0AFFC34208DF8000003208DF8A8
:1003700001008DF8020001208DF80300684601F0AD
:100380006CF801940020ADF80800ADF80A00ADF853
:100390000C00ADF810000C20ADF80E0001A970485B
:1003A00002F015FA012240F225516D4802F0A7FA39
:1003B00001216B4802F097FA06B010BD10B540F26B
:1003C0002551674802F09BFBA8B1654802F02DFB60
:1003D000C4B25E4859490988445458480088401CB2
:1003E0005649088008460088172804DD0020088048
:1003F00001203A49087040F22551594802F0B3FBF8
:1004000010BD2DE9F04705460F4690464FF0000A13
:10041000D146012D04D1304C4B4E4FF018090CE061
:10042000022D04D12D4C494E4FF0180905E0042D42
:1004300003D12B4C464E4FF01809C84503DD4FF051
:10044000FF30BDE8F0870EE02078012808D10020B9
:10045000207042463146384602F022FE0020F0E786
:10046000012002F0B4FD5046411C1FFA81FAB0F59C
:10047000FA6FE9DC4FF0FF30E3E7F8B504460D46CC
:100480001646012C05D132462946344802F0B2FA0C
:1004900017E0022C05D132462946314802F0AAFA6B
:1004A0000FE0042C05D1324629462F4802F0A2FA6B
:1004B00007E02E4B40F25F1211A116A0009402F04B
:1004C00077FEF8BD10B500201C49088018211F4890
:1004D00002F0FFFD10BD000001000020020000201E
:1004E00000000020626F6F7420756E6B6E6F776E08
:1004F000207573617274210A00000000B034000896
:10050000557365725C7372635C75736172742E638C
:10051000000000002573282564292D3C25733E3AF0
:10052000756E6B6E6F776E207573617274202578AF
:100530000A000000C2340008060000200800002065
:1005400004000020D6340008740000208C00002035
:100550005C000020E9340008000C01400048004025
:10056000004C00400010014000380140FB340008FE
:1005700070B505460C4645F2555001F0F3FE28468D
:1005800001F0F3FE204601F0F3FE01F0F4FE01F06D
:10059000F7FE70BD10B501F0EEFE10BD08B50020ED
:1005A0008DF8000002208DF8010003208DF8020074
:1005B00001208DF80300684600F04FFF08BD70B5BC
:1005C00006460C461546124800783040104908701F
:1005D000284602F0E2FA204602F0E8FA0C480078D9
:1005E00002F0FFFA02F008FBFFF7D8FF02F0EFFA83
:1005F00070BD10B50446204602F0F3FA10BD10B5E8
:100600000348007802F0E7FA02F0F6FA10BD0000A5
:100610000A00002008B58020ADF8000003208DF806
:10062000020004208DF803006946584801F04AFB97
:100630004FF4C050ADF8000003208DF802001020E8
:100640008DF803006946524801F03CFB4FF400610D
:100650004F4801F0E4FB4FF480514D4801F0DFFBBF
:100660008020ADF8000003208DF8020010208DF8E6
:1006700003006946474801F025FB8021454801F009
:10068000CEFB4E20ADF8000003208DF802001020B4
:100690008DF8030069463D4801F014FB02213B48F8
:1006A00001F0BFFB0421394801F0BBFB08213748AA
:1006B00001F0B5FB4021354801F0B1FB08BD10B594
:1006C000802000F0A7FFC0B16723334A33A137A0D1
:1006D00002F06EFD40212D4801F0A3FB802000F0C8
:1006E000AAFF0421294801F09AFB0221274801F0C2
:1006F00096FB0121254801F092FB10BD08B50020B2
:10070000009001226946334800F0BFF8BDF80010A0
:1007100031A002F04DFDBDF8000045F2AA5188421B
:1007200001D1002008BD0120FCE708B50125002407
:100730004FF6FF70009000F040F92FA002F038FD56
:10074000FFF7DCFF40B12E4B8C2214A12DA002F04C
:100750002FFD324802F06EFC284600F04DF900F003
:1007600051F9202000F07FF801226946194800F075
:100770009DF809E0641C2A48844203DB1EA002F0B5
:1007800017FD002400F0BEFAF4E700000014014059
:1007900000080140001801400B35000855736572D0
:1007A0005C7372635C6D61696E2E63002D2D257321
:1007B0002D2D25732D2D25642D2D20637075207012
:1007C0006F77657220696E74657272757074200A35
:1007D0000000000004000708464C4153485F4144B4
:1007E00044525F4150503A646174615B305D3D300A
:1007F0007825780A00000000626F6F740A0000001C
:10080000203500082573282564292D3C25733E3AA0
:100810006C6F6164206170700A00000000000108C4
:1008200080841E00704700BFFEE700BFFEE700BFE8
:10083000FEE700BFFEE77047704770477047000053
:100840002DE9F04105460E461746002407E036F82C
:100850001410284601F05FF8AD1C601C84B2BC4245
:10086000F5DBBDE8F08170B5054600242C4606E0B6
:100870004FF0006101EBC42000F04AFF641CFF2C24
:10088000F6D970BD01460888704730B503460C465E
:100890001546002207E01846FFF7F4FF24F812007F
:1008A0009B1C501C82B2AA42F5DB30BD2DE9F05FE3
:1008B00080468A461746B8F1006F02D33748804514
:1008C00001D3BDE8F09F00F0DEFEA8F1006B4FEA17
:1008D000DB26CBF34909C9F58064A74200DC3C461E
:1008E0004DE04FF0006101EBC6204A142C49FFF7A0
:1008F000CCFF00250BE009EB0500294931F8100079
:100900004FF6FF71884200D003E0681C85B2A54213
:10091000F1DB00BFA5421BDA4FF0006101EBC620FE
:1009200000F0F6FE002508E03AF8150005EB090195
:100930001B4A22F81100681C85B2A542F4DB4FF077
:10094000006101EBC6204A141549FFF779FF04E066
:10095000224651464046FFF773FFA74200D10FE001
:10096000761C4FF000090AEB440AA044381B87B2FA
:10097000B7F5806F02DD4FF4806400E03C46B0E7DD
:1009800000BF00F08CFE00BF9BE713B504460122B8
:1009900001A92046FFF78AFF1CBD000000000808DF
:1009A000A400002010B50121124801F076FE0121BB
:1009B00044F27C0001F064FE10BD10B502F0CAFAEA
:1009C000FFF7F0FF4FF4A06000F042FD00F048FA9E
:1009D000FFF720FE4FF4E13002F029FA4FF4E13046
:1009E000FFF7A2FC1E2002F0F2FAFFF76BFD00F009
:1009F00041FB10BD00084E00C54908707047C4484F
:100A00000078704710B50020C2490860C24B1F2211
:100A1000C2A1C7A002F0CCFB10BD10B502460B4628
:100A20000021002000BF04E0545C0444E0B24C1CF0
:100A3000A1B29942F8DB10BD11B9002282750DE018
:100A40004A1C12B90222827508E0012902D1012252
:100A5000827503E0022901D10322827570472DE9D6
:100A6000F04107460D4614461E464EF6AA30208039
:100A700068886080A68217212046FFF7CEFF804657
:100A8000C8F10000E075182221463846FFF7F5FC52
:100A9000BDE8F08170B505460C46264604EBD670DD
:100AA000C0F34F022946A9480068FFF7FFFEA74898
:100AB00000682044A5490860002070BD10B5A44B13
:100AC000622296A1A3A002F073FBAA4802F0B2FA38
:100AD00010BD10B50446A8480078012805D10020B3
:100AE000A54908702046FFF76AFB10BD2DE9FE43BB
:100AF0000746A24CA24D4FF000080026B146002048
:100B000002903846FFF722FB012878D13846FFF7DC
:100B10003AFB1821204602F0DCFA21463846FFF75E
:100B20006AFB18212046FFF778FF064646B1608829
:100B3000944B842279A1CDE9006093A002F038FBA8
:100B4000002E7DD120884EF6AA318842F9D16088E6
:100B5000032806D0042815D0052851D0062870D1C6
:100B600097E0884B8B226DA190A002F021FB814879
:100B7000764908604FF000084FF0000900206549F1
:100B8000086099E06348006820B94FF4006190481C
:100B900002F09FFAA28A8E495E4B1B684FF0100C40
:100BA0000CFB0310211D02F07BFA684800687149B4
:100BB000884210D15748006868B9864800210180F2
:100BC0008348007883490870814840784870FF2046
:100BD0007F49087048704F480068401C4D490860C4
:100BE00008460068802807D101017948FFF752FFC5
:100BF00080460020474908604FF000095CE073E040
:100C0000444800685F4BAE2244A1009072A002F0FD
:100C1000CFFA404800684FF6FF7202EA00116C48B4
:100C2000FFF738FF804601226A495248FFF73EFE2F
:100C3000012202A94F48FFF728FEBDF8080001E095
:100C40003BE036E04F4BB22234A100906DA002F0A1
:100C5000AFFA642002F0BBF94FF00008C1464146EC
:100C60002846FFF7E9FE4B462A4621463846FFF75D
:100C7000F6FE642002F0ABF9FFF720FF674800683A
:100C8000401C664908600846016865A002F090FAB9
:100C900012E04FF00008FFF7B2FE28712879394BB7
:100CA000C1221EA1009061A002F082FA4FF001095A
:100CB00002E04FF0010800BF04E04FF002080120FD
:100CC0002D49087041462846FFF7B6FE4B462A4696
:100CD00021463846FFF7C3FE1821204602F0F9F9F5
:100CE0001821284602F0F5F94C480068012804D183
:100CF0004A48016853A002F05BFA3846FFF7E9FE64
:100D0000BDE8FE8310B50220FFF7F0FE10BD000025
:100D10001800002014000020253500085573657266
:100D20005C7372635C70726F636573732E63000033
:100D30002573282564292D3C25733E3A50726F6334
:100D40005F436C7244617461436E74000C00002058
:100D5000353500082573282564292D3C25733E3A36
:100D60006265666F7265206C6F6164206170700AE5
:100D7000000000000000010810000020A40800206E
:100D8000BC080020433500082573282564292D3C24
:100D900025733E3A636865636B53756D3D25642C1E
:100DA00020636D64313D2564200A000025732825E9
:100DB00064292D3C25733E3A4150505F55504441C3
:100DC00054455F53544152545F434D440A00000060
:100DD000D4080020110000202573282564292D3C0B
:100DE00025733E3A4150505F5550444154455F464B
:100DF000494E4953485F434D4420636E743D25641A
:100E00000A0000002573282564292D3C25733E3AED
:100E1000646174613D307825780A00001C00002070
:100E2000666C6167203D2025640A00002573282533
:100E300064292D3C25733E3A7665723A30782578E0
:100E40000A000000666C6167203D2025642C6A75ED
:100E50006D705F61646472206661696C210A0000D4
:100E600008B54FF47460ADF8000003208DF802005F
:100E700010208DF803006946474800F023FF4FF427
:100E80008061454800F0CDFF4FF48071424800F08A
:100E9000C8FF4FF40071404800F0C3FF4FF44870A2
:100EA000ADF8000003208DF8020010208DF803003B
:100EB00069463A4800F006FF2021384800F0B1FFAB
:100EC0004FF48071354800F0ACFF4FF400713348A7
:100ED00000F0A7FF47F6C030ADF8000003208DF802
:100EE000020010208DF8030069462D4800F0EAFE4C
:100EF00040212B4800F095FF08BD10B54FF480410C
:100F0000264800F08CFF10BD10B54FF480712448C6
:100F100000F087FF4021224800F083FF8021204815
:100F200000F07FFF4FF400711D4800F07AFF4FF48E
:100F300000611B4800F075FF4FF48051184800F025
:100F400070FF4FF40051164800F06BFF642002F070
:100F50003EF84FF48071124800F061FF40211048C4
:100F600000F05DFF80210E4800F059FF4FF4007142
:100F70000B4800F054FF4FF40061094800F04FFFA8
:100F80004FF48051064800F04AFF4FF400510448E6
:100F900000F045FF10BD000000140140000C0140AE
:100FA0000018014000B585B04FF4407000F050FAD1
:100FB00021208DF8000000208DF801008DF802003E
:100FC00001208DF80300684600F047FA22208DF8D2
:100FD000000001208DF80200684600F03EFA002073
:100FE000ADF808004BF6FF70ADF80A009020ADF8A0
:100FF0000C004FF48060ADF80E000001ADF8100059
:10100000FE48019001A9FE4800F0C3FF01229102B1
:10101000FB4801F0A7F801225102F94801F0A2F8BB
:1010200001221102F64801F09DF80121F44801F077
:101030002EF805B000BD08B54FF44060ADF80000D3
:1010400003208DF802001C208DF803006946ED484E
:1010500000F038FE0121880501F039FB00214FF432
:10106000800001F034FB08BD10B5FFF7E4FFFFF787
:1010700099FF10BD08B5C020ADF8000010208DF814
:10108000030003208DF802006946DE4800F01AFED6
:10109000C021DC4800F0C3FEFFF7E6FF08BD10B535
:1010A000D848006820F07040D649086008460068BB
:1010B00040F0405008600120D3490860D349C1F88E
:1010C0009801042001F05FFF0020CF490860042050
:1010D00001F059FF0020CD49C1F8980110BD10B5AD
:1010E000C848006820F07040C6490860084600689B
:1010F00040F0405008600020C349091F0860C34900
:10110000C1F89C01042001F03EFF0120BE49091FE7
:101110000860BE49C1F89C01042001F034FF10BDF5
:1011200010B50024B748006820F07040B549086049
:101130000846006840F0004008600120B24908609D
:1011400001F021FF0120B149C1F8980101F01BFF16
:1011500007E0601CC4B2FA2C03DDFFF7C0FF0120DA
:1011600010BDA948803800680028F2D1A649091F9F
:10117000086000BFF4E710B50020A349091F08600C
:10118000A048006820F070409E490860084600684A
:1011900040F04050086000209C49C1F89C010220AA
:1011A00001F0F1FE01209849091F0860022001F0BA
:1011B000EAFE00209549C1F8980110BD10B5002045
:1011C0009149091F08608F48006820F070408D49E0
:1011D00008600846006840F04050086001208B49D4
:1011E000C1F89C01022001F0CEFE01208649091FB2
:1011F0000860022001F0C7FE00208449C1F8980170
:1012000010BD70B504467F48006820F070407D49ED
:1012100008600846006840F04050086000207A49A5
:10122000091F086000251DE0E00918B1012076497A
:10123000086002E00020744908606006040E022085
:1012400001F0A1FE01207049091F0860022001F091
:101250009AFE00206D49C1F89801022001F093FE2A
:10126000681CC5B2082DDFDB70BD70B505460026D1
:1012700000246448006820F0704062490860084615
:10128000006840F00040086000BF17E000205E49A1
:10129000091F0860022001F076FE01205B49C1F8B9
:1012A00098016006040E58488038006808B1601C38
:1012B000C4B2012001F067FE701CC6B2082EE5DB47
:1012C00015B9FFF77BFF01E0FFF755FF204670BD22
:1012D0000CB500200190009049481430008801901E
:1012E0004748183000880090009800F0010000285E
:1012F0004DD1019800F08200822802D10020019097
:101300000090019800F00200022806D10020019010
:1013100000903F4908703F490870019800F0800034
:10132000802809D13C483B490978405C3449103158
:101330000880002001900090019800F040004028B3
:1013400017D13348007850B92D4810300088314902
:1013500008702F480078401C2D49087006E0284886
:10136000103000882C492B4A1278885400200190B4
:101370000090019800F01000102808D12048008843
:1013800040F001001E4908800020019000900CBD33
:1013900008B5002000901A4814300088009000988A
:1013A00000F48060B0F5806F0AD1154814300088D1
:1013B0004FF6FF3108401249143108800020009098
:1013C000009800F40070B0F5007F0AD10C4814308A
:1013D00000884FF6FF310840094914310880002089
:1013E0000090009800F48070B0F5807F1BD1044815
:1013F000143000884FF6FF6108400FE0801A0600A5
:1014000000580040000C01409C8121420080214294
:101410002000002021000020D41000200B491431AE
:10142000088000200090009800F40060B0F5006F84
:101430000AD10648143000884FF2FF710840034972
:10144000143108800020009008BD000000580040C2
:1014500031490143314A1160704770B500210023C2
:101460000F22C47804B32D4C246804F4E064C4F55E
:10147000E064210AC1F10403CA40447804FA03F18C
:101480008478144021430901254C0678A15504783D
:1014900004F01F050124AC4005786D11AD0005F185
:1014A000E025C5F8004109E0047804F01F05012497
:1014B000AC401C4D0678761145F8264070BD1A4A9E
:1014C0000A400243154B1B1F1A60704739B1134A7B
:1014D000121D12680243114B1B1D1A6006E00F4AD1
:1014E000121D126882430D4B1B1D1A6070470428A1
:1014F00008D14FF0E021096941F004014FF0E022EA
:10150000116107E04FF0E021096921F004014FF07B
:10151000E0221161704700000000FA050CED00E0C8
:1015200000E400E080E100E080FFFF1F002044496C
:101530000860091D0860091D0860091D0860414810
:101540003F4914310860704700213D498279002AE3
:101550003AD00A46126803689A430B461A600A1D7D
:10156000126803689A430B1D1A60027911440A68D5
:1015700003681A430A60324A0832126803689A43C1
:101580002F4B08331A601A1D126803689A432C4BBC
:101590000C331A604279102A0ED11A1F12680368A0
:1015A0001A43274B08331A601A1D126803681A433E
:1015B000234B0C331A600DE02149427911440A682B
:1015C00003681A430A6005E0027911440A68036857
:1015D0009A430A6070470021016001710C2141713A
:1015E0000021817170471649103109680143144A7E
:1015F00010321160704701460020114A14321268FF
:101600000A400AB1012000E0002070470C49143163
:1016100008607047014600200022094B1B6803EA5E
:101620000102074B14331B680B4013B10AB10120B0
:1016300000E0002070470249143108607047000044
:1016400000040140FFFF0F0001460020FE4A106821
:1016500000F03800084310607047FB49096821F02A
:101660000801F94A11601146096801431160704789
:10167000F549096821F01001F34A11601146096823
:10168000014311607047F148EF494860F0484860F5
:101690007047EE48EC494860ED4848607047EA48BA
:1016A000006940F08000E84908617047E648006939
:1016B00040F08000E449086170470420E249C968AD
:1016C00001F0010109B101200EE0DF49C96801F014
:1016D000040109B1022007E0DB49C96801F01001EB
:1016E00009B1032000E00420704700B5024604233E
:1016F000FFF7E3FF034603E0FFF7DFFF0346521E59
:10170000012B01D1002AF7D102B90523184600BDEB
:1017100030B5044604254FF43020FFF7E6FF0546B8
:10172000042D17D1C848006940F00200C64908617D
:1017300008464461006940F0400008614FF43020E1
:10174000FFF7D3FF0546C048006941F6FD71084028
:10175000BD490861284630BD10B504244FF430203F
:10176000FFF7C3FF0446042C16D1B748006940F0C8
:101770000400B54908610846006940F0400008616E
:101780004FF43020FFF7B1FF0446AF48006941F63F
:10179000FB710840AC490861204610BD00B5024607
:1017A0000423FFF78AFF034603E0FFF786FF0346A3
:1017B000521E012B01D1002AF7D102B90523184688
:1017C00000BD10B504244FF43020FFF7E7FF0446B6
:1017D000042C16D19C48006940F004009A49086125
:1017E0000846006940F0400008614FF43020FFF7E0
:1017F000D5FF04469448006941F6FB7108409249C0
:101800000861204610BD00208F49C96901F002011E
:1018100009B1012000E00020704730B5A52504245F
:10182000FFF7F1FF00B100254FF43020FFF75DFF17
:101830000446042C3AD185488349886084488860EE
:101840000846006940F0200008610846006940F041
:10185000400008614FF43020FFF747FF0446042C96
:101860001BD17948006941F6DF710840764908616B
:101870000846006940F01000086176480580E002E3
:10188000FFF733FF0446052C10D06F48006941F67E
:10189000EF7108406C49086108E0052C06D06A48E1
:1018A000006941F6EF71084067490861204630BD84
:1018B00078B506460C46042500200090E802FFF7A4
:1018C00014FF0546042D24D15F48006940F0010053
:1018D0005D4908613480E802FFF707FF0546042DE3
:1018E00010D1B01C0090200C00990880E802FFF78E
:1018F000FCFE05465448006941F6FE710840524915
:10190000086106E05048006941F6FE7108404E4902
:101910000861284678BD70B504460D460426F002DD
:10192000FFF7E3FE0646042E11D14748006940F058
:101930000100454908612580F002FFF7D6FE064602
:101940004148006941F6FE7108403F490861304650
:1019500070BD70B505460E460424E002FFF7C5FED3
:101960000446042C17D139483749886038488860C4
:101970000846006940F0100008612E80E002FFF781
:10198000B4FE0446052C06D02F48006941F6EF71DD
:1019900008402D490861204670BD2DE9F0430446FA
:1019A0004FF6FF763746B046B1460425E443E6B22B
:1019B000C4F30727C4F307484FEA1469E802FFF7A6
:1019C00094FE0546042D49D120481F4988602048CF
:1019D00088600846006940F010000861FF2E06D0BC
:1019E0001C4808300680E802FFF77FFE0546042DFC
:1019F00008D1FF2F06D017480A300780E802FFF70A
:101A000074FE0546042D0AD1B8F1FF0F07D0114826
:101A10000C30A0F80080E802FFF767FE0546042DB1
:101A20000AD1B9F1FF0F07D00A480E30A0F8009094
:101A3000E802FFF75AFE0546052D0FD0024800695F
:101A400041F6EF71084007E000200240230167459E
:101A5000AB89EFCD00F8FF1F664908612846BDE855
:101A6000F08330B5054604244FF43020FFF73DFEE7
:101A70000446042C41D160485E4988605F48886014
:101A80000846006940F0200008610846006940F0FF
:101A9000400008614FF43020FFF727FE0446042C75
:101AA00022D15448006941F6DF710840514908616C
:101AB0000846006940F0100008611DB1002050493F
:101AC000088002E0A5204E4908804FF43020FFF73F
:101AD0000CFE0446052C10D04648006941F6EF7113
:101AE00008404449086108E0052C06D041480069D7
:101AF00041F6DF7108403F490861204630BDF0B52E
:101B000005460E46174604243B483A4988603B4840
:101B10008860E002FFF7E9FD0446042C19D135483E
:101B2000006940F010003349086147F0F800304385
:101B300028433349891C0880E002FFF7D6FD04469C
:101B4000052C06D02B48006941F6EF710840294961
:101B500008612046F0BD2748C069800870472548C5
:101B6000006A704700202349096801F0200109B18B
:101B7000012000E00020704729B11E4A126902438B
:101B80001C4B1A6104E01B4A12698243194B1A610B
:101B9000704701460020012908D1164AD26902F097
:101BA00001020AB1012008E0002006E0114AD268D3
:101BB0000A400AB1012000E0002070470D49C860CA
:101BC000704704200B49C96801F0010109B10120E7
:101BD0000EE00849C96801F0040109B1022007E0DC
:101BE0000449C96801F0100109B1032000E0042094
:101BF000704700000020024023016745AB89EFCD0C
:101C000000F8FF1F10B50446CC48844208D10121DA
:101C1000042000F04FFD0021042000F04BFD46E0C1
:101C2000C748844208D10121082000F043FD00216B
:101C3000082000F03FFD3AE0C248844208D101216B
:101C4000102000F037FD0021102000F033FD2EE0C1
:101C5000BD48844208D10121202000F02BFD002145
:101C6000202000F027FD22E0B848844208D101215D
:101C7000402000F01FFD0021402000F01BFD16E079
:101C8000B348844208D10121802000F013FD0021D7
:101C9000802000F00FFD0AE0AE48844207D1012108
:101CA000801500F007FD0021A01500F003FD10BD18
:101CB00010B50121084600F0FDFC0021012000F0D4
:101CC000F9FC10BD2DE9F041024600250026002058
:101CD00000230024002791F803C00CF00F0591F8B1
:101CE00003C00CF0100CBCF1000F03D091F802C03F
:101CF0004CEA050591F800C0BCF1000F31D0146822
:101D000000202BE04FF0010C0CFA00F3B1F800C0FA
:101D10000CEA03069E4220D183004FF00F0C0CFA10
:101D200003F7BC4305FA03FC4CEA040491F803C032
:101D3000BCF1280F06D14FF0010C0CFA00FCC2F8E0
:101D400014C00AE091F803C0BCF1480F05D14FF070
:101D5000010C0CFA00FCC2F810C0401C0828D1D3BA
:101D60001460B1F800C0BCF1FF0F34DD54680020EE
:101D70002EE000F1080C4FF0010808FA0CF3B1F85E
:101D800000C00CEA03069E4221D183004FF00F0CE5
:101D90000CFA03F7BC4305FA03FC4CEA040491F87F
:101DA00003C0BCF1280F05D100F1080C08FA0CF8AB
:101DB000C2F8148091F803C0BCF1480F07D100F1BC
:101DC000080C4FF0010808FA0CF8C2F81080401C0B
:101DD0000828CED35460BDE8F0814FF6FF71018032
:101DE000022181700421C17070470246002093686F
:101DF0000B400BB1012000E00020704701468868CD
:101E000080B2704702460020D3680B400BB101201E
:101E100000E0002070470146C86880B27047016149
:101E20007047416170470AB1016100E0416170474C
:101E3000C16070474FF480320A43826181618261E0
:101E400082698269704702460020434B18684FF64A
:101E50008073184040EA021008433F4B18607047F7
:101E60003E49C8617047F0B50A46002300240021AE
:101E7000002500F00046B6F1004F02D1364EF16960
:101E800001E0354E7168C0F3034583B200F440169B
:101E9000B6F5401F08D121F070612F4E766826F00C
:101EA00070662D4F7E6012E000F48016B6F5801F3C
:101EB00006D1032606FA05F4A14341F0706106E05D
:101EC000460D360103FA06F6B14341F0706122B1C6
:101ED000460D360103FA06F6314300F00046B6F12E
:101EE000004F02D11C4EF16101E01B4E7160F0BD4C
:101EF00030B500228B071C0F0F2303FA04F2164B98
:101F000008338C1053F824309343134C08348D104D
:101F100044F8253023468C1053F824308C07240FC6
:101F200000FA04F423430C4C08348D1044F8253097
:101F300030BD0A49DC3108607047000000080140EC
:101F4000000C014000100140001401400018014045
:101F5000001C014000200140000001400000204220
:101F600010B50446F748844209D10121480500F024
:101F7000AEFB00214FF4001000F0A9FB08E00121A6
:101F8000880500F0A4FB00214FF4800000F09FFBC7
:101F900010BD2DE9F04385B004460D460026B1463C
:101FA0000427DFF8A483A6884FF6C0700640684671
:101FB00000F0F9FADDF80880E448B8FBF0F01FFA09
:101FC00080F946EA0906A68020884FF6FE7108408F
:101FD00020800026DE49286888420CD82868400006
:101FE000B8FBF0F087B2042F00DA04273E4309F172
:101FF0000100208427E0E8884BF6FF71884206D173
:10200000286800EB4000B8FBF0F087B209E02868D0
:1020100000EBC00101EB0010B8FBF0F087B247F411
:102020008047C7F30B0008B947F0010747F40040A9
:1020300006434FF4967009FB00F04FF47A7190FB61
:10204000F1F0401C2084A683208840F0010020800D
:1020500026884FF6F5300640A8886989084306436C
:102060002680A88929890843208105B0BDE8F0832E
:1020700041F288310160002181804BF6FF71C180FF
:102080000021018141814FF480418181704721B15C
:10209000028842F00102028004E002884FF6FE73DB
:1020A0001A400280704721B1828842F40062828027
:1020B00004E082884FF2FF731A408280704721B19A
:1020C000828842F48052828004E082884EF6FF7358
:1020D0001A408280704721B1028842F480720280E7
:1020E00004E002884FF6FF631A400280704721B176
:1020F000028842F40072028004E002884FF6FF5327
:102100001A400280704721B1028842F48062028046
:1021100004E002884FF6FF331A40028070470A46F7
:10212000002181894FF60173194002F0FE03194323
:102130008181704721B1828942F00102828104E0ED
:1021400082894FF6FE731A408281704721B102885E
:1021500042F04002028004E002884FF6BF731A404A
:10216000028070471AB183880B43838002E0838822
:102170008B4383807047018270470146088AC0B252
:10218000704712B141F0010102E04FF6FE731940B1
:102190000182704708B50246002000900092009826
:1021A000084400900098008808BD21B1028842F4DC
:1021B0000042028003E00288C2F30E0202807047F0
:1021C000B1F5006F04D1028842F40062028004E09D
:1021D00002884FF2FF731A4002807047B1F5005F2A
:1021E00004D1028842F40052028004E002884DF6D5
:1021F000FF731A400280704721B1028842F4805276
:10220000028004E002884EF6FF731A400280704795
:10221000B1F5006F04D1028842F40062028004E04C
:1022200002884FF2FF731A400280704721B1028882
:1022300042F02002028004E002884FF6DF731A4069
:10224000028070470146088B0012704721B1028856
:1022500042F01002028004E002884FF6EF731A4049
:102260000280704721B9028842F08002028004E0B7
:1022700002884FF67F731A4002807047B1F5804F95
:1022800005D0828B4BF6FF731A40828303E0828B6A
:1022900042F480428283704770B5024600240025D4
:1022A00000230020958A138B1B0445EA030626F0C1
:1022B0007F4404EA01068E4201D1012000E00020A3
:1022C00070BD10B501460020002300228B8A0A8BC6
:1022D000120443EA020424F07F4010BD0CB502460C
:1022E000002000230193009300920B0F019321F033
:1022F0007F41019B1BB1009B1433009303E0090C49
:10230000009B18330093009B1B680B400BB101200E
:1023100000E000200CBD002221F07F42D3438382E5
:10232000704730B5024600200023948801F0E06534
:1023300004EA154321F07F41948A0C4054B14BB11B
:10234000012008E00054004000127A0040420F00D3
:10235000A0860100002030BD002221F07F42D3433F
:10236000838270470E49086070470D494860704786
:102370000B49886070474AF6AA20094908607047EF
:102380004CF6CC4006490860704701460020044ADC
:10239000D2680A400AB1012000E000207047000026
:1023A00000300040DF48006840F00100DD4908606F
:1023B00008464068DC490840DA4948600846006839
:1023C000DA490840D74908600846006820F48020B0
:1023D00008600846406820F4FE0048604FF41F0083
:1023E00088607047CF49096821F48031CD4A116077
:1023F0001146096821F480211160B0F5803F03D0B7
:10240000B0F5802F0ED106E0C649096841F480314D
:10241000C44A116007E0C349096841F4A021C14AD8
:10242000116000E000BF00BF704710B501460022F8
:10243000002300204A11012A02D1BA4C236806E089
:10244000022A02D1B74C236A01E0B64C636A01F05C
:102450001F02012494401C400CB1012000E0002028
:1024600010BD38B5002000900024002500BF3120A9
:10247000FFF7DBFF05460098401C00900098B0F580
:10248000A06F01D0002DF2D03120FFF7CEFF08B1B0
:10249000012400E00024204638BD01460020A14A66
:1024A000106820F0F80040EAC10010607047A049B1
:1024B00008607047024600209A4B586820F47C1050
:1024C00042EA01031843974B5860704798490866E1
:1024D000704701460020934A506820F003000843EB
:1024E000506070478F48406800F00C00704701460C
:1024F00000208C4A506820F0F0000843506070477C
:1025000001460020874A506820F4E060084350608C
:10251000704701460020834A506820F4605040EA2A
:10252000C1005060704729B17E4A527A02437D4B08
:102530005A7204E07B4A527A82437A4B5A7270474D
:102540007B49D8310860704701460020754A5068C1
:1025500020F440400843506070470021714A203207
:102560001170704A82F82010012802D004280AD184
:1025700004E001216B4A2032117005E00521694A0F
:102580002032117000E000BF00BF70476949086049
:1025900070476449096A0143624A1162704765499C
:1025A00044390860704730B5002100220024002320
:1025B0005C4D6D6805F00C0121B1042905D0082996
:1025C00023D105E05C4D056022E05B4D05601FE016
:1025D000544D6D6805F47012524D6D6805F48034E9
:1025E000022505EB92421CB9544D554305600BE0A2
:1025F0004C4D6D6805F400351DB1504D55430560D7
:1026000002E04D4D5543056002E04B4D056000BFB3
:1026100000BF444D6D6805F0F0010909484D6B5C41
:102620000568DD4045603F4D6D6805F4E061090ACD
:10263000434D6B5C4568DD4085603A4D6D6805F43F
:102640006051C90A3E4D6B5C4568DD40C560354D43
:102650006D6805F44041890B3A4D6B5CC568B5FB6C
:10266000F3F5056130BD29B12E4A526902432D4B65
:102670005A6104E02B4A526982432A4B5A617047DF
:1026800029B1284A92690243264B9A6104E0254AFF
:1026900092698243234B9A61704729B1214AD269DA
:1026A0000243204BDA6104E01E4AD26982431D4B8B
:1026B000DA61704729B11B4AD2680243194BDA60CC
:1026C00004E0184AD2688243164BDA60704729B199
:1026D000144A12690243134B1A6104E0114A126949
:1026E0008243104B1A6170471249403908607047A5
:1026F0000F49C86470470B49C87170470948406A60
:1027000040F0807007494862704701460020054A42
:1027100092680A400AB1012000E000207047014998
:1027200088727047001002400000FFF8FFFFF6FEBD
:10273000000042428004424200127A0000093D003B
:10274000220000203200002010B50446F7488442E1
:1027500009D101218803FFF7ADFF00214FF480402C
:10276000FFF7A8FF32E0F248844209D10121480472
:10277000FFF7ADFF00214FF40030FFF7A8FF25E081
:10278000EC48844209D101218804FFF7A0FF002111
:102790004FF48020FFF79BFF18E0E748844209D1FF
:1027A0000121C804FFF793FF00214FF40020FFF739
:1027B0008EFF0BE0E148844208D101210805FFF7B4
:1027C00086FF00214FF48010FFF781FF10BD2DE937
:1027D000F04786B005460E460024A24600BFA1463B
:1027E0000027B08900B100BF2F462C8A4CF6FF703D
:1027F0000440F08804432C82AC894EF6F310044068
:10280000B08831890843718908430443AC81AC8A9C
:102810004FF6FF400440B0890443AC8201A8FFF7A3
:10282000C2FEC248874202D1DDF810A001E0DDF807
:102830000CA0A88900F4004040B10AEBCA0000EBEC
:102840000A1031684900B0FBF1F807E00AEBCA0052
:1028500000EB0A1031688900B0FBF1F86420B8FB86
:10286000F0F004012009642101FB1089A88900F41B
:10287000004040B1322000EBC900B0FBF1F000F0A5
:102880000700044308E0322000EB09106421B0FB8C
:10289000F1F000F00F0004432C8106B0BDE8F08792
:1028A0004FF41651016000218180C18001810C210B
:1028B000418100218181704710B502460020108AB5
:1028C0004FF2FF0318400B884C8823438C88234326
:1028D000CC8823431843108210BD00210180418021
:1028E0008180C180704721B1828942F40052828187
:1028F00004E082894DF6FF731A4082817047F0B57B
:102900000346002400260025002040F66A17B9423D
:1029100000D100BF1846C1F3421401F01F06012781
:1029200007FA06F5012C01D10C3004E0022C01D18C
:10293000103000E014301AB107682F43076002E03E
:102940000768AF430760F0BD1AB1838A0B438382E7
:1029500002E0838A8B4383827047028A4FF6F073CA
:102960001A400282028A0A430282704782894FF229
:10297000FF731A40828182890A438281704721B1A4
:10298000828942F00202828104E082894FF6FD735F
:102990001A4082817047028A4FF6DF731A40028222
:1029A000028A0A430282704721B1028A42F48042BD
:1029B000028204E0028A4BF6FF731A4002827047DB
:1029C000C1F308028280704702460020B1F5007F03
:1029D00000D100BF13880B400BB1012000E00020A4
:1029E000704701F40072B2F5007F00D100BFCA4306
:1029F00002807047F0B507460D4616460024402178
:102A00003846FFF7EEFF00BF0CE0295D3846FFF7C0
:102A1000D7FF00BF40213846FFF7D6FF0128F9D184
:102A2000601CC4B2B442F0DBF0BD01468888C0F33C
:102A300008007047818941F0010181817047028B54
:102A4000D2B20283028B42EA012202837047028BD8
:102A500002F47F420283028B0A430283704721B152
:102A6000828A42F02002828204E0828A4FF6DF737B
:102A70001A408282704721B1828A42F0100282821B
:102A800004E0828A4FF6EF731A408282704721B1C8
:102A9000828A42F00802828204E0828A4FF6F7734B
:102AA0001A408282704721B1828942F400428281B9
:102AB00003E08289C2F30E028281704721B1828ACB
:102AC00042F40062828204E0828A4FF2FF731A406D
:102AD00082827047828A4FF6FB731A408282828A12
:102AE0000A438282704721B1828A42F002028282C6
:102AF00004E0828A4FF6FD731A408282704770B5F7
:102B00000246002400230025002040F66A16B14248
:102B100000D100BFC1F3421501F01F03012606FAE0
:102B200003F3012D0CD19689334010E000380140A9
:102B30000044004000480040004C0040005000406D
:102B4000022D02D1168A334001E0968A33400C12DE
:102B5000012606FA04F41688344013B10CB10120A2
:102B600000E0002070BD10B50022002340F66A147A
:102B7000A14200D100BF0A1201249440A3B2DC4359
:102B8000048010BD10B50121C802FFF7A0FD00218F
:102B90004FF40060FFF79BFD10BD0021194A126839
:102BA00022F4C0710143174A1160704708B5002133
:102BB00000911449096821F07F01009100F07F0124
:102BC000009A114300910F4A0099116008BD01203D
:102BD0000D490860704700F07F010A4A121F11601A
:102BE000704740F08001074A121F11607047054886
:102BF000001D0068C0B2704700200249091D08602E
:102C000070470000042C0040A4800542064880471D
:102C100006480047FEE7FEE7FEE7FEE7FEE7FEE7C1
:102C2000FEE7FEE7FEE7FEE70F2D00083101000892
:102C30000CB50020019000906C48006840F4803092
:102C40006A49086000BF6948006800F400300090DD
:102C50000198401C0190009818B90198B0F5A06F38
:102C6000F1D16248006800F4003010B101200090FA
:102C700001E0002000900098012843D15C480068E2
:102C800040F010005A4908600846006820F0030030
:102C900008600846006840F0020008605348406839
:102CA000524948600846406848600846406840F419
:102CB000806048600846406820F47C104860084600
:102CC000406840F4E81048600846006840F08070B2
:102CD000086000BF4548006800F000700028F9D087
:102CE0004248406820F00300404948600846406878
:102CF00040F00200486000BF3C48406800F00C0013
:102D00000828F9D10CBD10B5FFF792FF10BD10B522
:102D10003648006840F001003449086008464068C1
:102D20003449084031494860084600683249084043
:102D30002E4908600846006820F480200860084694
:102D4000406820F4FE0048604FF41F008860FFF7E1
:102D5000DAFF4FF000602949086010BD10B500216E
:102D600000200022214B5B6803F00C0121B10429F3
:102D700006D0082928D107E0214B224C236027E008
:102D80001F4B204C236023E0184B5B6803F470104A
:102D9000164B5B6803F48032022303EB904022B9A8
:102DA000194B4343174C23600DE0104B5B6803F451
:102DB000003323B1144B4343124C236003E0104B08
:102DC0004343104C236003E00D4B0E4C236000BFC7
:102DD00000BF064B5B68C3F303130C4CE15C094B6B
:102DE0001B68CB40074C236010BD00000010024060
:102DF000002002400000FFF8FFFFF6FE08ED00E0B3
:102E000000127A003800002000093D003C0000203C
:102E1000014600BF704700BF484A128802F04002D6
:102E2000002AF9D0C2B2454B1B1D1A80704710B55D
:102E300086B004464FF40070ADF8140003208DF8FE
:102E4000160018208DF8170005A93D48FEF73AFF37
:102E50004FF48060ADF8140004208DF8170005A928
:102E60003748FEF72FFF25208DF8000003208DF84E
:102E700001008DF8020001208DF803006846FEF77E
:102E8000ECFA01940020ADF80800ADF80A00ADF8A6
:102E90000C00ADF810000C20ADF80E0001A9274879
:102EA000FFF795FC012240F225512448FFF727FD4A
:102EB00001212248FFF717FD06B010BD10B521A073
:102EC00000F076F940F225511C48FFF718FE10B3C8
:102ED0001A48FFF7AAFDC4B21C48008800F400405D
:102EE000C8B91A48008800F4804060B10A2C03D0A9
:102EF00000201649088020E01448008840F4004073
:102F00001249088019E00D2C06D11048008840F4C1
:102F100080400E49088010E00C480088C0F30D0086
:102F20000B490C5409480088401C08490880084691
:102F30000088C72801DD0020088010BD003801404E
:102F4000000801407575200A0000000050000020B4
:102F50009111002010B56FF00400FEF7C8FA2E485A
:102F600000682E49B0FBF1F02D4908700846007842
:102F700000EB4001C1EBC0104FF6FF7101EAC00049
:102F80002849088010BD0146254A12784A434FF06F
:102F9000E0235A6100229A611A46126942F0010246
:102FA0001A6100BF4FF0E022106900F001021AB16F
:102FB00000F48032002AF5D04FF0E022126922F0AE
:102FC00001024FF0E0231A6100229A617047014626
:102FD000144A12884A434FF0E0235A6100229A6152
:102FE0001A46126942F001021A6100BF4FF0E02256
:102FF000106900F001021AB100F48032002AF5D005
:103000004FF0E022126922F001024FF0E0231A6132
:1030100000229A61704700003800002000127A00F8
:10302000520000205400002030BF704772B6704735
:1030300062B6704710B5044620680A490840B0F1EE
:10304000005F0ED1084B302208A10DA000F0B0F8AF
:103050006068124908602068FDF774F80F4800683E
:10306000804710BD0000FE2F55350008537973745A
:10307000656D5C7372635C7379732E63000000008E
:103080002573282564292D3C25733E3A61646472BA
:10309000206973206F6B210A000000005800002097
:1030A00040EA01039B0703D009E008C9121F08C0CA
:1030B000042AFAD203E011F8013B00F8013B521E4A
:1030C000F9D27047D2B201E000F8012B491EFBD2C1
:1030D00070470022F6E710B513460A460446194623
:1030E000FFF7F0FF204610BD2DE9F05F05460020F8
:1030F00092469B4688460646814640241BE0284669
:1031000041464746224600F042F853465A46C01A06
:10311000914110D311461846224600F029F82D1A85
:1031200067EB01084F4622460120002100F020F8FD
:1031300017EB00094E41201EA4F10104DFDC4846D4
:1031400031462A464346BDE8F09F0000064C074D35
:1031500006E0E06840F0010394E807009847103467
:10316000AC42F6D3FCF7E8FF64350008843500086C
:10317000202A04DB203A00FA02F100207047914037
:10318000C2F1200320FA03F3194390407047202A2C
:1031900004DB203A21FA02F00021704721FA02F301
:1031A000D040C2F120029140084319467047000008
:1031B0000FB4054B10B503A9044A029800F018F8A3
:1031C00010BC5DF814FB0000172E00084C00002016
:1031D00002E008C8121F08C1002AFAD170477047E0
:1031E000002001E001C1121F002AFBD1704700003E
:1031F0002DE9FF4F8DB09B460F460446002606E0A2
:1032000025280BD05A460F999047641C761C2078CD
:103210000028F5D111B03046BDE8F08F0025A84652
:103220000122984900E0054314F8013F203B02FACF
:1032300003F00842F7D120782E2817D114F8010F97
:1032400045F004052A280ED06FF02F022078A0F157
:10325000300109290AD808EB880102EB410100EB93
:103260000108641CF2E757F8048B641C20786C2872
:103270000DD004DC4C2812D06A2811D104E0742847
:103280000DD07A280CD10AE045F4001507E06178EA
:1032900045F48015814202D1641C05F58015641C3B
:1032A0002278692A45D008DC002AB3D0582A69D090
:1032B000632A10D0642A08D13BE0702A67D0732AB1
:1032C00013D0752A5CD0782A5CD010465A460F99E4
:1032D0009047761CD3E017F8040B8DF8000000200F
:1032E0008DF80100E946012003E057F8049B4FF0F8
:1032F000FF3069074FF0000501D40AE06D1C454519
:103300000DDA8542FADB19F805100029F6D106E03E
:103310006D1C8542FCDB19F805100029F8D12E44FC
:1033200004E019F8010B5A460F9990476D1EF8D228
:10333000A5E00A200021CDE90801C5F302500228CA
:103340000DD001CFC117031E71F100030DDA4FF04C
:10335000000CD0EB0C006CEB01012D2308E0FF1DED
:1033600027F00707F7E80201EDE72B0504D52B232B
:103370008DF8283001233BE0EB0739D02023F7E715
:103380000A2000E010200021CDE9080107E010200C
:10339000002145F00405CDE908014FF00808C5F308
:1033A000025002280FD001CF00214FF0000A2B0756
:1033B0001FD5702A0DD0DDE908C38CF0100C5CEA33
:1033C000030C0CD015E0FF1D27F00707F7E80201FA
:1033D000EBE740228DF828204FF0010A0BE050EA7D
:1033E000010306D030238DF828308DF829200223E0
:1033F0009A46582A04D024A20DF120090B9209E024
:1034000026A2F9E7DDE90823FFF76EFE0B9B9B5C24
:1034100009F8013D50EA0102F4D1ADEB090020307A
:103420000890680701D44FF001080899884502DD2B
:10343000A8EB010000E000208046002506E00AA875
:103440005A46405D0F9990476D1C761C5545F6DB3A
:1034500004E030205A460F999047761CB8F10001DD
:10346000A8F10108F5DC05E019F8010B5A460F999F
:103470009047761C0899481E08900029F4DC641CCB
:10348000C5E60000092801003031323334353637C3
:1034900038396162636465660000000030313233A0
:1034A0003435363738394142434445460000000040
:1034B00055534152545F67657452656376466C613B
:1034C000670055534152545F636C65617252656386
:1034D00076466C61670055534152545F636C656179
:1034E00072526563764C656E0055534152545F6766
:1034F000657452656376446174610055534152545A
:103500005F5772697465446174610045585449316C
:10351000355F31305F49525148616E646C657200AD
:103520006D61696E0050726F635F436C72446174C9
:1035300061436E740050726F635F46696E697368B1
:1035400065640050726F635F5573617274436F6E90
:10355000746F726C004961705F4C6F61645F4170A1
:103560007000000084350008000000205C000000AE
:10357000D0310008E03500085C000020041600008F
:10358000E0310008000000000000000000007F00A3
:103590000000010800000000000000000000000022
:1035A000000000000000000000000102030401020E
:1035B00003040607080902040608000000A24A04E2
:1035C00000000000000000000102030406070809D3
:1035D00000000000000000000000000000000000EB
:0400000508002C0DB6
:00000001FF
